ARM GAS  /tmp/ccNdBunR.s 			page 1


   1              		.cpu cortex-m3
   2              		.eabi_attribute 20, 1
   3              		.eabi_attribute 21, 1
   4              		.eabi_attribute 23, 3
   5              		.eabi_attribute 24, 1
   6              		.eabi_attribute 25, 1
   7              		.eabi_attribute 26, 1
   8              		.eabi_attribute 30, 1
   9              		.eabi_attribute 34, 1
  10              		.eabi_attribute 18, 4
  11              		.file	"gd32f10x_pmu.c"
  12              		.text
  13              	.Ltext0:
  14              		.cfi_sections	.debug_frame
  15              		.section	.text.pmu_deinit,"ax",%progbits
  16              		.align	1
  17              		.global	pmu_deinit
  18              		.syntax unified
  19              		.thumb
  20              		.thumb_func
  21              		.fpu softvfp
  23              	pmu_deinit:
  24              	.LFB65:
  25              		.file 1 "Drivers/GD32F1xx_standard_peripheral/Source/gd32f10x_pmu.c"
   1:Drivers/GD32F1xx_standard_peripheral/Source/gd32f10x_pmu.c **** /*!
   2:Drivers/GD32F1xx_standard_peripheral/Source/gd32f10x_pmu.c ****     \file    gd32f10x_pmu.c
   3:Drivers/GD32F1xx_standard_peripheral/Source/gd32f10x_pmu.c ****     \brief   PMU driver
   4:Drivers/GD32F1xx_standard_peripheral/Source/gd32f10x_pmu.c **** 
   5:Drivers/GD32F1xx_standard_peripheral/Source/gd32f10x_pmu.c ****     \version 2014-12-26, V1.0.0, firmware for GD32F10x
   6:Drivers/GD32F1xx_standard_peripheral/Source/gd32f10x_pmu.c ****     \version 2017-06-20, V2.0.0, firmware for GD32F10x
   7:Drivers/GD32F1xx_standard_peripheral/Source/gd32f10x_pmu.c ****     \version 2018-07-31, V2.1.0, firmware for GD32F10x
   8:Drivers/GD32F1xx_standard_peripheral/Source/gd32f10x_pmu.c **** */
   9:Drivers/GD32F1xx_standard_peripheral/Source/gd32f10x_pmu.c **** 
  10:Drivers/GD32F1xx_standard_peripheral/Source/gd32f10x_pmu.c **** /*
  11:Drivers/GD32F1xx_standard_peripheral/Source/gd32f10x_pmu.c ****     Copyright (c) 2018, GigaDevice Semiconductor Inc.
  12:Drivers/GD32F1xx_standard_peripheral/Source/gd32f10x_pmu.c **** 
  13:Drivers/GD32F1xx_standard_peripheral/Source/gd32f10x_pmu.c ****     All rights reserved.
  14:Drivers/GD32F1xx_standard_peripheral/Source/gd32f10x_pmu.c **** 
  15:Drivers/GD32F1xx_standard_peripheral/Source/gd32f10x_pmu.c ****     Redistribution and use in source and binary forms, with or without modification, 
  16:Drivers/GD32F1xx_standard_peripheral/Source/gd32f10x_pmu.c **** are permitted provided that the following conditions are met:
  17:Drivers/GD32F1xx_standard_peripheral/Source/gd32f10x_pmu.c **** 
  18:Drivers/GD32F1xx_standard_peripheral/Source/gd32f10x_pmu.c ****     1. Redistributions of source code must retain the above copyright notice, this 
  19:Drivers/GD32F1xx_standard_peripheral/Source/gd32f10x_pmu.c ****        list of conditions and the following disclaimer.
  20:Drivers/GD32F1xx_standard_peripheral/Source/gd32f10x_pmu.c ****     2. Redistributions in binary form must reproduce the above copyright notice, 
  21:Drivers/GD32F1xx_standard_peripheral/Source/gd32f10x_pmu.c ****        this list of conditions and the following disclaimer in the documentation 
  22:Drivers/GD32F1xx_standard_peripheral/Source/gd32f10x_pmu.c ****        and/or other materials provided with the distribution.
  23:Drivers/GD32F1xx_standard_peripheral/Source/gd32f10x_pmu.c ****     3. Neither the name of the copyright holder nor the names of its contributors 
  24:Drivers/GD32F1xx_standard_peripheral/Source/gd32f10x_pmu.c ****        may be used to endorse or promote products derived from this software without 
  25:Drivers/GD32F1xx_standard_peripheral/Source/gd32f10x_pmu.c ****        specific prior written permission.
  26:Drivers/GD32F1xx_standard_peripheral/Source/gd32f10x_pmu.c **** 
  27:Drivers/GD32F1xx_standard_peripheral/Source/gd32f10x_pmu.c ****     THIS SOFTWARE IS PROVIDED BY THE COPYRIGHT HOLDERS AND CONTRIBUTORS "AS IS" 
  28:Drivers/GD32F1xx_standard_peripheral/Source/gd32f10x_pmu.c **** AND ANY EXPRESS OR IMPLIED WARRANTIES, INCLUDING, BUT NOT LIMITED TO, THE IMPLIED 
  29:Drivers/GD32F1xx_standard_peripheral/Source/gd32f10x_pmu.c **** WARRANTIES OF MERCHANTABILITY AND FITNESS FOR A PARTICULAR PURPOSE ARE DISCLAIMED. 
  30:Drivers/GD32F1xx_standard_peripheral/Source/gd32f10x_pmu.c **** IN NO EVENT SHALL THE COPYRIGHT HOLDER OR CONTRIBUTORS BE LIABLE FOR ANY DIRECT, 
  31:Drivers/GD32F1xx_standard_peripheral/Source/gd32f10x_pmu.c **** INDIRECT, INCIDENTAL, SPECIAL, EXEMPLARY, OR CONSEQUENTIAL DAMAGES (INCLUDING, BUT 
  32:Drivers/GD32F1xx_standard_peripheral/Source/gd32f10x_pmu.c **** NOT LIMITED TO, PROCUREMENT OF SUBSTITUTE GOODS OR SERVICES; LOSS OF USE, DATA, OR 
  33:Drivers/GD32F1xx_standard_peripheral/Source/gd32f10x_pmu.c **** PROFITS; OR BUSINESS INTERRUPTION) HOWEVER CAUSED AND ON ANY THEORY OF LIABILITY, 
ARM GAS  /tmp/ccNdBunR.s 			page 2


  34:Drivers/GD32F1xx_standard_peripheral/Source/gd32f10x_pmu.c **** WHETHER IN CONTRACT, STRICT LIABILITY, OR TORT (INCLUDING NEGLIGENCE OR OTHERWISE) 
  35:Drivers/GD32F1xx_standard_peripheral/Source/gd32f10x_pmu.c **** ARISING IN ANY WAY OUT OF THE USE OF THIS SOFTWARE, EVEN IF ADVISED OF THE POSSIBILITY 
  36:Drivers/GD32F1xx_standard_peripheral/Source/gd32f10x_pmu.c **** OF SUCH DAMAGE.
  37:Drivers/GD32F1xx_standard_peripheral/Source/gd32f10x_pmu.c **** */
  38:Drivers/GD32F1xx_standard_peripheral/Source/gd32f10x_pmu.c **** 
  39:Drivers/GD32F1xx_standard_peripheral/Source/gd32f10x_pmu.c **** #include "gd32f10x_pmu.h"
  40:Drivers/GD32F1xx_standard_peripheral/Source/gd32f10x_pmu.c **** 
  41:Drivers/GD32F1xx_standard_peripheral/Source/gd32f10x_pmu.c **** /*!
  42:Drivers/GD32F1xx_standard_peripheral/Source/gd32f10x_pmu.c ****     \brief      reset PMU register
  43:Drivers/GD32F1xx_standard_peripheral/Source/gd32f10x_pmu.c ****     \param[in]  none
  44:Drivers/GD32F1xx_standard_peripheral/Source/gd32f10x_pmu.c ****     \param[out] none
  45:Drivers/GD32F1xx_standard_peripheral/Source/gd32f10x_pmu.c ****     \retval     none
  46:Drivers/GD32F1xx_standard_peripheral/Source/gd32f10x_pmu.c **** */
  47:Drivers/GD32F1xx_standard_peripheral/Source/gd32f10x_pmu.c **** void pmu_deinit(void)
  48:Drivers/GD32F1xx_standard_peripheral/Source/gd32f10x_pmu.c **** {
  26              		.loc 1 48 0
  27              		.cfi_startproc
  28              		@ args = 0, pretend = 0, frame = 0
  29              		@ frame_needed = 0, uses_anonymous_args = 0
  30 0000 08B5     		push	{r3, lr}
  31              	.LCFI0:
  32              		.cfi_def_cfa_offset 8
  33              		.cfi_offset 3, -8
  34              		.cfi_offset 14, -4
  49:Drivers/GD32F1xx_standard_peripheral/Source/gd32f10x_pmu.c ****     /* reset PMU */
  50:Drivers/GD32F1xx_standard_peripheral/Source/gd32f10x_pmu.c ****     rcu_periph_reset_enable(RCU_PMURST);
  35              		.loc 1 50 0
  36 0002 40F21C40 		movw	r0, #1052
  37 0006 FFF7FEFF 		bl	rcu_periph_reset_enable
  38              	.LVL0:
  51:Drivers/GD32F1xx_standard_peripheral/Source/gd32f10x_pmu.c ****     rcu_periph_reset_disable(RCU_PMURST);
  39              		.loc 1 51 0
  40 000a 40F21C40 		movw	r0, #1052
  41 000e FFF7FEFF 		bl	rcu_periph_reset_disable
  42              	.LVL1:
  43 0012 08BD     		pop	{r3, pc}
  44              		.cfi_endproc
  45              	.LFE65:
  47              		.section	.text.pmu_lvd_select,"ax",%progbits
  48              		.align	1
  49              		.global	pmu_lvd_select
  50              		.syntax unified
  51              		.thumb
  52              		.thumb_func
  53              		.fpu softvfp
  55              	pmu_lvd_select:
  56              	.LFB66:
  52:Drivers/GD32F1xx_standard_peripheral/Source/gd32f10x_pmu.c **** }
  53:Drivers/GD32F1xx_standard_peripheral/Source/gd32f10x_pmu.c **** 
  54:Drivers/GD32F1xx_standard_peripheral/Source/gd32f10x_pmu.c **** /*!
  55:Drivers/GD32F1xx_standard_peripheral/Source/gd32f10x_pmu.c ****     \brief      select low voltage detector threshold
  56:Drivers/GD32F1xx_standard_peripheral/Source/gd32f10x_pmu.c ****     \param[in]  lvdt_n:
  57:Drivers/GD32F1xx_standard_peripheral/Source/gd32f10x_pmu.c ****                 only one parameter can be selected which is shown as below:
  58:Drivers/GD32F1xx_standard_peripheral/Source/gd32f10x_pmu.c ****       \arg        PMU_LVDT_0: voltage threshold is 2.2V
  59:Drivers/GD32F1xx_standard_peripheral/Source/gd32f10x_pmu.c ****       \arg        PMU_LVDT_1: voltage threshold is 2.3V
  60:Drivers/GD32F1xx_standard_peripheral/Source/gd32f10x_pmu.c ****       \arg        PMU_LVDT_2: voltage threshold is 2.4V
  61:Drivers/GD32F1xx_standard_peripheral/Source/gd32f10x_pmu.c ****       \arg        PMU_LVDT_3: voltage threshold is 2.5V
ARM GAS  /tmp/ccNdBunR.s 			page 3


  62:Drivers/GD32F1xx_standard_peripheral/Source/gd32f10x_pmu.c ****       \arg        PMU_LVDT_4: voltage threshold is 2.6V
  63:Drivers/GD32F1xx_standard_peripheral/Source/gd32f10x_pmu.c ****       \arg        PMU_LVDT_5: voltage threshold is 2.7V
  64:Drivers/GD32F1xx_standard_peripheral/Source/gd32f10x_pmu.c ****       \arg        PMU_LVDT_6: voltage threshold is 2.8V
  65:Drivers/GD32F1xx_standard_peripheral/Source/gd32f10x_pmu.c ****       \arg        PMU_LVDT_7: voltage threshold is 2.9V
  66:Drivers/GD32F1xx_standard_peripheral/Source/gd32f10x_pmu.c ****     \param[out] none
  67:Drivers/GD32F1xx_standard_peripheral/Source/gd32f10x_pmu.c ****     \retval     none
  68:Drivers/GD32F1xx_standard_peripheral/Source/gd32f10x_pmu.c **** */
  69:Drivers/GD32F1xx_standard_peripheral/Source/gd32f10x_pmu.c **** void pmu_lvd_select(uint32_t lvdt_n)
  70:Drivers/GD32F1xx_standard_peripheral/Source/gd32f10x_pmu.c **** {
  57              		.loc 1 70 0
  58              		.cfi_startproc
  59              		@ args = 0, pretend = 0, frame = 0
  60              		@ frame_needed = 0, uses_anonymous_args = 0
  61              		@ link register save eliminated.
  62              	.LVL2:
  71:Drivers/GD32F1xx_standard_peripheral/Source/gd32f10x_pmu.c ****     /* disable LVD */
  72:Drivers/GD32F1xx_standard_peripheral/Source/gd32f10x_pmu.c ****     PMU_CTL &= ~PMU_CTL_LVDEN;
  63              		.loc 1 72 0
  64 0000 084B     		ldr	r3, .L4
  65 0002 1A68     		ldr	r2, [r3]
  66 0004 22F01002 		bic	r2, r2, #16
  67 0008 1A60     		str	r2, [r3]
  73:Drivers/GD32F1xx_standard_peripheral/Source/gd32f10x_pmu.c ****     /* clear LVDT bits */
  74:Drivers/GD32F1xx_standard_peripheral/Source/gd32f10x_pmu.c ****     PMU_CTL &= ~PMU_CTL_LVDT;
  68              		.loc 1 74 0
  69 000a 1A68     		ldr	r2, [r3]
  70 000c 22F0E002 		bic	r2, r2, #224
  71 0010 1A60     		str	r2, [r3]
  75:Drivers/GD32F1xx_standard_peripheral/Source/gd32f10x_pmu.c ****     /* set LVDT bits according to lvdt_n */
  76:Drivers/GD32F1xx_standard_peripheral/Source/gd32f10x_pmu.c ****     PMU_CTL |= lvdt_n;
  72              		.loc 1 76 0
  73 0012 1A68     		ldr	r2, [r3]
  74 0014 1043     		orrs	r0, r0, r2
  75              	.LVL3:
  76 0016 1860     		str	r0, [r3]
  77:Drivers/GD32F1xx_standard_peripheral/Source/gd32f10x_pmu.c ****     /* enable LVD */
  78:Drivers/GD32F1xx_standard_peripheral/Source/gd32f10x_pmu.c ****     PMU_CTL |= PMU_CTL_LVDEN;
  77              		.loc 1 78 0
  78 0018 1A68     		ldr	r2, [r3]
  79 001a 42F01002 		orr	r2, r2, #16
  80 001e 1A60     		str	r2, [r3]
  81 0020 7047     		bx	lr
  82              	.L5:
  83 0022 00BF     		.align	2
  84              	.L4:
  85 0024 00700040 		.word	1073770496
  86              		.cfi_endproc
  87              	.LFE66:
  89              		.section	.text.pmu_lvd_disable,"ax",%progbits
  90              		.align	1
  91              		.global	pmu_lvd_disable
  92              		.syntax unified
  93              		.thumb
  94              		.thumb_func
  95              		.fpu softvfp
  97              	pmu_lvd_disable:
  98              	.LFB67:
ARM GAS  /tmp/ccNdBunR.s 			page 4


  79:Drivers/GD32F1xx_standard_peripheral/Source/gd32f10x_pmu.c **** }
  80:Drivers/GD32F1xx_standard_peripheral/Source/gd32f10x_pmu.c **** 
  81:Drivers/GD32F1xx_standard_peripheral/Source/gd32f10x_pmu.c **** /*!
  82:Drivers/GD32F1xx_standard_peripheral/Source/gd32f10x_pmu.c ****     \brief      disable PMU lvd
  83:Drivers/GD32F1xx_standard_peripheral/Source/gd32f10x_pmu.c ****     \param[in]  none
  84:Drivers/GD32F1xx_standard_peripheral/Source/gd32f10x_pmu.c ****     \param[out] none
  85:Drivers/GD32F1xx_standard_peripheral/Source/gd32f10x_pmu.c ****     \retval     none
  86:Drivers/GD32F1xx_standard_peripheral/Source/gd32f10x_pmu.c **** */
  87:Drivers/GD32F1xx_standard_peripheral/Source/gd32f10x_pmu.c **** void pmu_lvd_disable(void)
  88:Drivers/GD32F1xx_standard_peripheral/Source/gd32f10x_pmu.c **** {
  99              		.loc 1 88 0
 100              		.cfi_startproc
 101              		@ args = 0, pretend = 0, frame = 0
 102              		@ frame_needed = 0, uses_anonymous_args = 0
 103              		@ link register save eliminated.
  89:Drivers/GD32F1xx_standard_peripheral/Source/gd32f10x_pmu.c ****     /* disable LVD */
  90:Drivers/GD32F1xx_standard_peripheral/Source/gd32f10x_pmu.c ****     PMU_CTL &= ~PMU_CTL_LVDEN;
 104              		.loc 1 90 0
 105 0000 024A     		ldr	r2, .L7
 106 0002 1368     		ldr	r3, [r2]
 107 0004 23F01003 		bic	r3, r3, #16
 108 0008 1360     		str	r3, [r2]
 109 000a 7047     		bx	lr
 110              	.L8:
 111              		.align	2
 112              	.L7:
 113 000c 00700040 		.word	1073770496
 114              		.cfi_endproc
 115              	.LFE67:
 117              		.section	.text.pmu_to_sleepmode,"ax",%progbits
 118              		.align	1
 119              		.global	pmu_to_sleepmode
 120              		.syntax unified
 121              		.thumb
 122              		.thumb_func
 123              		.fpu softvfp
 125              	pmu_to_sleepmode:
 126              	.LFB68:
  91:Drivers/GD32F1xx_standard_peripheral/Source/gd32f10x_pmu.c **** }
  92:Drivers/GD32F1xx_standard_peripheral/Source/gd32f10x_pmu.c **** 
  93:Drivers/GD32F1xx_standard_peripheral/Source/gd32f10x_pmu.c **** /*!
  94:Drivers/GD32F1xx_standard_peripheral/Source/gd32f10x_pmu.c ****     \brief      PMU work at sleep mode
  95:Drivers/GD32F1xx_standard_peripheral/Source/gd32f10x_pmu.c ****     \param[in]  sleepmodecmd:
  96:Drivers/GD32F1xx_standard_peripheral/Source/gd32f10x_pmu.c ****                 only one parameter can be selected which is shown as below:
  97:Drivers/GD32F1xx_standard_peripheral/Source/gd32f10x_pmu.c ****       \arg        WFI_CMD: use WFI command
  98:Drivers/GD32F1xx_standard_peripheral/Source/gd32f10x_pmu.c ****       \arg        WFE_CMD: use WFE command
  99:Drivers/GD32F1xx_standard_peripheral/Source/gd32f10x_pmu.c ****     \param[out] none
 100:Drivers/GD32F1xx_standard_peripheral/Source/gd32f10x_pmu.c ****     \retval     none
 101:Drivers/GD32F1xx_standard_peripheral/Source/gd32f10x_pmu.c **** */
 102:Drivers/GD32F1xx_standard_peripheral/Source/gd32f10x_pmu.c **** void pmu_to_sleepmode(uint8_t sleepmodecmd)
 103:Drivers/GD32F1xx_standard_peripheral/Source/gd32f10x_pmu.c **** {
 127              		.loc 1 103 0
 128              		.cfi_startproc
 129              		@ args = 0, pretend = 0, frame = 0
 130              		@ frame_needed = 0, uses_anonymous_args = 0
 131              		@ link register save eliminated.
 132              	.LVL4:
ARM GAS  /tmp/ccNdBunR.s 			page 5


 104:Drivers/GD32F1xx_standard_peripheral/Source/gd32f10x_pmu.c ****     /* clear sleepdeep bit of Cortex-M3 system control register */
 105:Drivers/GD32F1xx_standard_peripheral/Source/gd32f10x_pmu.c ****     SCB->SCR &= ~((uint32_t)SCB_SCR_SLEEPDEEP_Msk);
 133              		.loc 1 105 0
 134 0000 044A     		ldr	r2, .L13
 135 0002 1369     		ldr	r3, [r2, #16]
 136 0004 23F00403 		bic	r3, r3, #4
 137 0008 1361     		str	r3, [r2, #16]
 106:Drivers/GD32F1xx_standard_peripheral/Source/gd32f10x_pmu.c ****     
 107:Drivers/GD32F1xx_standard_peripheral/Source/gd32f10x_pmu.c ****     /* select WFI or WFE command to enter sleep mode */
 108:Drivers/GD32F1xx_standard_peripheral/Source/gd32f10x_pmu.c ****     if(WFI_CMD == sleepmodecmd){
 138              		.loc 1 108 0
 139 000a 08B1     		cbz	r0, .L12
 109:Drivers/GD32F1xx_standard_peripheral/Source/gd32f10x_pmu.c ****         __WFI();
 110:Drivers/GD32F1xx_standard_peripheral/Source/gd32f10x_pmu.c ****     }else{
 111:Drivers/GD32F1xx_standard_peripheral/Source/gd32f10x_pmu.c ****         __WFE();
 140              		.loc 1 111 0
 141              		.syntax unified
 142              	@ 111 "Drivers/GD32F1xx_standard_peripheral/Source/gd32f10x_pmu.c" 1
 143 000c 20BF     		wfe
 144              	@ 0 "" 2
 145              		.thumb
 146              		.syntax unified
 147 000e 7047     		bx	lr
 148              	.L12:
 109:Drivers/GD32F1xx_standard_peripheral/Source/gd32f10x_pmu.c ****         __WFI();
 149              		.loc 1 109 0
 150              		.syntax unified
 151              	@ 109 "Drivers/GD32F1xx_standard_peripheral/Source/gd32f10x_pmu.c" 1
 152 0010 30BF     		wfi
 153              	@ 0 "" 2
 154              		.thumb
 155              		.syntax unified
 156 0012 7047     		bx	lr
 157              	.L14:
 158              		.align	2
 159              	.L13:
 160 0014 00ED00E0 		.word	-536810240
 161              		.cfi_endproc
 162              	.LFE68:
 164              		.section	.text.pmu_to_deepsleepmode,"ax",%progbits
 165              		.align	1
 166              		.global	pmu_to_deepsleepmode
 167              		.syntax unified
 168              		.thumb
 169              		.thumb_func
 170              		.fpu softvfp
 172              	pmu_to_deepsleepmode:
 173              	.LFB69:
 112:Drivers/GD32F1xx_standard_peripheral/Source/gd32f10x_pmu.c ****     }
 113:Drivers/GD32F1xx_standard_peripheral/Source/gd32f10x_pmu.c **** }
 114:Drivers/GD32F1xx_standard_peripheral/Source/gd32f10x_pmu.c **** 
 115:Drivers/GD32F1xx_standard_peripheral/Source/gd32f10x_pmu.c **** /*!
 116:Drivers/GD32F1xx_standard_peripheral/Source/gd32f10x_pmu.c ****     \brief      PMU work at deepsleep mode
 117:Drivers/GD32F1xx_standard_peripheral/Source/gd32f10x_pmu.c ****     \param[in]  ldo:
 118:Drivers/GD32F1xx_standard_peripheral/Source/gd32f10x_pmu.c ****                 only one parameter can be selected which is shown as below:
 119:Drivers/GD32F1xx_standard_peripheral/Source/gd32f10x_pmu.c ****       \arg        PMU_LDO_NORMAL: LDO work at normal power mode when pmu enter deepsleep mode
 120:Drivers/GD32F1xx_standard_peripheral/Source/gd32f10x_pmu.c ****       \arg        PMU_LDO_LOWPOWER: LDO work at low power mode when pmu enter deepsleep mode
ARM GAS  /tmp/ccNdBunR.s 			page 6


 121:Drivers/GD32F1xx_standard_peripheral/Source/gd32f10x_pmu.c ****     \param[in]  deepsleepmodecmd:
 122:Drivers/GD32F1xx_standard_peripheral/Source/gd32f10x_pmu.c ****                 only one parameter can be selected which is shown as below: 
 123:Drivers/GD32F1xx_standard_peripheral/Source/gd32f10x_pmu.c ****       \arg        WFI_CMD: use WFI command
 124:Drivers/GD32F1xx_standard_peripheral/Source/gd32f10x_pmu.c ****       \arg        WFE_CMD: use WFE command
 125:Drivers/GD32F1xx_standard_peripheral/Source/gd32f10x_pmu.c ****     \param[out] none
 126:Drivers/GD32F1xx_standard_peripheral/Source/gd32f10x_pmu.c ****     \retval     none
 127:Drivers/GD32F1xx_standard_peripheral/Source/gd32f10x_pmu.c **** */
 128:Drivers/GD32F1xx_standard_peripheral/Source/gd32f10x_pmu.c **** void pmu_to_deepsleepmode(uint32_t ldo,uint8_t deepsleepmodecmd)
 129:Drivers/GD32F1xx_standard_peripheral/Source/gd32f10x_pmu.c **** {
 174              		.loc 1 129 0
 175              		.cfi_startproc
 176              		@ args = 0, pretend = 0, frame = 0
 177              		@ frame_needed = 0, uses_anonymous_args = 0
 178              		@ link register save eliminated.
 179              	.LVL5:
 130:Drivers/GD32F1xx_standard_peripheral/Source/gd32f10x_pmu.c ****     /* clear stbmod and ldolp bits */
 131:Drivers/GD32F1xx_standard_peripheral/Source/gd32f10x_pmu.c ****     PMU_CTL &= ~((uint32_t)(PMU_CTL_STBMOD | PMU_CTL_LDOLP));
 180              		.loc 1 131 0
 181 0000 0C4B     		ldr	r3, .L19
 182 0002 1A68     		ldr	r2, [r3]
 183 0004 22F00302 		bic	r2, r2, #3
 184 0008 1A60     		str	r2, [r3]
 132:Drivers/GD32F1xx_standard_peripheral/Source/gd32f10x_pmu.c ****     
 133:Drivers/GD32F1xx_standard_peripheral/Source/gd32f10x_pmu.c ****     /* set ldolp bit according to pmu_ldo */
 134:Drivers/GD32F1xx_standard_peripheral/Source/gd32f10x_pmu.c ****     PMU_CTL |= ldo;
 185              		.loc 1 134 0
 186 000a 1A68     		ldr	r2, [r3]
 187 000c 1043     		orrs	r0, r0, r2
 188              	.LVL6:
 189 000e 1860     		str	r0, [r3]
 135:Drivers/GD32F1xx_standard_peripheral/Source/gd32f10x_pmu.c ****     
 136:Drivers/GD32F1xx_standard_peripheral/Source/gd32f10x_pmu.c ****     /* set sleepdeep bit of Cortex-M3 system control register */
 137:Drivers/GD32F1xx_standard_peripheral/Source/gd32f10x_pmu.c ****     SCB->SCR |= SCB_SCR_SLEEPDEEP_Msk;
 190              		.loc 1 137 0
 191 0010 094A     		ldr	r2, .L19+4
 192 0012 1369     		ldr	r3, [r2, #16]
 193 0014 43F00403 		orr	r3, r3, #4
 194 0018 1361     		str	r3, [r2, #16]
 138:Drivers/GD32F1xx_standard_peripheral/Source/gd32f10x_pmu.c ****     
 139:Drivers/GD32F1xx_standard_peripheral/Source/gd32f10x_pmu.c ****     /* select WFI or WFE command to enter deepsleep mode */
 140:Drivers/GD32F1xx_standard_peripheral/Source/gd32f10x_pmu.c ****     if(WFI_CMD == deepsleepmodecmd){
 195              		.loc 1 140 0
 196 001a 41B1     		cbz	r1, .L18
 141:Drivers/GD32F1xx_standard_peripheral/Source/gd32f10x_pmu.c ****         __WFI();
 142:Drivers/GD32F1xx_standard_peripheral/Source/gd32f10x_pmu.c ****     }else{
 143:Drivers/GD32F1xx_standard_peripheral/Source/gd32f10x_pmu.c ****         __SEV();
 197              		.loc 1 143 0
 198              		.syntax unified
 199              	@ 143 "Drivers/GD32F1xx_standard_peripheral/Source/gd32f10x_pmu.c" 1
 200 001c 40BF     		sev
 201              	@ 0 "" 2
 144:Drivers/GD32F1xx_standard_peripheral/Source/gd32f10x_pmu.c ****         __WFE();
 202              		.loc 1 144 0
 203              	@ 144 "Drivers/GD32F1xx_standard_peripheral/Source/gd32f10x_pmu.c" 1
 204 001e 20BF     		wfe
 205              	@ 0 "" 2
 145:Drivers/GD32F1xx_standard_peripheral/Source/gd32f10x_pmu.c ****         __WFE();
ARM GAS  /tmp/ccNdBunR.s 			page 7


 206              		.loc 1 145 0
 207              	@ 145 "Drivers/GD32F1xx_standard_peripheral/Source/gd32f10x_pmu.c" 1
 208 0020 20BF     		wfe
 209              	@ 0 "" 2
 210              		.thumb
 211              		.syntax unified
 212              	.L17:
 146:Drivers/GD32F1xx_standard_peripheral/Source/gd32f10x_pmu.c ****     }
 147:Drivers/GD32F1xx_standard_peripheral/Source/gd32f10x_pmu.c ****     /* reset sleepdeep bit of Cortex-M3 system control register */
 148:Drivers/GD32F1xx_standard_peripheral/Source/gd32f10x_pmu.c ****     SCB->SCR &= ~((uint32_t)SCB_SCR_SLEEPDEEP_Msk);
 213              		.loc 1 148 0
 214 0022 054A     		ldr	r2, .L19+4
 215 0024 1369     		ldr	r3, [r2, #16]
 216 0026 23F00403 		bic	r3, r3, #4
 217 002a 1361     		str	r3, [r2, #16]
 218 002c 7047     		bx	lr
 219              	.L18:
 141:Drivers/GD32F1xx_standard_peripheral/Source/gd32f10x_pmu.c ****     }else{
 220              		.loc 1 141 0
 221              		.syntax unified
 222              	@ 141 "Drivers/GD32F1xx_standard_peripheral/Source/gd32f10x_pmu.c" 1
 223 002e 30BF     		wfi
 224              	@ 0 "" 2
 225              		.thumb
 226              		.syntax unified
 227 0030 F7E7     		b	.L17
 228              	.L20:
 229 0032 00BF     		.align	2
 230              	.L19:
 231 0034 00700040 		.word	1073770496
 232 0038 00ED00E0 		.word	-536810240
 233              		.cfi_endproc
 234              	.LFE69:
 236              		.section	.text.pmu_to_standbymode,"ax",%progbits
 237              		.align	1
 238              		.global	pmu_to_standbymode
 239              		.syntax unified
 240              		.thumb
 241              		.thumb_func
 242              		.fpu softvfp
 244              	pmu_to_standbymode:
 245              	.LFB70:
 149:Drivers/GD32F1xx_standard_peripheral/Source/gd32f10x_pmu.c **** }
 150:Drivers/GD32F1xx_standard_peripheral/Source/gd32f10x_pmu.c **** 
 151:Drivers/GD32F1xx_standard_peripheral/Source/gd32f10x_pmu.c **** /*!
 152:Drivers/GD32F1xx_standard_peripheral/Source/gd32f10x_pmu.c ****     \brief      pmu work at standby mode
 153:Drivers/GD32F1xx_standard_peripheral/Source/gd32f10x_pmu.c ****     \param[in]  standbymodecmd:
 154:Drivers/GD32F1xx_standard_peripheral/Source/gd32f10x_pmu.c ****                 only one parameter can be selected which is shown as below:
 155:Drivers/GD32F1xx_standard_peripheral/Source/gd32f10x_pmu.c ****       \arg        WFI_CMD: use WFI command
 156:Drivers/GD32F1xx_standard_peripheral/Source/gd32f10x_pmu.c ****       \arg        WFE_CMD: use WFE command
 157:Drivers/GD32F1xx_standard_peripheral/Source/gd32f10x_pmu.c ****     \param[out] none
 158:Drivers/GD32F1xx_standard_peripheral/Source/gd32f10x_pmu.c ****     \retval     none
 159:Drivers/GD32F1xx_standard_peripheral/Source/gd32f10x_pmu.c **** */
 160:Drivers/GD32F1xx_standard_peripheral/Source/gd32f10x_pmu.c **** void pmu_to_standbymode(uint8_t standbymodecmd)
 161:Drivers/GD32F1xx_standard_peripheral/Source/gd32f10x_pmu.c **** {
 246              		.loc 1 161 0
 247              		.cfi_startproc
ARM GAS  /tmp/ccNdBunR.s 			page 8


 248              		@ args = 0, pretend = 0, frame = 0
 249              		@ frame_needed = 0, uses_anonymous_args = 0
 250              		@ link register save eliminated.
 251              	.LVL7:
 162:Drivers/GD32F1xx_standard_peripheral/Source/gd32f10x_pmu.c ****     /* set sleepdeep bit of Cortex-M3 system control register */
 163:Drivers/GD32F1xx_standard_peripheral/Source/gd32f10x_pmu.c ****     SCB->SCR |= SCB_SCR_SLEEPDEEP_Msk;
 252              		.loc 1 163 0
 253 0000 094A     		ldr	r2, .L25
 254 0002 1369     		ldr	r3, [r2, #16]
 255 0004 43F00403 		orr	r3, r3, #4
 256 0008 1361     		str	r3, [r2, #16]
 164:Drivers/GD32F1xx_standard_peripheral/Source/gd32f10x_pmu.c **** 
 165:Drivers/GD32F1xx_standard_peripheral/Source/gd32f10x_pmu.c ****     /* set stbmod bit */
 166:Drivers/GD32F1xx_standard_peripheral/Source/gd32f10x_pmu.c ****     PMU_CTL |= PMU_CTL_STBMOD;
 257              		.loc 1 166 0
 258 000a 084B     		ldr	r3, .L25+4
 259 000c 1A68     		ldr	r2, [r3]
 260 000e 42F00202 		orr	r2, r2, #2
 261 0012 1A60     		str	r2, [r3]
 167:Drivers/GD32F1xx_standard_peripheral/Source/gd32f10x_pmu.c ****         
 168:Drivers/GD32F1xx_standard_peripheral/Source/gd32f10x_pmu.c ****     /* reset wakeup flag */
 169:Drivers/GD32F1xx_standard_peripheral/Source/gd32f10x_pmu.c ****     PMU_CTL |= PMU_CTL_WURST;
 262              		.loc 1 169 0
 263 0014 1A68     		ldr	r2, [r3]
 264 0016 42F00402 		orr	r2, r2, #4
 265 001a 1A60     		str	r2, [r3]
 170:Drivers/GD32F1xx_standard_peripheral/Source/gd32f10x_pmu.c ****     
 171:Drivers/GD32F1xx_standard_peripheral/Source/gd32f10x_pmu.c ****     /* select WFI or WFE command to enter standby mode */
 172:Drivers/GD32F1xx_standard_peripheral/Source/gd32f10x_pmu.c ****     if(WFI_CMD == standbymodecmd){
 266              		.loc 1 172 0
 267 001c 08B1     		cbz	r0, .L24
 173:Drivers/GD32F1xx_standard_peripheral/Source/gd32f10x_pmu.c ****         __WFI();
 174:Drivers/GD32F1xx_standard_peripheral/Source/gd32f10x_pmu.c ****     }else{
 175:Drivers/GD32F1xx_standard_peripheral/Source/gd32f10x_pmu.c ****         __WFE();
 268              		.loc 1 175 0
 269              		.syntax unified
 270              	@ 175 "Drivers/GD32F1xx_standard_peripheral/Source/gd32f10x_pmu.c" 1
 271 001e 20BF     		wfe
 272              	@ 0 "" 2
 273              		.thumb
 274              		.syntax unified
 275 0020 7047     		bx	lr
 276              	.L24:
 173:Drivers/GD32F1xx_standard_peripheral/Source/gd32f10x_pmu.c ****         __WFI();
 277              		.loc 1 173 0
 278              		.syntax unified
 279              	@ 173 "Drivers/GD32F1xx_standard_peripheral/Source/gd32f10x_pmu.c" 1
 280 0022 30BF     		wfi
 281              	@ 0 "" 2
 282              		.thumb
 283              		.syntax unified
 284 0024 7047     		bx	lr
 285              	.L26:
 286 0026 00BF     		.align	2
 287              	.L25:
 288 0028 00ED00E0 		.word	-536810240
 289 002c 00700040 		.word	1073770496
ARM GAS  /tmp/ccNdBunR.s 			page 9


 290              		.cfi_endproc
 291              	.LFE70:
 293              		.section	.text.pmu_wakeup_pin_enable,"ax",%progbits
 294              		.align	1
 295              		.global	pmu_wakeup_pin_enable
 296              		.syntax unified
 297              		.thumb
 298              		.thumb_func
 299              		.fpu softvfp
 301              	pmu_wakeup_pin_enable:
 302              	.LFB71:
 176:Drivers/GD32F1xx_standard_peripheral/Source/gd32f10x_pmu.c ****     }
 177:Drivers/GD32F1xx_standard_peripheral/Source/gd32f10x_pmu.c **** }
 178:Drivers/GD32F1xx_standard_peripheral/Source/gd32f10x_pmu.c **** 
 179:Drivers/GD32F1xx_standard_peripheral/Source/gd32f10x_pmu.c **** /*!
 180:Drivers/GD32F1xx_standard_peripheral/Source/gd32f10x_pmu.c ****     \brief      enable wakeup pin
 181:Drivers/GD32F1xx_standard_peripheral/Source/gd32f10x_pmu.c ****     \param[in]  none
 182:Drivers/GD32F1xx_standard_peripheral/Source/gd32f10x_pmu.c ****     \param[out] none
 183:Drivers/GD32F1xx_standard_peripheral/Source/gd32f10x_pmu.c ****     \retval     none
 184:Drivers/GD32F1xx_standard_peripheral/Source/gd32f10x_pmu.c **** */
 185:Drivers/GD32F1xx_standard_peripheral/Source/gd32f10x_pmu.c **** void pmu_wakeup_pin_enable(void)
 186:Drivers/GD32F1xx_standard_peripheral/Source/gd32f10x_pmu.c **** {
 303              		.loc 1 186 0
 304              		.cfi_startproc
 305              		@ args = 0, pretend = 0, frame = 0
 306              		@ frame_needed = 0, uses_anonymous_args = 0
 307              		@ link register save eliminated.
 187:Drivers/GD32F1xx_standard_peripheral/Source/gd32f10x_pmu.c ****     PMU_CS |= PMU_CS_WUPEN;
 308              		.loc 1 187 0
 309 0000 024A     		ldr	r2, .L28
 310 0002 1368     		ldr	r3, [r2]
 311 0004 43F48073 		orr	r3, r3, #256
 312 0008 1360     		str	r3, [r2]
 313 000a 7047     		bx	lr
 314              	.L29:
 315              		.align	2
 316              	.L28:
 317 000c 04700040 		.word	1073770500
 318              		.cfi_endproc
 319              	.LFE71:
 321              		.section	.text.pmu_wakeup_pin_disable,"ax",%progbits
 322              		.align	1
 323              		.global	pmu_wakeup_pin_disable
 324              		.syntax unified
 325              		.thumb
 326              		.thumb_func
 327              		.fpu softvfp
 329              	pmu_wakeup_pin_disable:
 330              	.LFB72:
 188:Drivers/GD32F1xx_standard_peripheral/Source/gd32f10x_pmu.c **** }
 189:Drivers/GD32F1xx_standard_peripheral/Source/gd32f10x_pmu.c **** 
 190:Drivers/GD32F1xx_standard_peripheral/Source/gd32f10x_pmu.c **** /*!
 191:Drivers/GD32F1xx_standard_peripheral/Source/gd32f10x_pmu.c ****     \brief      disable wakeup pin
 192:Drivers/GD32F1xx_standard_peripheral/Source/gd32f10x_pmu.c ****     \param[in]  none
 193:Drivers/GD32F1xx_standard_peripheral/Source/gd32f10x_pmu.c ****     \param[out] none
 194:Drivers/GD32F1xx_standard_peripheral/Source/gd32f10x_pmu.c ****     \retval     none
 195:Drivers/GD32F1xx_standard_peripheral/Source/gd32f10x_pmu.c **** */
ARM GAS  /tmp/ccNdBunR.s 			page 10


 196:Drivers/GD32F1xx_standard_peripheral/Source/gd32f10x_pmu.c **** void pmu_wakeup_pin_disable(void)
 197:Drivers/GD32F1xx_standard_peripheral/Source/gd32f10x_pmu.c **** {
 331              		.loc 1 197 0
 332              		.cfi_startproc
 333              		@ args = 0, pretend = 0, frame = 0
 334              		@ frame_needed = 0, uses_anonymous_args = 0
 335              		@ link register save eliminated.
 198:Drivers/GD32F1xx_standard_peripheral/Source/gd32f10x_pmu.c ****     PMU_CS &= ~PMU_CS_WUPEN;
 336              		.loc 1 198 0
 337 0000 024A     		ldr	r2, .L31
 338 0002 1368     		ldr	r3, [r2]
 339 0004 23F48073 		bic	r3, r3, #256
 340 0008 1360     		str	r3, [r2]
 341 000a 7047     		bx	lr
 342              	.L32:
 343              		.align	2
 344              	.L31:
 345 000c 04700040 		.word	1073770500
 346              		.cfi_endproc
 347              	.LFE72:
 349              		.section	.text.pmu_backup_write_enable,"ax",%progbits
 350              		.align	1
 351              		.global	pmu_backup_write_enable
 352              		.syntax unified
 353              		.thumb
 354              		.thumb_func
 355              		.fpu softvfp
 357              	pmu_backup_write_enable:
 358              	.LFB73:
 199:Drivers/GD32F1xx_standard_peripheral/Source/gd32f10x_pmu.c **** }
 200:Drivers/GD32F1xx_standard_peripheral/Source/gd32f10x_pmu.c **** 
 201:Drivers/GD32F1xx_standard_peripheral/Source/gd32f10x_pmu.c **** /*!
 202:Drivers/GD32F1xx_standard_peripheral/Source/gd32f10x_pmu.c ****     \brief      enable write access to the registers in backup domain
 203:Drivers/GD32F1xx_standard_peripheral/Source/gd32f10x_pmu.c ****     \param[in]  none
 204:Drivers/GD32F1xx_standard_peripheral/Source/gd32f10x_pmu.c ****     \param[out] none
 205:Drivers/GD32F1xx_standard_peripheral/Source/gd32f10x_pmu.c ****     \retval     none
 206:Drivers/GD32F1xx_standard_peripheral/Source/gd32f10x_pmu.c **** */
 207:Drivers/GD32F1xx_standard_peripheral/Source/gd32f10x_pmu.c **** void pmu_backup_write_enable(void)
 208:Drivers/GD32F1xx_standard_peripheral/Source/gd32f10x_pmu.c **** {
 359              		.loc 1 208 0
 360              		.cfi_startproc
 361              		@ args = 0, pretend = 0, frame = 0
 362              		@ frame_needed = 0, uses_anonymous_args = 0
 363              		@ link register save eliminated.
 209:Drivers/GD32F1xx_standard_peripheral/Source/gd32f10x_pmu.c ****     PMU_CTL |= PMU_CTL_BKPWEN;
 364              		.loc 1 209 0
 365 0000 024A     		ldr	r2, .L34
 366 0002 1368     		ldr	r3, [r2]
 367 0004 43F48073 		orr	r3, r3, #256
 368 0008 1360     		str	r3, [r2]
 369 000a 7047     		bx	lr
 370              	.L35:
 371              		.align	2
 372              	.L34:
 373 000c 00700040 		.word	1073770496
 374              		.cfi_endproc
 375              	.LFE73:
ARM GAS  /tmp/ccNdBunR.s 			page 11


 377              		.section	.text.pmu_backup_write_disable,"ax",%progbits
 378              		.align	1
 379              		.global	pmu_backup_write_disable
 380              		.syntax unified
 381              		.thumb
 382              		.thumb_func
 383              		.fpu softvfp
 385              	pmu_backup_write_disable:
 386              	.LFB74:
 210:Drivers/GD32F1xx_standard_peripheral/Source/gd32f10x_pmu.c **** }
 211:Drivers/GD32F1xx_standard_peripheral/Source/gd32f10x_pmu.c **** 
 212:Drivers/GD32F1xx_standard_peripheral/Source/gd32f10x_pmu.c **** /*!
 213:Drivers/GD32F1xx_standard_peripheral/Source/gd32f10x_pmu.c ****     \brief      disable write access to the registers in backup domain
 214:Drivers/GD32F1xx_standard_peripheral/Source/gd32f10x_pmu.c ****     \param[in]  none
 215:Drivers/GD32F1xx_standard_peripheral/Source/gd32f10x_pmu.c ****     \param[out] none
 216:Drivers/GD32F1xx_standard_peripheral/Source/gd32f10x_pmu.c ****     \retval     none
 217:Drivers/GD32F1xx_standard_peripheral/Source/gd32f10x_pmu.c **** */
 218:Drivers/GD32F1xx_standard_peripheral/Source/gd32f10x_pmu.c **** void pmu_backup_write_disable(void)
 219:Drivers/GD32F1xx_standard_peripheral/Source/gd32f10x_pmu.c **** {
 387              		.loc 1 219 0
 388              		.cfi_startproc
 389              		@ args = 0, pretend = 0, frame = 0
 390              		@ frame_needed = 0, uses_anonymous_args = 0
 391              		@ link register save eliminated.
 220:Drivers/GD32F1xx_standard_peripheral/Source/gd32f10x_pmu.c ****     PMU_CTL &= ~PMU_CTL_BKPWEN;
 392              		.loc 1 220 0
 393 0000 024A     		ldr	r2, .L37
 394 0002 1368     		ldr	r3, [r2]
 395 0004 23F48073 		bic	r3, r3, #256
 396 0008 1360     		str	r3, [r2]
 397 000a 7047     		bx	lr
 398              	.L38:
 399              		.align	2
 400              	.L37:
 401 000c 00700040 		.word	1073770496
 402              		.cfi_endproc
 403              	.LFE74:
 405              		.section	.text.pmu_flag_get,"ax",%progbits
 406              		.align	1
 407              		.global	pmu_flag_get
 408              		.syntax unified
 409              		.thumb
 410              		.thumb_func
 411              		.fpu softvfp
 413              	pmu_flag_get:
 414              	.LFB75:
 221:Drivers/GD32F1xx_standard_peripheral/Source/gd32f10x_pmu.c **** }
 222:Drivers/GD32F1xx_standard_peripheral/Source/gd32f10x_pmu.c **** 
 223:Drivers/GD32F1xx_standard_peripheral/Source/gd32f10x_pmu.c **** /*!
 224:Drivers/GD32F1xx_standard_peripheral/Source/gd32f10x_pmu.c ****     \brief      get flag state
 225:Drivers/GD32F1xx_standard_peripheral/Source/gd32f10x_pmu.c ****     \param[in]  flag:
 226:Drivers/GD32F1xx_standard_peripheral/Source/gd32f10x_pmu.c ****                 only one parameter can be selected which is shown as below:
 227:Drivers/GD32F1xx_standard_peripheral/Source/gd32f10x_pmu.c ****       \arg        PMU_FLAG_WAKEUP: wakeup flag
 228:Drivers/GD32F1xx_standard_peripheral/Source/gd32f10x_pmu.c ****       \arg        PMU_FLAG_STANDBY: standby flag
 229:Drivers/GD32F1xx_standard_peripheral/Source/gd32f10x_pmu.c ****       \arg        PMU_FLAG_LVD: lvd flag
 230:Drivers/GD32F1xx_standard_peripheral/Source/gd32f10x_pmu.c ****     \param[out] none
 231:Drivers/GD32F1xx_standard_peripheral/Source/gd32f10x_pmu.c ****     \retval     FlagStatus SET or RESET
ARM GAS  /tmp/ccNdBunR.s 			page 12


 232:Drivers/GD32F1xx_standard_peripheral/Source/gd32f10x_pmu.c **** */
 233:Drivers/GD32F1xx_standard_peripheral/Source/gd32f10x_pmu.c **** FlagStatus pmu_flag_get(uint32_t flag)
 234:Drivers/GD32F1xx_standard_peripheral/Source/gd32f10x_pmu.c **** {
 415              		.loc 1 234 0
 416              		.cfi_startproc
 417              		@ args = 0, pretend = 0, frame = 0
 418              		@ frame_needed = 0, uses_anonymous_args = 0
 419              		@ link register save eliminated.
 420              	.LVL8:
 235:Drivers/GD32F1xx_standard_peripheral/Source/gd32f10x_pmu.c ****     if(PMU_CS & flag){
 421              		.loc 1 235 0
 422 0000 034B     		ldr	r3, .L43
 423 0002 1B68     		ldr	r3, [r3]
 424 0004 0342     		tst	r3, r0
 425 0006 01D1     		bne	.L42
 236:Drivers/GD32F1xx_standard_peripheral/Source/gd32f10x_pmu.c ****         return  SET;
 237:Drivers/GD32F1xx_standard_peripheral/Source/gd32f10x_pmu.c ****     }else{
 238:Drivers/GD32F1xx_standard_peripheral/Source/gd32f10x_pmu.c ****         return  RESET;
 426              		.loc 1 238 0
 427 0008 0020     		movs	r0, #0
 428              	.LVL9:
 239:Drivers/GD32F1xx_standard_peripheral/Source/gd32f10x_pmu.c ****     }
 240:Drivers/GD32F1xx_standard_peripheral/Source/gd32f10x_pmu.c **** }
 429              		.loc 1 240 0
 430 000a 7047     		bx	lr
 431              	.LVL10:
 432              	.L42:
 236:Drivers/GD32F1xx_standard_peripheral/Source/gd32f10x_pmu.c ****         return  SET;
 433              		.loc 1 236 0
 434 000c 0120     		movs	r0, #1
 435              	.LVL11:
 436 000e 7047     		bx	lr
 437              	.L44:
 438              		.align	2
 439              	.L43:
 440 0010 04700040 		.word	1073770500
 441              		.cfi_endproc
 442              	.LFE75:
 444              		.section	.text.pmu_flag_clear,"ax",%progbits
 445              		.align	1
 446              		.global	pmu_flag_clear
 447              		.syntax unified
 448              		.thumb
 449              		.thumb_func
 450              		.fpu softvfp
 452              	pmu_flag_clear:
 453              	.LFB76:
 241:Drivers/GD32F1xx_standard_peripheral/Source/gd32f10x_pmu.c **** 
 242:Drivers/GD32F1xx_standard_peripheral/Source/gd32f10x_pmu.c **** /*!
 243:Drivers/GD32F1xx_standard_peripheral/Source/gd32f10x_pmu.c ****     \brief      clear flag bit
 244:Drivers/GD32F1xx_standard_peripheral/Source/gd32f10x_pmu.c ****     \param[in]  flag_reset:
 245:Drivers/GD32F1xx_standard_peripheral/Source/gd32f10x_pmu.c ****                 only one parameter can be selected which is shown as below:
 246:Drivers/GD32F1xx_standard_peripheral/Source/gd32f10x_pmu.c ****       \arg        PMU_FLAG_RESET_WAKEUP: reset wakeup flag
 247:Drivers/GD32F1xx_standard_peripheral/Source/gd32f10x_pmu.c ****       \arg        PMU_FLAG_RESET_STANDBY: reset standby flag
 248:Drivers/GD32F1xx_standard_peripheral/Source/gd32f10x_pmu.c ****     \param[out] none
 249:Drivers/GD32F1xx_standard_peripheral/Source/gd32f10x_pmu.c ****     \retval     none
 250:Drivers/GD32F1xx_standard_peripheral/Source/gd32f10x_pmu.c **** */
ARM GAS  /tmp/ccNdBunR.s 			page 13


 251:Drivers/GD32F1xx_standard_peripheral/Source/gd32f10x_pmu.c **** void pmu_flag_clear(uint32_t flag_reset)
 252:Drivers/GD32F1xx_standard_peripheral/Source/gd32f10x_pmu.c **** {
 454              		.loc 1 252 0
 455              		.cfi_startproc
 456              		@ args = 0, pretend = 0, frame = 0
 457              		@ frame_needed = 0, uses_anonymous_args = 0
 458              		@ link register save eliminated.
 459              	.LVL12:
 253:Drivers/GD32F1xx_standard_peripheral/Source/gd32f10x_pmu.c ****     switch(flag_reset){
 460              		.loc 1 253 0
 461 0000 10B1     		cbz	r0, .L47
 462 0002 0128     		cmp	r0, #1
 463 0004 06D0     		beq	.L48
 464 0006 7047     		bx	lr
 465              	.L47:
 254:Drivers/GD32F1xx_standard_peripheral/Source/gd32f10x_pmu.c ****     case PMU_FLAG_RESET_WAKEUP:
 255:Drivers/GD32F1xx_standard_peripheral/Source/gd32f10x_pmu.c ****         /* reset wakeup flag */
 256:Drivers/GD32F1xx_standard_peripheral/Source/gd32f10x_pmu.c ****         PMU_CTL |= PMU_CTL_WURST;
 466              		.loc 1 256 0
 467 0008 054A     		ldr	r2, .L49
 468 000a 1368     		ldr	r3, [r2]
 469 000c 43F00403 		orr	r3, r3, #4
 470 0010 1360     		str	r3, [r2]
 257:Drivers/GD32F1xx_standard_peripheral/Source/gd32f10x_pmu.c ****         break;
 471              		.loc 1 257 0
 472 0012 7047     		bx	lr
 473              	.L48:
 258:Drivers/GD32F1xx_standard_peripheral/Source/gd32f10x_pmu.c ****     case PMU_FLAG_RESET_STANDBY:
 259:Drivers/GD32F1xx_standard_peripheral/Source/gd32f10x_pmu.c ****         /* reset standby flag */
 260:Drivers/GD32F1xx_standard_peripheral/Source/gd32f10x_pmu.c ****         PMU_CTL |= PMU_CTL_STBRST;
 474              		.loc 1 260 0
 475 0014 024A     		ldr	r2, .L49
 476 0016 1368     		ldr	r3, [r2]
 477 0018 43F00803 		orr	r3, r3, #8
 478 001c 1360     		str	r3, [r2]
 479 001e 7047     		bx	lr
 480              	.L50:
 481              		.align	2
 482              	.L49:
 483 0020 00700040 		.word	1073770496
 484              		.cfi_endproc
 485              	.LFE76:
 487              		.text
 488              	.Letext0:
 489              		.file 2 "/usr/include/newlib/machine/_default_types.h"
 490              		.file 3 "/usr/include/newlib/sys/_stdint.h"
 491              		.file 4 "Drivers/CMSIS/core_cm3.h"
 492              		.file 5 "Drivers/CMSIS/GD/GD32F1xx/Include/system_gd32f10x.h"
 493              		.file 6 "Drivers/CMSIS/GD/GD32F1xx/Include/gd32f10x.h"
 494              		.file 7 "Drivers/GD32F1xx_standard_peripheral/Include/gd32f10x_rcu.h"
ARM GAS  /tmp/ccNdBunR.s 			page 14


DEFINED SYMBOLS
                            *ABS*:0000000000000000 gd32f10x_pmu.c
     /tmp/ccNdBunR.s:16     .text.pmu_deinit:0000000000000000 $t
     /tmp/ccNdBunR.s:23     .text.pmu_deinit:0000000000000000 pmu_deinit
     /tmp/ccNdBunR.s:48     .text.pmu_lvd_select:0000000000000000 $t
     /tmp/ccNdBunR.s:55     .text.pmu_lvd_select:0000000000000000 pmu_lvd_select
     /tmp/ccNdBunR.s:85     .text.pmu_lvd_select:0000000000000024 $d
     /tmp/ccNdBunR.s:90     .text.pmu_lvd_disable:0000000000000000 $t
     /tmp/ccNdBunR.s:97     .text.pmu_lvd_disable:0000000000000000 pmu_lvd_disable
     /tmp/ccNdBunR.s:113    .text.pmu_lvd_disable:000000000000000c $d
     /tmp/ccNdBunR.s:118    .text.pmu_to_sleepmode:0000000000000000 $t
     /tmp/ccNdBunR.s:125    .text.pmu_to_sleepmode:0000000000000000 pmu_to_sleepmode
     /tmp/ccNdBunR.s:160    .text.pmu_to_sleepmode:0000000000000014 $d
     /tmp/ccNdBunR.s:165    .text.pmu_to_deepsleepmode:0000000000000000 $t
     /tmp/ccNdBunR.s:172    .text.pmu_to_deepsleepmode:0000000000000000 pmu_to_deepsleepmode
     /tmp/ccNdBunR.s:231    .text.pmu_to_deepsleepmode:0000000000000034 $d
     /tmp/ccNdBunR.s:237    .text.pmu_to_standbymode:0000000000000000 $t
     /tmp/ccNdBunR.s:244    .text.pmu_to_standbymode:0000000000000000 pmu_to_standbymode
     /tmp/ccNdBunR.s:288    .text.pmu_to_standbymode:0000000000000028 $d
     /tmp/ccNdBunR.s:294    .text.pmu_wakeup_pin_enable:0000000000000000 $t
     /tmp/ccNdBunR.s:301    .text.pmu_wakeup_pin_enable:0000000000000000 pmu_wakeup_pin_enable
     /tmp/ccNdBunR.s:317    .text.pmu_wakeup_pin_enable:000000000000000c $d
     /tmp/ccNdBunR.s:322    .text.pmu_wakeup_pin_disable:0000000000000000 $t
     /tmp/ccNdBunR.s:329    .text.pmu_wakeup_pin_disable:0000000000000000 pmu_wakeup_pin_disable
     /tmp/ccNdBunR.s:345    .text.pmu_wakeup_pin_disable:000000000000000c $d
     /tmp/ccNdBunR.s:350    .text.pmu_backup_write_enable:0000000000000000 $t
     /tmp/ccNdBunR.s:357    .text.pmu_backup_write_enable:0000000000000000 pmu_backup_write_enable
     /tmp/ccNdBunR.s:373    .text.pmu_backup_write_enable:000000000000000c $d
     /tmp/ccNdBunR.s:378    .text.pmu_backup_write_disable:0000000000000000 $t
     /tmp/ccNdBunR.s:385    .text.pmu_backup_write_disable:0000000000000000 pmu_backup_write_disable
     /tmp/ccNdBunR.s:401    .text.pmu_backup_write_disable:000000000000000c $d
     /tmp/ccNdBunR.s:406    .text.pmu_flag_get:0000000000000000 $t
     /tmp/ccNdBunR.s:413    .text.pmu_flag_get:0000000000000000 pmu_flag_get
     /tmp/ccNdBunR.s:440    .text.pmu_flag_get:0000000000000010 $d
     /tmp/ccNdBunR.s:445    .text.pmu_flag_clear:0000000000000000 $t
     /tmp/ccNdBunR.s:452    .text.pmu_flag_clear:0000000000000000 pmu_flag_clear
     /tmp/ccNdBunR.s:483    .text.pmu_flag_clear:0000000000000020 $d
                     .debug_frame:0000000000000010 $d

UNDEFINED SYMBOLS
rcu_periph_reset_enable
rcu_periph_reset_disable
