ARM GAS  /tmp/ccdGKvZC.s 			page 1


   1              		.cpu cortex-m3
   2              		.eabi_attribute 20, 1
   3              		.eabi_attribute 21, 1
   4              		.eabi_attribute 23, 3
   5              		.eabi_attribute 24, 1
   6              		.eabi_attribute 25, 1
   7              		.eabi_attribute 26, 1
   8              		.eabi_attribute 30, 1
   9              		.eabi_attribute 34, 1
  10              		.eabi_attribute 18, 4
  11              		.file	"gd32f10x_adc.c"
  12              		.text
  13              	.Ltext0:
  14              		.cfi_sections	.debug_frame
  15              		.section	.text.adc_deinit,"ax",%progbits
  16              		.align	1
  17              		.global	adc_deinit
  18              		.syntax unified
  19              		.thumb
  20              		.thumb_func
  21              		.fpu softvfp
  23              	adc_deinit:
  24              	.LFB65:
  25              		.file 1 "Drivers/GD32F1xx_standard_peripheral/Source/gd32f10x_adc.c"
   1:Drivers/GD32F1xx_standard_peripheral/Source/gd32f10x_adc.c **** /*!
   2:Drivers/GD32F1xx_standard_peripheral/Source/gd32f10x_adc.c ****     \file  gd32f10x_adc.c
   3:Drivers/GD32F1xx_standard_peripheral/Source/gd32f10x_adc.c ****     \brief ADC driver
   4:Drivers/GD32F1xx_standard_peripheral/Source/gd32f10x_adc.c **** 
   5:Drivers/GD32F1xx_standard_peripheral/Source/gd32f10x_adc.c ****     \version 2014-12-26, V1.0.0, firmware for GD32F10x
   6:Drivers/GD32F1xx_standard_peripheral/Source/gd32f10x_adc.c ****     \version 2017-06-20, V2.0.0, firmware for GD32F10x
   7:Drivers/GD32F1xx_standard_peripheral/Source/gd32f10x_adc.c ****     \version 2018-07-31, V2.1.0, firmware for GD32F10x
   8:Drivers/GD32F1xx_standard_peripheral/Source/gd32f10x_adc.c **** */
   9:Drivers/GD32F1xx_standard_peripheral/Source/gd32f10x_adc.c **** 
  10:Drivers/GD32F1xx_standard_peripheral/Source/gd32f10x_adc.c **** /*
  11:Drivers/GD32F1xx_standard_peripheral/Source/gd32f10x_adc.c ****     Copyright (c) 2018, GigaDevice Semiconductor Inc.
  12:Drivers/GD32F1xx_standard_peripheral/Source/gd32f10x_adc.c **** 
  13:Drivers/GD32F1xx_standard_peripheral/Source/gd32f10x_adc.c ****     All rights reserved.
  14:Drivers/GD32F1xx_standard_peripheral/Source/gd32f10x_adc.c **** 
  15:Drivers/GD32F1xx_standard_peripheral/Source/gd32f10x_adc.c ****     Redistribution and use in source and binary forms, with or without modification, 
  16:Drivers/GD32F1xx_standard_peripheral/Source/gd32f10x_adc.c **** are permitted provided that the following conditions are met:
  17:Drivers/GD32F1xx_standard_peripheral/Source/gd32f10x_adc.c **** 
  18:Drivers/GD32F1xx_standard_peripheral/Source/gd32f10x_adc.c ****     1. Redistributions of source code must retain the above copyright notice, this 
  19:Drivers/GD32F1xx_standard_peripheral/Source/gd32f10x_adc.c ****        list of conditions and the following disclaimer.
  20:Drivers/GD32F1xx_standard_peripheral/Source/gd32f10x_adc.c ****     2. Redistributions in binary form must reproduce the above copyright notice, 
  21:Drivers/GD32F1xx_standard_peripheral/Source/gd32f10x_adc.c ****        this list of conditions and the following disclaimer in the documentation 
  22:Drivers/GD32F1xx_standard_peripheral/Source/gd32f10x_adc.c ****        and/or other materials provided with the distribution.
  23:Drivers/GD32F1xx_standard_peripheral/Source/gd32f10x_adc.c ****     3. Neither the name of the copyright holder nor the names of its contributors 
  24:Drivers/GD32F1xx_standard_peripheral/Source/gd32f10x_adc.c ****        may be used to endorse or promote products derived from this software without 
  25:Drivers/GD32F1xx_standard_peripheral/Source/gd32f10x_adc.c ****        specific prior written permission.
  26:Drivers/GD32F1xx_standard_peripheral/Source/gd32f10x_adc.c **** 
  27:Drivers/GD32F1xx_standard_peripheral/Source/gd32f10x_adc.c ****     THIS SOFTWARE IS PROVIDED BY THE COPYRIGHT HOLDERS AND CONTRIBUTORS "AS IS" 
  28:Drivers/GD32F1xx_standard_peripheral/Source/gd32f10x_adc.c **** AND ANY EXPRESS OR IMPLIED WARRANTIES, INCLUDING, BUT NOT LIMITED TO, THE IMPLIED 
  29:Drivers/GD32F1xx_standard_peripheral/Source/gd32f10x_adc.c **** WARRANTIES OF MERCHANTABILITY AND FITNESS FOR A PARTICULAR PURPOSE ARE DISCLAIMED. 
  30:Drivers/GD32F1xx_standard_peripheral/Source/gd32f10x_adc.c **** IN NO EVENT SHALL THE COPYRIGHT HOLDER OR CONTRIBUTORS BE LIABLE FOR ANY DIRECT, 
  31:Drivers/GD32F1xx_standard_peripheral/Source/gd32f10x_adc.c **** INDIRECT, INCIDENTAL, SPECIAL, EXEMPLARY, OR CONSEQUENTIAL DAMAGES (INCLUDING, BUT 
  32:Drivers/GD32F1xx_standard_peripheral/Source/gd32f10x_adc.c **** NOT LIMITED TO, PROCUREMENT OF SUBSTITUTE GOODS OR SERVICES; LOSS OF USE, DATA, OR 
  33:Drivers/GD32F1xx_standard_peripheral/Source/gd32f10x_adc.c **** PROFITS; OR BUSINESS INTERRUPTION) HOWEVER CAUSED AND ON ANY THEORY OF LIABILITY, 
ARM GAS  /tmp/ccdGKvZC.s 			page 2


  34:Drivers/GD32F1xx_standard_peripheral/Source/gd32f10x_adc.c **** WHETHER IN CONTRACT, STRICT LIABILITY, OR TORT (INCLUDING NEGLIGENCE OR OTHERWISE) 
  35:Drivers/GD32F1xx_standard_peripheral/Source/gd32f10x_adc.c **** ARISING IN ANY WAY OUT OF THE USE OF THIS SOFTWARE, EVEN IF ADVISED OF THE POSSIBILITY 
  36:Drivers/GD32F1xx_standard_peripheral/Source/gd32f10x_adc.c **** OF SUCH DAMAGE.
  37:Drivers/GD32F1xx_standard_peripheral/Source/gd32f10x_adc.c **** */
  38:Drivers/GD32F1xx_standard_peripheral/Source/gd32f10x_adc.c **** 
  39:Drivers/GD32F1xx_standard_peripheral/Source/gd32f10x_adc.c **** #include "gd32f10x_adc.h"
  40:Drivers/GD32F1xx_standard_peripheral/Source/gd32f10x_adc.c **** 
  41:Drivers/GD32F1xx_standard_peripheral/Source/gd32f10x_adc.c **** /* discontinuous mode macro*/
  42:Drivers/GD32F1xx_standard_peripheral/Source/gd32f10x_adc.c **** #define  ADC_CHANNEL_LENGTH_SUBTRACT_ONE            ((uint8_t)1U)
  43:Drivers/GD32F1xx_standard_peripheral/Source/gd32f10x_adc.c **** 
  44:Drivers/GD32F1xx_standard_peripheral/Source/gd32f10x_adc.c **** /* ADC regular channel macro */
  45:Drivers/GD32F1xx_standard_peripheral/Source/gd32f10x_adc.c **** #define  ADC_REGULAR_CHANNEL_RANK_SIX               ((uint8_t)6U)
  46:Drivers/GD32F1xx_standard_peripheral/Source/gd32f10x_adc.c **** #define  ADC_REGULAR_CHANNEL_RANK_TWELVE            ((uint8_t)12U)
  47:Drivers/GD32F1xx_standard_peripheral/Source/gd32f10x_adc.c **** #define  ADC_REGULAR_CHANNEL_RANK_SIXTEEN           ((uint8_t)16U)
  48:Drivers/GD32F1xx_standard_peripheral/Source/gd32f10x_adc.c **** #define  ADC_REGULAR_CHANNEL_RANK_LENGTH            ((uint8_t)5U)
  49:Drivers/GD32F1xx_standard_peripheral/Source/gd32f10x_adc.c **** 
  50:Drivers/GD32F1xx_standard_peripheral/Source/gd32f10x_adc.c **** /* ADC sampling time macro */
  51:Drivers/GD32F1xx_standard_peripheral/Source/gd32f10x_adc.c **** #define  ADC_CHANNEL_SAMPLE_TEN                     ((uint8_t)10U)
  52:Drivers/GD32F1xx_standard_peripheral/Source/gd32f10x_adc.c **** #define  ADC_CHANNEL_SAMPLE_EIGHTEEN                ((uint8_t)18U)
  53:Drivers/GD32F1xx_standard_peripheral/Source/gd32f10x_adc.c **** #define  ADC_CHANNEL_SAMPLE_LENGTH                  ((uint8_t)3U)
  54:Drivers/GD32F1xx_standard_peripheral/Source/gd32f10x_adc.c **** 
  55:Drivers/GD32F1xx_standard_peripheral/Source/gd32f10x_adc.c **** /* ADC inserted channel macro */
  56:Drivers/GD32F1xx_standard_peripheral/Source/gd32f10x_adc.c **** #define  ADC_INSERTED_CHANNEL_RANK_LENGTH           ((uint8_t)5U)
  57:Drivers/GD32F1xx_standard_peripheral/Source/gd32f10x_adc.c **** #define  ADC_INSERTED_CHANNEL_SHIFT_LENGTH          ((uint8_t)15U)
  58:Drivers/GD32F1xx_standard_peripheral/Source/gd32f10x_adc.c **** 
  59:Drivers/GD32F1xx_standard_peripheral/Source/gd32f10x_adc.c **** /* ADC inserted channel offset macro */
  60:Drivers/GD32F1xx_standard_peripheral/Source/gd32f10x_adc.c **** #define  ADC_OFFSET_LENGTH                          ((uint8_t)3U)
  61:Drivers/GD32F1xx_standard_peripheral/Source/gd32f10x_adc.c **** #define  ADC_OFFSET_SHIFT_LENGTH                    ((uint8_t)4U)
  62:Drivers/GD32F1xx_standard_peripheral/Source/gd32f10x_adc.c **** 
  63:Drivers/GD32F1xx_standard_peripheral/Source/gd32f10x_adc.c **** /*!
  64:Drivers/GD32F1xx_standard_peripheral/Source/gd32f10x_adc.c ****     \brief      reset ADC 
  65:Drivers/GD32F1xx_standard_peripheral/Source/gd32f10x_adc.c ****     \param[in]  adc_periph: ADCx, x=0,1,2
  66:Drivers/GD32F1xx_standard_peripheral/Source/gd32f10x_adc.c ****     \param[out] none
  67:Drivers/GD32F1xx_standard_peripheral/Source/gd32f10x_adc.c ****     \retval     none
  68:Drivers/GD32F1xx_standard_peripheral/Source/gd32f10x_adc.c **** */
  69:Drivers/GD32F1xx_standard_peripheral/Source/gd32f10x_adc.c **** void adc_deinit(uint32_t adc_periph)
  70:Drivers/GD32F1xx_standard_peripheral/Source/gd32f10x_adc.c **** {
  26              		.loc 1 70 0
  27              		.cfi_startproc
  28              		@ args = 0, pretend = 0, frame = 0
  29              		@ frame_needed = 0, uses_anonymous_args = 0
  30              	.LVL0:
  31 0000 08B5     		push	{r3, lr}
  32              	.LCFI0:
  33              		.cfi_def_cfa_offset 8
  34              		.cfi_offset 3, -8
  35              		.cfi_offset 14, -4
  71:Drivers/GD32F1xx_standard_peripheral/Source/gd32f10x_adc.c ****     switch(adc_periph){
  36              		.loc 1 71 0
  37 0002 134B     		ldr	r3, .L8
  38 0004 9842     		cmp	r0, r3
  39 0006 11D0     		beq	.L3
  40 0008 03F5A053 		add	r3, r3, #5120
  41 000c 9842     		cmp	r0, r3
  42 000e 16D0     		beq	.L4
  43 0010 A3F5C053 		sub	r3, r3, #6144
  44 0014 9842     		cmp	r0, r3
ARM GAS  /tmp/ccdGKvZC.s 			page 3


  45 0016 00D0     		beq	.L7
  46              	.LVL1:
  47              	.L1:
  48 0018 08BD     		pop	{r3, pc}
  49              	.LVL2:
  50              	.L7:
  72:Drivers/GD32F1xx_standard_peripheral/Source/gd32f10x_adc.c ****     case ADC0:
  73:Drivers/GD32F1xx_standard_peripheral/Source/gd32f10x_adc.c ****         /* reset ADC0 */
  74:Drivers/GD32F1xx_standard_peripheral/Source/gd32f10x_adc.c ****         rcu_periph_reset_enable(RCU_ADC0RST);
  51              		.loc 1 74 0
  52 001a 40F20930 		movw	r0, #777
  53              	.LVL3:
  54 001e FFF7FEFF 		bl	rcu_periph_reset_enable
  55              	.LVL4:
  75:Drivers/GD32F1xx_standard_peripheral/Source/gd32f10x_adc.c ****         rcu_periph_reset_disable(RCU_ADC0RST);
  56              		.loc 1 75 0
  57 0022 40F20930 		movw	r0, #777
  58 0026 FFF7FEFF 		bl	rcu_periph_reset_disable
  59              	.LVL5:
  76:Drivers/GD32F1xx_standard_peripheral/Source/gd32f10x_adc.c ****         break;
  60              		.loc 1 76 0
  61 002a 08BD     		pop	{r3, pc}
  62              	.LVL6:
  63              	.L3:
  77:Drivers/GD32F1xx_standard_peripheral/Source/gd32f10x_adc.c ****     case ADC1:
  78:Drivers/GD32F1xx_standard_peripheral/Source/gd32f10x_adc.c ****         /* reset ADC1 */
  79:Drivers/GD32F1xx_standard_peripheral/Source/gd32f10x_adc.c ****         rcu_periph_reset_enable(RCU_ADC1RST);
  64              		.loc 1 79 0
  65 002c 40F20A30 		movw	r0, #778
  66              	.LVL7:
  67 0030 FFF7FEFF 		bl	rcu_periph_reset_enable
  68              	.LVL8:
  80:Drivers/GD32F1xx_standard_peripheral/Source/gd32f10x_adc.c ****         rcu_periph_reset_disable(RCU_ADC1RST);
  69              		.loc 1 80 0
  70 0034 40F20A30 		movw	r0, #778
  71 0038 FFF7FEFF 		bl	rcu_periph_reset_disable
  72              	.LVL9:
  81:Drivers/GD32F1xx_standard_peripheral/Source/gd32f10x_adc.c ****         break;
  73              		.loc 1 81 0
  74 003c 08BD     		pop	{r3, pc}
  75              	.LVL10:
  76              	.L4:
  82:Drivers/GD32F1xx_standard_peripheral/Source/gd32f10x_adc.c **** #ifndef GD32F10X_CL
  83:Drivers/GD32F1xx_standard_peripheral/Source/gd32f10x_adc.c ****     case ADC2:
  84:Drivers/GD32F1xx_standard_peripheral/Source/gd32f10x_adc.c ****         rcu_periph_reset_enable(RCU_ADC2RST);
  77              		.loc 1 84 0
  78 003e 40F20F30 		movw	r0, #783
  79              	.LVL11:
  80 0042 FFF7FEFF 		bl	rcu_periph_reset_enable
  81              	.LVL12:
  85:Drivers/GD32F1xx_standard_peripheral/Source/gd32f10x_adc.c ****         rcu_periph_reset_disable(RCU_ADC2RST);
  82              		.loc 1 85 0
  83 0046 40F20F30 		movw	r0, #783
  84 004a FFF7FEFF 		bl	rcu_periph_reset_disable
  85              	.LVL13:
  86:Drivers/GD32F1xx_standard_peripheral/Source/gd32f10x_adc.c ****         break;
  87:Drivers/GD32F1xx_standard_peripheral/Source/gd32f10x_adc.c **** #endif /* GD32F10X_CL */
ARM GAS  /tmp/ccdGKvZC.s 			page 4


  88:Drivers/GD32F1xx_standard_peripheral/Source/gd32f10x_adc.c ****     default:
  89:Drivers/GD32F1xx_standard_peripheral/Source/gd32f10x_adc.c ****         break;
  90:Drivers/GD32F1xx_standard_peripheral/Source/gd32f10x_adc.c ****     }
  91:Drivers/GD32F1xx_standard_peripheral/Source/gd32f10x_adc.c **** }
  86              		.loc 1 91 0
  87 004e E3E7     		b	.L1
  88              	.L9:
  89              		.align	2
  90              	.L8:
  91 0050 00280140 		.word	1073817600
  92              		.cfi_endproc
  93              	.LFE65:
  95              		.section	.text.adc_mode_config,"ax",%progbits
  96              		.align	1
  97              		.global	adc_mode_config
  98              		.syntax unified
  99              		.thumb
 100              		.thumb_func
 101              		.fpu softvfp
 103              	adc_mode_config:
 104              	.LFB66:
  92:Drivers/GD32F1xx_standard_peripheral/Source/gd32f10x_adc.c **** 
  93:Drivers/GD32F1xx_standard_peripheral/Source/gd32f10x_adc.c **** /*!
  94:Drivers/GD32F1xx_standard_peripheral/Source/gd32f10x_adc.c ****     \brief      configure the ADC sync mode
  95:Drivers/GD32F1xx_standard_peripheral/Source/gd32f10x_adc.c ****     \param[in]  mode: ADC mode
  96:Drivers/GD32F1xx_standard_peripheral/Source/gd32f10x_adc.c ****                 only one parameter can be selected which is shown as below:
  97:Drivers/GD32F1xx_standard_peripheral/Source/gd32f10x_adc.c ****       \arg        ADC_MODE_FREE: all the ADCs work independently
  98:Drivers/GD32F1xx_standard_peripheral/Source/gd32f10x_adc.c ****       \arg        ADC_DAUL_REGULAL_PARALLEL_INSERTED_PARALLEL: ADC0 and ADC1 work in combined regul
  99:Drivers/GD32F1xx_standard_peripheral/Source/gd32f10x_adc.c ****       \arg        ADC_DAUL_REGULAL_PARALLEL_INSERTED_ROTATION: ADC0 and ADC1 work in combined regul
 100:Drivers/GD32F1xx_standard_peripheral/Source/gd32f10x_adc.c ****       \arg        ADC_DAUL_INSERTED_PARALLEL_REGULAL_FOLLOWUP_FAST: ADC0 and ADC1 work in combined 
 101:Drivers/GD32F1xx_standard_peripheral/Source/gd32f10x_adc.c ****       \arg        ADC_DAUL_INSERTED_PARALLEL_REGULAL_FOLLOWUP_SLOW: ADC0 and ADC1 work in combined 
 102:Drivers/GD32F1xx_standard_peripheral/Source/gd32f10x_adc.c ****       \arg        ADC_DAUL_INSERTED_PARALLEL: ADC0 and ADC1 work in inserted parallel mode only
 103:Drivers/GD32F1xx_standard_peripheral/Source/gd32f10x_adc.c ****       \arg        ADC_DAUL_REGULAL_PARALLEL: ADC0 and ADC1 work in regular parallel mode only
 104:Drivers/GD32F1xx_standard_peripheral/Source/gd32f10x_adc.c ****       \arg        ADC_DAUL_REGULAL_FOLLOWUP_FAST: ADC0 and ADC1 work in follow-up fast mode only
 105:Drivers/GD32F1xx_standard_peripheral/Source/gd32f10x_adc.c ****       \arg        ADC_DAUL_REGULAL_FOLLOWUP_SLOW: ADC0 and ADC1 work in follow-up slow mode only
 106:Drivers/GD32F1xx_standard_peripheral/Source/gd32f10x_adc.c ****       \arg        ADC_DAUL_INSERTED_TRIGGER_ROTATION: ADC0 and ADC1 work in trigger rotation mode o
 107:Drivers/GD32F1xx_standard_peripheral/Source/gd32f10x_adc.c ****     \param[out] none
 108:Drivers/GD32F1xx_standard_peripheral/Source/gd32f10x_adc.c ****     \retval     none
 109:Drivers/GD32F1xx_standard_peripheral/Source/gd32f10x_adc.c **** */
 110:Drivers/GD32F1xx_standard_peripheral/Source/gd32f10x_adc.c **** void adc_mode_config(uint32_t mode)
 111:Drivers/GD32F1xx_standard_peripheral/Source/gd32f10x_adc.c **** {
 105              		.loc 1 111 0
 106              		.cfi_startproc
 107              		@ args = 0, pretend = 0, frame = 0
 108              		@ frame_needed = 0, uses_anonymous_args = 0
 109              		@ link register save eliminated.
 110              	.LVL14:
 112:Drivers/GD32F1xx_standard_peripheral/Source/gd32f10x_adc.c ****     ADC_CTL0(ADC0) &= ~(ADC_CTL0_SYNCM);
 111              		.loc 1 112 0
 112 0000 044B     		ldr	r3, .L11
 113 0002 1A68     		ldr	r2, [r3]
 114 0004 22F47022 		bic	r2, r2, #983040
 115 0008 1A60     		str	r2, [r3]
 113:Drivers/GD32F1xx_standard_peripheral/Source/gd32f10x_adc.c ****     ADC_CTL0(ADC0) |= mode;
 116              		.loc 1 113 0
 117 000a 1A68     		ldr	r2, [r3]
 118 000c 1043     		orrs	r0, r0, r2
ARM GAS  /tmp/ccdGKvZC.s 			page 5


 119              	.LVL15:
 120 000e 1860     		str	r0, [r3]
 121 0010 7047     		bx	lr
 122              	.L12:
 123 0012 00BF     		.align	2
 124              	.L11:
 125 0014 04240140 		.word	1073816580
 126              		.cfi_endproc
 127              	.LFE66:
 129              		.section	.text.adc_special_function_config,"ax",%progbits
 130              		.align	1
 131              		.global	adc_special_function_config
 132              		.syntax unified
 133              		.thumb
 134              		.thumb_func
 135              		.fpu softvfp
 137              	adc_special_function_config:
 138              	.LFB67:
 114:Drivers/GD32F1xx_standard_peripheral/Source/gd32f10x_adc.c **** }
 115:Drivers/GD32F1xx_standard_peripheral/Source/gd32f10x_adc.c **** 
 116:Drivers/GD32F1xx_standard_peripheral/Source/gd32f10x_adc.c **** /*!
 117:Drivers/GD32F1xx_standard_peripheral/Source/gd32f10x_adc.c ****     \brief      enable or disable ADC special function
 118:Drivers/GD32F1xx_standard_peripheral/Source/gd32f10x_adc.c ****     \param[in]  adc_periph: ADCx, x=0,1,2
 119:Drivers/GD32F1xx_standard_peripheral/Source/gd32f10x_adc.c ****     \param[in]  function: the function to config
 120:Drivers/GD32F1xx_standard_peripheral/Source/gd32f10x_adc.c ****                 only one parameter can be selected which is shown as below:
 121:Drivers/GD32F1xx_standard_peripheral/Source/gd32f10x_adc.c ****       \arg        ADC_SCAN_MODE: scan mode select
 122:Drivers/GD32F1xx_standard_peripheral/Source/gd32f10x_adc.c ****       \arg        ADC_INSERTED_CHANNEL_AUTO: inserted channel group convert automatically
 123:Drivers/GD32F1xx_standard_peripheral/Source/gd32f10x_adc.c ****       \arg        ADC_CONTINUOUS_MODE: continuous mode select
 124:Drivers/GD32F1xx_standard_peripheral/Source/gd32f10x_adc.c ****     \param[in]  newvalue: ENABLE or DISABLE
 125:Drivers/GD32F1xx_standard_peripheral/Source/gd32f10x_adc.c ****     \param[out] none
 126:Drivers/GD32F1xx_standard_peripheral/Source/gd32f10x_adc.c ****     \retval     none
 127:Drivers/GD32F1xx_standard_peripheral/Source/gd32f10x_adc.c **** */
 128:Drivers/GD32F1xx_standard_peripheral/Source/gd32f10x_adc.c **** void adc_special_function_config(uint32_t adc_periph, uint32_t function, ControlStatus newvalue)
 129:Drivers/GD32F1xx_standard_peripheral/Source/gd32f10x_adc.c **** {
 139              		.loc 1 129 0
 140              		.cfi_startproc
 141              		@ args = 0, pretend = 0, frame = 0
 142              		@ frame_needed = 0, uses_anonymous_args = 0
 143              		@ link register save eliminated.
 144              	.LVL16:
 130:Drivers/GD32F1xx_standard_peripheral/Source/gd32f10x_adc.c ****     if(newvalue){
 145              		.loc 1 130 0
 146 0000 AAB1     		cbz	r2, .L14
 131:Drivers/GD32F1xx_standard_peripheral/Source/gd32f10x_adc.c ****         if(0U != (function & ADC_SCAN_MODE)){
 147              		.loc 1 131 0
 148 0002 11F4807F 		tst	r1, #256
 149 0006 03D0     		beq	.L15
 132:Drivers/GD32F1xx_standard_peripheral/Source/gd32f10x_adc.c ****             /* enable scan mode */
 133:Drivers/GD32F1xx_standard_peripheral/Source/gd32f10x_adc.c ****             ADC_CTL0(adc_periph) |= ADC_SCAN_MODE;
 150              		.loc 1 133 0
 151 0008 4368     		ldr	r3, [r0, #4]
 152 000a 43F48073 		orr	r3, r3, #256
 153 000e 4360     		str	r3, [r0, #4]
 154              	.L15:
 134:Drivers/GD32F1xx_standard_peripheral/Source/gd32f10x_adc.c ****         }
 135:Drivers/GD32F1xx_standard_peripheral/Source/gd32f10x_adc.c ****         if(0U != (function & ADC_INSERTED_CHANNEL_AUTO)){
 155              		.loc 1 135 0
ARM GAS  /tmp/ccdGKvZC.s 			page 6


 156 0010 11F4806F 		tst	r1, #1024
 157 0014 03D0     		beq	.L16
 136:Drivers/GD32F1xx_standard_peripheral/Source/gd32f10x_adc.c ****             /* enable inserted channel group convert automatically */
 137:Drivers/GD32F1xx_standard_peripheral/Source/gd32f10x_adc.c ****             ADC_CTL0(adc_periph) |= ADC_INSERTED_CHANNEL_AUTO;
 158              		.loc 1 137 0
 159 0016 4368     		ldr	r3, [r0, #4]
 160 0018 43F48063 		orr	r3, r3, #1024
 161 001c 4360     		str	r3, [r0, #4]
 162              	.L16:
 138:Drivers/GD32F1xx_standard_peripheral/Source/gd32f10x_adc.c ****         } 
 139:Drivers/GD32F1xx_standard_peripheral/Source/gd32f10x_adc.c ****         if(0U != (function & ADC_CONTINUOUS_MODE)){
 163              		.loc 1 139 0
 164 001e 11F0020F 		tst	r1, #2
 165 0022 19D0     		beq	.L13
 140:Drivers/GD32F1xx_standard_peripheral/Source/gd32f10x_adc.c ****             /* enable continuous mode */
 141:Drivers/GD32F1xx_standard_peripheral/Source/gd32f10x_adc.c ****             ADC_CTL1(adc_periph) |= ADC_CONTINUOUS_MODE;
 166              		.loc 1 141 0
 167 0024 8368     		ldr	r3, [r0, #8]
 168 0026 43F00203 		orr	r3, r3, #2
 169 002a 8360     		str	r3, [r0, #8]
 170 002c 7047     		bx	lr
 171              	.L14:
 142:Drivers/GD32F1xx_standard_peripheral/Source/gd32f10x_adc.c ****         }        
 143:Drivers/GD32F1xx_standard_peripheral/Source/gd32f10x_adc.c ****     }else{
 144:Drivers/GD32F1xx_standard_peripheral/Source/gd32f10x_adc.c ****         if(0U != (function & ADC_SCAN_MODE)){
 172              		.loc 1 144 0
 173 002e 11F4807F 		tst	r1, #256
 174 0032 03D0     		beq	.L18
 145:Drivers/GD32F1xx_standard_peripheral/Source/gd32f10x_adc.c ****             /* disable scan mode */
 146:Drivers/GD32F1xx_standard_peripheral/Source/gd32f10x_adc.c ****             ADC_CTL0(adc_periph) &= ~ADC_SCAN_MODE;
 175              		.loc 1 146 0
 176 0034 4368     		ldr	r3, [r0, #4]
 177 0036 23F48073 		bic	r3, r3, #256
 178 003a 4360     		str	r3, [r0, #4]
 179              	.L18:
 147:Drivers/GD32F1xx_standard_peripheral/Source/gd32f10x_adc.c ****         }
 148:Drivers/GD32F1xx_standard_peripheral/Source/gd32f10x_adc.c ****         if(0U != (function & ADC_INSERTED_CHANNEL_AUTO)){
 180              		.loc 1 148 0
 181 003c 11F4806F 		tst	r1, #1024
 182 0040 03D0     		beq	.L19
 149:Drivers/GD32F1xx_standard_peripheral/Source/gd32f10x_adc.c ****             /* disable inserted channel group convert automatically */
 150:Drivers/GD32F1xx_standard_peripheral/Source/gd32f10x_adc.c ****             ADC_CTL0(adc_periph) &= ~ADC_INSERTED_CHANNEL_AUTO;
 183              		.loc 1 150 0
 184 0042 4368     		ldr	r3, [r0, #4]
 185 0044 23F48063 		bic	r3, r3, #1024
 186 0048 4360     		str	r3, [r0, #4]
 187              	.L19:
 151:Drivers/GD32F1xx_standard_peripheral/Source/gd32f10x_adc.c ****         } 
 152:Drivers/GD32F1xx_standard_peripheral/Source/gd32f10x_adc.c ****         if(0U != (function & ADC_CONTINUOUS_MODE)){
 188              		.loc 1 152 0
 189 004a 11F0020F 		tst	r1, #2
 190 004e 03D0     		beq	.L13
 153:Drivers/GD32F1xx_standard_peripheral/Source/gd32f10x_adc.c ****             /* disable continuous mode */
 154:Drivers/GD32F1xx_standard_peripheral/Source/gd32f10x_adc.c ****             ADC_CTL1(adc_periph) &= ~ADC_CONTINUOUS_MODE;
 191              		.loc 1 154 0
 192 0050 8368     		ldr	r3, [r0, #8]
 193 0052 23F00203 		bic	r3, r3, #2
ARM GAS  /tmp/ccdGKvZC.s 			page 7


 194 0056 8360     		str	r3, [r0, #8]
 195              	.L13:
 196 0058 7047     		bx	lr
 197              		.cfi_endproc
 198              	.LFE67:
 200              		.section	.text.adc_data_alignment_config,"ax",%progbits
 201              		.align	1
 202              		.global	adc_data_alignment_config
 203              		.syntax unified
 204              		.thumb
 205              		.thumb_func
 206              		.fpu softvfp
 208              	adc_data_alignment_config:
 209              	.LFB68:
 155:Drivers/GD32F1xx_standard_peripheral/Source/gd32f10x_adc.c ****         }       
 156:Drivers/GD32F1xx_standard_peripheral/Source/gd32f10x_adc.c ****     }
 157:Drivers/GD32F1xx_standard_peripheral/Source/gd32f10x_adc.c **** }
 158:Drivers/GD32F1xx_standard_peripheral/Source/gd32f10x_adc.c **** 
 159:Drivers/GD32F1xx_standard_peripheral/Source/gd32f10x_adc.c **** /*!
 160:Drivers/GD32F1xx_standard_peripheral/Source/gd32f10x_adc.c ****     \brief      configure ADC data alignment 
 161:Drivers/GD32F1xx_standard_peripheral/Source/gd32f10x_adc.c ****     \param[in]  adc_periph: ADCx, x=0,1,2
 162:Drivers/GD32F1xx_standard_peripheral/Source/gd32f10x_adc.c ****     \param[in]  data_alignment: data alignment select
 163:Drivers/GD32F1xx_standard_peripheral/Source/gd32f10x_adc.c ****                 only one parameter can be selected which is shown as below:
 164:Drivers/GD32F1xx_standard_peripheral/Source/gd32f10x_adc.c ****       \arg        ADC_DATAALIGN_RIGHT: LSB alignment
 165:Drivers/GD32F1xx_standard_peripheral/Source/gd32f10x_adc.c ****       \arg        ADC_DATAALIGN_LEFT: MSB alignment
 166:Drivers/GD32F1xx_standard_peripheral/Source/gd32f10x_adc.c ****     \param[out] none
 167:Drivers/GD32F1xx_standard_peripheral/Source/gd32f10x_adc.c ****     \retval     none
 168:Drivers/GD32F1xx_standard_peripheral/Source/gd32f10x_adc.c **** */
 169:Drivers/GD32F1xx_standard_peripheral/Source/gd32f10x_adc.c **** void adc_data_alignment_config(uint32_t adc_periph, uint32_t data_alignment)
 170:Drivers/GD32F1xx_standard_peripheral/Source/gd32f10x_adc.c **** {
 210              		.loc 1 170 0
 211              		.cfi_startproc
 212              		@ args = 0, pretend = 0, frame = 0
 213              		@ frame_needed = 0, uses_anonymous_args = 0
 214              		@ link register save eliminated.
 215              	.LVL17:
 171:Drivers/GD32F1xx_standard_peripheral/Source/gd32f10x_adc.c ****     if(ADC_DATAALIGN_RIGHT != data_alignment){
 216              		.loc 1 171 0
 217 0000 21B9     		cbnz	r1, .L23
 172:Drivers/GD32F1xx_standard_peripheral/Source/gd32f10x_adc.c ****         /* MSB alignment */
 173:Drivers/GD32F1xx_standard_peripheral/Source/gd32f10x_adc.c ****         ADC_CTL1(adc_periph) |= ADC_CTL1_DAL;
 174:Drivers/GD32F1xx_standard_peripheral/Source/gd32f10x_adc.c ****     }else{
 175:Drivers/GD32F1xx_standard_peripheral/Source/gd32f10x_adc.c ****         /* LSB alignment */
 176:Drivers/GD32F1xx_standard_peripheral/Source/gd32f10x_adc.c ****         ADC_CTL1(adc_periph) &= ~((uint32_t)ADC_CTL1_DAL);
 218              		.loc 1 176 0
 219 0002 8368     		ldr	r3, [r0, #8]
 220 0004 23F40063 		bic	r3, r3, #2048
 221 0008 8360     		str	r3, [r0, #8]
 222 000a 7047     		bx	lr
 223              	.L23:
 173:Drivers/GD32F1xx_standard_peripheral/Source/gd32f10x_adc.c ****     }else{
 224              		.loc 1 173 0
 225 000c 8368     		ldr	r3, [r0, #8]
 226 000e 43F40063 		orr	r3, r3, #2048
 227 0012 8360     		str	r3, [r0, #8]
 228 0014 7047     		bx	lr
 229              		.cfi_endproc
ARM GAS  /tmp/ccdGKvZC.s 			page 8


 230              	.LFE68:
 232              		.section	.text.adc_enable,"ax",%progbits
 233              		.align	1
 234              		.global	adc_enable
 235              		.syntax unified
 236              		.thumb
 237              		.thumb_func
 238              		.fpu softvfp
 240              	adc_enable:
 241              	.LFB69:
 177:Drivers/GD32F1xx_standard_peripheral/Source/gd32f10x_adc.c ****     }
 178:Drivers/GD32F1xx_standard_peripheral/Source/gd32f10x_adc.c **** }
 179:Drivers/GD32F1xx_standard_peripheral/Source/gd32f10x_adc.c **** 
 180:Drivers/GD32F1xx_standard_peripheral/Source/gd32f10x_adc.c **** /*!
 181:Drivers/GD32F1xx_standard_peripheral/Source/gd32f10x_adc.c ****     \brief      enable ADC interface
 182:Drivers/GD32F1xx_standard_peripheral/Source/gd32f10x_adc.c ****     \param[in]  adc_periph: ADCx, x=0,1,2
 183:Drivers/GD32F1xx_standard_peripheral/Source/gd32f10x_adc.c ****     \param[out] none
 184:Drivers/GD32F1xx_standard_peripheral/Source/gd32f10x_adc.c ****     \retval     none
 185:Drivers/GD32F1xx_standard_peripheral/Source/gd32f10x_adc.c **** */
 186:Drivers/GD32F1xx_standard_peripheral/Source/gd32f10x_adc.c **** void adc_enable(uint32_t adc_periph)
 187:Drivers/GD32F1xx_standard_peripheral/Source/gd32f10x_adc.c **** {
 242              		.loc 1 187 0
 243              		.cfi_startproc
 244              		@ args = 0, pretend = 0, frame = 0
 245              		@ frame_needed = 0, uses_anonymous_args = 0
 246              		@ link register save eliminated.
 247              	.LVL18:
 188:Drivers/GD32F1xx_standard_peripheral/Source/gd32f10x_adc.c ****     if(RESET == (ADC_CTL1(adc_periph) & ADC_CTL1_ADCON)){
 248              		.loc 1 188 0
 249 0000 8368     		ldr	r3, [r0, #8]
 250 0002 13F0010F 		tst	r3, #1
 251 0006 03D1     		bne	.L24
 189:Drivers/GD32F1xx_standard_peripheral/Source/gd32f10x_adc.c ****         /* enable ADC */
 190:Drivers/GD32F1xx_standard_peripheral/Source/gd32f10x_adc.c ****         ADC_CTL1(adc_periph) |= (uint32_t)ADC_CTL1_ADCON;
 252              		.loc 1 190 0
 253 0008 8368     		ldr	r3, [r0, #8]
 254 000a 43F00103 		orr	r3, r3, #1
 255 000e 8360     		str	r3, [r0, #8]
 256              	.L24:
 257 0010 7047     		bx	lr
 258              		.cfi_endproc
 259              	.LFE69:
 261              		.section	.text.adc_disable,"ax",%progbits
 262              		.align	1
 263              		.global	adc_disable
 264              		.syntax unified
 265              		.thumb
 266              		.thumb_func
 267              		.fpu softvfp
 269              	adc_disable:
 270              	.LFB70:
 191:Drivers/GD32F1xx_standard_peripheral/Source/gd32f10x_adc.c ****     }       
 192:Drivers/GD32F1xx_standard_peripheral/Source/gd32f10x_adc.c **** }
 193:Drivers/GD32F1xx_standard_peripheral/Source/gd32f10x_adc.c **** 
 194:Drivers/GD32F1xx_standard_peripheral/Source/gd32f10x_adc.c **** /*!
 195:Drivers/GD32F1xx_standard_peripheral/Source/gd32f10x_adc.c ****     \brief      disable ADC interface
 196:Drivers/GD32F1xx_standard_peripheral/Source/gd32f10x_adc.c ****     \param[in]  adc_periph: ADCx, x=0,1,2
ARM GAS  /tmp/ccdGKvZC.s 			page 9


 197:Drivers/GD32F1xx_standard_peripheral/Source/gd32f10x_adc.c ****     \param[out] none
 198:Drivers/GD32F1xx_standard_peripheral/Source/gd32f10x_adc.c ****     \retval     none
 199:Drivers/GD32F1xx_standard_peripheral/Source/gd32f10x_adc.c **** */
 200:Drivers/GD32F1xx_standard_peripheral/Source/gd32f10x_adc.c **** void adc_disable(uint32_t adc_periph)
 201:Drivers/GD32F1xx_standard_peripheral/Source/gd32f10x_adc.c **** {
 271              		.loc 1 201 0
 272              		.cfi_startproc
 273              		@ args = 0, pretend = 0, frame = 0
 274              		@ frame_needed = 0, uses_anonymous_args = 0
 275              		@ link register save eliminated.
 276              	.LVL19:
 202:Drivers/GD32F1xx_standard_peripheral/Source/gd32f10x_adc.c ****     /* disable ADC */
 203:Drivers/GD32F1xx_standard_peripheral/Source/gd32f10x_adc.c ****     ADC_CTL1(adc_periph) &= ~((uint32_t)ADC_CTL1_ADCON);
 277              		.loc 1 203 0
 278 0000 8368     		ldr	r3, [r0, #8]
 279 0002 23F00103 		bic	r3, r3, #1
 280 0006 8360     		str	r3, [r0, #8]
 281 0008 7047     		bx	lr
 282              		.cfi_endproc
 283              	.LFE70:
 285              		.section	.text.adc_calibration_enable,"ax",%progbits
 286              		.align	1
 287              		.global	adc_calibration_enable
 288              		.syntax unified
 289              		.thumb
 290              		.thumb_func
 291              		.fpu softvfp
 293              	adc_calibration_enable:
 294              	.LFB71:
 204:Drivers/GD32F1xx_standard_peripheral/Source/gd32f10x_adc.c **** }
 205:Drivers/GD32F1xx_standard_peripheral/Source/gd32f10x_adc.c **** 
 206:Drivers/GD32F1xx_standard_peripheral/Source/gd32f10x_adc.c **** /*!
 207:Drivers/GD32F1xx_standard_peripheral/Source/gd32f10x_adc.c ****     \brief      ADC calibration and reset calibration
 208:Drivers/GD32F1xx_standard_peripheral/Source/gd32f10x_adc.c ****     \param[in]  adc_periph: ADCx, x=0,1,2
 209:Drivers/GD32F1xx_standard_peripheral/Source/gd32f10x_adc.c ****     \param[out] none
 210:Drivers/GD32F1xx_standard_peripheral/Source/gd32f10x_adc.c ****     \retval     none
 211:Drivers/GD32F1xx_standard_peripheral/Source/gd32f10x_adc.c **** */
 212:Drivers/GD32F1xx_standard_peripheral/Source/gd32f10x_adc.c **** void adc_calibration_enable(uint32_t adc_periph)
 213:Drivers/GD32F1xx_standard_peripheral/Source/gd32f10x_adc.c **** {
 295              		.loc 1 213 0
 296              		.cfi_startproc
 297              		@ args = 0, pretend = 0, frame = 0
 298              		@ frame_needed = 0, uses_anonymous_args = 0
 299              		@ link register save eliminated.
 300              	.LVL20:
 214:Drivers/GD32F1xx_standard_peripheral/Source/gd32f10x_adc.c ****     /* reset the selected ADC1 calibration registers */
 215:Drivers/GD32F1xx_standard_peripheral/Source/gd32f10x_adc.c ****     ADC_CTL1(adc_periph) |= (uint32_t) ADC_CTL1_RSTCLB;
 301              		.loc 1 215 0
 302 0000 00F10803 		add	r3, r0, #8
 303 0004 8268     		ldr	r2, [r0, #8]
 304 0006 42F00802 		orr	r2, r2, #8
 305 000a 8260     		str	r2, [r0, #8]
 306              	.L28:
 216:Drivers/GD32F1xx_standard_peripheral/Source/gd32f10x_adc.c ****     /* check the RSTCLB bit state */
 217:Drivers/GD32F1xx_standard_peripheral/Source/gd32f10x_adc.c ****     while(RESET != (ADC_CTL1(adc_periph) & ADC_CTL1_RSTCLB)){
 307              		.loc 1 217 0 discriminator 1
 308 000c 1A68     		ldr	r2, [r3]
ARM GAS  /tmp/ccdGKvZC.s 			page 10


 309 000e 12F0080F 		tst	r2, #8
 310 0012 FBD1     		bne	.L28
 218:Drivers/GD32F1xx_standard_peripheral/Source/gd32f10x_adc.c ****     }
 219:Drivers/GD32F1xx_standard_peripheral/Source/gd32f10x_adc.c ****     /* enable ADC calibration process */
 220:Drivers/GD32F1xx_standard_peripheral/Source/gd32f10x_adc.c ****     ADC_CTL1(adc_periph) |= ADC_CTL1_CLB;
 311              		.loc 1 220 0
 312 0014 8268     		ldr	r2, [r0, #8]
 313 0016 42F00402 		orr	r2, r2, #4
 314 001a 8260     		str	r2, [r0, #8]
 315              	.L29:
 221:Drivers/GD32F1xx_standard_peripheral/Source/gd32f10x_adc.c ****     /* check the CLB bit state */
 222:Drivers/GD32F1xx_standard_peripheral/Source/gd32f10x_adc.c ****     while(RESET != (ADC_CTL1(adc_periph) & ADC_CTL1_CLB)){
 316              		.loc 1 222 0 discriminator 1
 317 001c 1A68     		ldr	r2, [r3]
 318 001e 12F0040F 		tst	r2, #4
 319 0022 FBD1     		bne	.L29
 223:Drivers/GD32F1xx_standard_peripheral/Source/gd32f10x_adc.c ****     }
 224:Drivers/GD32F1xx_standard_peripheral/Source/gd32f10x_adc.c **** }
 320              		.loc 1 224 0
 321 0024 7047     		bx	lr
 322              		.cfi_endproc
 323              	.LFE71:
 325              		.section	.text.adc_tempsensor_vrefint_enable,"ax",%progbits
 326              		.align	1
 327              		.global	adc_tempsensor_vrefint_enable
 328              		.syntax unified
 329              		.thumb
 330              		.thumb_func
 331              		.fpu softvfp
 333              	adc_tempsensor_vrefint_enable:
 334              	.LFB72:
 225:Drivers/GD32F1xx_standard_peripheral/Source/gd32f10x_adc.c **** 
 226:Drivers/GD32F1xx_standard_peripheral/Source/gd32f10x_adc.c **** /*!
 227:Drivers/GD32F1xx_standard_peripheral/Source/gd32f10x_adc.c ****     \brief      enable the temperature sensor and Vrefint channel
 228:Drivers/GD32F1xx_standard_peripheral/Source/gd32f10x_adc.c ****     \param[in]  none
 229:Drivers/GD32F1xx_standard_peripheral/Source/gd32f10x_adc.c ****     \param[out] none
 230:Drivers/GD32F1xx_standard_peripheral/Source/gd32f10x_adc.c ****     \retval     none
 231:Drivers/GD32F1xx_standard_peripheral/Source/gd32f10x_adc.c **** */
 232:Drivers/GD32F1xx_standard_peripheral/Source/gd32f10x_adc.c **** void adc_tempsensor_vrefint_enable(void)
 233:Drivers/GD32F1xx_standard_peripheral/Source/gd32f10x_adc.c **** {
 335              		.loc 1 233 0
 336              		.cfi_startproc
 337              		@ args = 0, pretend = 0, frame = 0
 338              		@ frame_needed = 0, uses_anonymous_args = 0
 339              		@ link register save eliminated.
 234:Drivers/GD32F1xx_standard_peripheral/Source/gd32f10x_adc.c ****     /* enable the temperature sensor and Vrefint channel */
 235:Drivers/GD32F1xx_standard_peripheral/Source/gd32f10x_adc.c ****     ADC_CTL1(ADC0) |= ADC_CTL1_TSVREN;
 340              		.loc 1 235 0
 341 0000 024A     		ldr	r2, .L31
 342 0002 1368     		ldr	r3, [r2]
 343 0004 43F40003 		orr	r3, r3, #8388608
 344 0008 1360     		str	r3, [r2]
 345 000a 7047     		bx	lr
 346              	.L32:
 347              		.align	2
 348              	.L31:
 349 000c 08240140 		.word	1073816584
ARM GAS  /tmp/ccdGKvZC.s 			page 11


 350              		.cfi_endproc
 351              	.LFE72:
 353              		.section	.text.adc_tempsensor_vrefint_disable,"ax",%progbits
 354              		.align	1
 355              		.global	adc_tempsensor_vrefint_disable
 356              		.syntax unified
 357              		.thumb
 358              		.thumb_func
 359              		.fpu softvfp
 361              	adc_tempsensor_vrefint_disable:
 362              	.LFB73:
 236:Drivers/GD32F1xx_standard_peripheral/Source/gd32f10x_adc.c **** }
 237:Drivers/GD32F1xx_standard_peripheral/Source/gd32f10x_adc.c **** 
 238:Drivers/GD32F1xx_standard_peripheral/Source/gd32f10x_adc.c **** /*!
 239:Drivers/GD32F1xx_standard_peripheral/Source/gd32f10x_adc.c ****     \brief      disable the temperature sensor and Vrefint channel
 240:Drivers/GD32F1xx_standard_peripheral/Source/gd32f10x_adc.c ****     \param[in]  none
 241:Drivers/GD32F1xx_standard_peripheral/Source/gd32f10x_adc.c ****     \param[out] none
 242:Drivers/GD32F1xx_standard_peripheral/Source/gd32f10x_adc.c ****     \retval     none
 243:Drivers/GD32F1xx_standard_peripheral/Source/gd32f10x_adc.c **** */
 244:Drivers/GD32F1xx_standard_peripheral/Source/gd32f10x_adc.c **** void adc_tempsensor_vrefint_disable(void)
 245:Drivers/GD32F1xx_standard_peripheral/Source/gd32f10x_adc.c **** {
 363              		.loc 1 245 0
 364              		.cfi_startproc
 365              		@ args = 0, pretend = 0, frame = 0
 366              		@ frame_needed = 0, uses_anonymous_args = 0
 367              		@ link register save eliminated.
 246:Drivers/GD32F1xx_standard_peripheral/Source/gd32f10x_adc.c ****     /* disable the temperature sensor and Vrefint channel */
 247:Drivers/GD32F1xx_standard_peripheral/Source/gd32f10x_adc.c ****     ADC_CTL1(ADC0) &= ~ADC_CTL1_TSVREN;
 368              		.loc 1 247 0
 369 0000 024A     		ldr	r2, .L34
 370 0002 1368     		ldr	r3, [r2]
 371 0004 23F40003 		bic	r3, r3, #8388608
 372 0008 1360     		str	r3, [r2]
 373 000a 7047     		bx	lr
 374              	.L35:
 375              		.align	2
 376              	.L34:
 377 000c 08240140 		.word	1073816584
 378              		.cfi_endproc
 379              	.LFE73:
 381              		.section	.text.adc_dma_mode_enable,"ax",%progbits
 382              		.align	1
 383              		.global	adc_dma_mode_enable
 384              		.syntax unified
 385              		.thumb
 386              		.thumb_func
 387              		.fpu softvfp
 389              	adc_dma_mode_enable:
 390              	.LFB74:
 248:Drivers/GD32F1xx_standard_peripheral/Source/gd32f10x_adc.c **** }
 249:Drivers/GD32F1xx_standard_peripheral/Source/gd32f10x_adc.c **** 
 250:Drivers/GD32F1xx_standard_peripheral/Source/gd32f10x_adc.c **** /*!
 251:Drivers/GD32F1xx_standard_peripheral/Source/gd32f10x_adc.c ****     \brief      enable DMA request 
 252:Drivers/GD32F1xx_standard_peripheral/Source/gd32f10x_adc.c ****     \param[in]  adc_periph: ADCx, x=0,1,2
 253:Drivers/GD32F1xx_standard_peripheral/Source/gd32f10x_adc.c ****     \param[out] none
 254:Drivers/GD32F1xx_standard_peripheral/Source/gd32f10x_adc.c ****     \retval     none
 255:Drivers/GD32F1xx_standard_peripheral/Source/gd32f10x_adc.c **** */
ARM GAS  /tmp/ccdGKvZC.s 			page 12


 256:Drivers/GD32F1xx_standard_peripheral/Source/gd32f10x_adc.c **** void adc_dma_mode_enable(uint32_t adc_periph)
 257:Drivers/GD32F1xx_standard_peripheral/Source/gd32f10x_adc.c **** {
 391              		.loc 1 257 0
 392              		.cfi_startproc
 393              		@ args = 0, pretend = 0, frame = 0
 394              		@ frame_needed = 0, uses_anonymous_args = 0
 395              		@ link register save eliminated.
 396              	.LVL21:
 258:Drivers/GD32F1xx_standard_peripheral/Source/gd32f10x_adc.c ****     /* enable DMA request */
 259:Drivers/GD32F1xx_standard_peripheral/Source/gd32f10x_adc.c ****     ADC_CTL1(adc_periph) |= (uint32_t)(ADC_CTL1_DMA);
 397              		.loc 1 259 0
 398 0000 8368     		ldr	r3, [r0, #8]
 399 0002 43F48073 		orr	r3, r3, #256
 400 0006 8360     		str	r3, [r0, #8]
 401 0008 7047     		bx	lr
 402              		.cfi_endproc
 403              	.LFE74:
 405              		.section	.text.adc_dma_mode_disable,"ax",%progbits
 406              		.align	1
 407              		.global	adc_dma_mode_disable
 408              		.syntax unified
 409              		.thumb
 410              		.thumb_func
 411              		.fpu softvfp
 413              	adc_dma_mode_disable:
 414              	.LFB75:
 260:Drivers/GD32F1xx_standard_peripheral/Source/gd32f10x_adc.c **** }
 261:Drivers/GD32F1xx_standard_peripheral/Source/gd32f10x_adc.c **** 
 262:Drivers/GD32F1xx_standard_peripheral/Source/gd32f10x_adc.c **** /*!
 263:Drivers/GD32F1xx_standard_peripheral/Source/gd32f10x_adc.c ****     \brief      disable DMA request 
 264:Drivers/GD32F1xx_standard_peripheral/Source/gd32f10x_adc.c ****     \param[in]  adc_periph: ADCx, x=0,1,2
 265:Drivers/GD32F1xx_standard_peripheral/Source/gd32f10x_adc.c ****     \param[out] none
 266:Drivers/GD32F1xx_standard_peripheral/Source/gd32f10x_adc.c ****     \retval     none
 267:Drivers/GD32F1xx_standard_peripheral/Source/gd32f10x_adc.c **** */
 268:Drivers/GD32F1xx_standard_peripheral/Source/gd32f10x_adc.c **** void adc_dma_mode_disable(uint32_t adc_periph)
 269:Drivers/GD32F1xx_standard_peripheral/Source/gd32f10x_adc.c **** {
 415              		.loc 1 269 0
 416              		.cfi_startproc
 417              		@ args = 0, pretend = 0, frame = 0
 418              		@ frame_needed = 0, uses_anonymous_args = 0
 419              		@ link register save eliminated.
 420              	.LVL22:
 270:Drivers/GD32F1xx_standard_peripheral/Source/gd32f10x_adc.c ****     /* disable DMA request */
 271:Drivers/GD32F1xx_standard_peripheral/Source/gd32f10x_adc.c ****     ADC_CTL1(adc_periph) &= ~((uint32_t)ADC_CTL1_DMA);
 421              		.loc 1 271 0
 422 0000 8368     		ldr	r3, [r0, #8]
 423 0002 23F48073 		bic	r3, r3, #256
 424 0006 8360     		str	r3, [r0, #8]
 425 0008 7047     		bx	lr
 426              		.cfi_endproc
 427              	.LFE75:
 429              		.section	.text.adc_discontinuous_mode_config,"ax",%progbits
 430              		.align	1
 431              		.global	adc_discontinuous_mode_config
 432              		.syntax unified
 433              		.thumb
 434              		.thumb_func
ARM GAS  /tmp/ccdGKvZC.s 			page 13


 435              		.fpu softvfp
 437              	adc_discontinuous_mode_config:
 438              	.LFB76:
 272:Drivers/GD32F1xx_standard_peripheral/Source/gd32f10x_adc.c **** }
 273:Drivers/GD32F1xx_standard_peripheral/Source/gd32f10x_adc.c **** 
 274:Drivers/GD32F1xx_standard_peripheral/Source/gd32f10x_adc.c **** /*!
 275:Drivers/GD32F1xx_standard_peripheral/Source/gd32f10x_adc.c ****     \brief      configure ADC discontinuous mode 
 276:Drivers/GD32F1xx_standard_peripheral/Source/gd32f10x_adc.c ****     \param[in]  adc_periph: ADCx, x=0,1,2
 277:Drivers/GD32F1xx_standard_peripheral/Source/gd32f10x_adc.c ****     \param[in]  adc_channel_group: select the channel group
 278:Drivers/GD32F1xx_standard_peripheral/Source/gd32f10x_adc.c ****                 only one parameter can be selected which is shown as below:
 279:Drivers/GD32F1xx_standard_peripheral/Source/gd32f10x_adc.c ****       \arg        ADC_REGULAR_CHANNEL: regular channel group
 280:Drivers/GD32F1xx_standard_peripheral/Source/gd32f10x_adc.c ****       \arg        ADC_INSERTED_CHANNEL: inserted channel group
 281:Drivers/GD32F1xx_standard_peripheral/Source/gd32f10x_adc.c ****       \arg        ADC_CHANNEL_DISCON_DISABLE: disable discontinuous mode of regular & inserted chan
 282:Drivers/GD32F1xx_standard_peripheral/Source/gd32f10x_adc.c ****     \param[in]  length: number of conversions in discontinuous mode,the number can be 1..8
 283:Drivers/GD32F1xx_standard_peripheral/Source/gd32f10x_adc.c ****                         for regular channel, the number has no effect for inserted channel
 284:Drivers/GD32F1xx_standard_peripheral/Source/gd32f10x_adc.c ****     \param[out] none
 285:Drivers/GD32F1xx_standard_peripheral/Source/gd32f10x_adc.c ****     \retval     none
 286:Drivers/GD32F1xx_standard_peripheral/Source/gd32f10x_adc.c **** */
 287:Drivers/GD32F1xx_standard_peripheral/Source/gd32f10x_adc.c **** void adc_discontinuous_mode_config(uint32_t adc_periph, uint8_t adc_channel_group, uint8_t length)
 288:Drivers/GD32F1xx_standard_peripheral/Source/gd32f10x_adc.c **** {
 439              		.loc 1 288 0
 440              		.cfi_startproc
 441              		@ args = 0, pretend = 0, frame = 0
 442              		@ frame_needed = 0, uses_anonymous_args = 0
 443              		@ link register save eliminated.
 444              	.LVL23:
 289:Drivers/GD32F1xx_standard_peripheral/Source/gd32f10x_adc.c ****     /* disable discontinuous mode of regular & inserted channel */
 290:Drivers/GD32F1xx_standard_peripheral/Source/gd32f10x_adc.c ****     ADC_CTL0(adc_periph) &= ~((uint32_t)(ADC_CTL0_DISRC | ADC_CTL0_DISIC));
 445              		.loc 1 290 0
 446 0000 4368     		ldr	r3, [r0, #4]
 447 0002 23F4C053 		bic	r3, r3, #6144
 448 0006 4360     		str	r3, [r0, #4]
 291:Drivers/GD32F1xx_standard_peripheral/Source/gd32f10x_adc.c ****     switch(adc_channel_group){
 449              		.loc 1 291 0
 450 0008 0129     		cmp	r1, #1
 451 000a 02D0     		beq	.L40
 452 000c 0229     		cmp	r1, #2
 453 000e 0FD0     		beq	.L41
 454 0010 7047     		bx	lr
 455              	.L40:
 292:Drivers/GD32F1xx_standard_peripheral/Source/gd32f10x_adc.c ****     case ADC_REGULAR_CHANNEL:
 293:Drivers/GD32F1xx_standard_peripheral/Source/gd32f10x_adc.c ****         /* config the number of conversions in discontinuous mode */
 294:Drivers/GD32F1xx_standard_peripheral/Source/gd32f10x_adc.c ****         ADC_CTL0(adc_periph) &= ~((uint32_t)ADC_CTL0_DISNUM);
 456              		.loc 1 294 0
 457 0012 4368     		ldr	r3, [r0, #4]
 458 0014 23F46043 		bic	r3, r3, #57344
 459 0018 4360     		str	r3, [r0, #4]
 295:Drivers/GD32F1xx_standard_peripheral/Source/gd32f10x_adc.c ****         ADC_CTL0(adc_periph) |= CTL0_DISNUM(((uint32_t)length - ADC_CHANNEL_LENGTH_SUBTRACT_ONE));
 460              		.loc 1 295 0
 461 001a 4368     		ldr	r3, [r0, #4]
 462 001c 013A     		subs	r2, r2, #1
 463              	.LVL24:
 464 001e 5203     		lsls	r2, r2, #13
 465 0020 92B2     		uxth	r2, r2
 466 0022 1A43     		orrs	r2, r2, r3
 467 0024 4260     		str	r2, [r0, #4]
 296:Drivers/GD32F1xx_standard_peripheral/Source/gd32f10x_adc.c ****         /* enable regular channel group discontinuous mode */
ARM GAS  /tmp/ccdGKvZC.s 			page 14


 297:Drivers/GD32F1xx_standard_peripheral/Source/gd32f10x_adc.c ****         ADC_CTL0(adc_periph) |= (uint32_t)ADC_CTL0_DISRC;
 468              		.loc 1 297 0
 469 0026 4368     		ldr	r3, [r0, #4]
 470 0028 43F40063 		orr	r3, r3, #2048
 471 002c 4360     		str	r3, [r0, #4]
 298:Drivers/GD32F1xx_standard_peripheral/Source/gd32f10x_adc.c ****         break;
 472              		.loc 1 298 0
 473 002e 7047     		bx	lr
 474              	.LVL25:
 475              	.L41:
 299:Drivers/GD32F1xx_standard_peripheral/Source/gd32f10x_adc.c ****     case ADC_INSERTED_CHANNEL:
 300:Drivers/GD32F1xx_standard_peripheral/Source/gd32f10x_adc.c ****         /* enable inserted channel group discontinuous mode */
 301:Drivers/GD32F1xx_standard_peripheral/Source/gd32f10x_adc.c ****         ADC_CTL0(adc_periph) |= (uint32_t)ADC_CTL0_DISIC;
 476              		.loc 1 301 0
 477 0030 4368     		ldr	r3, [r0, #4]
 478 0032 43F48053 		orr	r3, r3, #4096
 479 0036 4360     		str	r3, [r0, #4]
 480 0038 7047     		bx	lr
 481              		.cfi_endproc
 482              	.LFE76:
 484              		.section	.text.adc_channel_length_config,"ax",%progbits
 485              		.align	1
 486              		.global	adc_channel_length_config
 487              		.syntax unified
 488              		.thumb
 489              		.thumb_func
 490              		.fpu softvfp
 492              	adc_channel_length_config:
 493              	.LFB77:
 302:Drivers/GD32F1xx_standard_peripheral/Source/gd32f10x_adc.c ****         break;
 303:Drivers/GD32F1xx_standard_peripheral/Source/gd32f10x_adc.c ****     case ADC_CHANNEL_DISCON_DISABLE:
 304:Drivers/GD32F1xx_standard_peripheral/Source/gd32f10x_adc.c ****         /* disable discontinuous mode of regular & inserted channel */
 305:Drivers/GD32F1xx_standard_peripheral/Source/gd32f10x_adc.c ****     default:
 306:Drivers/GD32F1xx_standard_peripheral/Source/gd32f10x_adc.c ****         break;
 307:Drivers/GD32F1xx_standard_peripheral/Source/gd32f10x_adc.c ****     }
 308:Drivers/GD32F1xx_standard_peripheral/Source/gd32f10x_adc.c **** }
 309:Drivers/GD32F1xx_standard_peripheral/Source/gd32f10x_adc.c **** 
 310:Drivers/GD32F1xx_standard_peripheral/Source/gd32f10x_adc.c **** /*!
 311:Drivers/GD32F1xx_standard_peripheral/Source/gd32f10x_adc.c ****     \brief      configure the length of regular channel group or inserted channel group
 312:Drivers/GD32F1xx_standard_peripheral/Source/gd32f10x_adc.c ****     \param[in]  adc_periph: ADCx, x=0,1,2
 313:Drivers/GD32F1xx_standard_peripheral/Source/gd32f10x_adc.c ****     \param[in]  adc_channel_group: select the channel group
 314:Drivers/GD32F1xx_standard_peripheral/Source/gd32f10x_adc.c ****                 only one parameter can be selected which is shown as below:
 315:Drivers/GD32F1xx_standard_peripheral/Source/gd32f10x_adc.c ****       \arg        ADC_REGULAR_CHANNEL: regular channel group
 316:Drivers/GD32F1xx_standard_peripheral/Source/gd32f10x_adc.c ****       \arg        ADC_INSERTED_CHANNEL: inserted channel group
 317:Drivers/GD32F1xx_standard_peripheral/Source/gd32f10x_adc.c ****     \param[in]  length: the length of the channel
 318:Drivers/GD32F1xx_standard_peripheral/Source/gd32f10x_adc.c ****                         regular channel 1-16
 319:Drivers/GD32F1xx_standard_peripheral/Source/gd32f10x_adc.c ****                         inserted channel 1-4
 320:Drivers/GD32F1xx_standard_peripheral/Source/gd32f10x_adc.c ****     \param[out] none
 321:Drivers/GD32F1xx_standard_peripheral/Source/gd32f10x_adc.c ****     \retval     none
 322:Drivers/GD32F1xx_standard_peripheral/Source/gd32f10x_adc.c **** */
 323:Drivers/GD32F1xx_standard_peripheral/Source/gd32f10x_adc.c **** void adc_channel_length_config(uint32_t adc_periph, uint8_t adc_channel_group, uint32_t length)
 324:Drivers/GD32F1xx_standard_peripheral/Source/gd32f10x_adc.c **** {
 494              		.loc 1 324 0
 495              		.cfi_startproc
 496              		@ args = 0, pretend = 0, frame = 0
 497              		@ frame_needed = 0, uses_anonymous_args = 0
 498              		@ link register save eliminated.
ARM GAS  /tmp/ccdGKvZC.s 			page 15


 499              	.LVL26:
 325:Drivers/GD32F1xx_standard_peripheral/Source/gd32f10x_adc.c ****     switch(adc_channel_group){
 500              		.loc 1 325 0
 501 0000 0129     		cmp	r1, #1
 502 0002 02D0     		beq	.L44
 503 0004 0229     		cmp	r1, #2
 504 0006 0CD0     		beq	.L45
 505 0008 7047     		bx	lr
 506              	.L44:
 326:Drivers/GD32F1xx_standard_peripheral/Source/gd32f10x_adc.c ****     case ADC_REGULAR_CHANNEL:
 327:Drivers/GD32F1xx_standard_peripheral/Source/gd32f10x_adc.c ****         /* configure the length of regular channel group */
 328:Drivers/GD32F1xx_standard_peripheral/Source/gd32f10x_adc.c ****         ADC_RSQ0(adc_periph) &= ~((uint32_t)ADC_RSQ0_RL);
 507              		.loc 1 328 0
 508 000a C36A     		ldr	r3, [r0, #44]
 509 000c 23F47003 		bic	r3, r3, #15728640
 510 0010 C362     		str	r3, [r0, #44]
 329:Drivers/GD32F1xx_standard_peripheral/Source/gd32f10x_adc.c ****         ADC_RSQ0(adc_periph) |= RSQ0_RL((uint32_t)(length-ADC_CHANNEL_LENGTH_SUBTRACT_ONE));
 511              		.loc 1 329 0
 512 0012 C36A     		ldr	r3, [r0, #44]
 513 0014 013A     		subs	r2, r2, #1
 514              	.LVL27:
 515 0016 1205     		lsls	r2, r2, #20
 516              	.LVL28:
 517 0018 02F47002 		and	r2, r2, #15728640
 518 001c 1A43     		orrs	r2, r2, r3
 519 001e C262     		str	r2, [r0, #44]
 330:Drivers/GD32F1xx_standard_peripheral/Source/gd32f10x_adc.c ****         break;
 520              		.loc 1 330 0
 521 0020 7047     		bx	lr
 522              	.LVL29:
 523              	.L45:
 331:Drivers/GD32F1xx_standard_peripheral/Source/gd32f10x_adc.c ****     case ADC_INSERTED_CHANNEL:
 332:Drivers/GD32F1xx_standard_peripheral/Source/gd32f10x_adc.c ****         /* configure the length of inserted channel group */
 333:Drivers/GD32F1xx_standard_peripheral/Source/gd32f10x_adc.c ****         ADC_ISQ(adc_periph) &= ~((uint32_t)ADC_ISQ_IL);
 524              		.loc 1 333 0
 525 0022 836B     		ldr	r3, [r0, #56]
 526 0024 23F44013 		bic	r3, r3, #3145728
 527 0028 8363     		str	r3, [r0, #56]
 334:Drivers/GD32F1xx_standard_peripheral/Source/gd32f10x_adc.c ****         ADC_ISQ(adc_periph) |= ISQ_IL((uint32_t)(length-ADC_CHANNEL_LENGTH_SUBTRACT_ONE));
 528              		.loc 1 334 0
 529 002a 836B     		ldr	r3, [r0, #56]
 530 002c 013A     		subs	r2, r2, #1
 531              	.LVL30:
 532 002e 1205     		lsls	r2, r2, #20
 533              	.LVL31:
 534 0030 02F44012 		and	r2, r2, #3145728
 535 0034 1A43     		orrs	r2, r2, r3
 536 0036 8263     		str	r2, [r0, #56]
 537 0038 7047     		bx	lr
 538              		.cfi_endproc
 539              	.LFE77:
 541              		.section	.text.adc_regular_channel_config,"ax",%progbits
 542              		.align	1
 543              		.global	adc_regular_channel_config
 544              		.syntax unified
 545              		.thumb
 546              		.thumb_func
ARM GAS  /tmp/ccdGKvZC.s 			page 16


 547              		.fpu softvfp
 549              	adc_regular_channel_config:
 550              	.LFB78:
 335:Drivers/GD32F1xx_standard_peripheral/Source/gd32f10x_adc.c ****         break;
 336:Drivers/GD32F1xx_standard_peripheral/Source/gd32f10x_adc.c ****     default:
 337:Drivers/GD32F1xx_standard_peripheral/Source/gd32f10x_adc.c ****         break;
 338:Drivers/GD32F1xx_standard_peripheral/Source/gd32f10x_adc.c ****     }
 339:Drivers/GD32F1xx_standard_peripheral/Source/gd32f10x_adc.c **** }
 340:Drivers/GD32F1xx_standard_peripheral/Source/gd32f10x_adc.c **** 
 341:Drivers/GD32F1xx_standard_peripheral/Source/gd32f10x_adc.c **** /*!
 342:Drivers/GD32F1xx_standard_peripheral/Source/gd32f10x_adc.c ****     \brief      configure ADC regular channel 
 343:Drivers/GD32F1xx_standard_peripheral/Source/gd32f10x_adc.c ****     \param[in]  adc_periph: ADCx, x=0,1,2
 344:Drivers/GD32F1xx_standard_peripheral/Source/gd32f10x_adc.c ****     \param[in]  rank: the regular group sequence rank,this parameter must be between 0 to 15
 345:Drivers/GD32F1xx_standard_peripheral/Source/gd32f10x_adc.c ****     \param[in]  adc_channel: the selected ADC channel
 346:Drivers/GD32F1xx_standard_peripheral/Source/gd32f10x_adc.c ****                 only one parameter can be selected which is shown as below:
 347:Drivers/GD32F1xx_standard_peripheral/Source/gd32f10x_adc.c ****       \arg        ADC_CHANNEL_x(x=0..17)(x=16 and x=17 are only for ADC0): ADC Channelx 
 348:Drivers/GD32F1xx_standard_peripheral/Source/gd32f10x_adc.c ****     \param[in]  sample_time: the sample time value
 349:Drivers/GD32F1xx_standard_peripheral/Source/gd32f10x_adc.c ****                 only one parameter can be selected which is shown as below:
 350:Drivers/GD32F1xx_standard_peripheral/Source/gd32f10x_adc.c ****       \arg        ADC_SAMPLETIME_1POINT5: 1.5 cycles
 351:Drivers/GD32F1xx_standard_peripheral/Source/gd32f10x_adc.c ****       \arg        ADC_SAMPLETIME_7POINT5: 7.5 cycles
 352:Drivers/GD32F1xx_standard_peripheral/Source/gd32f10x_adc.c ****       \arg        ADC_SAMPLETIME_13POINT5: 13.5 cycles
 353:Drivers/GD32F1xx_standard_peripheral/Source/gd32f10x_adc.c ****       \arg        ADC_SAMPLETIME_28POINT5: 28.5 cycles
 354:Drivers/GD32F1xx_standard_peripheral/Source/gd32f10x_adc.c ****       \arg        ADC_SAMPLETIME_41POINT5: 41.5 cycles
 355:Drivers/GD32F1xx_standard_peripheral/Source/gd32f10x_adc.c ****       \arg        ADC_SAMPLETIME_55POINT5: 55.5 cycles
 356:Drivers/GD32F1xx_standard_peripheral/Source/gd32f10x_adc.c ****       \arg        ADC_SAMPLETIME_71POINT5: 71.5 cycles
 357:Drivers/GD32F1xx_standard_peripheral/Source/gd32f10x_adc.c ****       \arg        ADC_SAMPLETIME_239POINT5: 239.5 cycles
 358:Drivers/GD32F1xx_standard_peripheral/Source/gd32f10x_adc.c ****     \param[out] none
 359:Drivers/GD32F1xx_standard_peripheral/Source/gd32f10x_adc.c ****     \retval     none
 360:Drivers/GD32F1xx_standard_peripheral/Source/gd32f10x_adc.c **** */
 361:Drivers/GD32F1xx_standard_peripheral/Source/gd32f10x_adc.c **** void adc_regular_channel_config(uint32_t adc_periph, uint8_t rank, uint8_t adc_channel, uint32_t sa
 362:Drivers/GD32F1xx_standard_peripheral/Source/gd32f10x_adc.c **** {
 551              		.loc 1 362 0
 552              		.cfi_startproc
 553              		@ args = 0, pretend = 0, frame = 0
 554              		@ frame_needed = 0, uses_anonymous_args = 0
 555              		@ link register save eliminated.
 556              	.LVL32:
 557 0000 30B4     		push	{r4, r5}
 558              	.LCFI1:
 559              		.cfi_def_cfa_offset 8
 560              		.cfi_offset 4, -8
 561              		.cfi_offset 5, -4
 363:Drivers/GD32F1xx_standard_peripheral/Source/gd32f10x_adc.c ****     uint32_t rsq,sampt;
 364:Drivers/GD32F1xx_standard_peripheral/Source/gd32f10x_adc.c ****     
 365:Drivers/GD32F1xx_standard_peripheral/Source/gd32f10x_adc.c ****     /* ADC regular sequence config */
 366:Drivers/GD32F1xx_standard_peripheral/Source/gd32f10x_adc.c ****     if(rank < ADC_REGULAR_CHANNEL_RANK_SIX){
 562              		.loc 1 366 0
 563 0002 0529     		cmp	r1, #5
 564 0004 1BD8     		bhi	.L47
 367:Drivers/GD32F1xx_standard_peripheral/Source/gd32f10x_adc.c ****         /* the regular group sequence rank is smaller than six */
 368:Drivers/GD32F1xx_standard_peripheral/Source/gd32f10x_adc.c ****         rsq = ADC_RSQ2(adc_periph);
 565              		.loc 1 368 0
 566 0006 446B     		ldr	r4, [r0, #52]
 567              	.LVL33:
 369:Drivers/GD32F1xx_standard_peripheral/Source/gd32f10x_adc.c ****         rsq &=  ~((uint32_t)(ADC_RSQX_RSQN << (ADC_REGULAR_CHANNEL_RANK_LENGTH*rank)));
 568              		.loc 1 369 0
 569 0008 01EB8101 		add	r1, r1, r1, lsl #2
ARM GAS  /tmp/ccdGKvZC.s 			page 17


 570              	.LVL34:
 571 000c 1F25     		movs	r5, #31
 572 000e 8D40     		lsls	r5, r5, r1
 573 0010 24EA0504 		bic	r4, r4, r5
 574              	.LVL35:
 370:Drivers/GD32F1xx_standard_peripheral/Source/gd32f10x_adc.c ****         /* the channel number is written to these bits to select a channel as the nth conversion in
 371:Drivers/GD32F1xx_standard_peripheral/Source/gd32f10x_adc.c ****         rsq |= ((uint32_t)adc_channel << (ADC_REGULAR_CHANNEL_RANK_LENGTH*rank));
 575              		.loc 1 371 0
 576 0014 02FA01F1 		lsl	r1, r2, r1
 577 0018 2143     		orrs	r1, r1, r4
 578              	.LVL36:
 372:Drivers/GD32F1xx_standard_peripheral/Source/gd32f10x_adc.c ****         ADC_RSQ2(adc_periph) = rsq;
 579              		.loc 1 372 0
 580 001a 4163     		str	r1, [r0, #52]
 581              	.LVL37:
 582              	.L48:
 373:Drivers/GD32F1xx_standard_peripheral/Source/gd32f10x_adc.c ****     }else if(rank < ADC_REGULAR_CHANNEL_RANK_TWELVE){
 374:Drivers/GD32F1xx_standard_peripheral/Source/gd32f10x_adc.c ****         /* the regular group sequence rank is smaller than twelve */
 375:Drivers/GD32F1xx_standard_peripheral/Source/gd32f10x_adc.c ****         rsq = ADC_RSQ1(adc_periph);
 376:Drivers/GD32F1xx_standard_peripheral/Source/gd32f10x_adc.c ****         rsq &= ~((uint32_t)(ADC_RSQX_RSQN << (ADC_REGULAR_CHANNEL_RANK_LENGTH*(rank-ADC_REGULAR_CHA
 377:Drivers/GD32F1xx_standard_peripheral/Source/gd32f10x_adc.c ****         /* the channel number is written to these bits to select a channel as the nth conversion in
 378:Drivers/GD32F1xx_standard_peripheral/Source/gd32f10x_adc.c ****         rsq |= ((uint32_t)adc_channel << (ADC_REGULAR_CHANNEL_RANK_LENGTH*(rank-ADC_REGULAR_CHANNEL
 379:Drivers/GD32F1xx_standard_peripheral/Source/gd32f10x_adc.c ****         ADC_RSQ1(adc_periph) = rsq;
 380:Drivers/GD32F1xx_standard_peripheral/Source/gd32f10x_adc.c ****     }else if(rank < ADC_REGULAR_CHANNEL_RANK_SIXTEEN){
 381:Drivers/GD32F1xx_standard_peripheral/Source/gd32f10x_adc.c ****         /* the regular group sequence rank is smaller than sixteen */
 382:Drivers/GD32F1xx_standard_peripheral/Source/gd32f10x_adc.c ****         rsq = ADC_RSQ0(adc_periph);
 383:Drivers/GD32F1xx_standard_peripheral/Source/gd32f10x_adc.c ****         rsq &= ~((uint32_t)(ADC_RSQX_RSQN << (ADC_REGULAR_CHANNEL_RANK_LENGTH*(rank-ADC_REGULAR_CHA
 384:Drivers/GD32F1xx_standard_peripheral/Source/gd32f10x_adc.c ****         /* the channel number is written to these bits to select a channel as the nth conversion in
 385:Drivers/GD32F1xx_standard_peripheral/Source/gd32f10x_adc.c ****         rsq |= ((uint32_t)adc_channel << (ADC_REGULAR_CHANNEL_RANK_LENGTH*(rank-ADC_REGULAR_CHANNEL
 386:Drivers/GD32F1xx_standard_peripheral/Source/gd32f10x_adc.c ****         ADC_RSQ0(adc_periph) = rsq;
 387:Drivers/GD32F1xx_standard_peripheral/Source/gd32f10x_adc.c ****     }else{
 388:Drivers/GD32F1xx_standard_peripheral/Source/gd32f10x_adc.c ****     }
 389:Drivers/GD32F1xx_standard_peripheral/Source/gd32f10x_adc.c ****     
 390:Drivers/GD32F1xx_standard_peripheral/Source/gd32f10x_adc.c ****     /* ADC sampling time config */
 391:Drivers/GD32F1xx_standard_peripheral/Source/gd32f10x_adc.c ****     if(adc_channel < ADC_CHANNEL_SAMPLE_TEN){
 583              		.loc 1 391 0
 584 001c 092A     		cmp	r2, #9
 585 001e 2CD9     		bls	.L53
 392:Drivers/GD32F1xx_standard_peripheral/Source/gd32f10x_adc.c ****         /* the regular group sequence rank is smaller than ten */
 393:Drivers/GD32F1xx_standard_peripheral/Source/gd32f10x_adc.c ****         sampt = ADC_SAMPT1(adc_periph);
 394:Drivers/GD32F1xx_standard_peripheral/Source/gd32f10x_adc.c ****         sampt &= ~((uint32_t)(ADC_SAMPTX_SPTN << (ADC_CHANNEL_SAMPLE_LENGTH*adc_channel)));
 395:Drivers/GD32F1xx_standard_peripheral/Source/gd32f10x_adc.c ****         /* channel sample time set*/
 396:Drivers/GD32F1xx_standard_peripheral/Source/gd32f10x_adc.c ****         sampt |= (uint32_t)(sample_time << (ADC_CHANNEL_SAMPLE_LENGTH*adc_channel));
 397:Drivers/GD32F1xx_standard_peripheral/Source/gd32f10x_adc.c ****         ADC_SAMPT1(adc_periph) = sampt;
 398:Drivers/GD32F1xx_standard_peripheral/Source/gd32f10x_adc.c ****     }else if(adc_channel < ADC_CHANNEL_SAMPLE_EIGHTEEN){
 586              		.loc 1 398 0
 587 0020 112A     		cmp	r2, #17
 588 0022 34D8     		bhi	.L46
 399:Drivers/GD32F1xx_standard_peripheral/Source/gd32f10x_adc.c ****         /* the regular group sequence rank is smaller than eighteen */
 400:Drivers/GD32F1xx_standard_peripheral/Source/gd32f10x_adc.c ****         sampt = ADC_SAMPT0(adc_periph);
 589              		.loc 1 400 0
 590 0024 C168     		ldr	r1, [r0, #12]
 591              	.LVL38:
 401:Drivers/GD32F1xx_standard_peripheral/Source/gd32f10x_adc.c ****         sampt &= ~((uint32_t)(ADC_SAMPTX_SPTN << (ADC_CHANNEL_SAMPLE_LENGTH*(adc_channel-ADC_CHANNE
 592              		.loc 1 401 0
 593 0026 0A3A     		subs	r2, r2, #10
 594              	.LVL39:
ARM GAS  /tmp/ccdGKvZC.s 			page 18


 595 0028 02EB4202 		add	r2, r2, r2, lsl #1
 596 002c 0724     		movs	r4, #7
 597 002e 9440     		lsls	r4, r4, r2
 598 0030 21EA0401 		bic	r1, r1, r4
 599              	.LVL40:
 402:Drivers/GD32F1xx_standard_peripheral/Source/gd32f10x_adc.c ****         /* channel sample time set*/
 403:Drivers/GD32F1xx_standard_peripheral/Source/gd32f10x_adc.c ****         sampt |= (uint32_t)(sample_time << (ADC_CHANNEL_SAMPLE_LENGTH*(adc_channel-ADC_CHANNEL_SAMP
 600              		.loc 1 403 0
 601 0034 03FA02F2 		lsl	r2, r3, r2
 602 0038 0A43     		orrs	r2, r2, r1
 603              	.LVL41:
 404:Drivers/GD32F1xx_standard_peripheral/Source/gd32f10x_adc.c ****         ADC_SAMPT0(adc_periph) = sampt;
 604              		.loc 1 404 0
 605 003a C260     		str	r2, [r0, #12]
 405:Drivers/GD32F1xx_standard_peripheral/Source/gd32f10x_adc.c ****     }else{
 406:Drivers/GD32F1xx_standard_peripheral/Source/gd32f10x_adc.c ****     }
 407:Drivers/GD32F1xx_standard_peripheral/Source/gd32f10x_adc.c **** }
 606              		.loc 1 407 0
 607 003c 27E0     		b	.L46
 608              	.LVL42:
 609              	.L47:
 373:Drivers/GD32F1xx_standard_peripheral/Source/gd32f10x_adc.c ****         /* the regular group sequence rank is smaller than twelve */
 610              		.loc 1 373 0
 611 003e 0B29     		cmp	r1, #11
 612 0040 0CD8     		bhi	.L49
 375:Drivers/GD32F1xx_standard_peripheral/Source/gd32f10x_adc.c ****         rsq &= ~((uint32_t)(ADC_RSQX_RSQN << (ADC_REGULAR_CHANNEL_RANK_LENGTH*(rank-ADC_REGULAR_CHA
 613              		.loc 1 375 0
 614 0042 046B     		ldr	r4, [r0, #48]
 615              	.LVL43:
 376:Drivers/GD32F1xx_standard_peripheral/Source/gd32f10x_adc.c ****         /* the channel number is written to these bits to select a channel as the nth conversion in
 616              		.loc 1 376 0
 617 0044 0639     		subs	r1, r1, #6
 618              	.LVL44:
 619 0046 01EB8101 		add	r1, r1, r1, lsl #2
 620 004a 1F25     		movs	r5, #31
 621 004c 8D40     		lsls	r5, r5, r1
 622 004e 24EA0504 		bic	r4, r4, r5
 623              	.LVL45:
 378:Drivers/GD32F1xx_standard_peripheral/Source/gd32f10x_adc.c ****         ADC_RSQ1(adc_periph) = rsq;
 624              		.loc 1 378 0
 625 0052 02FA01F1 		lsl	r1, r2, r1
 626 0056 2143     		orrs	r1, r1, r4
 627              	.LVL46:
 379:Drivers/GD32F1xx_standard_peripheral/Source/gd32f10x_adc.c ****     }else if(rank < ADC_REGULAR_CHANNEL_RANK_SIXTEEN){
 628              		.loc 1 379 0
 629 0058 0163     		str	r1, [r0, #48]
 630 005a DFE7     		b	.L48
 631              	.LVL47:
 632              	.L49:
 380:Drivers/GD32F1xx_standard_peripheral/Source/gd32f10x_adc.c ****         /* the regular group sequence rank is smaller than sixteen */
 633              		.loc 1 380 0
 634 005c 0F29     		cmp	r1, #15
 635 005e DDD8     		bhi	.L48
 382:Drivers/GD32F1xx_standard_peripheral/Source/gd32f10x_adc.c ****         rsq &= ~((uint32_t)(ADC_RSQX_RSQN << (ADC_REGULAR_CHANNEL_RANK_LENGTH*(rank-ADC_REGULAR_CHA
 636              		.loc 1 382 0
 637 0060 C46A     		ldr	r4, [r0, #44]
 638              	.LVL48:
ARM GAS  /tmp/ccdGKvZC.s 			page 19


 383:Drivers/GD32F1xx_standard_peripheral/Source/gd32f10x_adc.c ****         /* the channel number is written to these bits to select a channel as the nth conversion in
 639              		.loc 1 383 0
 640 0062 0C39     		subs	r1, r1, #12
 641              	.LVL49:
 642 0064 01EB8101 		add	r1, r1, r1, lsl #2
 643 0068 1F25     		movs	r5, #31
 644 006a 8D40     		lsls	r5, r5, r1
 645 006c 24EA0504 		bic	r4, r4, r5
 646              	.LVL50:
 385:Drivers/GD32F1xx_standard_peripheral/Source/gd32f10x_adc.c ****         ADC_RSQ0(adc_periph) = rsq;
 647              		.loc 1 385 0
 648 0070 02FA01F1 		lsl	r1, r2, r1
 649 0074 2143     		orrs	r1, r1, r4
 650              	.LVL51:
 386:Drivers/GD32F1xx_standard_peripheral/Source/gd32f10x_adc.c ****     }else{
 651              		.loc 1 386 0
 652 0076 C162     		str	r1, [r0, #44]
 653 0078 D0E7     		b	.L48
 654              	.LVL52:
 655              	.L53:
 393:Drivers/GD32F1xx_standard_peripheral/Source/gd32f10x_adc.c ****         sampt &= ~((uint32_t)(ADC_SAMPTX_SPTN << (ADC_CHANNEL_SAMPLE_LENGTH*adc_channel)));
 656              		.loc 1 393 0
 657 007a 0169     		ldr	r1, [r0, #16]
 658              	.LVL53:
 394:Drivers/GD32F1xx_standard_peripheral/Source/gd32f10x_adc.c ****         /* channel sample time set*/
 659              		.loc 1 394 0
 660 007c 02EB4202 		add	r2, r2, r2, lsl #1
 661              	.LVL54:
 662 0080 0724     		movs	r4, #7
 663 0082 9440     		lsls	r4, r4, r2
 664 0084 21EA0401 		bic	r1, r1, r4
 665              	.LVL55:
 396:Drivers/GD32F1xx_standard_peripheral/Source/gd32f10x_adc.c ****         ADC_SAMPT1(adc_periph) = sampt;
 666              		.loc 1 396 0
 667 0088 9340     		lsls	r3, r3, r2
 668              	.LVL56:
 669 008a 0B43     		orrs	r3, r3, r1
 670              	.LVL57:
 397:Drivers/GD32F1xx_standard_peripheral/Source/gd32f10x_adc.c ****     }else if(adc_channel < ADC_CHANNEL_SAMPLE_EIGHTEEN){
 671              		.loc 1 397 0
 672 008c 0361     		str	r3, [r0, #16]
 673              	.LVL58:
 674              	.L46:
 675              		.loc 1 407 0
 676 008e 30BC     		pop	{r4, r5}
 677              	.LCFI2:
 678              		.cfi_restore 5
 679              		.cfi_restore 4
 680              		.cfi_def_cfa_offset 0
 681 0090 7047     		bx	lr
 682              		.cfi_endproc
 683              	.LFE78:
 685              		.section	.text.adc_inserted_channel_config,"ax",%progbits
 686              		.align	1
 687              		.global	adc_inserted_channel_config
 688              		.syntax unified
 689              		.thumb
ARM GAS  /tmp/ccdGKvZC.s 			page 20


 690              		.thumb_func
 691              		.fpu softvfp
 693              	adc_inserted_channel_config:
 694              	.LFB79:
 408:Drivers/GD32F1xx_standard_peripheral/Source/gd32f10x_adc.c **** 
 409:Drivers/GD32F1xx_standard_peripheral/Source/gd32f10x_adc.c **** /*!
 410:Drivers/GD32F1xx_standard_peripheral/Source/gd32f10x_adc.c ****     \brief      configure ADC inserted channel 
 411:Drivers/GD32F1xx_standard_peripheral/Source/gd32f10x_adc.c ****     \param[in]  adc_periph: ADCx, x=0,1,2
 412:Drivers/GD32F1xx_standard_peripheral/Source/gd32f10x_adc.c ****     \param[in]  rank: the inserted group sequencer rank,this parameter must be between 0 to 3
 413:Drivers/GD32F1xx_standard_peripheral/Source/gd32f10x_adc.c ****     \param[in]  adc_channel: the selected ADC channel
 414:Drivers/GD32F1xx_standard_peripheral/Source/gd32f10x_adc.c ****                 only one parameter can be selected which is shown as below:
 415:Drivers/GD32F1xx_standard_peripheral/Source/gd32f10x_adc.c ****       \arg        ADC_CHANNEL_x(x=0..17)(x=16 and x=17 are only for ADC0): ADC Channelx
 416:Drivers/GD32F1xx_standard_peripheral/Source/gd32f10x_adc.c ****     \param[in]  sample_time: The sample time value
 417:Drivers/GD32F1xx_standard_peripheral/Source/gd32f10x_adc.c ****                 only one parameter can be selected which is shown as below:
 418:Drivers/GD32F1xx_standard_peripheral/Source/gd32f10x_adc.c ****       \arg        ADC_SAMPLETIME_1POINT5: 1.5 cycles
 419:Drivers/GD32F1xx_standard_peripheral/Source/gd32f10x_adc.c ****       \arg        ADC_SAMPLETIME_7POINT5: 7.5 cycles
 420:Drivers/GD32F1xx_standard_peripheral/Source/gd32f10x_adc.c ****       \arg        ADC_SAMPLETIME_13POINT5: 13.5 cycles
 421:Drivers/GD32F1xx_standard_peripheral/Source/gd32f10x_adc.c ****       \arg        ADC_SAMPLETIME_28POINT5: 28.5 cycles
 422:Drivers/GD32F1xx_standard_peripheral/Source/gd32f10x_adc.c ****       \arg        ADC_SAMPLETIME_41POINT5: 41.5 cycles
 423:Drivers/GD32F1xx_standard_peripheral/Source/gd32f10x_adc.c ****       \arg        ADC_SAMPLETIME_55POINT5: 55.5 cycles
 424:Drivers/GD32F1xx_standard_peripheral/Source/gd32f10x_adc.c ****       \arg        ADC_SAMPLETIME_71POINT5: 71.5 cycles
 425:Drivers/GD32F1xx_standard_peripheral/Source/gd32f10x_adc.c ****       \arg        ADC_SAMPLETIME_239POINT5: 239.5 cycles
 426:Drivers/GD32F1xx_standard_peripheral/Source/gd32f10x_adc.c ****     \param[out] none
 427:Drivers/GD32F1xx_standard_peripheral/Source/gd32f10x_adc.c ****     \retval     none
 428:Drivers/GD32F1xx_standard_peripheral/Source/gd32f10x_adc.c **** */
 429:Drivers/GD32F1xx_standard_peripheral/Source/gd32f10x_adc.c **** void adc_inserted_channel_config(uint32_t adc_periph, uint8_t rank, uint8_t adc_channel, uint32_t s
 430:Drivers/GD32F1xx_standard_peripheral/Source/gd32f10x_adc.c **** {
 695              		.loc 1 430 0
 696              		.cfi_startproc
 697              		@ args = 0, pretend = 0, frame = 0
 698              		@ frame_needed = 0, uses_anonymous_args = 0
 699              		@ link register save eliminated.
 700              	.LVL59:
 701 0000 30B4     		push	{r4, r5}
 702              	.LCFI3:
 703              		.cfi_def_cfa_offset 8
 704              		.cfi_offset 4, -8
 705              		.cfi_offset 5, -4
 431:Drivers/GD32F1xx_standard_peripheral/Source/gd32f10x_adc.c ****     uint8_t inserted_length;
 432:Drivers/GD32F1xx_standard_peripheral/Source/gd32f10x_adc.c ****     uint32_t isq,sampt;
 433:Drivers/GD32F1xx_standard_peripheral/Source/gd32f10x_adc.c ****     /* get inserted channel group length */
 434:Drivers/GD32F1xx_standard_peripheral/Source/gd32f10x_adc.c ****     inserted_length = (uint8_t)GET_BITS(ADC_ISQ(adc_periph) , 20U , 21U);
 706              		.loc 1 434 0
 707 0002 846B     		ldr	r4, [r0, #56]
 708 0004 C4F30154 		ubfx	r4, r4, #20, #2
 709              	.LVL60:
 435:Drivers/GD32F1xx_standard_peripheral/Source/gd32f10x_adc.c ****     /* the channel number is written to these bits to select a channel as the nth conversion in the
 436:Drivers/GD32F1xx_standard_peripheral/Source/gd32f10x_adc.c ****     isq = ADC_ISQ(adc_periph);
 710              		.loc 1 436 0
 711 0008 856B     		ldr	r5, [r0, #56]
 712              	.LVL61:
 437:Drivers/GD32F1xx_standard_peripheral/Source/gd32f10x_adc.c ****     isq &= ~((uint32_t)(ADC_ISQ_ISQN << (ADC_INSERTED_CHANNEL_SHIFT_LENGTH-(inserted_length-rank)*A
 713              		.loc 1 437 0
 714 000a 611A     		subs	r1, r4, r1
 715              	.LVL62:
 716 000c C1EB8174 		rsb	r4, r1, r1, lsl #30
 717              	.LVL63:
ARM GAS  /tmp/ccdGKvZC.s 			page 21


 718 0010 C1EB8401 		rsb	r1, r1, r4, lsl #2
 719 0014 0F31     		adds	r1, r1, #15
 720 0016 1F24     		movs	r4, #31
 721 0018 8C40     		lsls	r4, r4, r1
 722 001a 25EA0405 		bic	r5, r5, r4
 723              	.LVL64:
 438:Drivers/GD32F1xx_standard_peripheral/Source/gd32f10x_adc.c ****     isq |= ((uint32_t)adc_channel << (ADC_INSERTED_CHANNEL_SHIFT_LENGTH-(inserted_length-rank)*ADC_
 724              		.loc 1 438 0
 725 001e 02FA01F1 		lsl	r1, r2, r1
 726 0022 2943     		orrs	r1, r1, r5
 727              	.LVL65:
 439:Drivers/GD32F1xx_standard_peripheral/Source/gd32f10x_adc.c ****     ADC_ISQ(adc_periph) = isq;
 728              		.loc 1 439 0
 729 0024 8163     		str	r1, [r0, #56]
 440:Drivers/GD32F1xx_standard_peripheral/Source/gd32f10x_adc.c **** 
 441:Drivers/GD32F1xx_standard_peripheral/Source/gd32f10x_adc.c ****     /* ADC sampling time config */  
 442:Drivers/GD32F1xx_standard_peripheral/Source/gd32f10x_adc.c ****     if(adc_channel < ADC_CHANNEL_SAMPLE_TEN){
 730              		.loc 1 442 0
 731 0026 092A     		cmp	r2, #9
 732 0028 0ED9     		bls	.L58
 443:Drivers/GD32F1xx_standard_peripheral/Source/gd32f10x_adc.c ****         /* the inserted group sequence rank is smaller than ten */
 444:Drivers/GD32F1xx_standard_peripheral/Source/gd32f10x_adc.c ****         sampt = ADC_SAMPT1(adc_periph);
 445:Drivers/GD32F1xx_standard_peripheral/Source/gd32f10x_adc.c ****         sampt &= ~((uint32_t)(ADC_SAMPTX_SPTN << (ADC_CHANNEL_SAMPLE_LENGTH*adc_channel)));
 446:Drivers/GD32F1xx_standard_peripheral/Source/gd32f10x_adc.c ****         /* channel sample time set*/
 447:Drivers/GD32F1xx_standard_peripheral/Source/gd32f10x_adc.c ****         sampt |= (uint32_t) sample_time << (ADC_CHANNEL_SAMPLE_LENGTH*adc_channel);
 448:Drivers/GD32F1xx_standard_peripheral/Source/gd32f10x_adc.c ****         ADC_SAMPT1(adc_periph) = sampt;
 449:Drivers/GD32F1xx_standard_peripheral/Source/gd32f10x_adc.c ****     }else if(adc_channel < ADC_CHANNEL_SAMPLE_EIGHTEEN){
 733              		.loc 1 449 0
 734 002a 112A     		cmp	r2, #17
 735 002c 16D8     		bhi	.L54
 450:Drivers/GD32F1xx_standard_peripheral/Source/gd32f10x_adc.c ****         /* the inserted group sequence rank is smaller than eighteen */
 451:Drivers/GD32F1xx_standard_peripheral/Source/gd32f10x_adc.c ****         sampt = ADC_SAMPT0(adc_periph);
 736              		.loc 1 451 0
 737 002e C168     		ldr	r1, [r0, #12]
 738              	.LVL66:
 452:Drivers/GD32F1xx_standard_peripheral/Source/gd32f10x_adc.c ****         sampt &= ~((uint32_t)(ADC_SAMPTX_SPTN << (ADC_CHANNEL_SAMPLE_LENGTH*(adc_channel-ADC_CHANNE
 739              		.loc 1 452 0
 740 0030 0A3A     		subs	r2, r2, #10
 741              	.LVL67:
 742 0032 02EB4202 		add	r2, r2, r2, lsl #1
 743 0036 0724     		movs	r4, #7
 744 0038 9440     		lsls	r4, r4, r2
 745 003a 21EA0401 		bic	r1, r1, r4
 746              	.LVL68:
 453:Drivers/GD32F1xx_standard_peripheral/Source/gd32f10x_adc.c ****         /* channel sample time set*/
 454:Drivers/GD32F1xx_standard_peripheral/Source/gd32f10x_adc.c ****         sampt |= ((uint32_t)sample_time << (ADC_CHANNEL_SAMPLE_LENGTH*(adc_channel-ADC_CHANNEL_SAMP
 747              		.loc 1 454 0
 748 003e 03FA02F2 		lsl	r2, r3, r2
 749 0042 0A43     		orrs	r2, r2, r1
 750              	.LVL69:
 455:Drivers/GD32F1xx_standard_peripheral/Source/gd32f10x_adc.c ****         ADC_SAMPT0(adc_periph) = sampt;
 751              		.loc 1 455 0
 752 0044 C260     		str	r2, [r0, #12]
 753              	.LVL70:
 456:Drivers/GD32F1xx_standard_peripheral/Source/gd32f10x_adc.c ****     }else{
 457:Drivers/GD32F1xx_standard_peripheral/Source/gd32f10x_adc.c ****     }
 458:Drivers/GD32F1xx_standard_peripheral/Source/gd32f10x_adc.c **** }
ARM GAS  /tmp/ccdGKvZC.s 			page 22


 754              		.loc 1 458 0
 755 0046 09E0     		b	.L54
 756              	.LVL71:
 757              	.L58:
 444:Drivers/GD32F1xx_standard_peripheral/Source/gd32f10x_adc.c ****         sampt &= ~((uint32_t)(ADC_SAMPTX_SPTN << (ADC_CHANNEL_SAMPLE_LENGTH*adc_channel)));
 758              		.loc 1 444 0
 759 0048 0169     		ldr	r1, [r0, #16]
 760              	.LVL72:
 445:Drivers/GD32F1xx_standard_peripheral/Source/gd32f10x_adc.c ****         /* channel sample time set*/
 761              		.loc 1 445 0
 762 004a 02EB4202 		add	r2, r2, r2, lsl #1
 763              	.LVL73:
 764 004e 0724     		movs	r4, #7
 765 0050 9440     		lsls	r4, r4, r2
 766 0052 21EA0401 		bic	r1, r1, r4
 767              	.LVL74:
 447:Drivers/GD32F1xx_standard_peripheral/Source/gd32f10x_adc.c ****         ADC_SAMPT1(adc_periph) = sampt;
 768              		.loc 1 447 0
 769 0056 9340     		lsls	r3, r3, r2
 770              	.LVL75:
 771 0058 0B43     		orrs	r3, r3, r1
 772              	.LVL76:
 448:Drivers/GD32F1xx_standard_peripheral/Source/gd32f10x_adc.c ****     }else if(adc_channel < ADC_CHANNEL_SAMPLE_EIGHTEEN){
 773              		.loc 1 448 0
 774 005a 0361     		str	r3, [r0, #16]
 775              	.LVL77:
 776              	.L54:
 777              		.loc 1 458 0
 778 005c 30BC     		pop	{r4, r5}
 779              	.LCFI4:
 780              		.cfi_restore 5
 781              		.cfi_restore 4
 782              		.cfi_def_cfa_offset 0
 783 005e 7047     		bx	lr
 784              		.cfi_endproc
 785              	.LFE79:
 787              		.section	.text.adc_inserted_channel_offset_config,"ax",%progbits
 788              		.align	1
 789              		.global	adc_inserted_channel_offset_config
 790              		.syntax unified
 791              		.thumb
 792              		.thumb_func
 793              		.fpu softvfp
 795              	adc_inserted_channel_offset_config:
 796              	.LFB80:
 459:Drivers/GD32F1xx_standard_peripheral/Source/gd32f10x_adc.c **** 
 460:Drivers/GD32F1xx_standard_peripheral/Source/gd32f10x_adc.c **** /*!
 461:Drivers/GD32F1xx_standard_peripheral/Source/gd32f10x_adc.c ****     \brief      configure ADC inserted channel offset 
 462:Drivers/GD32F1xx_standard_peripheral/Source/gd32f10x_adc.c ****     \param[in]  adc_periph: ADCx, x=0,1,2
 463:Drivers/GD32F1xx_standard_peripheral/Source/gd32f10x_adc.c ****     \param[in]  inserted_channel: insert channel select
 464:Drivers/GD32F1xx_standard_peripheral/Source/gd32f10x_adc.c ****                 only one parameter can be selected
 465:Drivers/GD32F1xx_standard_peripheral/Source/gd32f10x_adc.c ****       \arg        ADC_INSERTED_CHANNEL_0: inserted channel0
 466:Drivers/GD32F1xx_standard_peripheral/Source/gd32f10x_adc.c ****       \arg        ADC_INSERTED_CHANNEL_1: inserted channel1
 467:Drivers/GD32F1xx_standard_peripheral/Source/gd32f10x_adc.c ****       \arg        ADC_INSERTED_CHANNEL_2: inserted channel2
 468:Drivers/GD32F1xx_standard_peripheral/Source/gd32f10x_adc.c ****       \arg        ADC_INSERTED_CHANNEL_3: inserted channel3
 469:Drivers/GD32F1xx_standard_peripheral/Source/gd32f10x_adc.c ****     \param[in]  offset: the offset data
 470:Drivers/GD32F1xx_standard_peripheral/Source/gd32f10x_adc.c ****     \param[out] none
ARM GAS  /tmp/ccdGKvZC.s 			page 23


 471:Drivers/GD32F1xx_standard_peripheral/Source/gd32f10x_adc.c ****     \retval     none
 472:Drivers/GD32F1xx_standard_peripheral/Source/gd32f10x_adc.c **** */
 473:Drivers/GD32F1xx_standard_peripheral/Source/gd32f10x_adc.c **** void adc_inserted_channel_offset_config(uint32_t adc_periph, uint8_t inserted_channel, uint16_t off
 474:Drivers/GD32F1xx_standard_peripheral/Source/gd32f10x_adc.c **** {
 797              		.loc 1 474 0
 798              		.cfi_startproc
 799              		@ args = 0, pretend = 0, frame = 0
 800              		@ frame_needed = 0, uses_anonymous_args = 0
 801              		@ link register save eliminated.
 802              	.LVL78:
 475:Drivers/GD32F1xx_standard_peripheral/Source/gd32f10x_adc.c ****     uint8_t inserted_length;
 476:Drivers/GD32F1xx_standard_peripheral/Source/gd32f10x_adc.c ****     uint32_t num = 0U;
 477:Drivers/GD32F1xx_standard_peripheral/Source/gd32f10x_adc.c **** 
 478:Drivers/GD32F1xx_standard_peripheral/Source/gd32f10x_adc.c ****     inserted_length = (uint8_t)GET_BITS(ADC_ISQ(adc_periph) , 20U , 21U);
 803              		.loc 1 478 0
 804 0000 836B     		ldr	r3, [r0, #56]
 805 0002 C3F30153 		ubfx	r3, r3, #20, #2
 806              	.LVL79:
 479:Drivers/GD32F1xx_standard_peripheral/Source/gd32f10x_adc.c ****     num = ((uint32_t)ADC_OFFSET_LENGTH - ((uint32_t)inserted_length - (uint32_t)inserted_channel));
 807              		.loc 1 479 0
 808 0006 C91A     		subs	r1, r1, r3
 809              	.LVL80:
 810 0008 0331     		adds	r1, r1, #3
 811              	.LVL81:
 480:Drivers/GD32F1xx_standard_peripheral/Source/gd32f10x_adc.c ****     
 481:Drivers/GD32F1xx_standard_peripheral/Source/gd32f10x_adc.c ****     if(num <= ADC_OFFSET_LENGTH){
 812              		.loc 1 481 0
 813 000a 0329     		cmp	r1, #3
 814 000c 04D8     		bhi	.L59
 815              	.LVL82:
 482:Drivers/GD32F1xx_standard_peripheral/Source/gd32f10x_adc.c ****         /* calculate the offset of the register */
 483:Drivers/GD32F1xx_standard_peripheral/Source/gd32f10x_adc.c ****         num = num * ADC_OFFSET_SHIFT_LENGTH;
 484:Drivers/GD32F1xx_standard_peripheral/Source/gd32f10x_adc.c ****         /* config the offset of the selected channels */
 485:Drivers/GD32F1xx_standard_peripheral/Source/gd32f10x_adc.c ****         REG32((adc_periph) + 0x14U + num) = IOFFX_IOFF((uint32_t)offset);
 816              		.loc 1 485 0
 817 000e 00EB8101 		add	r1, r0, r1, lsl #2
 818              	.LVL83:
 819 0012 C2F30B02 		ubfx	r2, r2, #0, #12
 820              	.LVL84:
 821 0016 4A61     		str	r2, [r1, #20]
 822              	.L59:
 823 0018 7047     		bx	lr
 824              		.cfi_endproc
 825              	.LFE80:
 827              		.section	.text.adc_external_trigger_source_config,"ax",%progbits
 828              		.align	1
 829              		.global	adc_external_trigger_source_config
 830              		.syntax unified
 831              		.thumb
 832              		.thumb_func
 833              		.fpu softvfp
 835              	adc_external_trigger_source_config:
 836              	.LFB81:
 486:Drivers/GD32F1xx_standard_peripheral/Source/gd32f10x_adc.c ****     }  
 487:Drivers/GD32F1xx_standard_peripheral/Source/gd32f10x_adc.c **** }
 488:Drivers/GD32F1xx_standard_peripheral/Source/gd32f10x_adc.c **** 
 489:Drivers/GD32F1xx_standard_peripheral/Source/gd32f10x_adc.c **** /*!
ARM GAS  /tmp/ccdGKvZC.s 			page 24


 490:Drivers/GD32F1xx_standard_peripheral/Source/gd32f10x_adc.c ****     \brief      configure ADC external trigger source 
 491:Drivers/GD32F1xx_standard_peripheral/Source/gd32f10x_adc.c ****     \param[in]  adc_periph: ADCx, x=0,1,2
 492:Drivers/GD32F1xx_standard_peripheral/Source/gd32f10x_adc.c ****     \param[in]  adc_channel_group: select the channel group
 493:Drivers/GD32F1xx_standard_peripheral/Source/gd32f10x_adc.c ****                 only one parameter can be selected which is shown as below:
 494:Drivers/GD32F1xx_standard_peripheral/Source/gd32f10x_adc.c ****       \arg        ADC_REGULAR_CHANNEL: regular channel group
 495:Drivers/GD32F1xx_standard_peripheral/Source/gd32f10x_adc.c ****       \arg        ADC_INSERTED_CHANNEL: inserted channel group
 496:Drivers/GD32F1xx_standard_peripheral/Source/gd32f10x_adc.c ****     \param[in]  external_trigger_source: regular or inserted group trigger source
 497:Drivers/GD32F1xx_standard_peripheral/Source/gd32f10x_adc.c ****                 only one parameter can be selected
 498:Drivers/GD32F1xx_standard_peripheral/Source/gd32f10x_adc.c ****                 for regular channel:
 499:Drivers/GD32F1xx_standard_peripheral/Source/gd32f10x_adc.c ****       \arg        ADC0_1_EXTTRIG_REGULAR_T0_CH0: TIMER0 CH0 event select 
 500:Drivers/GD32F1xx_standard_peripheral/Source/gd32f10x_adc.c ****       \arg        ADC0_1_EXTTRIG_REGULAR_T0_CH1: TIMER0 CH1 event select 
 501:Drivers/GD32F1xx_standard_peripheral/Source/gd32f10x_adc.c ****       \arg        ADC0_1_EXTTRIG_REGULAR_T0_CH2: TIMER0 CH2 event select 
 502:Drivers/GD32F1xx_standard_peripheral/Source/gd32f10x_adc.c ****       \arg        ADC0_1_EXTTRIG_REGULAR_T1_CH1: TIMER1 CH1 event select 
 503:Drivers/GD32F1xx_standard_peripheral/Source/gd32f10x_adc.c ****       \arg        ADC0_1_EXTTRIG_REGULAR_T2_TRGO: TIMER2 TRGO event select 
 504:Drivers/GD32F1xx_standard_peripheral/Source/gd32f10x_adc.c ****       \arg        ADC0_1_EXTTRIG_REGULAR_T3_CH3: TIMER3 CH3 event select 
 505:Drivers/GD32F1xx_standard_peripheral/Source/gd32f10x_adc.c ****       \arg        ADC0_1_EXTTRIG_REGULAR_T7_TRGO: TIMER7 TRGO event select 
 506:Drivers/GD32F1xx_standard_peripheral/Source/gd32f10x_adc.c ****       \arg        ADC0_1_EXTTRIG_REGULAR_EXTI_11: external interrupt line 11 
 507:Drivers/GD32F1xx_standard_peripheral/Source/gd32f10x_adc.c ****       \arg        ADC2_EXTTRIG_REGULAR_T2_CH0: TIMER2 CH0 event select 
 508:Drivers/GD32F1xx_standard_peripheral/Source/gd32f10x_adc.c ****       \arg        ADC2_EXTTRIG_REGULAR_T1_CH2: TIMER1 CH2 event select 
 509:Drivers/GD32F1xx_standard_peripheral/Source/gd32f10x_adc.c ****       \arg        ADC2_EXTTRIG_REGULAR_T0_CH2: TIMER0 CH2 event select 
 510:Drivers/GD32F1xx_standard_peripheral/Source/gd32f10x_adc.c ****       \arg        ADC2_EXTTRIG_REGULAR_T7_CH0: TIMER7 CH0 event select 
 511:Drivers/GD32F1xx_standard_peripheral/Source/gd32f10x_adc.c ****       \arg        ADC2_EXTTRIG_REGULAR_T7_TRGO: TIMER7 TRGO event select 
 512:Drivers/GD32F1xx_standard_peripheral/Source/gd32f10x_adc.c ****       \arg        ADC2_EXTTRIG_REGULAR_T4_CH0: TIMER4 CH0 event select 
 513:Drivers/GD32F1xx_standard_peripheral/Source/gd32f10x_adc.c ****       \arg        ADC2_EXTTRIG_REGULAR_T4_CH2: TIMER4 CH2 event select
 514:Drivers/GD32F1xx_standard_peripheral/Source/gd32f10x_adc.c ****       \arg        ADC0_1_2_EXTTRIG_REGULAR_NONE: software trigger      
 515:Drivers/GD32F1xx_standard_peripheral/Source/gd32f10x_adc.c ****                 for inserted channel:
 516:Drivers/GD32F1xx_standard_peripheral/Source/gd32f10x_adc.c ****       \arg        ADC0_1_EXTTRIG_INSERTED_T0_TRGO: TIMER0 TRGO event select 
 517:Drivers/GD32F1xx_standard_peripheral/Source/gd32f10x_adc.c ****       \arg        ADC0_1_EXTTRIG_INSERTED_T0_CH3: TIMER0 CH3 event select 
 518:Drivers/GD32F1xx_standard_peripheral/Source/gd32f10x_adc.c ****       \arg        ADC0_1_EXTTRIG_INSERTED_T1_TRGO: TIMER1 TRGO event select 
 519:Drivers/GD32F1xx_standard_peripheral/Source/gd32f10x_adc.c ****       \arg        ADC0_1_EXTTRIG_INSERTED_T1_CH0: TIMER1 CH0 event select 
 520:Drivers/GD32F1xx_standard_peripheral/Source/gd32f10x_adc.c ****       \arg        ADC0_1_EXTTRIG_INSERTED_T2_CH3: TIMER2 CH3 event select 
 521:Drivers/GD32F1xx_standard_peripheral/Source/gd32f10x_adc.c ****       \arg        ADC0_1_EXTTRIG_INSERTED_T3_TRGO: TIMER3 TRGO event select 
 522:Drivers/GD32F1xx_standard_peripheral/Source/gd32f10x_adc.c ****       \arg        ADC0_1_EXTTRIG_INSERTED_EXTI_15: external interrupt line 15 
 523:Drivers/GD32F1xx_standard_peripheral/Source/gd32f10x_adc.c ****       \arg        ADC0_1_EXTTRIG_INSERTED_T7_CH3: TIMER7 CH3 event select 
 524:Drivers/GD32F1xx_standard_peripheral/Source/gd32f10x_adc.c ****       \arg        ADC2_EXTTRIG_INSERTED_T0_TRGO: TIMER0 TRGO event select 
 525:Drivers/GD32F1xx_standard_peripheral/Source/gd32f10x_adc.c ****       \arg        ADC2_EXTTRIG_INSERTED_T0_CH3: TIMER0 CH3 event select 
 526:Drivers/GD32F1xx_standard_peripheral/Source/gd32f10x_adc.c ****       \arg        ADC2_EXTTRIG_INSERTED_T3_CH2: TIMER3 CH2 event select 
 527:Drivers/GD32F1xx_standard_peripheral/Source/gd32f10x_adc.c ****       \arg        ADC2_EXTTRIG_INSERTED_T7_CH1: TIMER7 CH1 event select 
 528:Drivers/GD32F1xx_standard_peripheral/Source/gd32f10x_adc.c ****       \arg        ADC2_EXTTRIG_INSERTED_T7_CH3: TIMER7 CH3 event select 
 529:Drivers/GD32F1xx_standard_peripheral/Source/gd32f10x_adc.c ****       \arg        ADC2_EXTTRIG_INSERTED_T4_TRGO: TIMER4 TRGO event select
 530:Drivers/GD32F1xx_standard_peripheral/Source/gd32f10x_adc.c ****       \arg        ADC2_EXTTRIG_INSERTED_T4_CH3: TIMER4 CH3 event select
 531:Drivers/GD32F1xx_standard_peripheral/Source/gd32f10x_adc.c ****       \arg        ADC0_1_2_EXTTRIG_INSERTED_NONE: software trigger      
 532:Drivers/GD32F1xx_standard_peripheral/Source/gd32f10x_adc.c ****     \param[out] none
 533:Drivers/GD32F1xx_standard_peripheral/Source/gd32f10x_adc.c ****     \retval     none
 534:Drivers/GD32F1xx_standard_peripheral/Source/gd32f10x_adc.c **** */
 535:Drivers/GD32F1xx_standard_peripheral/Source/gd32f10x_adc.c **** void adc_external_trigger_source_config(uint32_t adc_periph, uint8_t adc_channel_group, uint32_t ex
 536:Drivers/GD32F1xx_standard_peripheral/Source/gd32f10x_adc.c **** {   
 837              		.loc 1 536 0
 838              		.cfi_startproc
 839              		@ args = 0, pretend = 0, frame = 0
 840              		@ frame_needed = 0, uses_anonymous_args = 0
 841              		@ link register save eliminated.
 842              	.LVL85:
 537:Drivers/GD32F1xx_standard_peripheral/Source/gd32f10x_adc.c ****     switch(adc_channel_group){
 843              		.loc 1 537 0
 844 0000 0129     		cmp	r1, #1
 845 0002 02D0     		beq	.L63
ARM GAS  /tmp/ccdGKvZC.s 			page 25


 846 0004 0229     		cmp	r1, #2
 847 0006 08D0     		beq	.L64
 848 0008 7047     		bx	lr
 849              	.L63:
 538:Drivers/GD32F1xx_standard_peripheral/Source/gd32f10x_adc.c ****     case ADC_REGULAR_CHANNEL:
 539:Drivers/GD32F1xx_standard_peripheral/Source/gd32f10x_adc.c ****         /* configure ADC regular group external trigger source */
 540:Drivers/GD32F1xx_standard_peripheral/Source/gd32f10x_adc.c ****         ADC_CTL1(adc_periph) &= ~((uint32_t)ADC_CTL1_ETSRC);
 850              		.loc 1 540 0
 851 000a 8368     		ldr	r3, [r0, #8]
 852 000c 23F46023 		bic	r3, r3, #917504
 853 0010 8360     		str	r3, [r0, #8]
 541:Drivers/GD32F1xx_standard_peripheral/Source/gd32f10x_adc.c ****         ADC_CTL1(adc_periph) |= (uint32_t)external_trigger_source;
 854              		.loc 1 541 0
 855 0012 8368     		ldr	r3, [r0, #8]
 856 0014 1A43     		orrs	r2, r2, r3
 857              	.LVL86:
 858 0016 8260     		str	r2, [r0, #8]
 542:Drivers/GD32F1xx_standard_peripheral/Source/gd32f10x_adc.c ****         break;
 859              		.loc 1 542 0
 860 0018 7047     		bx	lr
 861              	.LVL87:
 862              	.L64:
 543:Drivers/GD32F1xx_standard_peripheral/Source/gd32f10x_adc.c ****     case ADC_INSERTED_CHANNEL:
 544:Drivers/GD32F1xx_standard_peripheral/Source/gd32f10x_adc.c ****         /* configure ADC inserted group external trigger source */
 545:Drivers/GD32F1xx_standard_peripheral/Source/gd32f10x_adc.c ****         ADC_CTL1(adc_periph) &= ~((uint32_t)ADC_CTL1_ETSIC);
 863              		.loc 1 545 0
 864 001a 8368     		ldr	r3, [r0, #8]
 865 001c 23F4E043 		bic	r3, r3, #28672
 866 0020 8360     		str	r3, [r0, #8]
 546:Drivers/GD32F1xx_standard_peripheral/Source/gd32f10x_adc.c ****         ADC_CTL1(adc_periph) |= (uint32_t)external_trigger_source;
 867              		.loc 1 546 0
 868 0022 8368     		ldr	r3, [r0, #8]
 869 0024 1A43     		orrs	r2, r2, r3
 870              	.LVL88:
 871 0026 8260     		str	r2, [r0, #8]
 872 0028 7047     		bx	lr
 873              		.cfi_endproc
 874              	.LFE81:
 876              		.section	.text.adc_external_trigger_config,"ax",%progbits
 877              		.align	1
 878              		.global	adc_external_trigger_config
 879              		.syntax unified
 880              		.thumb
 881              		.thumb_func
 882              		.fpu softvfp
 884              	adc_external_trigger_config:
 885              	.LFB82:
 547:Drivers/GD32F1xx_standard_peripheral/Source/gd32f10x_adc.c ****         break;
 548:Drivers/GD32F1xx_standard_peripheral/Source/gd32f10x_adc.c ****     default:
 549:Drivers/GD32F1xx_standard_peripheral/Source/gd32f10x_adc.c ****         break;
 550:Drivers/GD32F1xx_standard_peripheral/Source/gd32f10x_adc.c ****     }
 551:Drivers/GD32F1xx_standard_peripheral/Source/gd32f10x_adc.c **** }
 552:Drivers/GD32F1xx_standard_peripheral/Source/gd32f10x_adc.c **** 
 553:Drivers/GD32F1xx_standard_peripheral/Source/gd32f10x_adc.c **** /*!
 554:Drivers/GD32F1xx_standard_peripheral/Source/gd32f10x_adc.c ****     \brief      configure ADC external trigger 
 555:Drivers/GD32F1xx_standard_peripheral/Source/gd32f10x_adc.c ****     \param[in]  adc_periph: ADCx, x=0,1,2
 556:Drivers/GD32F1xx_standard_peripheral/Source/gd32f10x_adc.c ****     \param[in]  adc_channel_group: select the channel group
ARM GAS  /tmp/ccdGKvZC.s 			page 26


 557:Drivers/GD32F1xx_standard_peripheral/Source/gd32f10x_adc.c ****                 one or more parameters can be selected which are shown as below:
 558:Drivers/GD32F1xx_standard_peripheral/Source/gd32f10x_adc.c ****       \arg        ADC_REGULAR_CHANNEL: regular channel group
 559:Drivers/GD32F1xx_standard_peripheral/Source/gd32f10x_adc.c ****       \arg        ADC_INSERTED_CHANNEL: inserted channel group
 560:Drivers/GD32F1xx_standard_peripheral/Source/gd32f10x_adc.c ****     \param[in]  newvalue: ENABLE or DISABLE
 561:Drivers/GD32F1xx_standard_peripheral/Source/gd32f10x_adc.c ****     \param[out] none
 562:Drivers/GD32F1xx_standard_peripheral/Source/gd32f10x_adc.c ****     \retval     none
 563:Drivers/GD32F1xx_standard_peripheral/Source/gd32f10x_adc.c **** */
 564:Drivers/GD32F1xx_standard_peripheral/Source/gd32f10x_adc.c **** void adc_external_trigger_config(uint32_t adc_periph, uint8_t adc_channel_group, ControlStatus newv
 565:Drivers/GD32F1xx_standard_peripheral/Source/gd32f10x_adc.c **** {
 886              		.loc 1 565 0
 887              		.cfi_startproc
 888              		@ args = 0, pretend = 0, frame = 0
 889              		@ frame_needed = 0, uses_anonymous_args = 0
 890              		@ link register save eliminated.
 891              	.LVL89:
 566:Drivers/GD32F1xx_standard_peripheral/Source/gd32f10x_adc.c ****     if(newvalue){
 892              		.loc 1 566 0
 893 0000 72B1     		cbz	r2, .L66
 567:Drivers/GD32F1xx_standard_peripheral/Source/gd32f10x_adc.c ****         if(0U != (adc_channel_group & ADC_REGULAR_CHANNEL)){
 894              		.loc 1 567 0
 895 0002 11F0010F 		tst	r1, #1
 896 0006 03D0     		beq	.L67
 568:Drivers/GD32F1xx_standard_peripheral/Source/gd32f10x_adc.c ****             /* enable ADC regular channel group external trigger */
 569:Drivers/GD32F1xx_standard_peripheral/Source/gd32f10x_adc.c ****             ADC_CTL1(adc_periph) |= ADC_CTL1_ETERC;
 897              		.loc 1 569 0
 898 0008 8368     		ldr	r3, [r0, #8]
 899 000a 43F48013 		orr	r3, r3, #1048576
 900 000e 8360     		str	r3, [r0, #8]
 901              	.L67:
 570:Drivers/GD32F1xx_standard_peripheral/Source/gd32f10x_adc.c ****         }
 571:Drivers/GD32F1xx_standard_peripheral/Source/gd32f10x_adc.c ****         if(0U != (adc_channel_group & ADC_INSERTED_CHANNEL)){
 902              		.loc 1 571 0
 903 0010 11F0020F 		tst	r1, #2
 904 0014 12D0     		beq	.L65
 572:Drivers/GD32F1xx_standard_peripheral/Source/gd32f10x_adc.c ****             /* enable ADC inserted channel group external trigger */
 573:Drivers/GD32F1xx_standard_peripheral/Source/gd32f10x_adc.c ****             ADC_CTL1(adc_periph) |= ADC_CTL1_ETEIC;
 905              		.loc 1 573 0
 906 0016 8368     		ldr	r3, [r0, #8]
 907 0018 43F40043 		orr	r3, r3, #32768
 908 001c 8360     		str	r3, [r0, #8]
 909 001e 7047     		bx	lr
 910              	.L66:
 574:Drivers/GD32F1xx_standard_peripheral/Source/gd32f10x_adc.c ****         }        
 575:Drivers/GD32F1xx_standard_peripheral/Source/gd32f10x_adc.c ****     }else{
 576:Drivers/GD32F1xx_standard_peripheral/Source/gd32f10x_adc.c ****         if(0U != (adc_channel_group & ADC_REGULAR_CHANNEL)){
 911              		.loc 1 576 0
 912 0020 11F0010F 		tst	r1, #1
 913 0024 03D0     		beq	.L69
 577:Drivers/GD32F1xx_standard_peripheral/Source/gd32f10x_adc.c ****             /* disable ADC regular channel group external trigger */
 578:Drivers/GD32F1xx_standard_peripheral/Source/gd32f10x_adc.c ****             ADC_CTL1(adc_periph) &= ~ADC_CTL1_ETERC;
 914              		.loc 1 578 0
 915 0026 8368     		ldr	r3, [r0, #8]
 916 0028 23F48013 		bic	r3, r3, #1048576
 917 002c 8360     		str	r3, [r0, #8]
 918              	.L69:
 579:Drivers/GD32F1xx_standard_peripheral/Source/gd32f10x_adc.c ****         }
 580:Drivers/GD32F1xx_standard_peripheral/Source/gd32f10x_adc.c ****         if(0U != (adc_channel_group & ADC_INSERTED_CHANNEL)){
ARM GAS  /tmp/ccdGKvZC.s 			page 27


 919              		.loc 1 580 0
 920 002e 11F0020F 		tst	r1, #2
 921 0032 03D0     		beq	.L65
 581:Drivers/GD32F1xx_standard_peripheral/Source/gd32f10x_adc.c ****             /* disable ADC regular channel group external trigger */
 582:Drivers/GD32F1xx_standard_peripheral/Source/gd32f10x_adc.c ****             ADC_CTL1(adc_periph) &= ~ADC_CTL1_ETEIC;
 922              		.loc 1 582 0
 923 0034 8368     		ldr	r3, [r0, #8]
 924 0036 23F40043 		bic	r3, r3, #32768
 925 003a 8360     		str	r3, [r0, #8]
 926              	.L65:
 927 003c 7047     		bx	lr
 928              		.cfi_endproc
 929              	.LFE82:
 931              		.section	.text.adc_software_trigger_enable,"ax",%progbits
 932              		.align	1
 933              		.global	adc_software_trigger_enable
 934              		.syntax unified
 935              		.thumb
 936              		.thumb_func
 937              		.fpu softvfp
 939              	adc_software_trigger_enable:
 940              	.LFB83:
 583:Drivers/GD32F1xx_standard_peripheral/Source/gd32f10x_adc.c ****         }      
 584:Drivers/GD32F1xx_standard_peripheral/Source/gd32f10x_adc.c ****     }
 585:Drivers/GD32F1xx_standard_peripheral/Source/gd32f10x_adc.c **** }
 586:Drivers/GD32F1xx_standard_peripheral/Source/gd32f10x_adc.c **** 
 587:Drivers/GD32F1xx_standard_peripheral/Source/gd32f10x_adc.c **** /*!
 588:Drivers/GD32F1xx_standard_peripheral/Source/gd32f10x_adc.c ****     \brief      enable ADC software trigger 
 589:Drivers/GD32F1xx_standard_peripheral/Source/gd32f10x_adc.c ****     \param[in]  adc_periph: ADCx, x=0,1,2
 590:Drivers/GD32F1xx_standard_peripheral/Source/gd32f10x_adc.c ****     \param[in]  adc_channel_group: select the channel group
 591:Drivers/GD32F1xx_standard_peripheral/Source/gd32f10x_adc.c ****                 one or more parameters can be selected which are shown as below:
 592:Drivers/GD32F1xx_standard_peripheral/Source/gd32f10x_adc.c ****       \arg        ADC_REGULAR_CHANNEL: regular channel group
 593:Drivers/GD32F1xx_standard_peripheral/Source/gd32f10x_adc.c ****       \arg        ADC_INSERTED_CHANNEL: inserted channel group
 594:Drivers/GD32F1xx_standard_peripheral/Source/gd32f10x_adc.c ****     \param[out] none
 595:Drivers/GD32F1xx_standard_peripheral/Source/gd32f10x_adc.c ****     \retval     none
 596:Drivers/GD32F1xx_standard_peripheral/Source/gd32f10x_adc.c **** */
 597:Drivers/GD32F1xx_standard_peripheral/Source/gd32f10x_adc.c **** void adc_software_trigger_enable(uint32_t adc_periph, uint8_t adc_channel_group)
 598:Drivers/GD32F1xx_standard_peripheral/Source/gd32f10x_adc.c **** {
 941              		.loc 1 598 0
 942              		.cfi_startproc
 943              		@ args = 0, pretend = 0, frame = 0
 944              		@ frame_needed = 0, uses_anonymous_args = 0
 945              		@ link register save eliminated.
 946              	.LVL90:
 599:Drivers/GD32F1xx_standard_peripheral/Source/gd32f10x_adc.c ****     if(0U != (adc_channel_group & ADC_REGULAR_CHANNEL)){
 947              		.loc 1 599 0
 948 0000 11F0010F 		tst	r1, #1
 949 0004 03D0     		beq	.L71
 600:Drivers/GD32F1xx_standard_peripheral/Source/gd32f10x_adc.c ****         /* enable ADC regular channel group software trigger */
 601:Drivers/GD32F1xx_standard_peripheral/Source/gd32f10x_adc.c ****         ADC_CTL1(adc_periph) |= ADC_CTL1_SWRCST;
 950              		.loc 1 601 0
 951 0006 8368     		ldr	r3, [r0, #8]
 952 0008 43F48003 		orr	r3, r3, #4194304
 953 000c 8360     		str	r3, [r0, #8]
 954              	.L71:
 602:Drivers/GD32F1xx_standard_peripheral/Source/gd32f10x_adc.c ****     }
 603:Drivers/GD32F1xx_standard_peripheral/Source/gd32f10x_adc.c ****     if(0U != (adc_channel_group & ADC_INSERTED_CHANNEL)){
ARM GAS  /tmp/ccdGKvZC.s 			page 28


 955              		.loc 1 603 0
 956 000e 11F0020F 		tst	r1, #2
 957 0012 03D0     		beq	.L70
 604:Drivers/GD32F1xx_standard_peripheral/Source/gd32f10x_adc.c ****         /* enable ADC inserted channel group software trigger */
 605:Drivers/GD32F1xx_standard_peripheral/Source/gd32f10x_adc.c ****         ADC_CTL1(adc_periph) |= ADC_CTL1_SWICST;
 958              		.loc 1 605 0
 959 0014 8368     		ldr	r3, [r0, #8]
 960 0016 43F40013 		orr	r3, r3, #2097152
 961 001a 8360     		str	r3, [r0, #8]
 962              	.L70:
 963 001c 7047     		bx	lr
 964              		.cfi_endproc
 965              	.LFE83:
 967              		.section	.text.adc_regular_data_read,"ax",%progbits
 968              		.align	1
 969              		.global	adc_regular_data_read
 970              		.syntax unified
 971              		.thumb
 972              		.thumb_func
 973              		.fpu softvfp
 975              	adc_regular_data_read:
 976              	.LFB84:
 606:Drivers/GD32F1xx_standard_peripheral/Source/gd32f10x_adc.c ****     }
 607:Drivers/GD32F1xx_standard_peripheral/Source/gd32f10x_adc.c **** }
 608:Drivers/GD32F1xx_standard_peripheral/Source/gd32f10x_adc.c **** 
 609:Drivers/GD32F1xx_standard_peripheral/Source/gd32f10x_adc.c **** /*!
 610:Drivers/GD32F1xx_standard_peripheral/Source/gd32f10x_adc.c ****     \brief      read ADC regular group data register 
 611:Drivers/GD32F1xx_standard_peripheral/Source/gd32f10x_adc.c ****     \param[in]  adc_periph: ADCx, x=0,1,2
 612:Drivers/GD32F1xx_standard_peripheral/Source/gd32f10x_adc.c ****     \param[in]  none
 613:Drivers/GD32F1xx_standard_peripheral/Source/gd32f10x_adc.c ****     \param[out] none
 614:Drivers/GD32F1xx_standard_peripheral/Source/gd32f10x_adc.c ****     \retval     the conversion value
 615:Drivers/GD32F1xx_standard_peripheral/Source/gd32f10x_adc.c **** */
 616:Drivers/GD32F1xx_standard_peripheral/Source/gd32f10x_adc.c **** uint16_t adc_regular_data_read(uint32_t adc_periph)
 617:Drivers/GD32F1xx_standard_peripheral/Source/gd32f10x_adc.c **** {
 977              		.loc 1 617 0
 978              		.cfi_startproc
 979              		@ args = 0, pretend = 0, frame = 0
 980              		@ frame_needed = 0, uses_anonymous_args = 0
 981              		@ link register save eliminated.
 982              	.LVL91:
 618:Drivers/GD32F1xx_standard_peripheral/Source/gd32f10x_adc.c ****     return (uint16_t)(ADC_RDATA(adc_periph));
 983              		.loc 1 618 0
 984 0000 C06C     		ldr	r0, [r0, #76]
 985              	.LVL92:
 619:Drivers/GD32F1xx_standard_peripheral/Source/gd32f10x_adc.c **** }
 986              		.loc 1 619 0
 987 0002 80B2     		uxth	r0, r0
 988 0004 7047     		bx	lr
 989              		.cfi_endproc
 990              	.LFE84:
 992              		.section	.text.adc_inserted_data_read,"ax",%progbits
 993              		.align	1
 994              		.global	adc_inserted_data_read
 995              		.syntax unified
 996              		.thumb
 997              		.thumb_func
 998              		.fpu softvfp
ARM GAS  /tmp/ccdGKvZC.s 			page 29


 1000              	adc_inserted_data_read:
 1001              	.LFB85:
 620:Drivers/GD32F1xx_standard_peripheral/Source/gd32f10x_adc.c **** 
 621:Drivers/GD32F1xx_standard_peripheral/Source/gd32f10x_adc.c **** /*!
 622:Drivers/GD32F1xx_standard_peripheral/Source/gd32f10x_adc.c ****     \brief      read ADC inserted group data register 
 623:Drivers/GD32F1xx_standard_peripheral/Source/gd32f10x_adc.c ****     \param[in]  adc_periph: ADCx, x=0,1,2
 624:Drivers/GD32F1xx_standard_peripheral/Source/gd32f10x_adc.c ****     \param[in]  inserted_channel: insert channel select
 625:Drivers/GD32F1xx_standard_peripheral/Source/gd32f10x_adc.c ****                 only one parameter can be selected
 626:Drivers/GD32F1xx_standard_peripheral/Source/gd32f10x_adc.c ****       \arg        ADC_INSERTED_CHANNEL_0: inserted Channel0
 627:Drivers/GD32F1xx_standard_peripheral/Source/gd32f10x_adc.c ****       \arg        ADC_INSERTED_CHANNEL_1: inserted channel1
 628:Drivers/GD32F1xx_standard_peripheral/Source/gd32f10x_adc.c ****       \arg        ADC_INSERTED_CHANNEL_2: inserted Channel2
 629:Drivers/GD32F1xx_standard_peripheral/Source/gd32f10x_adc.c ****       \arg        ADC_INSERTED_CHANNEL_3: inserted Channel3
 630:Drivers/GD32F1xx_standard_peripheral/Source/gd32f10x_adc.c ****     \param[out] none
 631:Drivers/GD32F1xx_standard_peripheral/Source/gd32f10x_adc.c ****     \retval     the conversion value
 632:Drivers/GD32F1xx_standard_peripheral/Source/gd32f10x_adc.c **** */
 633:Drivers/GD32F1xx_standard_peripheral/Source/gd32f10x_adc.c **** uint16_t adc_inserted_data_read(uint32_t adc_periph, uint8_t inserted_channel)
 634:Drivers/GD32F1xx_standard_peripheral/Source/gd32f10x_adc.c **** {
 1002              		.loc 1 634 0
 1003              		.cfi_startproc
 1004              		@ args = 0, pretend = 0, frame = 0
 1005              		@ frame_needed = 0, uses_anonymous_args = 0
 1006              		@ link register save eliminated.
 1007              	.LVL93:
 635:Drivers/GD32F1xx_standard_peripheral/Source/gd32f10x_adc.c ****     uint32_t idata;
 636:Drivers/GD32F1xx_standard_peripheral/Source/gd32f10x_adc.c ****     /* read the data of the selected channel */
 637:Drivers/GD32F1xx_standard_peripheral/Source/gd32f10x_adc.c ****     switch(inserted_channel){
 1008              		.loc 1 637 0
 1009 0000 0329     		cmp	r1, #3
 1010 0002 0CD8     		bhi	.L81
 1011 0004 DFE801F0 		tbb	[pc, r1]
 1012              	.L77:
 1013 0008 02       		.byte	(.L76-.L77)/2
 1014 0009 05       		.byte	(.L78-.L77)/2
 1015 000a 07       		.byte	(.L79-.L77)/2
 1016 000b 09       		.byte	(.L80-.L77)/2
 1017              		.p2align 1
 1018              	.L76:
 638:Drivers/GD32F1xx_standard_peripheral/Source/gd32f10x_adc.c ****     case ADC_INSERTED_CHANNEL_0:
 639:Drivers/GD32F1xx_standard_peripheral/Source/gd32f10x_adc.c ****         /* read the data of channel 0 */
 640:Drivers/GD32F1xx_standard_peripheral/Source/gd32f10x_adc.c ****         idata = ADC_IDATA0(adc_periph);
 1019              		.loc 1 640 0
 1020 000c C06B     		ldr	r0, [r0, #60]
 1021              	.LVL94:
 1022              	.L75:
 641:Drivers/GD32F1xx_standard_peripheral/Source/gd32f10x_adc.c ****         break;
 642:Drivers/GD32F1xx_standard_peripheral/Source/gd32f10x_adc.c ****     case ADC_INSERTED_CHANNEL_1:
 643:Drivers/GD32F1xx_standard_peripheral/Source/gd32f10x_adc.c ****         /* read the data of channel 1 */
 644:Drivers/GD32F1xx_standard_peripheral/Source/gd32f10x_adc.c ****         idata = ADC_IDATA1(adc_periph);
 645:Drivers/GD32F1xx_standard_peripheral/Source/gd32f10x_adc.c ****         break;
 646:Drivers/GD32F1xx_standard_peripheral/Source/gd32f10x_adc.c ****     case ADC_INSERTED_CHANNEL_2:
 647:Drivers/GD32F1xx_standard_peripheral/Source/gd32f10x_adc.c ****         /* read the data of channel 2 */
 648:Drivers/GD32F1xx_standard_peripheral/Source/gd32f10x_adc.c ****         idata = ADC_IDATA2(adc_periph);
 649:Drivers/GD32F1xx_standard_peripheral/Source/gd32f10x_adc.c ****         break;
 650:Drivers/GD32F1xx_standard_peripheral/Source/gd32f10x_adc.c ****     case ADC_INSERTED_CHANNEL_3:
 651:Drivers/GD32F1xx_standard_peripheral/Source/gd32f10x_adc.c ****         /* read the data of channel 3 */
 652:Drivers/GD32F1xx_standard_peripheral/Source/gd32f10x_adc.c ****         idata = ADC_IDATA3(adc_periph);
 653:Drivers/GD32F1xx_standard_peripheral/Source/gd32f10x_adc.c ****         break;
ARM GAS  /tmp/ccdGKvZC.s 			page 30


 654:Drivers/GD32F1xx_standard_peripheral/Source/gd32f10x_adc.c ****     default:
 655:Drivers/GD32F1xx_standard_peripheral/Source/gd32f10x_adc.c ****         idata = 0U;
 656:Drivers/GD32F1xx_standard_peripheral/Source/gd32f10x_adc.c ****         break;
 657:Drivers/GD32F1xx_standard_peripheral/Source/gd32f10x_adc.c ****     }
 658:Drivers/GD32F1xx_standard_peripheral/Source/gd32f10x_adc.c ****     return (uint16_t)idata;
 659:Drivers/GD32F1xx_standard_peripheral/Source/gd32f10x_adc.c **** }
 1023              		.loc 1 659 0
 1024 000e 80B2     		uxth	r0, r0
 1025              	.LVL95:
 1026 0010 7047     		bx	lr
 1027              	.LVL96:
 1028              	.L78:
 644:Drivers/GD32F1xx_standard_peripheral/Source/gd32f10x_adc.c ****         break;
 1029              		.loc 1 644 0
 1030 0012 006C     		ldr	r0, [r0, #64]
 1031              	.LVL97:
 645:Drivers/GD32F1xx_standard_peripheral/Source/gd32f10x_adc.c ****     case ADC_INSERTED_CHANNEL_2:
 1032              		.loc 1 645 0
 1033 0014 FBE7     		b	.L75
 1034              	.LVL98:
 1035              	.L79:
 648:Drivers/GD32F1xx_standard_peripheral/Source/gd32f10x_adc.c ****         break;
 1036              		.loc 1 648 0
 1037 0016 406C     		ldr	r0, [r0, #68]
 1038              	.LVL99:
 649:Drivers/GD32F1xx_standard_peripheral/Source/gd32f10x_adc.c ****     case ADC_INSERTED_CHANNEL_3:
 1039              		.loc 1 649 0
 1040 0018 F9E7     		b	.L75
 1041              	.LVL100:
 1042              	.L80:
 652:Drivers/GD32F1xx_standard_peripheral/Source/gd32f10x_adc.c ****         break;
 1043              		.loc 1 652 0
 1044 001a 806C     		ldr	r0, [r0, #72]
 1045              	.LVL101:
 653:Drivers/GD32F1xx_standard_peripheral/Source/gd32f10x_adc.c ****     default:
 1046              		.loc 1 653 0
 1047 001c F7E7     		b	.L75
 1048              	.LVL102:
 1049              	.L81:
 655:Drivers/GD32F1xx_standard_peripheral/Source/gd32f10x_adc.c ****         break;
 1050              		.loc 1 655 0
 1051 001e 0020     		movs	r0, #0
 1052              	.LVL103:
 1053 0020 F5E7     		b	.L75
 1054              		.cfi_endproc
 1055              	.LFE85:
 1057              		.section	.text.adc_sync_mode_convert_value_read,"ax",%progbits
 1058              		.align	1
 1059              		.global	adc_sync_mode_convert_value_read
 1060              		.syntax unified
 1061              		.thumb
 1062              		.thumb_func
 1063              		.fpu softvfp
 1065              	adc_sync_mode_convert_value_read:
 1066              	.LFB86:
 660:Drivers/GD32F1xx_standard_peripheral/Source/gd32f10x_adc.c **** 
 661:Drivers/GD32F1xx_standard_peripheral/Source/gd32f10x_adc.c **** /*!
ARM GAS  /tmp/ccdGKvZC.s 			page 31


 662:Drivers/GD32F1xx_standard_peripheral/Source/gd32f10x_adc.c ****     \brief      read the last ADC0 and ADC1 conversion result data in sync mode
 663:Drivers/GD32F1xx_standard_peripheral/Source/gd32f10x_adc.c ****     \param[in]  none
 664:Drivers/GD32F1xx_standard_peripheral/Source/gd32f10x_adc.c ****     \param[out] none
 665:Drivers/GD32F1xx_standard_peripheral/Source/gd32f10x_adc.c ****     \retval     the conversion value
 666:Drivers/GD32F1xx_standard_peripheral/Source/gd32f10x_adc.c **** */
 667:Drivers/GD32F1xx_standard_peripheral/Source/gd32f10x_adc.c **** uint32_t adc_sync_mode_convert_value_read(void)
 668:Drivers/GD32F1xx_standard_peripheral/Source/gd32f10x_adc.c **** {
 1067              		.loc 1 668 0
 1068              		.cfi_startproc
 1069              		@ args = 0, pretend = 0, frame = 0
 1070              		@ frame_needed = 0, uses_anonymous_args = 0
 1071              		@ link register save eliminated.
 669:Drivers/GD32F1xx_standard_peripheral/Source/gd32f10x_adc.c ****     /* return conversion value */
 670:Drivers/GD32F1xx_standard_peripheral/Source/gd32f10x_adc.c ****     return ADC_RDATA(ADC0);
 1072              		.loc 1 670 0
 1073 0000 014B     		ldr	r3, .L83
 1074 0002 1868     		ldr	r0, [r3]
 671:Drivers/GD32F1xx_standard_peripheral/Source/gd32f10x_adc.c **** }
 1075              		.loc 1 671 0
 1076 0004 7047     		bx	lr
 1077              	.L84:
 1078 0006 00BF     		.align	2
 1079              	.L83:
 1080 0008 4C240140 		.word	1073816652
 1081              		.cfi_endproc
 1082              	.LFE86:
 1084              		.section	.text.adc_watchdog_single_channel_enable,"ax",%progbits
 1085              		.align	1
 1086              		.global	adc_watchdog_single_channel_enable
 1087              		.syntax unified
 1088              		.thumb
 1089              		.thumb_func
 1090              		.fpu softvfp
 1092              	adc_watchdog_single_channel_enable:
 1093              	.LFB87:
 672:Drivers/GD32F1xx_standard_peripheral/Source/gd32f10x_adc.c **** 
 673:Drivers/GD32F1xx_standard_peripheral/Source/gd32f10x_adc.c **** 
 674:Drivers/GD32F1xx_standard_peripheral/Source/gd32f10x_adc.c **** /*!
 675:Drivers/GD32F1xx_standard_peripheral/Source/gd32f10x_adc.c ****     \brief      configure ADC analog watchdog single channel 
 676:Drivers/GD32F1xx_standard_peripheral/Source/gd32f10x_adc.c ****     \param[in]  adc_periph: ADCx, x=0,1,2
 677:Drivers/GD32F1xx_standard_peripheral/Source/gd32f10x_adc.c ****     \param[in]  adc_channel: the selected ADC channel
 678:Drivers/GD32F1xx_standard_peripheral/Source/gd32f10x_adc.c ****                 only one parameter can be selected which is shown as below:
 679:Drivers/GD32F1xx_standard_peripheral/Source/gd32f10x_adc.c ****       \arg        ADC_CHANNEL_x: ADC Channelx(x=0..17)(x=16 and x=17 are only for ADC0)
 680:Drivers/GD32F1xx_standard_peripheral/Source/gd32f10x_adc.c ****     \param[out] none
 681:Drivers/GD32F1xx_standard_peripheral/Source/gd32f10x_adc.c ****     \retval     none
 682:Drivers/GD32F1xx_standard_peripheral/Source/gd32f10x_adc.c **** */
 683:Drivers/GD32F1xx_standard_peripheral/Source/gd32f10x_adc.c **** void adc_watchdog_single_channel_enable(uint32_t adc_periph, uint8_t adc_channel)
 684:Drivers/GD32F1xx_standard_peripheral/Source/gd32f10x_adc.c **** {
 1094              		.loc 1 684 0
 1095              		.cfi_startproc
 1096              		@ args = 0, pretend = 0, frame = 0
 1097              		@ frame_needed = 0, uses_anonymous_args = 0
 1098              		@ link register save eliminated.
 1099              	.LVL104:
 685:Drivers/GD32F1xx_standard_peripheral/Source/gd32f10x_adc.c ****     ADC_CTL0(adc_periph) &= (uint32_t)~(ADC_CTL0_RWDEN | ADC_CTL0_IWDEN | ADC_CTL0_WDSC | ADC_CTL0_
 1100              		.loc 1 685 0
 1101 0000 4268     		ldr	r2, [r0, #4]
ARM GAS  /tmp/ccdGKvZC.s 			page 32


 1102 0002 064B     		ldr	r3, .L86
 1103 0004 1340     		ands	r3, r3, r2
 1104 0006 4360     		str	r3, [r0, #4]
 686:Drivers/GD32F1xx_standard_peripheral/Source/gd32f10x_adc.c ****     /* analog watchdog channel select */
 687:Drivers/GD32F1xx_standard_peripheral/Source/gd32f10x_adc.c ****     ADC_CTL0(adc_periph) |= (uint32_t)adc_channel;
 1105              		.loc 1 687 0
 1106 0008 4368     		ldr	r3, [r0, #4]
 1107 000a 1943     		orrs	r1, r1, r3
 1108              	.LVL105:
 1109 000c 4160     		str	r1, [r0, #4]
 688:Drivers/GD32F1xx_standard_peripheral/Source/gd32f10x_adc.c ****     ADC_CTL0(adc_periph) |= (uint32_t)(ADC_CTL0_RWDEN | ADC_CTL0_IWDEN | ADC_CTL0_WDSC);
 1110              		.loc 1 688 0
 1111 000e 4368     		ldr	r3, [r0, #4]
 1112 0010 43F44003 		orr	r3, r3, #12582912
 1113 0014 43F40073 		orr	r3, r3, #512
 1114 0018 4360     		str	r3, [r0, #4]
 1115 001a 7047     		bx	lr
 1116              	.L87:
 1117              		.align	2
 1118              	.L86:
 1119 001c E0FD3FFF 		.word	-12583456
 1120              		.cfi_endproc
 1121              	.LFE87:
 1123              		.section	.text.adc_watchdog_group_channel_enable,"ax",%progbits
 1124              		.align	1
 1125              		.global	adc_watchdog_group_channel_enable
 1126              		.syntax unified
 1127              		.thumb
 1128              		.thumb_func
 1129              		.fpu softvfp
 1131              	adc_watchdog_group_channel_enable:
 1132              	.LFB88:
 689:Drivers/GD32F1xx_standard_peripheral/Source/gd32f10x_adc.c **** }
 690:Drivers/GD32F1xx_standard_peripheral/Source/gd32f10x_adc.c **** 
 691:Drivers/GD32F1xx_standard_peripheral/Source/gd32f10x_adc.c **** /*!
 692:Drivers/GD32F1xx_standard_peripheral/Source/gd32f10x_adc.c ****     \brief      configure ADC analog watchdog group channel 
 693:Drivers/GD32F1xx_standard_peripheral/Source/gd32f10x_adc.c ****     \param[in]  adc_periph: ADCx, x=0,1,2
 694:Drivers/GD32F1xx_standard_peripheral/Source/gd32f10x_adc.c ****     \param[in]  adc_channel_group: the channel group use analog watchdog
 695:Drivers/GD32F1xx_standard_peripheral/Source/gd32f10x_adc.c ****                 only one parameter can be selected which is shown as below: 
 696:Drivers/GD32F1xx_standard_peripheral/Source/gd32f10x_adc.c ****       \arg        ADC_REGULAR_CHANNEL: regular channel group
 697:Drivers/GD32F1xx_standard_peripheral/Source/gd32f10x_adc.c ****       \arg        ADC_INSERTED_CHANNEL: inserted channel group
 698:Drivers/GD32F1xx_standard_peripheral/Source/gd32f10x_adc.c ****       \arg        ADC_REGULAR_INSERTED_CHANNEL: both regular and inserted group
 699:Drivers/GD32F1xx_standard_peripheral/Source/gd32f10x_adc.c ****     \param[out] none
 700:Drivers/GD32F1xx_standard_peripheral/Source/gd32f10x_adc.c ****     \retval     none
 701:Drivers/GD32F1xx_standard_peripheral/Source/gd32f10x_adc.c **** */
 702:Drivers/GD32F1xx_standard_peripheral/Source/gd32f10x_adc.c **** void adc_watchdog_group_channel_enable(uint32_t adc_periph, uint8_t adc_channel_group)
 703:Drivers/GD32F1xx_standard_peripheral/Source/gd32f10x_adc.c **** {
 1133              		.loc 1 703 0
 1134              		.cfi_startproc
 1135              		@ args = 0, pretend = 0, frame = 0
 1136              		@ frame_needed = 0, uses_anonymous_args = 0
 1137              		@ link register save eliminated.
 1138              	.LVL106:
 704:Drivers/GD32F1xx_standard_peripheral/Source/gd32f10x_adc.c ****     ADC_CTL0(adc_periph) &= (uint32_t)~(ADC_CTL0_RWDEN | ADC_CTL0_IWDEN | ADC_CTL0_WDSC);
 1139              		.loc 1 704 0
 1140 0000 4368     		ldr	r3, [r0, #4]
 1141 0002 23F44003 		bic	r3, r3, #12582912
ARM GAS  /tmp/ccdGKvZC.s 			page 33


 1142 0006 23F40073 		bic	r3, r3, #512
 1143 000a 4360     		str	r3, [r0, #4]
 705:Drivers/GD32F1xx_standard_peripheral/Source/gd32f10x_adc.c ****     /* select the group */
 706:Drivers/GD32F1xx_standard_peripheral/Source/gd32f10x_adc.c ****     switch(adc_channel_group){
 1144              		.loc 1 706 0
 1145 000c 0229     		cmp	r1, #2
 1146 000e 09D0     		beq	.L90
 1147 0010 0329     		cmp	r1, #3
 1148 0012 0CD0     		beq	.L91
 1149 0014 0129     		cmp	r1, #1
 1150 0016 00D0     		beq	.L93
 1151              	.L88:
 1152 0018 7047     		bx	lr
 1153              	.L93:
 707:Drivers/GD32F1xx_standard_peripheral/Source/gd32f10x_adc.c ****     case ADC_REGULAR_CHANNEL:
 708:Drivers/GD32F1xx_standard_peripheral/Source/gd32f10x_adc.c ****         /* regular channel analog watchdog enable */
 709:Drivers/GD32F1xx_standard_peripheral/Source/gd32f10x_adc.c ****         ADC_CTL0(adc_periph) |= (uint32_t) ADC_CTL0_RWDEN;
 1154              		.loc 1 709 0
 1155 001a 4368     		ldr	r3, [r0, #4]
 1156 001c 43F40003 		orr	r3, r3, #8388608
 1157 0020 4360     		str	r3, [r0, #4]
 710:Drivers/GD32F1xx_standard_peripheral/Source/gd32f10x_adc.c ****         break;
 1158              		.loc 1 710 0
 1159 0022 7047     		bx	lr
 1160              	.L90:
 711:Drivers/GD32F1xx_standard_peripheral/Source/gd32f10x_adc.c ****     case ADC_INSERTED_CHANNEL:
 712:Drivers/GD32F1xx_standard_peripheral/Source/gd32f10x_adc.c ****         /* inserted channel analog watchdog enable */
 713:Drivers/GD32F1xx_standard_peripheral/Source/gd32f10x_adc.c ****         ADC_CTL0(adc_periph) |= (uint32_t) ADC_CTL0_IWDEN;
 1161              		.loc 1 713 0
 1162 0024 4368     		ldr	r3, [r0, #4]
 1163 0026 43F48003 		orr	r3, r3, #4194304
 1164 002a 4360     		str	r3, [r0, #4]
 714:Drivers/GD32F1xx_standard_peripheral/Source/gd32f10x_adc.c ****         break;
 1165              		.loc 1 714 0
 1166 002c 7047     		bx	lr
 1167              	.L91:
 715:Drivers/GD32F1xx_standard_peripheral/Source/gd32f10x_adc.c ****     case ADC_REGULAR_INSERTED_CHANNEL:
 716:Drivers/GD32F1xx_standard_peripheral/Source/gd32f10x_adc.c ****         /* regular and inserted channel analog watchdog enable */
 717:Drivers/GD32F1xx_standard_peripheral/Source/gd32f10x_adc.c ****         ADC_CTL0(adc_periph) |= (uint32_t)(ADC_CTL0_RWDEN | ADC_CTL0_IWDEN);
 1168              		.loc 1 717 0
 1169 002e 4368     		ldr	r3, [r0, #4]
 1170 0030 43F44003 		orr	r3, r3, #12582912
 1171 0034 4360     		str	r3, [r0, #4]
 718:Drivers/GD32F1xx_standard_peripheral/Source/gd32f10x_adc.c ****         break;
 719:Drivers/GD32F1xx_standard_peripheral/Source/gd32f10x_adc.c ****     default:
 720:Drivers/GD32F1xx_standard_peripheral/Source/gd32f10x_adc.c ****         break;
 721:Drivers/GD32F1xx_standard_peripheral/Source/gd32f10x_adc.c ****     }
 722:Drivers/GD32F1xx_standard_peripheral/Source/gd32f10x_adc.c **** }
 1172              		.loc 1 722 0
 1173 0036 EFE7     		b	.L88
 1174              		.cfi_endproc
 1175              	.LFE88:
 1177              		.section	.text.adc_watchdog_disable,"ax",%progbits
 1178              		.align	1
 1179              		.global	adc_watchdog_disable
 1180              		.syntax unified
 1181              		.thumb
ARM GAS  /tmp/ccdGKvZC.s 			page 34


 1182              		.thumb_func
 1183              		.fpu softvfp
 1185              	adc_watchdog_disable:
 1186              	.LFB89:
 723:Drivers/GD32F1xx_standard_peripheral/Source/gd32f10x_adc.c **** 
 724:Drivers/GD32F1xx_standard_peripheral/Source/gd32f10x_adc.c **** /*!
 725:Drivers/GD32F1xx_standard_peripheral/Source/gd32f10x_adc.c ****     \brief      disable ADC analog watchdog 
 726:Drivers/GD32F1xx_standard_peripheral/Source/gd32f10x_adc.c ****     \param[in]  adc_periph: ADCx, x=0,1,2
 727:Drivers/GD32F1xx_standard_peripheral/Source/gd32f10x_adc.c ****     \param[out] none
 728:Drivers/GD32F1xx_standard_peripheral/Source/gd32f10x_adc.c ****     \retval     none
 729:Drivers/GD32F1xx_standard_peripheral/Source/gd32f10x_adc.c **** */
 730:Drivers/GD32F1xx_standard_peripheral/Source/gd32f10x_adc.c **** void adc_watchdog_disable(uint32_t adc_periph)
 731:Drivers/GD32F1xx_standard_peripheral/Source/gd32f10x_adc.c **** {
 1187              		.loc 1 731 0
 1188              		.cfi_startproc
 1189              		@ args = 0, pretend = 0, frame = 0
 1190              		@ frame_needed = 0, uses_anonymous_args = 0
 1191              		@ link register save eliminated.
 1192              	.LVL107:
 732:Drivers/GD32F1xx_standard_peripheral/Source/gd32f10x_adc.c ****     ADC_CTL0(adc_periph) &= (uint32_t)~(ADC_CTL0_RWDEN | ADC_CTL0_IWDEN | ADC_CTL0_WDSC | ADC_CTL0_
 1193              		.loc 1 732 0
 1194 0000 4268     		ldr	r2, [r0, #4]
 1195 0002 024B     		ldr	r3, .L95
 1196 0004 1340     		ands	r3, r3, r2
 1197 0006 4360     		str	r3, [r0, #4]
 1198 0008 7047     		bx	lr
 1199              	.L96:
 1200 000a 00BF     		.align	2
 1201              	.L95:
 1202 000c E0FD3FFF 		.word	-12583456
 1203              		.cfi_endproc
 1204              	.LFE89:
 1206              		.section	.text.adc_watchdog_threshold_config,"ax",%progbits
 1207              		.align	1
 1208              		.global	adc_watchdog_threshold_config
 1209              		.syntax unified
 1210              		.thumb
 1211              		.thumb_func
 1212              		.fpu softvfp
 1214              	adc_watchdog_threshold_config:
 1215              	.LFB90:
 733:Drivers/GD32F1xx_standard_peripheral/Source/gd32f10x_adc.c **** }
 734:Drivers/GD32F1xx_standard_peripheral/Source/gd32f10x_adc.c **** 
 735:Drivers/GD32F1xx_standard_peripheral/Source/gd32f10x_adc.c **** /*!
 736:Drivers/GD32F1xx_standard_peripheral/Source/gd32f10x_adc.c ****     \brief      configure ADC analog watchdog threshold 
 737:Drivers/GD32F1xx_standard_peripheral/Source/gd32f10x_adc.c ****     \param[in]  adc_periph: ADCx, x=0,1,2
 738:Drivers/GD32F1xx_standard_peripheral/Source/gd32f10x_adc.c ****     \param[in]  low_threshold: analog watchdog low threshold, 0..4095
 739:Drivers/GD32F1xx_standard_peripheral/Source/gd32f10x_adc.c ****     \param[in]  high_threshold: analog watchdog high threshold, 0..4095
 740:Drivers/GD32F1xx_standard_peripheral/Source/gd32f10x_adc.c ****     \param[out] none
 741:Drivers/GD32F1xx_standard_peripheral/Source/gd32f10x_adc.c ****     \retval     none
 742:Drivers/GD32F1xx_standard_peripheral/Source/gd32f10x_adc.c **** */
 743:Drivers/GD32F1xx_standard_peripheral/Source/gd32f10x_adc.c **** void adc_watchdog_threshold_config(uint32_t adc_periph, uint16_t low_threshold, uint16_t high_thres
 744:Drivers/GD32F1xx_standard_peripheral/Source/gd32f10x_adc.c **** {
 1216              		.loc 1 744 0
 1217              		.cfi_startproc
 1218              		@ args = 0, pretend = 0, frame = 0
 1219              		@ frame_needed = 0, uses_anonymous_args = 0
ARM GAS  /tmp/ccdGKvZC.s 			page 35


 1220              		@ link register save eliminated.
 1221              	.LVL108:
 745:Drivers/GD32F1xx_standard_peripheral/Source/gd32f10x_adc.c ****     ADC_WDLT(adc_periph) = (uint32_t)WDLT_WDLT(low_threshold);
 1222              		.loc 1 745 0
 1223 0000 C1F30B01 		ubfx	r1, r1, #0, #12
 1224              	.LVL109:
 1225 0004 8162     		str	r1, [r0, #40]
 746:Drivers/GD32F1xx_standard_peripheral/Source/gd32f10x_adc.c ****     ADC_WDHT(adc_periph) = (uint32_t)WDHT_WDHT(high_threshold);
 1226              		.loc 1 746 0
 1227 0006 C2F30B02 		ubfx	r2, r2, #0, #12
 1228              	.LVL110:
 1229 000a 4262     		str	r2, [r0, #36]
 1230 000c 7047     		bx	lr
 1231              		.cfi_endproc
 1232              	.LFE90:
 1234              		.section	.text.adc_flag_get,"ax",%progbits
 1235              		.align	1
 1236              		.global	adc_flag_get
 1237              		.syntax unified
 1238              		.thumb
 1239              		.thumb_func
 1240              		.fpu softvfp
 1242              	adc_flag_get:
 1243              	.LFB91:
 747:Drivers/GD32F1xx_standard_peripheral/Source/gd32f10x_adc.c **** }
 748:Drivers/GD32F1xx_standard_peripheral/Source/gd32f10x_adc.c **** 
 749:Drivers/GD32F1xx_standard_peripheral/Source/gd32f10x_adc.c **** /*!
 750:Drivers/GD32F1xx_standard_peripheral/Source/gd32f10x_adc.c ****     \brief      get the ADC flag bits
 751:Drivers/GD32F1xx_standard_peripheral/Source/gd32f10x_adc.c ****     \param[in]  adc_periph: ADCx, x=0,1,2
 752:Drivers/GD32F1xx_standard_peripheral/Source/gd32f10x_adc.c ****     \param[in]  adc_flag: the adc flag bits
 753:Drivers/GD32F1xx_standard_peripheral/Source/gd32f10x_adc.c ****                 only one parameter can be selected which is shown as below:
 754:Drivers/GD32F1xx_standard_peripheral/Source/gd32f10x_adc.c ****       \arg        ADC_FLAG_WDE: analog watchdog event flag
 755:Drivers/GD32F1xx_standard_peripheral/Source/gd32f10x_adc.c ****       \arg        ADC_FLAG_EOC: end of group conversion flag
 756:Drivers/GD32F1xx_standard_peripheral/Source/gd32f10x_adc.c ****       \arg        ADC_FLAG_EOIC: end of inserted group conversion flag
 757:Drivers/GD32F1xx_standard_peripheral/Source/gd32f10x_adc.c ****       \arg        ADC_FLAG_STIC: start flag of inserted channel group
 758:Drivers/GD32F1xx_standard_peripheral/Source/gd32f10x_adc.c ****       \arg        ADC_FLAG_STRC: start flag of regular channel group
 759:Drivers/GD32F1xx_standard_peripheral/Source/gd32f10x_adc.c ****     \param[out] none
 760:Drivers/GD32F1xx_standard_peripheral/Source/gd32f10x_adc.c ****     \retval     FlagStatus: SET or RESET
 761:Drivers/GD32F1xx_standard_peripheral/Source/gd32f10x_adc.c **** */
 762:Drivers/GD32F1xx_standard_peripheral/Source/gd32f10x_adc.c **** FlagStatus adc_flag_get(uint32_t adc_periph, uint32_t adc_flag)
 763:Drivers/GD32F1xx_standard_peripheral/Source/gd32f10x_adc.c **** {
 1244              		.loc 1 763 0
 1245              		.cfi_startproc
 1246              		@ args = 0, pretend = 0, frame = 0
 1247              		@ frame_needed = 0, uses_anonymous_args = 0
 1248              		@ link register save eliminated.
 1249              	.LVL111:
 764:Drivers/GD32F1xx_standard_peripheral/Source/gd32f10x_adc.c ****     FlagStatus reval = RESET;
 765:Drivers/GD32F1xx_standard_peripheral/Source/gd32f10x_adc.c ****     if(ADC_STAT(adc_periph) & adc_flag){
 1250              		.loc 1 765 0
 1251 0000 0368     		ldr	r3, [r0]
 1252 0002 0B42     		tst	r3, r1
 1253 0004 01D0     		beq	.L101
 766:Drivers/GD32F1xx_standard_peripheral/Source/gd32f10x_adc.c ****         reval = SET;
 1254              		.loc 1 766 0
 1255 0006 0120     		movs	r0, #1
 1256              	.LVL112:
ARM GAS  /tmp/ccdGKvZC.s 			page 36


 767:Drivers/GD32F1xx_standard_peripheral/Source/gd32f10x_adc.c ****     }
 768:Drivers/GD32F1xx_standard_peripheral/Source/gd32f10x_adc.c ****     return reval;
 769:Drivers/GD32F1xx_standard_peripheral/Source/gd32f10x_adc.c **** }
 1257              		.loc 1 769 0
 1258 0008 7047     		bx	lr
 1259              	.LVL113:
 1260              	.L101:
 764:Drivers/GD32F1xx_standard_peripheral/Source/gd32f10x_adc.c ****     if(ADC_STAT(adc_periph) & adc_flag){
 1261              		.loc 1 764 0
 1262 000a 0020     		movs	r0, #0
 1263              	.LVL114:
 1264 000c 7047     		bx	lr
 1265              		.cfi_endproc
 1266              	.LFE91:
 1268              		.section	.text.adc_flag_clear,"ax",%progbits
 1269              		.align	1
 1270              		.global	adc_flag_clear
 1271              		.syntax unified
 1272              		.thumb
 1273              		.thumb_func
 1274              		.fpu softvfp
 1276              	adc_flag_clear:
 1277              	.LFB92:
 770:Drivers/GD32F1xx_standard_peripheral/Source/gd32f10x_adc.c **** 
 771:Drivers/GD32F1xx_standard_peripheral/Source/gd32f10x_adc.c **** /*!
 772:Drivers/GD32F1xx_standard_peripheral/Source/gd32f10x_adc.c ****     \brief      clear the ADC flag bits
 773:Drivers/GD32F1xx_standard_peripheral/Source/gd32f10x_adc.c ****     \param[in]  adc_periph: ADCx, x=0,1,2
 774:Drivers/GD32F1xx_standard_peripheral/Source/gd32f10x_adc.c ****     \param[in]  adc_flag: the adc flag bits
 775:Drivers/GD32F1xx_standard_peripheral/Source/gd32f10x_adc.c ****                 one or more parameters can be selected which are shown as below:
 776:Drivers/GD32F1xx_standard_peripheral/Source/gd32f10x_adc.c ****       \arg        ADC_FLAG_WDE: analog watchdog event flag
 777:Drivers/GD32F1xx_standard_peripheral/Source/gd32f10x_adc.c ****       \arg        ADC_FLAG_EOC: end of group conversion flag
 778:Drivers/GD32F1xx_standard_peripheral/Source/gd32f10x_adc.c ****       \arg        ADC_FLAG_EOIC: end of inserted group conversion flag
 779:Drivers/GD32F1xx_standard_peripheral/Source/gd32f10x_adc.c ****       \arg        ADC_FLAG_STIC: start flag of inserted channel group
 780:Drivers/GD32F1xx_standard_peripheral/Source/gd32f10x_adc.c ****       \arg        ADC_FLAG_STRC: start flag of regular channel group
 781:Drivers/GD32F1xx_standard_peripheral/Source/gd32f10x_adc.c ****     \param[out] none
 782:Drivers/GD32F1xx_standard_peripheral/Source/gd32f10x_adc.c ****     \retval     none
 783:Drivers/GD32F1xx_standard_peripheral/Source/gd32f10x_adc.c **** */
 784:Drivers/GD32F1xx_standard_peripheral/Source/gd32f10x_adc.c **** void adc_flag_clear(uint32_t adc_periph, uint32_t adc_flag)
 785:Drivers/GD32F1xx_standard_peripheral/Source/gd32f10x_adc.c **** {
 1278              		.loc 1 785 0
 1279              		.cfi_startproc
 1280              		@ args = 0, pretend = 0, frame = 0
 1281              		@ frame_needed = 0, uses_anonymous_args = 0
 1282              		@ link register save eliminated.
 1283              	.LVL115:
 786:Drivers/GD32F1xx_standard_peripheral/Source/gd32f10x_adc.c ****     ADC_STAT(adc_periph) &= ~((uint32_t)adc_flag);
 1284              		.loc 1 786 0
 1285 0000 0368     		ldr	r3, [r0]
 1286 0002 23EA0101 		bic	r1, r3, r1
 1287              	.LVL116:
 1288 0006 0160     		str	r1, [r0]
 1289 0008 7047     		bx	lr
 1290              		.cfi_endproc
 1291              	.LFE92:
 1293              		.section	.text.adc_regular_software_startconv_flag_get,"ax",%progbits
 1294              		.align	1
 1295              		.global	adc_regular_software_startconv_flag_get
ARM GAS  /tmp/ccdGKvZC.s 			page 37


 1296              		.syntax unified
 1297              		.thumb
 1298              		.thumb_func
 1299              		.fpu softvfp
 1301              	adc_regular_software_startconv_flag_get:
 1302              	.LFB93:
 787:Drivers/GD32F1xx_standard_peripheral/Source/gd32f10x_adc.c **** }
 788:Drivers/GD32F1xx_standard_peripheral/Source/gd32f10x_adc.c **** 
 789:Drivers/GD32F1xx_standard_peripheral/Source/gd32f10x_adc.c **** /*!
 790:Drivers/GD32F1xx_standard_peripheral/Source/gd32f10x_adc.c ****     \brief      get the bit state of ADCx software start conversion
 791:Drivers/GD32F1xx_standard_peripheral/Source/gd32f10x_adc.c ****     \param[in]  adc_periph: ADCx, x=0,1,2
 792:Drivers/GD32F1xx_standard_peripheral/Source/gd32f10x_adc.c ****     \param[in]  none
 793:Drivers/GD32F1xx_standard_peripheral/Source/gd32f10x_adc.c ****     \param[out] none
 794:Drivers/GD32F1xx_standard_peripheral/Source/gd32f10x_adc.c ****     \retval     FlagStatus: SET or RESET
 795:Drivers/GD32F1xx_standard_peripheral/Source/gd32f10x_adc.c **** */
 796:Drivers/GD32F1xx_standard_peripheral/Source/gd32f10x_adc.c **** FlagStatus adc_regular_software_startconv_flag_get(uint32_t adc_periph)
 797:Drivers/GD32F1xx_standard_peripheral/Source/gd32f10x_adc.c **** {
 1303              		.loc 1 797 0
 1304              		.cfi_startproc
 1305              		@ args = 0, pretend = 0, frame = 0
 1306              		@ frame_needed = 0, uses_anonymous_args = 0
 1307              		@ link register save eliminated.
 1308              	.LVL117:
 798:Drivers/GD32F1xx_standard_peripheral/Source/gd32f10x_adc.c ****     FlagStatus reval = RESET;
 799:Drivers/GD32F1xx_standard_peripheral/Source/gd32f10x_adc.c ****     if((uint32_t)RESET != (ADC_CTL1(adc_periph) & ADC_CTL1_SWRCST)){
 1309              		.loc 1 799 0
 1310 0000 8368     		ldr	r3, [r0, #8]
 1311 0002 13F4800F 		tst	r3, #4194304
 1312 0006 01D0     		beq	.L106
 800:Drivers/GD32F1xx_standard_peripheral/Source/gd32f10x_adc.c ****         reval = SET;
 1313              		.loc 1 800 0
 1314 0008 0120     		movs	r0, #1
 1315              	.LVL118:
 801:Drivers/GD32F1xx_standard_peripheral/Source/gd32f10x_adc.c ****     }
 802:Drivers/GD32F1xx_standard_peripheral/Source/gd32f10x_adc.c ****     return reval;
 803:Drivers/GD32F1xx_standard_peripheral/Source/gd32f10x_adc.c **** }
 1316              		.loc 1 803 0
 1317 000a 7047     		bx	lr
 1318              	.LVL119:
 1319              	.L106:
 798:Drivers/GD32F1xx_standard_peripheral/Source/gd32f10x_adc.c ****     if((uint32_t)RESET != (ADC_CTL1(adc_periph) & ADC_CTL1_SWRCST)){
 1320              		.loc 1 798 0
 1321 000c 0020     		movs	r0, #0
 1322              	.LVL120:
 1323 000e 7047     		bx	lr
 1324              		.cfi_endproc
 1325              	.LFE93:
 1327              		.section	.text.adc_inserted_software_startconv_flag_get,"ax",%progbits
 1328              		.align	1
 1329              		.global	adc_inserted_software_startconv_flag_get
 1330              		.syntax unified
 1331              		.thumb
 1332              		.thumb_func
 1333              		.fpu softvfp
 1335              	adc_inserted_software_startconv_flag_get:
 1336              	.LFB94:
 804:Drivers/GD32F1xx_standard_peripheral/Source/gd32f10x_adc.c **** 
ARM GAS  /tmp/ccdGKvZC.s 			page 38


 805:Drivers/GD32F1xx_standard_peripheral/Source/gd32f10x_adc.c **** /*!
 806:Drivers/GD32F1xx_standard_peripheral/Source/gd32f10x_adc.c ****     \brief      get the bit state of ADCx software inserted channel start conversion
 807:Drivers/GD32F1xx_standard_peripheral/Source/gd32f10x_adc.c ****     \param[in]  adc_periph: ADCx, x=0,1,2
 808:Drivers/GD32F1xx_standard_peripheral/Source/gd32f10x_adc.c ****     \param[in]  none
 809:Drivers/GD32F1xx_standard_peripheral/Source/gd32f10x_adc.c ****     \param[out] none
 810:Drivers/GD32F1xx_standard_peripheral/Source/gd32f10x_adc.c ****     \retval     FlagStatus: SET or RESET
 811:Drivers/GD32F1xx_standard_peripheral/Source/gd32f10x_adc.c **** */
 812:Drivers/GD32F1xx_standard_peripheral/Source/gd32f10x_adc.c **** FlagStatus adc_inserted_software_startconv_flag_get(uint32_t adc_periph)
 813:Drivers/GD32F1xx_standard_peripheral/Source/gd32f10x_adc.c **** {
 1337              		.loc 1 813 0
 1338              		.cfi_startproc
 1339              		@ args = 0, pretend = 0, frame = 0
 1340              		@ frame_needed = 0, uses_anonymous_args = 0
 1341              		@ link register save eliminated.
 1342              	.LVL121:
 814:Drivers/GD32F1xx_standard_peripheral/Source/gd32f10x_adc.c ****     FlagStatus reval = RESET;
 815:Drivers/GD32F1xx_standard_peripheral/Source/gd32f10x_adc.c ****     if((uint32_t)RESET != (ADC_CTL1(adc_periph) & ADC_CTL1_SWICST)){
 1343              		.loc 1 815 0
 1344 0000 8368     		ldr	r3, [r0, #8]
 1345 0002 13F4001F 		tst	r3, #2097152
 1346 0006 01D0     		beq	.L110
 816:Drivers/GD32F1xx_standard_peripheral/Source/gd32f10x_adc.c ****         reval = SET;
 1347              		.loc 1 816 0
 1348 0008 0120     		movs	r0, #1
 1349              	.LVL122:
 817:Drivers/GD32F1xx_standard_peripheral/Source/gd32f10x_adc.c ****     }
 818:Drivers/GD32F1xx_standard_peripheral/Source/gd32f10x_adc.c ****     return reval;
 819:Drivers/GD32F1xx_standard_peripheral/Source/gd32f10x_adc.c **** }
 1350              		.loc 1 819 0
 1351 000a 7047     		bx	lr
 1352              	.LVL123:
 1353              	.L110:
 814:Drivers/GD32F1xx_standard_peripheral/Source/gd32f10x_adc.c ****     if((uint32_t)RESET != (ADC_CTL1(adc_periph) & ADC_CTL1_SWICST)){
 1354              		.loc 1 814 0
 1355 000c 0020     		movs	r0, #0
 1356              	.LVL124:
 1357 000e 7047     		bx	lr
 1358              		.cfi_endproc
 1359              	.LFE94:
 1361              		.section	.text.adc_interrupt_flag_get,"ax",%progbits
 1362              		.align	1
 1363              		.global	adc_interrupt_flag_get
 1364              		.syntax unified
 1365              		.thumb
 1366              		.thumb_func
 1367              		.fpu softvfp
 1369              	adc_interrupt_flag_get:
 1370              	.LFB95:
 820:Drivers/GD32F1xx_standard_peripheral/Source/gd32f10x_adc.c **** 
 821:Drivers/GD32F1xx_standard_peripheral/Source/gd32f10x_adc.c **** /*!
 822:Drivers/GD32F1xx_standard_peripheral/Source/gd32f10x_adc.c ****     \brief      get the ADC interrupt bits
 823:Drivers/GD32F1xx_standard_peripheral/Source/gd32f10x_adc.c ****     \param[in]  adc_periph: ADCx, x=0,1,2
 824:Drivers/GD32F1xx_standard_peripheral/Source/gd32f10x_adc.c ****     \param[in]  adc_interrupt: the adc interrupt bits
 825:Drivers/GD32F1xx_standard_peripheral/Source/gd32f10x_adc.c ****                 only one parameter can be selected which is shown as below:
 826:Drivers/GD32F1xx_standard_peripheral/Source/gd32f10x_adc.c ****       \arg        ADC_INT_FLAG_WDE: analog watchdog interrupt
 827:Drivers/GD32F1xx_standard_peripheral/Source/gd32f10x_adc.c ****       \arg        ADC_INT_FLAG_EOC: end of group conversion interrupt
 828:Drivers/GD32F1xx_standard_peripheral/Source/gd32f10x_adc.c ****       \arg        ADC_INT_FLAG_EOIC: end of inserted group conversion interrupt
ARM GAS  /tmp/ccdGKvZC.s 			page 39


 829:Drivers/GD32F1xx_standard_peripheral/Source/gd32f10x_adc.c ****     \param[out] none
 830:Drivers/GD32F1xx_standard_peripheral/Source/gd32f10x_adc.c ****     \retval     FlagStatus: SET or RESET
 831:Drivers/GD32F1xx_standard_peripheral/Source/gd32f10x_adc.c **** */
 832:Drivers/GD32F1xx_standard_peripheral/Source/gd32f10x_adc.c **** FlagStatus adc_interrupt_flag_get(uint32_t adc_periph, uint32_t adc_interrupt)
 833:Drivers/GD32F1xx_standard_peripheral/Source/gd32f10x_adc.c **** {
 1371              		.loc 1 833 0
 1372              		.cfi_startproc
 1373              		@ args = 0, pretend = 0, frame = 0
 1374              		@ frame_needed = 0, uses_anonymous_args = 0
 1375              		@ link register save eliminated.
 1376              	.LVL125:
 834:Drivers/GD32F1xx_standard_peripheral/Source/gd32f10x_adc.c ****     FlagStatus interrupt_flag = RESET;
 835:Drivers/GD32F1xx_standard_peripheral/Source/gd32f10x_adc.c ****     uint32_t state;
 836:Drivers/GD32F1xx_standard_peripheral/Source/gd32f10x_adc.c ****     /* check the interrupt bits */
 837:Drivers/GD32F1xx_standard_peripheral/Source/gd32f10x_adc.c ****     switch(adc_interrupt){
 1377              		.loc 1 837 0
 1378 0000 0229     		cmp	r1, #2
 1379 0002 0FD0     		beq	.L113
 1380 0004 0429     		cmp	r1, #4
 1381 0006 17D0     		beq	.L114
 1382 0008 0129     		cmp	r1, #1
 1383 000a 01D0     		beq	.L124
 834:Drivers/GD32F1xx_standard_peripheral/Source/gd32f10x_adc.c ****     FlagStatus interrupt_flag = RESET;
 1384              		.loc 1 834 0
 1385 000c 0020     		movs	r0, #0
 1386              	.LVL126:
 1387 000e 7047     		bx	lr
 1388              	.LVL127:
 1389              	.L124:
 838:Drivers/GD32F1xx_standard_peripheral/Source/gd32f10x_adc.c ****     case ADC_INT_FLAG_WDE:
 839:Drivers/GD32F1xx_standard_peripheral/Source/gd32f10x_adc.c ****         /* get the ADC analog watchdog interrupt bits */
 840:Drivers/GD32F1xx_standard_peripheral/Source/gd32f10x_adc.c ****         state = ADC_STAT(adc_periph) & ADC_STAT_WDE;
 1390              		.loc 1 840 0
 1391 0010 0368     		ldr	r3, [r0]
 1392 0012 03F00103 		and	r3, r3, #1
 1393              	.LVL128:
 841:Drivers/GD32F1xx_standard_peripheral/Source/gd32f10x_adc.c ****         if((ADC_CTL0(adc_periph) & ADC_CTL0_WDEIE) && state){
 1394              		.loc 1 841 0
 1395 0016 4268     		ldr	r2, [r0, #4]
 1396 0018 12F0400F 		tst	r2, #64
 1397 001c 18D0     		beq	.L117
 1398              		.loc 1 841 0 is_stmt 0 discriminator 1
 1399 001e CBB9     		cbnz	r3, .L118
 834:Drivers/GD32F1xx_standard_peripheral/Source/gd32f10x_adc.c ****     FlagStatus interrupt_flag = RESET;
 1400              		.loc 1 834 0 is_stmt 1
 1401 0020 0020     		movs	r0, #0
 1402              	.LVL129:
 1403 0022 7047     		bx	lr
 1404              	.LVL130:
 1405              	.L113:
 842:Drivers/GD32F1xx_standard_peripheral/Source/gd32f10x_adc.c ****           interrupt_flag = SET;
 843:Drivers/GD32F1xx_standard_peripheral/Source/gd32f10x_adc.c ****         }
 844:Drivers/GD32F1xx_standard_peripheral/Source/gd32f10x_adc.c ****         break;
 845:Drivers/GD32F1xx_standard_peripheral/Source/gd32f10x_adc.c ****     case ADC_INT_FLAG_EOC:
 846:Drivers/GD32F1xx_standard_peripheral/Source/gd32f10x_adc.c ****         /* get the ADC end of group conversion interrupt bits */
 847:Drivers/GD32F1xx_standard_peripheral/Source/gd32f10x_adc.c ****         state = ADC_STAT(adc_periph) & ADC_STAT_EOC;
 1406              		.loc 1 847 0
ARM GAS  /tmp/ccdGKvZC.s 			page 40


 1407 0024 0368     		ldr	r3, [r0]
 1408 0026 03F00203 		and	r3, r3, #2
 1409              	.LVL131:
 848:Drivers/GD32F1xx_standard_peripheral/Source/gd32f10x_adc.c ****           if((ADC_CTL0(adc_periph) & ADC_CTL0_EOCIE) && state){
 1410              		.loc 1 848 0
 1411 002a 4268     		ldr	r2, [r0, #4]
 1412 002c 12F0200F 		tst	r2, #32
 1413 0030 12D0     		beq	.L119
 1414              		.loc 1 848 0 is_stmt 0 discriminator 1
 1415 0032 9BB9     		cbnz	r3, .L120
 834:Drivers/GD32F1xx_standard_peripheral/Source/gd32f10x_adc.c ****     uint32_t state;
 1416              		.loc 1 834 0 is_stmt 1
 1417 0034 0020     		movs	r0, #0
 1418              	.LVL132:
 1419 0036 7047     		bx	lr
 1420              	.LVL133:
 1421              	.L114:
 849:Drivers/GD32F1xx_standard_peripheral/Source/gd32f10x_adc.c ****             interrupt_flag = SET;
 850:Drivers/GD32F1xx_standard_peripheral/Source/gd32f10x_adc.c ****           }
 851:Drivers/GD32F1xx_standard_peripheral/Source/gd32f10x_adc.c ****         break;
 852:Drivers/GD32F1xx_standard_peripheral/Source/gd32f10x_adc.c ****     case ADC_INT_FLAG_EOIC:
 853:Drivers/GD32F1xx_standard_peripheral/Source/gd32f10x_adc.c ****         /* get the ADC end of inserted group conversion interrupt bits */
 854:Drivers/GD32F1xx_standard_peripheral/Source/gd32f10x_adc.c ****         state = ADC_STAT(adc_periph) & ADC_STAT_EOIC;
 1422              		.loc 1 854 0
 1423 0038 0368     		ldr	r3, [r0]
 1424 003a 03F00403 		and	r3, r3, #4
 1425              	.LVL134:
 855:Drivers/GD32F1xx_standard_peripheral/Source/gd32f10x_adc.c ****         if((ADC_CTL0(adc_periph) & ADC_CTL0_EOICIE) && state){
 1426              		.loc 1 855 0
 1427 003e 4268     		ldr	r2, [r0, #4]
 1428 0040 12F0800F 		tst	r2, #128
 1429 0044 0CD0     		beq	.L121
 1430              		.loc 1 855 0 is_stmt 0 discriminator 1
 1431 0046 0BB1     		cbz	r3, .L125
 856:Drivers/GD32F1xx_standard_peripheral/Source/gd32f10x_adc.c ****             interrupt_flag = SET;
 1432              		.loc 1 856 0 is_stmt 1
 1433 0048 0120     		movs	r0, #1
 1434              	.LVL135:
 857:Drivers/GD32F1xx_standard_peripheral/Source/gd32f10x_adc.c ****         }
 858:Drivers/GD32F1xx_standard_peripheral/Source/gd32f10x_adc.c ****         break;
 859:Drivers/GD32F1xx_standard_peripheral/Source/gd32f10x_adc.c ****     default:
 860:Drivers/GD32F1xx_standard_peripheral/Source/gd32f10x_adc.c ****         break;
 861:Drivers/GD32F1xx_standard_peripheral/Source/gd32f10x_adc.c ****     }
 862:Drivers/GD32F1xx_standard_peripheral/Source/gd32f10x_adc.c ****     return interrupt_flag;
 863:Drivers/GD32F1xx_standard_peripheral/Source/gd32f10x_adc.c **** }
 1435              		.loc 1 863 0
 1436 004a 7047     		bx	lr
 1437              	.LVL136:
 1438              	.L125:
 834:Drivers/GD32F1xx_standard_peripheral/Source/gd32f10x_adc.c ****     uint32_t state;
 1439              		.loc 1 834 0
 1440 004c 0020     		movs	r0, #0
 1441              	.LVL137:
 1442 004e 7047     		bx	lr
 1443              	.LVL138:
 1444              	.L117:
 1445 0050 0020     		movs	r0, #0
ARM GAS  /tmp/ccdGKvZC.s 			page 41


 1446              	.LVL139:
 1447 0052 7047     		bx	lr
 1448              	.LVL140:
 1449              	.L118:
 842:Drivers/GD32F1xx_standard_peripheral/Source/gd32f10x_adc.c ****         }
 1450              		.loc 1 842 0
 1451 0054 0120     		movs	r0, #1
 1452              	.LVL141:
 1453 0056 7047     		bx	lr
 1454              	.LVL142:
 1455              	.L119:
 834:Drivers/GD32F1xx_standard_peripheral/Source/gd32f10x_adc.c ****     uint32_t state;
 1456              		.loc 1 834 0
 1457 0058 0020     		movs	r0, #0
 1458              	.LVL143:
 1459 005a 7047     		bx	lr
 1460              	.LVL144:
 1461              	.L120:
 849:Drivers/GD32F1xx_standard_peripheral/Source/gd32f10x_adc.c ****           }
 1462              		.loc 1 849 0
 1463 005c 0120     		movs	r0, #1
 1464              	.LVL145:
 1465 005e 7047     		bx	lr
 1466              	.LVL146:
 1467              	.L121:
 834:Drivers/GD32F1xx_standard_peripheral/Source/gd32f10x_adc.c ****     uint32_t state;
 1468              		.loc 1 834 0
 1469 0060 0020     		movs	r0, #0
 1470              	.LVL147:
 1471 0062 7047     		bx	lr
 1472              		.cfi_endproc
 1473              	.LFE95:
 1475              		.section	.text.adc_interrupt_flag_clear,"ax",%progbits
 1476              		.align	1
 1477              		.global	adc_interrupt_flag_clear
 1478              		.syntax unified
 1479              		.thumb
 1480              		.thumb_func
 1481              		.fpu softvfp
 1483              	adc_interrupt_flag_clear:
 1484              	.LFB96:
 864:Drivers/GD32F1xx_standard_peripheral/Source/gd32f10x_adc.c **** 
 865:Drivers/GD32F1xx_standard_peripheral/Source/gd32f10x_adc.c **** /*!
 866:Drivers/GD32F1xx_standard_peripheral/Source/gd32f10x_adc.c ****     \brief      clear the ADC flag
 867:Drivers/GD32F1xx_standard_peripheral/Source/gd32f10x_adc.c ****     \param[in]  adc_periph: ADCx, x=0,1,2
 868:Drivers/GD32F1xx_standard_peripheral/Source/gd32f10x_adc.c ****     \param[in]  adc_interrupt: the adc status flag
 869:Drivers/GD32F1xx_standard_peripheral/Source/gd32f10x_adc.c ****                 one or more parameters can be selected which are shown as below:
 870:Drivers/GD32F1xx_standard_peripheral/Source/gd32f10x_adc.c ****       \arg        ADC_INT_FLAG_WDE: analog watchdog interrupt
 871:Drivers/GD32F1xx_standard_peripheral/Source/gd32f10x_adc.c ****       \arg        ADC_INT_FLAG_EOC: end of group conversion interrupt
 872:Drivers/GD32F1xx_standard_peripheral/Source/gd32f10x_adc.c ****       \arg        ADC_INT_FLAG_EOIC: end of inserted group conversion interrupt
 873:Drivers/GD32F1xx_standard_peripheral/Source/gd32f10x_adc.c ****     \param[out] none
 874:Drivers/GD32F1xx_standard_peripheral/Source/gd32f10x_adc.c ****     \retval     none
 875:Drivers/GD32F1xx_standard_peripheral/Source/gd32f10x_adc.c **** */
 876:Drivers/GD32F1xx_standard_peripheral/Source/gd32f10x_adc.c **** void adc_interrupt_flag_clear(uint32_t adc_periph, uint32_t adc_interrupt)
 877:Drivers/GD32F1xx_standard_peripheral/Source/gd32f10x_adc.c **** {
 1485              		.loc 1 877 0
 1486              		.cfi_startproc
ARM GAS  /tmp/ccdGKvZC.s 			page 42


 1487              		@ args = 0, pretend = 0, frame = 0
 1488              		@ frame_needed = 0, uses_anonymous_args = 0
 1489              		@ link register save eliminated.
 1490              	.LVL148:
 878:Drivers/GD32F1xx_standard_peripheral/Source/gd32f10x_adc.c ****     ADC_STAT(adc_periph) &= ~((uint32_t)adc_interrupt);
 1491              		.loc 1 878 0
 1492 0000 0368     		ldr	r3, [r0]
 1493 0002 23EA0101 		bic	r1, r3, r1
 1494              	.LVL149:
 1495 0006 0160     		str	r1, [r0]
 1496 0008 7047     		bx	lr
 1497              		.cfi_endproc
 1498              	.LFE96:
 1500              		.section	.text.adc_interrupt_enable,"ax",%progbits
 1501              		.align	1
 1502              		.global	adc_interrupt_enable
 1503              		.syntax unified
 1504              		.thumb
 1505              		.thumb_func
 1506              		.fpu softvfp
 1508              	adc_interrupt_enable:
 1509              	.LFB97:
 879:Drivers/GD32F1xx_standard_peripheral/Source/gd32f10x_adc.c **** }
 880:Drivers/GD32F1xx_standard_peripheral/Source/gd32f10x_adc.c **** 
 881:Drivers/GD32F1xx_standard_peripheral/Source/gd32f10x_adc.c **** /*!
 882:Drivers/GD32F1xx_standard_peripheral/Source/gd32f10x_adc.c ****     \brief      enable ADC interrupt 
 883:Drivers/GD32F1xx_standard_peripheral/Source/gd32f10x_adc.c ****     \param[in]  adc_periph: ADCx, x=0,1,2
 884:Drivers/GD32F1xx_standard_peripheral/Source/gd32f10x_adc.c ****     \param[in]  adc_interrupt: the adc interrupt
 885:Drivers/GD32F1xx_standard_peripheral/Source/gd32f10x_adc.c ****                 one or more parameters can be selected which are shown as below:
 886:Drivers/GD32F1xx_standard_peripheral/Source/gd32f10x_adc.c ****       \arg        ADC_INT_WDE: analog watchdog interrupt flag
 887:Drivers/GD32F1xx_standard_peripheral/Source/gd32f10x_adc.c ****       \arg        ADC_INT_EOC: end of group conversion interrupt flag
 888:Drivers/GD32F1xx_standard_peripheral/Source/gd32f10x_adc.c ****       \arg        ADC_INT_EOIC: end of inserted group conversion interrupt flag
 889:Drivers/GD32F1xx_standard_peripheral/Source/gd32f10x_adc.c ****     \param[out] none
 890:Drivers/GD32F1xx_standard_peripheral/Source/gd32f10x_adc.c ****     \retval     none
 891:Drivers/GD32F1xx_standard_peripheral/Source/gd32f10x_adc.c **** */
 892:Drivers/GD32F1xx_standard_peripheral/Source/gd32f10x_adc.c **** void adc_interrupt_enable(uint32_t adc_periph, uint32_t adc_interrupt)
 893:Drivers/GD32F1xx_standard_peripheral/Source/gd32f10x_adc.c **** {
 1510              		.loc 1 893 0
 1511              		.cfi_startproc
 1512              		@ args = 0, pretend = 0, frame = 0
 1513              		@ frame_needed = 0, uses_anonymous_args = 0
 1514              		@ link register save eliminated.
 1515              	.LVL150:
 894:Drivers/GD32F1xx_standard_peripheral/Source/gd32f10x_adc.c ****     /* enable ADC analog watchdog interrupt */
 895:Drivers/GD32F1xx_standard_peripheral/Source/gd32f10x_adc.c ****     if(0U != (adc_interrupt & ADC_INT_WDE)){
 1516              		.loc 1 895 0
 1517 0000 11F0010F 		tst	r1, #1
 1518 0004 03D0     		beq	.L128
 896:Drivers/GD32F1xx_standard_peripheral/Source/gd32f10x_adc.c ****         ADC_CTL0(adc_periph) |= (uint32_t) ADC_CTL0_WDEIE;
 1519              		.loc 1 896 0
 1520 0006 4368     		ldr	r3, [r0, #4]
 1521 0008 43F04003 		orr	r3, r3, #64
 1522 000c 4360     		str	r3, [r0, #4]
 1523              	.L128:
 897:Drivers/GD32F1xx_standard_peripheral/Source/gd32f10x_adc.c ****     }  
 898:Drivers/GD32F1xx_standard_peripheral/Source/gd32f10x_adc.c ****     /* enable ADC end of group conversion interrupt */
 899:Drivers/GD32F1xx_standard_peripheral/Source/gd32f10x_adc.c ****     if(0U != (adc_interrupt & ADC_INT_EOC)){      
ARM GAS  /tmp/ccdGKvZC.s 			page 43


 1524              		.loc 1 899 0
 1525 000e 11F0020F 		tst	r1, #2
 1526 0012 03D0     		beq	.L129
 900:Drivers/GD32F1xx_standard_peripheral/Source/gd32f10x_adc.c ****         ADC_CTL0(adc_periph) |= (uint32_t) ADC_CTL0_EOCIE;
 1527              		.loc 1 900 0
 1528 0014 4368     		ldr	r3, [r0, #4]
 1529 0016 43F02003 		orr	r3, r3, #32
 1530 001a 4360     		str	r3, [r0, #4]
 1531              	.L129:
 901:Drivers/GD32F1xx_standard_peripheral/Source/gd32f10x_adc.c ****     }  
 902:Drivers/GD32F1xx_standard_peripheral/Source/gd32f10x_adc.c ****     /* enable ADC end of inserted group conversion interrupt */
 903:Drivers/GD32F1xx_standard_peripheral/Source/gd32f10x_adc.c ****     if(0U != (adc_interrupt & ADC_INT_EOIC)){      
 1532              		.loc 1 903 0
 1533 001c 11F0040F 		tst	r1, #4
 1534 0020 03D0     		beq	.L127
 904:Drivers/GD32F1xx_standard_peripheral/Source/gd32f10x_adc.c ****         ADC_CTL0(adc_periph) |= (uint32_t) ADC_CTL0_EOICIE;
 1535              		.loc 1 904 0
 1536 0022 4368     		ldr	r3, [r0, #4]
 1537 0024 43F08003 		orr	r3, r3, #128
 1538 0028 4360     		str	r3, [r0, #4]
 1539              	.L127:
 1540 002a 7047     		bx	lr
 1541              		.cfi_endproc
 1542              	.LFE97:
 1544              		.section	.text.adc_interrupt_disable,"ax",%progbits
 1545              		.align	1
 1546              		.global	adc_interrupt_disable
 1547              		.syntax unified
 1548              		.thumb
 1549              		.thumb_func
 1550              		.fpu softvfp
 1552              	adc_interrupt_disable:
 1553              	.LFB98:
 905:Drivers/GD32F1xx_standard_peripheral/Source/gd32f10x_adc.c ****     }
 906:Drivers/GD32F1xx_standard_peripheral/Source/gd32f10x_adc.c **** }
 907:Drivers/GD32F1xx_standard_peripheral/Source/gd32f10x_adc.c **** 
 908:Drivers/GD32F1xx_standard_peripheral/Source/gd32f10x_adc.c **** /*!
 909:Drivers/GD32F1xx_standard_peripheral/Source/gd32f10x_adc.c ****     \brief      disable ADC interrupt 
 910:Drivers/GD32F1xx_standard_peripheral/Source/gd32f10x_adc.c ****     \param[in]  adc_periph: ADCx, x=0,1,2
 911:Drivers/GD32F1xx_standard_peripheral/Source/gd32f10x_adc.c ****     \param[in]  adc_interrupt: the adc interrupt flag
 912:Drivers/GD32F1xx_standard_peripheral/Source/gd32f10x_adc.c ****                 one or more parameters can be selected which are shown as below:
 913:Drivers/GD32F1xx_standard_peripheral/Source/gd32f10x_adc.c ****       \arg        ADC_INT_WDE: analog watchdog interrupt flag
 914:Drivers/GD32F1xx_standard_peripheral/Source/gd32f10x_adc.c ****       \arg        ADC_INT_EOC: end of group conversion interrupt flag
 915:Drivers/GD32F1xx_standard_peripheral/Source/gd32f10x_adc.c ****       \arg        ADC_INT_EOIC: end of inserted group conversion interrupt flag
 916:Drivers/GD32F1xx_standard_peripheral/Source/gd32f10x_adc.c ****     \param[out] none
 917:Drivers/GD32F1xx_standard_peripheral/Source/gd32f10x_adc.c ****     \retval     none
 918:Drivers/GD32F1xx_standard_peripheral/Source/gd32f10x_adc.c **** */
 919:Drivers/GD32F1xx_standard_peripheral/Source/gd32f10x_adc.c **** void adc_interrupt_disable(uint32_t adc_periph, uint32_t adc_interrupt)
 920:Drivers/GD32F1xx_standard_peripheral/Source/gd32f10x_adc.c **** {  
 1554              		.loc 1 920 0
 1555              		.cfi_startproc
 1556              		@ args = 0, pretend = 0, frame = 0
 1557              		@ frame_needed = 0, uses_anonymous_args = 0
 1558              		@ link register save eliminated.
 1559              	.LVL151:
 921:Drivers/GD32F1xx_standard_peripheral/Source/gd32f10x_adc.c ****     /* disable ADC analog watchdog interrupt */
 922:Drivers/GD32F1xx_standard_peripheral/Source/gd32f10x_adc.c ****     if(0U != (adc_interrupt & ADC_INT_WDE)){  
ARM GAS  /tmp/ccdGKvZC.s 			page 44


 1560              		.loc 1 922 0
 1561 0000 11F0010F 		tst	r1, #1
 1562 0004 03D0     		beq	.L132
 923:Drivers/GD32F1xx_standard_peripheral/Source/gd32f10x_adc.c ****         ADC_CTL0(adc_periph) &= ~(uint32_t) ADC_CTL0_WDEIE;
 1563              		.loc 1 923 0
 1564 0006 4368     		ldr	r3, [r0, #4]
 1565 0008 23F04003 		bic	r3, r3, #64
 1566 000c 4360     		str	r3, [r0, #4]
 1567              	.L132:
 924:Drivers/GD32F1xx_standard_peripheral/Source/gd32f10x_adc.c ****     }  
 925:Drivers/GD32F1xx_standard_peripheral/Source/gd32f10x_adc.c ****     /* disable ADC end of group conversion interrupt */
 926:Drivers/GD32F1xx_standard_peripheral/Source/gd32f10x_adc.c ****     if(0U != (adc_interrupt & ADC_INT_EOC)){      
 1568              		.loc 1 926 0
 1569 000e 11F0020F 		tst	r1, #2
 1570 0012 03D0     		beq	.L133
 927:Drivers/GD32F1xx_standard_peripheral/Source/gd32f10x_adc.c ****         ADC_CTL0(adc_periph) &= ~(uint32_t) ADC_CTL0_EOCIE;
 1571              		.loc 1 927 0
 1572 0014 4368     		ldr	r3, [r0, #4]
 1573 0016 23F02003 		bic	r3, r3, #32
 1574 001a 4360     		str	r3, [r0, #4]
 1575              	.L133:
 928:Drivers/GD32F1xx_standard_peripheral/Source/gd32f10x_adc.c ****     }  
 929:Drivers/GD32F1xx_standard_peripheral/Source/gd32f10x_adc.c ****     /* disable ADC end of inserted group conversion interrupt */
 930:Drivers/GD32F1xx_standard_peripheral/Source/gd32f10x_adc.c ****     if(0U != (adc_interrupt & ADC_INT_EOIC)){      
 1576              		.loc 1 930 0
 1577 001c 11F0040F 		tst	r1, #4
 1578 0020 03D0     		beq	.L131
 931:Drivers/GD32F1xx_standard_peripheral/Source/gd32f10x_adc.c ****         ADC_CTL0(adc_periph) &= ~(uint32_t) ADC_CTL0_EOICIE;
 1579              		.loc 1 931 0
 1580 0022 4368     		ldr	r3, [r0, #4]
 1581 0024 23F08003 		bic	r3, r3, #128
 1582 0028 4360     		str	r3, [r0, #4]
 1583              	.L131:
 1584 002a 7047     		bx	lr
 1585              		.cfi_endproc
 1586              	.LFE98:
 1588              		.text
 1589              	.Letext0:
 1590              		.file 2 "/usr/include/newlib/machine/_default_types.h"
 1591              		.file 3 "/usr/include/newlib/sys/_stdint.h"
 1592              		.file 4 "Drivers/CMSIS/core_cm3.h"
 1593              		.file 5 "Drivers/CMSIS/GD/GD32F1xx/Include/system_gd32f10x.h"
 1594              		.file 6 "Drivers/CMSIS/GD/GD32F1xx/Include/gd32f10x.h"
 1595              		.file 7 "Drivers/GD32F1xx_standard_peripheral/Include/gd32f10x_rcu.h"
ARM GAS  /tmp/ccdGKvZC.s 			page 45


DEFINED SYMBOLS
                            *ABS*:0000000000000000 gd32f10x_adc.c
     /tmp/ccdGKvZC.s:16     .text.adc_deinit:0000000000000000 $t
     /tmp/ccdGKvZC.s:23     .text.adc_deinit:0000000000000000 adc_deinit
     /tmp/ccdGKvZC.s:91     .text.adc_deinit:0000000000000050 $d
     /tmp/ccdGKvZC.s:96     .text.adc_mode_config:0000000000000000 $t
     /tmp/ccdGKvZC.s:103    .text.adc_mode_config:0000000000000000 adc_mode_config
     /tmp/ccdGKvZC.s:125    .text.adc_mode_config:0000000000000014 $d
     /tmp/ccdGKvZC.s:130    .text.adc_special_function_config:0000000000000000 $t
     /tmp/ccdGKvZC.s:137    .text.adc_special_function_config:0000000000000000 adc_special_function_config
     /tmp/ccdGKvZC.s:201    .text.adc_data_alignment_config:0000000000000000 $t
     /tmp/ccdGKvZC.s:208    .text.adc_data_alignment_config:0000000000000000 adc_data_alignment_config
     /tmp/ccdGKvZC.s:233    .text.adc_enable:0000000000000000 $t
     /tmp/ccdGKvZC.s:240    .text.adc_enable:0000000000000000 adc_enable
     /tmp/ccdGKvZC.s:262    .text.adc_disable:0000000000000000 $t
     /tmp/ccdGKvZC.s:269    .text.adc_disable:0000000000000000 adc_disable
     /tmp/ccdGKvZC.s:286    .text.adc_calibration_enable:0000000000000000 $t
     /tmp/ccdGKvZC.s:293    .text.adc_calibration_enable:0000000000000000 adc_calibration_enable
     /tmp/ccdGKvZC.s:326    .text.adc_tempsensor_vrefint_enable:0000000000000000 $t
     /tmp/ccdGKvZC.s:333    .text.adc_tempsensor_vrefint_enable:0000000000000000 adc_tempsensor_vrefint_enable
     /tmp/ccdGKvZC.s:349    .text.adc_tempsensor_vrefint_enable:000000000000000c $d
     /tmp/ccdGKvZC.s:354    .text.adc_tempsensor_vrefint_disable:0000000000000000 $t
     /tmp/ccdGKvZC.s:361    .text.adc_tempsensor_vrefint_disable:0000000000000000 adc_tempsensor_vrefint_disable
     /tmp/ccdGKvZC.s:377    .text.adc_tempsensor_vrefint_disable:000000000000000c $d
     /tmp/ccdGKvZC.s:382    .text.adc_dma_mode_enable:0000000000000000 $t
     /tmp/ccdGKvZC.s:389    .text.adc_dma_mode_enable:0000000000000000 adc_dma_mode_enable
     /tmp/ccdGKvZC.s:406    .text.adc_dma_mode_disable:0000000000000000 $t
     /tmp/ccdGKvZC.s:413    .text.adc_dma_mode_disable:0000000000000000 adc_dma_mode_disable
     /tmp/ccdGKvZC.s:430    .text.adc_discontinuous_mode_config:0000000000000000 $t
     /tmp/ccdGKvZC.s:437    .text.adc_discontinuous_mode_config:0000000000000000 adc_discontinuous_mode_config
     /tmp/ccdGKvZC.s:485    .text.adc_channel_length_config:0000000000000000 $t
     /tmp/ccdGKvZC.s:492    .text.adc_channel_length_config:0000000000000000 adc_channel_length_config
     /tmp/ccdGKvZC.s:542    .text.adc_regular_channel_config:0000000000000000 $t
     /tmp/ccdGKvZC.s:549    .text.adc_regular_channel_config:0000000000000000 adc_regular_channel_config
     /tmp/ccdGKvZC.s:686    .text.adc_inserted_channel_config:0000000000000000 $t
     /tmp/ccdGKvZC.s:693    .text.adc_inserted_channel_config:0000000000000000 adc_inserted_channel_config
     /tmp/ccdGKvZC.s:788    .text.adc_inserted_channel_offset_config:0000000000000000 $t
     /tmp/ccdGKvZC.s:795    .text.adc_inserted_channel_offset_config:0000000000000000 adc_inserted_channel_offset_config
     /tmp/ccdGKvZC.s:828    .text.adc_external_trigger_source_config:0000000000000000 $t
     /tmp/ccdGKvZC.s:835    .text.adc_external_trigger_source_config:0000000000000000 adc_external_trigger_source_config
     /tmp/ccdGKvZC.s:877    .text.adc_external_trigger_config:0000000000000000 $t
     /tmp/ccdGKvZC.s:884    .text.adc_external_trigger_config:0000000000000000 adc_external_trigger_config
     /tmp/ccdGKvZC.s:932    .text.adc_software_trigger_enable:0000000000000000 $t
     /tmp/ccdGKvZC.s:939    .text.adc_software_trigger_enable:0000000000000000 adc_software_trigger_enable
     /tmp/ccdGKvZC.s:968    .text.adc_regular_data_read:0000000000000000 $t
     /tmp/ccdGKvZC.s:975    .text.adc_regular_data_read:0000000000000000 adc_regular_data_read
     /tmp/ccdGKvZC.s:993    .text.adc_inserted_data_read:0000000000000000 $t
     /tmp/ccdGKvZC.s:1000   .text.adc_inserted_data_read:0000000000000000 adc_inserted_data_read
     /tmp/ccdGKvZC.s:1013   .text.adc_inserted_data_read:0000000000000008 $d
     /tmp/ccdGKvZC.s:1017   .text.adc_inserted_data_read:000000000000000c $t
     /tmp/ccdGKvZC.s:1058   .text.adc_sync_mode_convert_value_read:0000000000000000 $t
     /tmp/ccdGKvZC.s:1065   .text.adc_sync_mode_convert_value_read:0000000000000000 adc_sync_mode_convert_value_read
     /tmp/ccdGKvZC.s:1080   .text.adc_sync_mode_convert_value_read:0000000000000008 $d
     /tmp/ccdGKvZC.s:1085   .text.adc_watchdog_single_channel_enable:0000000000000000 $t
     /tmp/ccdGKvZC.s:1092   .text.adc_watchdog_single_channel_enable:0000000000000000 adc_watchdog_single_channel_enable
     /tmp/ccdGKvZC.s:1119   .text.adc_watchdog_single_channel_enable:000000000000001c $d
     /tmp/ccdGKvZC.s:1124   .text.adc_watchdog_group_channel_enable:0000000000000000 $t
ARM GAS  /tmp/ccdGKvZC.s 			page 46


     /tmp/ccdGKvZC.s:1131   .text.adc_watchdog_group_channel_enable:0000000000000000 adc_watchdog_group_channel_enable
     /tmp/ccdGKvZC.s:1178   .text.adc_watchdog_disable:0000000000000000 $t
     /tmp/ccdGKvZC.s:1185   .text.adc_watchdog_disable:0000000000000000 adc_watchdog_disable
     /tmp/ccdGKvZC.s:1202   .text.adc_watchdog_disable:000000000000000c $d
     /tmp/ccdGKvZC.s:1207   .text.adc_watchdog_threshold_config:0000000000000000 $t
     /tmp/ccdGKvZC.s:1214   .text.adc_watchdog_threshold_config:0000000000000000 adc_watchdog_threshold_config
     /tmp/ccdGKvZC.s:1235   .text.adc_flag_get:0000000000000000 $t
     /tmp/ccdGKvZC.s:1242   .text.adc_flag_get:0000000000000000 adc_flag_get
     /tmp/ccdGKvZC.s:1269   .text.adc_flag_clear:0000000000000000 $t
     /tmp/ccdGKvZC.s:1276   .text.adc_flag_clear:0000000000000000 adc_flag_clear
     /tmp/ccdGKvZC.s:1294   .text.adc_regular_software_startconv_flag_get:0000000000000000 $t
     /tmp/ccdGKvZC.s:1301   .text.adc_regular_software_startconv_flag_get:0000000000000000 adc_regular_software_startconv_flag_get
     /tmp/ccdGKvZC.s:1328   .text.adc_inserted_software_startconv_flag_get:0000000000000000 $t
     /tmp/ccdGKvZC.s:1335   .text.adc_inserted_software_startconv_flag_get:0000000000000000 adc_inserted_software_startconv_flag_get
     /tmp/ccdGKvZC.s:1362   .text.adc_interrupt_flag_get:0000000000000000 $t
     /tmp/ccdGKvZC.s:1369   .text.adc_interrupt_flag_get:0000000000000000 adc_interrupt_flag_get
     /tmp/ccdGKvZC.s:1476   .text.adc_interrupt_flag_clear:0000000000000000 $t
     /tmp/ccdGKvZC.s:1483   .text.adc_interrupt_flag_clear:0000000000000000 adc_interrupt_flag_clear
     /tmp/ccdGKvZC.s:1501   .text.adc_interrupt_enable:0000000000000000 $t
     /tmp/ccdGKvZC.s:1508   .text.adc_interrupt_enable:0000000000000000 adc_interrupt_enable
     /tmp/ccdGKvZC.s:1545   .text.adc_interrupt_disable:0000000000000000 $t
     /tmp/ccdGKvZC.s:1552   .text.adc_interrupt_disable:0000000000000000 adc_interrupt_disable
                     .debug_frame:0000000000000010 $d

UNDEFINED SYMBOLS
rcu_periph_reset_enable
rcu_periph_reset_disable
