ARM GAS  /tmp/ccmXVnoL.s 			page 1


   1              		.cpu cortex-m3
   2              		.eabi_attribute 20, 1
   3              		.eabi_attribute 21, 1
   4              		.eabi_attribute 23, 3
   5              		.eabi_attribute 24, 1
   6              		.eabi_attribute 25, 1
   7              		.eabi_attribute 26, 1
   8              		.eabi_attribute 30, 1
   9              		.eabi_attribute 34, 1
  10              		.eabi_attribute 18, 4
  11              		.file	"gd32f10x_sdio.c"
  12              		.text
  13              	.Ltext0:
  14              		.cfi_sections	.debug_frame
  15              		.section	.text.sdio_deinit,"ax",%progbits
  16              		.align	1
  17              		.global	sdio_deinit
  18              		.syntax unified
  19              		.thumb
  20              		.thumb_func
  21              		.fpu softvfp
  23              	sdio_deinit:
  24              	.LFB65:
  25              		.file 1 "Drivers/GD32F1xx_standard_peripheral/Source/gd32f10x_sdio.c"
   1:Drivers/GD32F1xx_standard_peripheral/Source/gd32f10x_sdio.c **** /*!
   2:Drivers/GD32F1xx_standard_peripheral/Source/gd32f10x_sdio.c ****     \file    gd32f10x_sdio.c
   3:Drivers/GD32F1xx_standard_peripheral/Source/gd32f10x_sdio.c ****     \brief   SDIO driver
   4:Drivers/GD32F1xx_standard_peripheral/Source/gd32f10x_sdio.c **** 
   5:Drivers/GD32F1xx_standard_peripheral/Source/gd32f10x_sdio.c ****     \version 2014-12-26, V1.0.0, firmware for GD32F10x
   6:Drivers/GD32F1xx_standard_peripheral/Source/gd32f10x_sdio.c ****     \version 2017-06-20, V2.0.0, firmware for GD32F10x
   7:Drivers/GD32F1xx_standard_peripheral/Source/gd32f10x_sdio.c ****     \version 2018-07-31, V2.1.0, firmware for GD32F10x
   8:Drivers/GD32F1xx_standard_peripheral/Source/gd32f10x_sdio.c **** */
   9:Drivers/GD32F1xx_standard_peripheral/Source/gd32f10x_sdio.c **** 
  10:Drivers/GD32F1xx_standard_peripheral/Source/gd32f10x_sdio.c **** /*
  11:Drivers/GD32F1xx_standard_peripheral/Source/gd32f10x_sdio.c ****     Copyright (c) 2018, GigaDevice Semiconductor Inc.
  12:Drivers/GD32F1xx_standard_peripheral/Source/gd32f10x_sdio.c **** 
  13:Drivers/GD32F1xx_standard_peripheral/Source/gd32f10x_sdio.c ****     All rights reserved.
  14:Drivers/GD32F1xx_standard_peripheral/Source/gd32f10x_sdio.c **** 
  15:Drivers/GD32F1xx_standard_peripheral/Source/gd32f10x_sdio.c ****     Redistribution and use in source and binary forms, with or without modification, 
  16:Drivers/GD32F1xx_standard_peripheral/Source/gd32f10x_sdio.c **** are permitted provided that the following conditions are met:
  17:Drivers/GD32F1xx_standard_peripheral/Source/gd32f10x_sdio.c **** 
  18:Drivers/GD32F1xx_standard_peripheral/Source/gd32f10x_sdio.c ****     1. Redistributions of source code must retain the above copyright notice, this 
  19:Drivers/GD32F1xx_standard_peripheral/Source/gd32f10x_sdio.c ****        list of conditions and the following disclaimer.
  20:Drivers/GD32F1xx_standard_peripheral/Source/gd32f10x_sdio.c ****     2. Redistributions in binary form must reproduce the above copyright notice, 
  21:Drivers/GD32F1xx_standard_peripheral/Source/gd32f10x_sdio.c ****        this list of conditions and the following disclaimer in the documentation 
  22:Drivers/GD32F1xx_standard_peripheral/Source/gd32f10x_sdio.c ****        and/or other materials provided with the distribution.
  23:Drivers/GD32F1xx_standard_peripheral/Source/gd32f10x_sdio.c ****     3. Neither the name of the copyright holder nor the names of its contributors 
  24:Drivers/GD32F1xx_standard_peripheral/Source/gd32f10x_sdio.c ****        may be used to endorse or promote products derived from this software without 
  25:Drivers/GD32F1xx_standard_peripheral/Source/gd32f10x_sdio.c ****        specific prior written permission.
  26:Drivers/GD32F1xx_standard_peripheral/Source/gd32f10x_sdio.c **** 
  27:Drivers/GD32F1xx_standard_peripheral/Source/gd32f10x_sdio.c ****     THIS SOFTWARE IS PROVIDED BY THE COPYRIGHT HOLDERS AND CONTRIBUTORS "AS IS" 
  28:Drivers/GD32F1xx_standard_peripheral/Source/gd32f10x_sdio.c **** AND ANY EXPRESS OR IMPLIED WARRANTIES, INCLUDING, BUT NOT LIMITED TO, THE IMPLIED 
  29:Drivers/GD32F1xx_standard_peripheral/Source/gd32f10x_sdio.c **** WARRANTIES OF MERCHANTABILITY AND FITNESS FOR A PARTICULAR PURPOSE ARE DISCLAIMED. 
  30:Drivers/GD32F1xx_standard_peripheral/Source/gd32f10x_sdio.c **** IN NO EVENT SHALL THE COPYRIGHT HOLDER OR CONTRIBUTORS BE LIABLE FOR ANY DIRECT, 
  31:Drivers/GD32F1xx_standard_peripheral/Source/gd32f10x_sdio.c **** INDIRECT, INCIDENTAL, SPECIAL, EXEMPLARY, OR CONSEQUENTIAL DAMAGES (INCLUDING, BUT 
  32:Drivers/GD32F1xx_standard_peripheral/Source/gd32f10x_sdio.c **** NOT LIMITED TO, PROCUREMENT OF SUBSTITUTE GOODS OR SERVICES; LOSS OF USE, DATA, OR 
  33:Drivers/GD32F1xx_standard_peripheral/Source/gd32f10x_sdio.c **** PROFITS; OR BUSINESS INTERRUPTION) HOWEVER CAUSED AND ON ANY THEORY OF LIABILITY, 
ARM GAS  /tmp/ccmXVnoL.s 			page 2


  34:Drivers/GD32F1xx_standard_peripheral/Source/gd32f10x_sdio.c **** WHETHER IN CONTRACT, STRICT LIABILITY, OR TORT (INCLUDING NEGLIGENCE OR OTHERWISE) 
  35:Drivers/GD32F1xx_standard_peripheral/Source/gd32f10x_sdio.c **** ARISING IN ANY WAY OUT OF THE USE OF THIS SOFTWARE, EVEN IF ADVISED OF THE POSSIBILITY 
  36:Drivers/GD32F1xx_standard_peripheral/Source/gd32f10x_sdio.c **** OF SUCH DAMAGE.
  37:Drivers/GD32F1xx_standard_peripheral/Source/gd32f10x_sdio.c **** */
  38:Drivers/GD32F1xx_standard_peripheral/Source/gd32f10x_sdio.c **** 
  39:Drivers/GD32F1xx_standard_peripheral/Source/gd32f10x_sdio.c **** #include "gd32f10x_sdio.h"
  40:Drivers/GD32F1xx_standard_peripheral/Source/gd32f10x_sdio.c **** 
  41:Drivers/GD32F1xx_standard_peripheral/Source/gd32f10x_sdio.c **** #define DEFAULT_RESET_VALUE 0x00000000U
  42:Drivers/GD32F1xx_standard_peripheral/Source/gd32f10x_sdio.c **** 
  43:Drivers/GD32F1xx_standard_peripheral/Source/gd32f10x_sdio.c **** /*!
  44:Drivers/GD32F1xx_standard_peripheral/Source/gd32f10x_sdio.c ****     \brief      deinitialize the SDIO
  45:Drivers/GD32F1xx_standard_peripheral/Source/gd32f10x_sdio.c ****     \param[in]  none
  46:Drivers/GD32F1xx_standard_peripheral/Source/gd32f10x_sdio.c ****     \param[out] none
  47:Drivers/GD32F1xx_standard_peripheral/Source/gd32f10x_sdio.c ****     \retval     none
  48:Drivers/GD32F1xx_standard_peripheral/Source/gd32f10x_sdio.c **** */
  49:Drivers/GD32F1xx_standard_peripheral/Source/gd32f10x_sdio.c **** void sdio_deinit(void)
  50:Drivers/GD32F1xx_standard_peripheral/Source/gd32f10x_sdio.c **** {
  26              		.loc 1 50 0
  27              		.cfi_startproc
  28              		@ args = 0, pretend = 0, frame = 0
  29              		@ frame_needed = 0, uses_anonymous_args = 0
  30              		@ link register save eliminated.
  51:Drivers/GD32F1xx_standard_peripheral/Source/gd32f10x_sdio.c ****     SDIO_PWRCTL  = DEFAULT_RESET_VALUE;
  31              		.loc 1 51 0
  32 0000 0023     		movs	r3, #0
  33 0002 094A     		ldr	r2, .L2
  34 0004 1360     		str	r3, [r2]
  52:Drivers/GD32F1xx_standard_peripheral/Source/gd32f10x_sdio.c ****     SDIO_CLKCTL  = DEFAULT_RESET_VALUE;
  35              		.loc 1 52 0
  36 0006 0432     		adds	r2, r2, #4
  37 0008 1360     		str	r3, [r2]
  53:Drivers/GD32F1xx_standard_peripheral/Source/gd32f10x_sdio.c ****     SDIO_CMDAGMT = DEFAULT_RESET_VALUE;
  38              		.loc 1 53 0
  39 000a 0432     		adds	r2, r2, #4
  40 000c 1360     		str	r3, [r2]
  54:Drivers/GD32F1xx_standard_peripheral/Source/gd32f10x_sdio.c ****     SDIO_CMDCTL  = DEFAULT_RESET_VALUE;
  41              		.loc 1 54 0
  42 000e 0432     		adds	r2, r2, #4
  43 0010 1360     		str	r3, [r2]
  55:Drivers/GD32F1xx_standard_peripheral/Source/gd32f10x_sdio.c ****     SDIO_DATATO  = DEFAULT_RESET_VALUE;
  44              		.loc 1 55 0
  45 0012 1832     		adds	r2, r2, #24
  46 0014 1360     		str	r3, [r2]
  56:Drivers/GD32F1xx_standard_peripheral/Source/gd32f10x_sdio.c ****     SDIO_DATALEN = DEFAULT_RESET_VALUE;
  47              		.loc 1 56 0
  48 0016 0432     		adds	r2, r2, #4
  49 0018 1360     		str	r3, [r2]
  57:Drivers/GD32F1xx_standard_peripheral/Source/gd32f10x_sdio.c ****     SDIO_DATACTL = DEFAULT_RESET_VALUE;
  50              		.loc 1 57 0
  51 001a 0432     		adds	r2, r2, #4
  52 001c 1360     		str	r3, [r2]
  58:Drivers/GD32F1xx_standard_peripheral/Source/gd32f10x_sdio.c ****     SDIO_INTC    = DEFAULT_RESET_VALUE;
  53              		.loc 1 58 0
  54 001e 0C32     		adds	r2, r2, #12
  55 0020 1360     		str	r3, [r2]
  59:Drivers/GD32F1xx_standard_peripheral/Source/gd32f10x_sdio.c ****     SDIO_INTEN   = DEFAULT_RESET_VALUE;
  56              		.loc 1 59 0
ARM GAS  /tmp/ccmXVnoL.s 			page 3


  57 0022 0432     		adds	r2, r2, #4
  58 0024 1360     		str	r3, [r2]
  59 0026 7047     		bx	lr
  60              	.L3:
  61              		.align	2
  62              	.L2:
  63 0028 00800140 		.word	1073840128
  64              		.cfi_endproc
  65              	.LFE65:
  67              		.section	.text.sdio_clock_config,"ax",%progbits
  68              		.align	1
  69              		.global	sdio_clock_config
  70              		.syntax unified
  71              		.thumb
  72              		.thumb_func
  73              		.fpu softvfp
  75              	sdio_clock_config:
  76              	.LFB66:
  60:Drivers/GD32F1xx_standard_peripheral/Source/gd32f10x_sdio.c **** }
  61:Drivers/GD32F1xx_standard_peripheral/Source/gd32f10x_sdio.c **** 
  62:Drivers/GD32F1xx_standard_peripheral/Source/gd32f10x_sdio.c **** /*!
  63:Drivers/GD32F1xx_standard_peripheral/Source/gd32f10x_sdio.c ****     \brief      configure the SDIO clock
  64:Drivers/GD32F1xx_standard_peripheral/Source/gd32f10x_sdio.c ****     \param[in]  clock_edge: SDIO_CLK clock edge
  65:Drivers/GD32F1xx_standard_peripheral/Source/gd32f10x_sdio.c ****                 only one parameter can be selected which is shown as below:
  66:Drivers/GD32F1xx_standard_peripheral/Source/gd32f10x_sdio.c ****       \arg        SDIO_SDIOCLKEDGE_RISING: select the rising edge of the SDIOCLK to generate SDIO_C
  67:Drivers/GD32F1xx_standard_peripheral/Source/gd32f10x_sdio.c ****       \arg        SDIO_SDIOCLKEDGE_FALLING: select the falling edge of the SDIOCLK to generate SDIO
  68:Drivers/GD32F1xx_standard_peripheral/Source/gd32f10x_sdio.c ****     \param[in]  clock_bypass: clock bypass
  69:Drivers/GD32F1xx_standard_peripheral/Source/gd32f10x_sdio.c ****                 only one parameter can be selected which is shown as below:
  70:Drivers/GD32F1xx_standard_peripheral/Source/gd32f10x_sdio.c ****       \arg        SDIO_CLOCKBYPASS_ENABLE: clock bypass
  71:Drivers/GD32F1xx_standard_peripheral/Source/gd32f10x_sdio.c ****       \arg        SDIO_CLOCKBYPASS_DISABLE: no bypass
  72:Drivers/GD32F1xx_standard_peripheral/Source/gd32f10x_sdio.c ****     \param[in]  clock_powersave: SDIO_CLK clock dynamic switch on/off for power saving
  73:Drivers/GD32F1xx_standard_peripheral/Source/gd32f10x_sdio.c ****                 only one parameter can be selected which is shown as below:
  74:Drivers/GD32F1xx_standard_peripheral/Source/gd32f10x_sdio.c ****       \arg        SDIO_CLOCKPWRSAVE_ENABLE: SDIO_CLK closed when bus is idle
  75:Drivers/GD32F1xx_standard_peripheral/Source/gd32f10x_sdio.c ****       \arg        SDIO_CLOCKPWRSAVE_DISABLE: SDIO_CLK clock is always on
  76:Drivers/GD32F1xx_standard_peripheral/Source/gd32f10x_sdio.c ****     \param[in]  clock_division: clock division, less than 256
  77:Drivers/GD32F1xx_standard_peripheral/Source/gd32f10x_sdio.c ****     \param[out] none
  78:Drivers/GD32F1xx_standard_peripheral/Source/gd32f10x_sdio.c ****     \retval     none
  79:Drivers/GD32F1xx_standard_peripheral/Source/gd32f10x_sdio.c **** */
  80:Drivers/GD32F1xx_standard_peripheral/Source/gd32f10x_sdio.c **** void sdio_clock_config(uint32_t clock_edge, uint32_t clock_bypass, uint32_t clock_powersave, uint16
  81:Drivers/GD32F1xx_standard_peripheral/Source/gd32f10x_sdio.c **** {
  77              		.loc 1 81 0
  78              		.cfi_startproc
  79              		@ args = 0, pretend = 0, frame = 0
  80              		@ frame_needed = 0, uses_anonymous_args = 0
  81              		@ link register save eliminated.
  82              	.LVL0:
  83 0000 30B4     		push	{r4, r5}
  84              	.LCFI0:
  85              		.cfi_def_cfa_offset 8
  86              		.cfi_offset 4, -8
  87              		.cfi_offset 5, -4
  88              	.LVL1:
  82:Drivers/GD32F1xx_standard_peripheral/Source/gd32f10x_sdio.c ****     uint32_t clock_config = 0U;
  83:Drivers/GD32F1xx_standard_peripheral/Source/gd32f10x_sdio.c ****     clock_config = SDIO_CLKCTL;
  89              		.loc 1 83 0
  90 0002 064D     		ldr	r5, .L6
  91 0004 2C68     		ldr	r4, [r5]
ARM GAS  /tmp/ccmXVnoL.s 			page 4


  92              	.LVL2:
  84:Drivers/GD32F1xx_standard_peripheral/Source/gd32f10x_sdio.c ****     /* reset the CLKEDGE, CLKBYP, CLKPWRSAV, DIV */
  85:Drivers/GD32F1xx_standard_peripheral/Source/gd32f10x_sdio.c ****     clock_config &= ~(SDIO_CLKCTL_CLKEDGE | SDIO_CLKCTL_CLKBYP | SDIO_CLKCTL_CLKPWRSAV | SDIO_CLKCT
  93              		.loc 1 85 0
  94 0006 24F41B54 		bic	r4, r4, #9920
  95              	.LVL3:
  96 000a 24F03F04 		bic	r4, r4, #63
  97              	.LVL4:
  86:Drivers/GD32F1xx_standard_peripheral/Source/gd32f10x_sdio.c **** 
  87:Drivers/GD32F1xx_standard_peripheral/Source/gd32f10x_sdio.c ****     /* configure the SDIO_CLKCTL according to the parameters */
  88:Drivers/GD32F1xx_standard_peripheral/Source/gd32f10x_sdio.c ****     clock_config |= (clock_edge | clock_bypass | clock_powersave | clock_division);
  98              		.loc 1 88 0
  99 000e 0143     		orrs	r1, r1, r0
 100              	.LVL5:
 101 0010 1143     		orrs	r1, r1, r2
 102 0012 1943     		orrs	r1, r1, r3
 103 0014 0C43     		orrs	r4, r4, r1
 104              	.LVL6:
  89:Drivers/GD32F1xx_standard_peripheral/Source/gd32f10x_sdio.c ****     SDIO_CLKCTL = clock_config;
 105              		.loc 1 89 0
 106 0016 2C60     		str	r4, [r5]
  90:Drivers/GD32F1xx_standard_peripheral/Source/gd32f10x_sdio.c **** }
 107              		.loc 1 90 0
 108 0018 30BC     		pop	{r4, r5}
 109              	.LCFI1:
 110              		.cfi_restore 5
 111              		.cfi_restore 4
 112              		.cfi_def_cfa_offset 0
 113              	.LVL7:
 114 001a 7047     		bx	lr
 115              	.L7:
 116              		.align	2
 117              	.L6:
 118 001c 04800140 		.word	1073840132
 119              		.cfi_endproc
 120              	.LFE66:
 122              		.section	.text.sdio_hardware_clock_enable,"ax",%progbits
 123              		.align	1
 124              		.global	sdio_hardware_clock_enable
 125              		.syntax unified
 126              		.thumb
 127              		.thumb_func
 128              		.fpu softvfp
 130              	sdio_hardware_clock_enable:
 131              	.LFB67:
  91:Drivers/GD32F1xx_standard_peripheral/Source/gd32f10x_sdio.c **** 
  92:Drivers/GD32F1xx_standard_peripheral/Source/gd32f10x_sdio.c **** /*!
  93:Drivers/GD32F1xx_standard_peripheral/Source/gd32f10x_sdio.c ****     \brief      enable hardware clock control
  94:Drivers/GD32F1xx_standard_peripheral/Source/gd32f10x_sdio.c ****     \param[in]  none
  95:Drivers/GD32F1xx_standard_peripheral/Source/gd32f10x_sdio.c ****     \param[out] none
  96:Drivers/GD32F1xx_standard_peripheral/Source/gd32f10x_sdio.c ****     \retval     none
  97:Drivers/GD32F1xx_standard_peripheral/Source/gd32f10x_sdio.c **** */
  98:Drivers/GD32F1xx_standard_peripheral/Source/gd32f10x_sdio.c **** void sdio_hardware_clock_enable(void)
  99:Drivers/GD32F1xx_standard_peripheral/Source/gd32f10x_sdio.c **** {
 132              		.loc 1 99 0
 133              		.cfi_startproc
 134              		@ args = 0, pretend = 0, frame = 0
ARM GAS  /tmp/ccmXVnoL.s 			page 5


 135              		@ frame_needed = 0, uses_anonymous_args = 0
 136              		@ link register save eliminated.
 100:Drivers/GD32F1xx_standard_peripheral/Source/gd32f10x_sdio.c ****     SDIO_CLKCTL |= SDIO_CLKCTL_HWCLKEN;
 137              		.loc 1 100 0
 138 0000 024A     		ldr	r2, .L9
 139 0002 1368     		ldr	r3, [r2]
 140 0004 43F48043 		orr	r3, r3, #16384
 141 0008 1360     		str	r3, [r2]
 142 000a 7047     		bx	lr
 143              	.L10:
 144              		.align	2
 145              	.L9:
 146 000c 04800140 		.word	1073840132
 147              		.cfi_endproc
 148              	.LFE67:
 150              		.section	.text.sdio_hardware_clock_disable,"ax",%progbits
 151              		.align	1
 152              		.global	sdio_hardware_clock_disable
 153              		.syntax unified
 154              		.thumb
 155              		.thumb_func
 156              		.fpu softvfp
 158              	sdio_hardware_clock_disable:
 159              	.LFB68:
 101:Drivers/GD32F1xx_standard_peripheral/Source/gd32f10x_sdio.c **** }
 102:Drivers/GD32F1xx_standard_peripheral/Source/gd32f10x_sdio.c **** 
 103:Drivers/GD32F1xx_standard_peripheral/Source/gd32f10x_sdio.c **** /*!
 104:Drivers/GD32F1xx_standard_peripheral/Source/gd32f10x_sdio.c ****     \brief      disable hardware clock control
 105:Drivers/GD32F1xx_standard_peripheral/Source/gd32f10x_sdio.c ****     \param[in]  none
 106:Drivers/GD32F1xx_standard_peripheral/Source/gd32f10x_sdio.c ****     \param[out] none
 107:Drivers/GD32F1xx_standard_peripheral/Source/gd32f10x_sdio.c ****     \retval     none
 108:Drivers/GD32F1xx_standard_peripheral/Source/gd32f10x_sdio.c **** */
 109:Drivers/GD32F1xx_standard_peripheral/Source/gd32f10x_sdio.c **** void sdio_hardware_clock_disable(void)
 110:Drivers/GD32F1xx_standard_peripheral/Source/gd32f10x_sdio.c **** {
 160              		.loc 1 110 0
 161              		.cfi_startproc
 162              		@ args = 0, pretend = 0, frame = 0
 163              		@ frame_needed = 0, uses_anonymous_args = 0
 164              		@ link register save eliminated.
 111:Drivers/GD32F1xx_standard_peripheral/Source/gd32f10x_sdio.c ****     SDIO_CLKCTL &= ~SDIO_CLKCTL_HWCLKEN;
 165              		.loc 1 111 0
 166 0000 024A     		ldr	r2, .L12
 167 0002 1368     		ldr	r3, [r2]
 168 0004 23F48043 		bic	r3, r3, #16384
 169 0008 1360     		str	r3, [r2]
 170 000a 7047     		bx	lr
 171              	.L13:
 172              		.align	2
 173              	.L12:
 174 000c 04800140 		.word	1073840132
 175              		.cfi_endproc
 176              	.LFE68:
 178              		.section	.text.sdio_bus_mode_set,"ax",%progbits
 179              		.align	1
 180              		.global	sdio_bus_mode_set
 181              		.syntax unified
 182              		.thumb
ARM GAS  /tmp/ccmXVnoL.s 			page 6


 183              		.thumb_func
 184              		.fpu softvfp
 186              	sdio_bus_mode_set:
 187              	.LFB69:
 112:Drivers/GD32F1xx_standard_peripheral/Source/gd32f10x_sdio.c **** }
 113:Drivers/GD32F1xx_standard_peripheral/Source/gd32f10x_sdio.c **** 
 114:Drivers/GD32F1xx_standard_peripheral/Source/gd32f10x_sdio.c **** /*!
 115:Drivers/GD32F1xx_standard_peripheral/Source/gd32f10x_sdio.c ****     \brief      set different SDIO card bus mode
 116:Drivers/GD32F1xx_standard_peripheral/Source/gd32f10x_sdio.c ****     \param[in]  bus_mode: SDIO card bus mode
 117:Drivers/GD32F1xx_standard_peripheral/Source/gd32f10x_sdio.c ****                 only one parameter can be selected which is shown as below:
 118:Drivers/GD32F1xx_standard_peripheral/Source/gd32f10x_sdio.c ****       \arg        SDIO_BUSMODE_1BIT: 1-bit SDIO card bus mode
 119:Drivers/GD32F1xx_standard_peripheral/Source/gd32f10x_sdio.c ****       \arg        SDIO_BUSMODE_4BIT: 4-bit SDIO card bus mode
 120:Drivers/GD32F1xx_standard_peripheral/Source/gd32f10x_sdio.c ****       \arg        SDIO_BUSMODE_8BIT: 8-bit SDIO card bus mode
 121:Drivers/GD32F1xx_standard_peripheral/Source/gd32f10x_sdio.c ****     \param[out] none
 122:Drivers/GD32F1xx_standard_peripheral/Source/gd32f10x_sdio.c ****     \retval     none
 123:Drivers/GD32F1xx_standard_peripheral/Source/gd32f10x_sdio.c **** */
 124:Drivers/GD32F1xx_standard_peripheral/Source/gd32f10x_sdio.c **** void sdio_bus_mode_set(uint32_t bus_mode)
 125:Drivers/GD32F1xx_standard_peripheral/Source/gd32f10x_sdio.c **** {
 188              		.loc 1 125 0
 189              		.cfi_startproc
 190              		@ args = 0, pretend = 0, frame = 0
 191              		@ frame_needed = 0, uses_anonymous_args = 0
 192              		@ link register save eliminated.
 193              	.LVL8:
 126:Drivers/GD32F1xx_standard_peripheral/Source/gd32f10x_sdio.c ****     /* reset the SDIO card bus mode bits and set according to bus_mode */
 127:Drivers/GD32F1xx_standard_peripheral/Source/gd32f10x_sdio.c ****     SDIO_CLKCTL &= ~SDIO_CLKCTL_BUSMODE;
 194              		.loc 1 127 0
 195 0000 044B     		ldr	r3, .L15
 196 0002 1A68     		ldr	r2, [r3]
 197 0004 22F4C052 		bic	r2, r2, #6144
 198 0008 1A60     		str	r2, [r3]
 128:Drivers/GD32F1xx_standard_peripheral/Source/gd32f10x_sdio.c ****     SDIO_CLKCTL |= bus_mode;
 199              		.loc 1 128 0
 200 000a 1A68     		ldr	r2, [r3]
 201 000c 1043     		orrs	r0, r0, r2
 202              	.LVL9:
 203 000e 1860     		str	r0, [r3]
 204 0010 7047     		bx	lr
 205              	.L16:
 206 0012 00BF     		.align	2
 207              	.L15:
 208 0014 04800140 		.word	1073840132
 209              		.cfi_endproc
 210              	.LFE69:
 212              		.section	.text.sdio_power_state_set,"ax",%progbits
 213              		.align	1
 214              		.global	sdio_power_state_set
 215              		.syntax unified
 216              		.thumb
 217              		.thumb_func
 218              		.fpu softvfp
 220              	sdio_power_state_set:
 221              	.LFB70:
 129:Drivers/GD32F1xx_standard_peripheral/Source/gd32f10x_sdio.c **** }
 130:Drivers/GD32F1xx_standard_peripheral/Source/gd32f10x_sdio.c **** 
 131:Drivers/GD32F1xx_standard_peripheral/Source/gd32f10x_sdio.c **** /*!
 132:Drivers/GD32F1xx_standard_peripheral/Source/gd32f10x_sdio.c ****     \brief      set the SDIO power state
ARM GAS  /tmp/ccmXVnoL.s 			page 7


 133:Drivers/GD32F1xx_standard_peripheral/Source/gd32f10x_sdio.c ****     \param[in]  power_state: SDIO power state
 134:Drivers/GD32F1xx_standard_peripheral/Source/gd32f10x_sdio.c ****                 only one parameter can be selected which is shown as below:
 135:Drivers/GD32F1xx_standard_peripheral/Source/gd32f10x_sdio.c ****       \arg        SDIO_POWER_ON: SDIO power on
 136:Drivers/GD32F1xx_standard_peripheral/Source/gd32f10x_sdio.c ****       \arg        SDIO_POWER_OFF: SDIO power off
 137:Drivers/GD32F1xx_standard_peripheral/Source/gd32f10x_sdio.c ****     \param[out] none
 138:Drivers/GD32F1xx_standard_peripheral/Source/gd32f10x_sdio.c ****     \retval     none
 139:Drivers/GD32F1xx_standard_peripheral/Source/gd32f10x_sdio.c **** */
 140:Drivers/GD32F1xx_standard_peripheral/Source/gd32f10x_sdio.c **** void sdio_power_state_set(uint32_t power_state)
 141:Drivers/GD32F1xx_standard_peripheral/Source/gd32f10x_sdio.c **** {
 222              		.loc 1 141 0
 223              		.cfi_startproc
 224              		@ args = 0, pretend = 0, frame = 0
 225              		@ frame_needed = 0, uses_anonymous_args = 0
 226              		@ link register save eliminated.
 227              	.LVL10:
 142:Drivers/GD32F1xx_standard_peripheral/Source/gd32f10x_sdio.c ****     SDIO_PWRCTL = power_state;
 228              		.loc 1 142 0
 229 0000 014B     		ldr	r3, .L18
 230 0002 1860     		str	r0, [r3]
 231 0004 7047     		bx	lr
 232              	.L19:
 233 0006 00BF     		.align	2
 234              	.L18:
 235 0008 00800140 		.word	1073840128
 236              		.cfi_endproc
 237              	.LFE70:
 239              		.section	.text.sdio_power_state_get,"ax",%progbits
 240              		.align	1
 241              		.global	sdio_power_state_get
 242              		.syntax unified
 243              		.thumb
 244              		.thumb_func
 245              		.fpu softvfp
 247              	sdio_power_state_get:
 248              	.LFB71:
 143:Drivers/GD32F1xx_standard_peripheral/Source/gd32f10x_sdio.c **** }
 144:Drivers/GD32F1xx_standard_peripheral/Source/gd32f10x_sdio.c **** 
 145:Drivers/GD32F1xx_standard_peripheral/Source/gd32f10x_sdio.c **** /*!
 146:Drivers/GD32F1xx_standard_peripheral/Source/gd32f10x_sdio.c ****     \brief      get the SDIO power state
 147:Drivers/GD32F1xx_standard_peripheral/Source/gd32f10x_sdio.c ****     \param[in]  none
 148:Drivers/GD32F1xx_standard_peripheral/Source/gd32f10x_sdio.c ****     \param[out] none
 149:Drivers/GD32F1xx_standard_peripheral/Source/gd32f10x_sdio.c ****     \retval     SDIO power state
 150:Drivers/GD32F1xx_standard_peripheral/Source/gd32f10x_sdio.c ****                 only one parameter can be selected which is shown as below:
 151:Drivers/GD32F1xx_standard_peripheral/Source/gd32f10x_sdio.c ****       \arg        SDIO_POWER_ON: SDIO power on
 152:Drivers/GD32F1xx_standard_peripheral/Source/gd32f10x_sdio.c ****       \arg        SDIO_POWER_OFF: SDIO power off
 153:Drivers/GD32F1xx_standard_peripheral/Source/gd32f10x_sdio.c **** */
 154:Drivers/GD32F1xx_standard_peripheral/Source/gd32f10x_sdio.c **** uint32_t sdio_power_state_get(void)
 155:Drivers/GD32F1xx_standard_peripheral/Source/gd32f10x_sdio.c **** {
 249              		.loc 1 155 0
 250              		.cfi_startproc
 251              		@ args = 0, pretend = 0, frame = 0
 252              		@ frame_needed = 0, uses_anonymous_args = 0
 253              		@ link register save eliminated.
 156:Drivers/GD32F1xx_standard_peripheral/Source/gd32f10x_sdio.c ****     return SDIO_PWRCTL;
 254              		.loc 1 156 0
 255 0000 014B     		ldr	r3, .L21
 256 0002 1868     		ldr	r0, [r3]
ARM GAS  /tmp/ccmXVnoL.s 			page 8


 157:Drivers/GD32F1xx_standard_peripheral/Source/gd32f10x_sdio.c **** }
 257              		.loc 1 157 0
 258 0004 7047     		bx	lr
 259              	.L22:
 260 0006 00BF     		.align	2
 261              	.L21:
 262 0008 00800140 		.word	1073840128
 263              		.cfi_endproc
 264              	.LFE71:
 266              		.section	.text.sdio_clock_enable,"ax",%progbits
 267              		.align	1
 268              		.global	sdio_clock_enable
 269              		.syntax unified
 270              		.thumb
 271              		.thumb_func
 272              		.fpu softvfp
 274              	sdio_clock_enable:
 275              	.LFB72:
 158:Drivers/GD32F1xx_standard_peripheral/Source/gd32f10x_sdio.c **** 
 159:Drivers/GD32F1xx_standard_peripheral/Source/gd32f10x_sdio.c **** /*!
 160:Drivers/GD32F1xx_standard_peripheral/Source/gd32f10x_sdio.c ****     \brief      enable SDIO_CLK clock output
 161:Drivers/GD32F1xx_standard_peripheral/Source/gd32f10x_sdio.c ****     \param[in]  none
 162:Drivers/GD32F1xx_standard_peripheral/Source/gd32f10x_sdio.c ****     \param[out] none
 163:Drivers/GD32F1xx_standard_peripheral/Source/gd32f10x_sdio.c ****     \retval     none
 164:Drivers/GD32F1xx_standard_peripheral/Source/gd32f10x_sdio.c **** */
 165:Drivers/GD32F1xx_standard_peripheral/Source/gd32f10x_sdio.c **** void sdio_clock_enable(void)
 166:Drivers/GD32F1xx_standard_peripheral/Source/gd32f10x_sdio.c **** {
 276              		.loc 1 166 0
 277              		.cfi_startproc
 278              		@ args = 0, pretend = 0, frame = 0
 279              		@ frame_needed = 0, uses_anonymous_args = 0
 280              		@ link register save eliminated.
 167:Drivers/GD32F1xx_standard_peripheral/Source/gd32f10x_sdio.c ****     SDIO_CLKCTL |= SDIO_CLKCTL_CLKEN;
 281              		.loc 1 167 0
 282 0000 024A     		ldr	r2, .L24
 283 0002 1368     		ldr	r3, [r2]
 284 0004 43F48073 		orr	r3, r3, #256
 285 0008 1360     		str	r3, [r2]
 286 000a 7047     		bx	lr
 287              	.L25:
 288              		.align	2
 289              	.L24:
 290 000c 04800140 		.word	1073840132
 291              		.cfi_endproc
 292              	.LFE72:
 294              		.section	.text.sdio_clock_disable,"ax",%progbits
 295              		.align	1
 296              		.global	sdio_clock_disable
 297              		.syntax unified
 298              		.thumb
 299              		.thumb_func
 300              		.fpu softvfp
 302              	sdio_clock_disable:
 303              	.LFB73:
 168:Drivers/GD32F1xx_standard_peripheral/Source/gd32f10x_sdio.c **** }
 169:Drivers/GD32F1xx_standard_peripheral/Source/gd32f10x_sdio.c **** 
 170:Drivers/GD32F1xx_standard_peripheral/Source/gd32f10x_sdio.c **** /*!
ARM GAS  /tmp/ccmXVnoL.s 			page 9


 171:Drivers/GD32F1xx_standard_peripheral/Source/gd32f10x_sdio.c ****     \brief      disable SDIO_CLK clock output
 172:Drivers/GD32F1xx_standard_peripheral/Source/gd32f10x_sdio.c ****     \param[in]  none
 173:Drivers/GD32F1xx_standard_peripheral/Source/gd32f10x_sdio.c ****     \param[out] none
 174:Drivers/GD32F1xx_standard_peripheral/Source/gd32f10x_sdio.c ****     \retval     none
 175:Drivers/GD32F1xx_standard_peripheral/Source/gd32f10x_sdio.c **** */
 176:Drivers/GD32F1xx_standard_peripheral/Source/gd32f10x_sdio.c **** void sdio_clock_disable(void)
 177:Drivers/GD32F1xx_standard_peripheral/Source/gd32f10x_sdio.c **** {
 304              		.loc 1 177 0
 305              		.cfi_startproc
 306              		@ args = 0, pretend = 0, frame = 0
 307              		@ frame_needed = 0, uses_anonymous_args = 0
 308              		@ link register save eliminated.
 178:Drivers/GD32F1xx_standard_peripheral/Source/gd32f10x_sdio.c ****     SDIO_CLKCTL &= ~SDIO_CLKCTL_CLKEN;
 309              		.loc 1 178 0
 310 0000 024A     		ldr	r2, .L27
 311 0002 1368     		ldr	r3, [r2]
 312 0004 23F48073 		bic	r3, r3, #256
 313 0008 1360     		str	r3, [r2]
 314 000a 7047     		bx	lr
 315              	.L28:
 316              		.align	2
 317              	.L27:
 318 000c 04800140 		.word	1073840132
 319              		.cfi_endproc
 320              	.LFE73:
 322              		.section	.text.sdio_command_response_config,"ax",%progbits
 323              		.align	1
 324              		.global	sdio_command_response_config
 325              		.syntax unified
 326              		.thumb
 327              		.thumb_func
 328              		.fpu softvfp
 330              	sdio_command_response_config:
 331              	.LFB74:
 179:Drivers/GD32F1xx_standard_peripheral/Source/gd32f10x_sdio.c **** }
 180:Drivers/GD32F1xx_standard_peripheral/Source/gd32f10x_sdio.c **** 
 181:Drivers/GD32F1xx_standard_peripheral/Source/gd32f10x_sdio.c **** /*!
 182:Drivers/GD32F1xx_standard_peripheral/Source/gd32f10x_sdio.c ****     \brief      configure the command and response
 183:Drivers/GD32F1xx_standard_peripheral/Source/gd32f10x_sdio.c ****     \param[in]  cmd_index: command index, refer to the related specifications
 184:Drivers/GD32F1xx_standard_peripheral/Source/gd32f10x_sdio.c ****     \param[in]  cmd_argument: command argument, refer to the related specifications
 185:Drivers/GD32F1xx_standard_peripheral/Source/gd32f10x_sdio.c ****     \param[in]  response_type: response type
 186:Drivers/GD32F1xx_standard_peripheral/Source/gd32f10x_sdio.c ****                 only one parameter can be selected which is shown as below:
 187:Drivers/GD32F1xx_standard_peripheral/Source/gd32f10x_sdio.c ****       \arg        SDIO_RESPONSETYPE_NO: no response
 188:Drivers/GD32F1xx_standard_peripheral/Source/gd32f10x_sdio.c ****       \arg        SDIO_RESPONSETYPE_SHORT: short response
 189:Drivers/GD32F1xx_standard_peripheral/Source/gd32f10x_sdio.c ****       \arg        SDIO_RESPONSETYPE_LONG: long response
 190:Drivers/GD32F1xx_standard_peripheral/Source/gd32f10x_sdio.c ****     \param[out] none
 191:Drivers/GD32F1xx_standard_peripheral/Source/gd32f10x_sdio.c ****     \retval     none
 192:Drivers/GD32F1xx_standard_peripheral/Source/gd32f10x_sdio.c **** */
 193:Drivers/GD32F1xx_standard_peripheral/Source/gd32f10x_sdio.c **** void sdio_command_response_config(uint32_t cmd_index, uint32_t cmd_argument, uint32_t response_type
 194:Drivers/GD32F1xx_standard_peripheral/Source/gd32f10x_sdio.c **** {
 332              		.loc 1 194 0
 333              		.cfi_startproc
 334              		@ args = 0, pretend = 0, frame = 0
 335              		@ frame_needed = 0, uses_anonymous_args = 0
 336              		@ link register save eliminated.
 337              	.LVL11:
 338 0000 10B4     		push	{r4}
ARM GAS  /tmp/ccmXVnoL.s 			page 10


 339              	.LCFI2:
 340              		.cfi_def_cfa_offset 4
 341              		.cfi_offset 4, -4
 342              	.LVL12:
 195:Drivers/GD32F1xx_standard_peripheral/Source/gd32f10x_sdio.c ****     uint32_t cmd_config = 0U;
 196:Drivers/GD32F1xx_standard_peripheral/Source/gd32f10x_sdio.c ****     /* reset the command index, command argument and response type */
 197:Drivers/GD32F1xx_standard_peripheral/Source/gd32f10x_sdio.c ****     SDIO_CMDAGMT &= ~SDIO_CMDAGMT_CMDAGMT;
 343              		.loc 1 197 0
 344 0002 074B     		ldr	r3, .L31
 345 0004 1C68     		ldr	r4, [r3]
 346 0006 0024     		movs	r4, #0
 347 0008 1C60     		str	r4, [r3]
 198:Drivers/GD32F1xx_standard_peripheral/Source/gd32f10x_sdio.c ****     SDIO_CMDAGMT = cmd_argument;
 348              		.loc 1 198 0
 349 000a 1960     		str	r1, [r3]
 199:Drivers/GD32F1xx_standard_peripheral/Source/gd32f10x_sdio.c ****     cmd_config = SDIO_CMDCTL;
 350              		.loc 1 199 0
 351 000c 0549     		ldr	r1, .L31+4
 352              	.LVL13:
 353 000e 0B68     		ldr	r3, [r1]
 354              	.LVL14:
 200:Drivers/GD32F1xx_standard_peripheral/Source/gd32f10x_sdio.c ****     cmd_config &= ~(SDIO_CMDCTL_CMDIDX | SDIO_CMDCTL_CMDRESP);
 355              		.loc 1 200 0
 356 0010 23F0FF03 		bic	r3, r3, #255
 357              	.LVL15:
 201:Drivers/GD32F1xx_standard_peripheral/Source/gd32f10x_sdio.c ****     /* configure SDIO_CMDCTL and SDIO_CMDAGMT according to the parameters */
 202:Drivers/GD32F1xx_standard_peripheral/Source/gd32f10x_sdio.c ****     cmd_config |= (cmd_index | response_type);
 358              		.loc 1 202 0
 359 0014 0243     		orrs	r2, r2, r0
 360              	.LVL16:
 361 0016 1343     		orrs	r3, r3, r2
 362              	.LVL17:
 203:Drivers/GD32F1xx_standard_peripheral/Source/gd32f10x_sdio.c ****     SDIO_CMDCTL = cmd_config;
 363              		.loc 1 203 0
 364 0018 0B60     		str	r3, [r1]
 365              	.LVL18:
 204:Drivers/GD32F1xx_standard_peripheral/Source/gd32f10x_sdio.c **** }
 366              		.loc 1 204 0
 367 001a 10BC     		pop	{r4}
 368              	.LCFI3:
 369              		.cfi_restore 4
 370              		.cfi_def_cfa_offset 0
 371 001c 7047     		bx	lr
 372              	.L32:
 373 001e 00BF     		.align	2
 374              	.L31:
 375 0020 08800140 		.word	1073840136
 376 0024 0C800140 		.word	1073840140
 377              		.cfi_endproc
 378              	.LFE74:
 380              		.section	.text.sdio_wait_type_set,"ax",%progbits
 381              		.align	1
 382              		.global	sdio_wait_type_set
 383              		.syntax unified
 384              		.thumb
 385              		.thumb_func
 386              		.fpu softvfp
ARM GAS  /tmp/ccmXVnoL.s 			page 11


 388              	sdio_wait_type_set:
 389              	.LFB75:
 205:Drivers/GD32F1xx_standard_peripheral/Source/gd32f10x_sdio.c **** 
 206:Drivers/GD32F1xx_standard_peripheral/Source/gd32f10x_sdio.c **** /*!
 207:Drivers/GD32F1xx_standard_peripheral/Source/gd32f10x_sdio.c ****     \brief      set the command state machine wait type
 208:Drivers/GD32F1xx_standard_peripheral/Source/gd32f10x_sdio.c ****     \param[in]  wait_type: wait type
 209:Drivers/GD32F1xx_standard_peripheral/Source/gd32f10x_sdio.c ****                 only one parameter can be selected which is shown as below:
 210:Drivers/GD32F1xx_standard_peripheral/Source/gd32f10x_sdio.c ****       \arg        SDIO_WAITTYPE_NO: not wait interrupt
 211:Drivers/GD32F1xx_standard_peripheral/Source/gd32f10x_sdio.c ****       \arg        SDIO_WAITTYPE_INTERRUPT: wait interrupt
 212:Drivers/GD32F1xx_standard_peripheral/Source/gd32f10x_sdio.c ****       \arg        SDIO_WAITTYPE_DATAEND: wait the end of data transfer
 213:Drivers/GD32F1xx_standard_peripheral/Source/gd32f10x_sdio.c ****     \param[out] none
 214:Drivers/GD32F1xx_standard_peripheral/Source/gd32f10x_sdio.c ****     \retval     none
 215:Drivers/GD32F1xx_standard_peripheral/Source/gd32f10x_sdio.c **** */
 216:Drivers/GD32F1xx_standard_peripheral/Source/gd32f10x_sdio.c **** void sdio_wait_type_set(uint32_t wait_type)
 217:Drivers/GD32F1xx_standard_peripheral/Source/gd32f10x_sdio.c **** {
 390              		.loc 1 217 0
 391              		.cfi_startproc
 392              		@ args = 0, pretend = 0, frame = 0
 393              		@ frame_needed = 0, uses_anonymous_args = 0
 394              		@ link register save eliminated.
 395              	.LVL19:
 218:Drivers/GD32F1xx_standard_peripheral/Source/gd32f10x_sdio.c ****     /* reset INTWAIT and WAITDEND */
 219:Drivers/GD32F1xx_standard_peripheral/Source/gd32f10x_sdio.c ****     SDIO_CMDCTL &= ~(SDIO_CMDCTL_INTWAIT | SDIO_CMDCTL_WAITDEND);
 396              		.loc 1 219 0
 397 0000 044B     		ldr	r3, .L34
 398 0002 1A68     		ldr	r2, [r3]
 399 0004 22F44072 		bic	r2, r2, #768
 400 0008 1A60     		str	r2, [r3]
 220:Drivers/GD32F1xx_standard_peripheral/Source/gd32f10x_sdio.c ****     /* set the wait type according to wait_type */
 221:Drivers/GD32F1xx_standard_peripheral/Source/gd32f10x_sdio.c ****     SDIO_CMDCTL |= wait_type;
 401              		.loc 1 221 0
 402 000a 1A68     		ldr	r2, [r3]
 403 000c 1043     		orrs	r0, r0, r2
 404              	.LVL20:
 405 000e 1860     		str	r0, [r3]
 406 0010 7047     		bx	lr
 407              	.L35:
 408 0012 00BF     		.align	2
 409              	.L34:
 410 0014 0C800140 		.word	1073840140
 411              		.cfi_endproc
 412              	.LFE75:
 414              		.section	.text.sdio_csm_enable,"ax",%progbits
 415              		.align	1
 416              		.global	sdio_csm_enable
 417              		.syntax unified
 418              		.thumb
 419              		.thumb_func
 420              		.fpu softvfp
 422              	sdio_csm_enable:
 423              	.LFB76:
 222:Drivers/GD32F1xx_standard_peripheral/Source/gd32f10x_sdio.c **** }
 223:Drivers/GD32F1xx_standard_peripheral/Source/gd32f10x_sdio.c **** 
 224:Drivers/GD32F1xx_standard_peripheral/Source/gd32f10x_sdio.c **** /*!
 225:Drivers/GD32F1xx_standard_peripheral/Source/gd32f10x_sdio.c ****     \brief      enable the CSM(command state machine)
 226:Drivers/GD32F1xx_standard_peripheral/Source/gd32f10x_sdio.c ****     \param[in]  none
 227:Drivers/GD32F1xx_standard_peripheral/Source/gd32f10x_sdio.c ****     \param[out] none
ARM GAS  /tmp/ccmXVnoL.s 			page 12


 228:Drivers/GD32F1xx_standard_peripheral/Source/gd32f10x_sdio.c ****     \retval     none
 229:Drivers/GD32F1xx_standard_peripheral/Source/gd32f10x_sdio.c **** */
 230:Drivers/GD32F1xx_standard_peripheral/Source/gd32f10x_sdio.c **** void sdio_csm_enable(void)
 231:Drivers/GD32F1xx_standard_peripheral/Source/gd32f10x_sdio.c **** {
 424              		.loc 1 231 0
 425              		.cfi_startproc
 426              		@ args = 0, pretend = 0, frame = 0
 427              		@ frame_needed = 0, uses_anonymous_args = 0
 428              		@ link register save eliminated.
 232:Drivers/GD32F1xx_standard_peripheral/Source/gd32f10x_sdio.c ****     SDIO_CMDCTL |= SDIO_CMDCTL_CSMEN;
 429              		.loc 1 232 0
 430 0000 024A     		ldr	r2, .L37
 431 0002 1368     		ldr	r3, [r2]
 432 0004 43F48063 		orr	r3, r3, #1024
 433 0008 1360     		str	r3, [r2]
 434 000a 7047     		bx	lr
 435              	.L38:
 436              		.align	2
 437              	.L37:
 438 000c 0C800140 		.word	1073840140
 439              		.cfi_endproc
 440              	.LFE76:
 442              		.section	.text.sdio_csm_disable,"ax",%progbits
 443              		.align	1
 444              		.global	sdio_csm_disable
 445              		.syntax unified
 446              		.thumb
 447              		.thumb_func
 448              		.fpu softvfp
 450              	sdio_csm_disable:
 451              	.LFB77:
 233:Drivers/GD32F1xx_standard_peripheral/Source/gd32f10x_sdio.c **** }
 234:Drivers/GD32F1xx_standard_peripheral/Source/gd32f10x_sdio.c **** 
 235:Drivers/GD32F1xx_standard_peripheral/Source/gd32f10x_sdio.c **** /*!
 236:Drivers/GD32F1xx_standard_peripheral/Source/gd32f10x_sdio.c ****     \brief      disable the CSM(command state machine)
 237:Drivers/GD32F1xx_standard_peripheral/Source/gd32f10x_sdio.c ****     \param[in]  none
 238:Drivers/GD32F1xx_standard_peripheral/Source/gd32f10x_sdio.c ****     \param[out] none
 239:Drivers/GD32F1xx_standard_peripheral/Source/gd32f10x_sdio.c ****     \retval     none
 240:Drivers/GD32F1xx_standard_peripheral/Source/gd32f10x_sdio.c **** */
 241:Drivers/GD32F1xx_standard_peripheral/Source/gd32f10x_sdio.c **** void sdio_csm_disable(void)
 242:Drivers/GD32F1xx_standard_peripheral/Source/gd32f10x_sdio.c **** {
 452              		.loc 1 242 0
 453              		.cfi_startproc
 454              		@ args = 0, pretend = 0, frame = 0
 455              		@ frame_needed = 0, uses_anonymous_args = 0
 456              		@ link register save eliminated.
 243:Drivers/GD32F1xx_standard_peripheral/Source/gd32f10x_sdio.c ****     SDIO_CMDCTL &= ~SDIO_CMDCTL_CSMEN;
 457              		.loc 1 243 0
 458 0000 024A     		ldr	r2, .L40
 459 0002 1368     		ldr	r3, [r2]
 460 0004 23F48063 		bic	r3, r3, #1024
 461 0008 1360     		str	r3, [r2]
 462 000a 7047     		bx	lr
 463              	.L41:
 464              		.align	2
 465              	.L40:
 466 000c 0C800140 		.word	1073840140
ARM GAS  /tmp/ccmXVnoL.s 			page 13


 467              		.cfi_endproc
 468              	.LFE77:
 470              		.section	.text.sdio_command_index_get,"ax",%progbits
 471              		.align	1
 472              		.global	sdio_command_index_get
 473              		.syntax unified
 474              		.thumb
 475              		.thumb_func
 476              		.fpu softvfp
 478              	sdio_command_index_get:
 479              	.LFB78:
 244:Drivers/GD32F1xx_standard_peripheral/Source/gd32f10x_sdio.c **** }
 245:Drivers/GD32F1xx_standard_peripheral/Source/gd32f10x_sdio.c **** 
 246:Drivers/GD32F1xx_standard_peripheral/Source/gd32f10x_sdio.c **** /*!
 247:Drivers/GD32F1xx_standard_peripheral/Source/gd32f10x_sdio.c ****     \brief      get the last response command index
 248:Drivers/GD32F1xx_standard_peripheral/Source/gd32f10x_sdio.c ****     \param[in]  none
 249:Drivers/GD32F1xx_standard_peripheral/Source/gd32f10x_sdio.c ****     \param[out] none
 250:Drivers/GD32F1xx_standard_peripheral/Source/gd32f10x_sdio.c ****     \retval     last response command index
 251:Drivers/GD32F1xx_standard_peripheral/Source/gd32f10x_sdio.c **** */
 252:Drivers/GD32F1xx_standard_peripheral/Source/gd32f10x_sdio.c **** uint8_t sdio_command_index_get(void)
 253:Drivers/GD32F1xx_standard_peripheral/Source/gd32f10x_sdio.c **** {
 480              		.loc 1 253 0
 481              		.cfi_startproc
 482              		@ args = 0, pretend = 0, frame = 0
 483              		@ frame_needed = 0, uses_anonymous_args = 0
 484              		@ link register save eliminated.
 254:Drivers/GD32F1xx_standard_peripheral/Source/gd32f10x_sdio.c ****     return (uint8_t)SDIO_RSPCMDIDX;
 485              		.loc 1 254 0
 486 0000 014B     		ldr	r3, .L43
 487 0002 1868     		ldr	r0, [r3]
 255:Drivers/GD32F1xx_standard_peripheral/Source/gd32f10x_sdio.c **** }
 488              		.loc 1 255 0
 489 0004 C0B2     		uxtb	r0, r0
 490 0006 7047     		bx	lr
 491              	.L44:
 492              		.align	2
 493              	.L43:
 494 0008 10800140 		.word	1073840144
 495              		.cfi_endproc
 496              	.LFE78:
 498              		.section	.text.sdio_response_get,"ax",%progbits
 499              		.align	1
 500              		.global	sdio_response_get
 501              		.syntax unified
 502              		.thumb
 503              		.thumb_func
 504              		.fpu softvfp
 506              	sdio_response_get:
 507              	.LFB79:
 256:Drivers/GD32F1xx_standard_peripheral/Source/gd32f10x_sdio.c **** 
 257:Drivers/GD32F1xx_standard_peripheral/Source/gd32f10x_sdio.c **** /*!
 258:Drivers/GD32F1xx_standard_peripheral/Source/gd32f10x_sdio.c ****     \brief      get the response for the last received command
 259:Drivers/GD32F1xx_standard_peripheral/Source/gd32f10x_sdio.c ****     \param[in]  responsex: SDIO response
 260:Drivers/GD32F1xx_standard_peripheral/Source/gd32f10x_sdio.c ****                 only one parameter can be selected which is shown as below:
 261:Drivers/GD32F1xx_standard_peripheral/Source/gd32f10x_sdio.c ****       \arg       SDIO_RESPONSE0: card response[31:0]/card response[127:96]
 262:Drivers/GD32F1xx_standard_peripheral/Source/gd32f10x_sdio.c ****       \arg       SDIO_RESPONSE1: card response[95:64]
 263:Drivers/GD32F1xx_standard_peripheral/Source/gd32f10x_sdio.c ****       \arg       SDIO_RESPONSE2: card response[63:32]
ARM GAS  /tmp/ccmXVnoL.s 			page 14


 264:Drivers/GD32F1xx_standard_peripheral/Source/gd32f10x_sdio.c ****       \arg       SDIO_RESPONSE3: card response[31:1], plus bit 0
 265:Drivers/GD32F1xx_standard_peripheral/Source/gd32f10x_sdio.c ****     \param[out] none
 266:Drivers/GD32F1xx_standard_peripheral/Source/gd32f10x_sdio.c ****     \retval     response for the last received command
 267:Drivers/GD32F1xx_standard_peripheral/Source/gd32f10x_sdio.c **** */
 268:Drivers/GD32F1xx_standard_peripheral/Source/gd32f10x_sdio.c **** uint32_t sdio_response_get(uint32_t responsex)
 269:Drivers/GD32F1xx_standard_peripheral/Source/gd32f10x_sdio.c **** {
 508              		.loc 1 269 0
 509              		.cfi_startproc
 510              		@ args = 0, pretend = 0, frame = 0
 511              		@ frame_needed = 0, uses_anonymous_args = 0
 512              		@ link register save eliminated.
 513              	.LVL21:
 270:Drivers/GD32F1xx_standard_peripheral/Source/gd32f10x_sdio.c ****     uint32_t resp_content = 0U;
 271:Drivers/GD32F1xx_standard_peripheral/Source/gd32f10x_sdio.c ****     switch(responsex){
 514              		.loc 1 271 0
 515 0000 0328     		cmp	r0, #3
 516 0002 0FD8     		bhi	.L52
 517 0004 DFE800F0 		tbb	[pc, r0]
 518              	.L48:
 519 0008 02       		.byte	(.L47-.L48)/2
 520 0009 05       		.byte	(.L49-.L48)/2
 521 000a 08       		.byte	(.L50-.L48)/2
 522 000b 0B       		.byte	(.L51-.L48)/2
 523              		.p2align 1
 524              	.L47:
 272:Drivers/GD32F1xx_standard_peripheral/Source/gd32f10x_sdio.c ****     case SDIO_RESPONSE0:
 273:Drivers/GD32F1xx_standard_peripheral/Source/gd32f10x_sdio.c ****         resp_content = SDIO_RESP0;
 525              		.loc 1 273 0
 526 000c 064B     		ldr	r3, .L53
 527 000e 1868     		ldr	r0, [r3]
 528              	.LVL22:
 274:Drivers/GD32F1xx_standard_peripheral/Source/gd32f10x_sdio.c ****         break;
 529              		.loc 1 274 0
 530 0010 7047     		bx	lr
 531              	.LVL23:
 532              	.L49:
 275:Drivers/GD32F1xx_standard_peripheral/Source/gd32f10x_sdio.c ****     case SDIO_RESPONSE1:
 276:Drivers/GD32F1xx_standard_peripheral/Source/gd32f10x_sdio.c ****         resp_content = SDIO_RESP1;
 533              		.loc 1 276 0
 534 0012 064B     		ldr	r3, .L53+4
 535 0014 1868     		ldr	r0, [r3]
 536              	.LVL24:
 277:Drivers/GD32F1xx_standard_peripheral/Source/gd32f10x_sdio.c ****         break;
 537              		.loc 1 277 0
 538 0016 7047     		bx	lr
 539              	.LVL25:
 540              	.L50:
 278:Drivers/GD32F1xx_standard_peripheral/Source/gd32f10x_sdio.c ****     case SDIO_RESPONSE2:
 279:Drivers/GD32F1xx_standard_peripheral/Source/gd32f10x_sdio.c ****         resp_content = SDIO_RESP2;
 541              		.loc 1 279 0
 542 0018 054B     		ldr	r3, .L53+8
 543 001a 1868     		ldr	r0, [r3]
 544              	.LVL26:
 280:Drivers/GD32F1xx_standard_peripheral/Source/gd32f10x_sdio.c ****         break;
 545              		.loc 1 280 0
 546 001c 7047     		bx	lr
 547              	.LVL27:
ARM GAS  /tmp/ccmXVnoL.s 			page 15


 548              	.L51:
 281:Drivers/GD32F1xx_standard_peripheral/Source/gd32f10x_sdio.c ****     case SDIO_RESPONSE3:
 282:Drivers/GD32F1xx_standard_peripheral/Source/gd32f10x_sdio.c ****         resp_content = SDIO_RESP3;
 549              		.loc 1 282 0
 550 001e 054B     		ldr	r3, .L53+12
 551 0020 1868     		ldr	r0, [r3]
 552              	.LVL28:
 283:Drivers/GD32F1xx_standard_peripheral/Source/gd32f10x_sdio.c ****         break;
 553              		.loc 1 283 0
 554 0022 7047     		bx	lr
 555              	.LVL29:
 556              	.L52:
 270:Drivers/GD32F1xx_standard_peripheral/Source/gd32f10x_sdio.c ****     switch(responsex){
 557              		.loc 1 270 0
 558 0024 0020     		movs	r0, #0
 559              	.LVL30:
 284:Drivers/GD32F1xx_standard_peripheral/Source/gd32f10x_sdio.c ****     default:
 285:Drivers/GD32F1xx_standard_peripheral/Source/gd32f10x_sdio.c ****         break;
 286:Drivers/GD32F1xx_standard_peripheral/Source/gd32f10x_sdio.c ****     }
 287:Drivers/GD32F1xx_standard_peripheral/Source/gd32f10x_sdio.c ****     return resp_content;
 288:Drivers/GD32F1xx_standard_peripheral/Source/gd32f10x_sdio.c **** }
 560              		.loc 1 288 0
 561 0026 7047     		bx	lr
 562              	.L54:
 563              		.align	2
 564              	.L53:
 565 0028 14800140 		.word	1073840148
 566 002c 18800140 		.word	1073840152
 567 0030 1C800140 		.word	1073840156
 568 0034 20800140 		.word	1073840160
 569              		.cfi_endproc
 570              	.LFE79:
 572              		.section	.text.sdio_data_config,"ax",%progbits
 573              		.align	1
 574              		.global	sdio_data_config
 575              		.syntax unified
 576              		.thumb
 577              		.thumb_func
 578              		.fpu softvfp
 580              	sdio_data_config:
 581              	.LFB80:
 289:Drivers/GD32F1xx_standard_peripheral/Source/gd32f10x_sdio.c **** 
 290:Drivers/GD32F1xx_standard_peripheral/Source/gd32f10x_sdio.c **** /*!
 291:Drivers/GD32F1xx_standard_peripheral/Source/gd32f10x_sdio.c ****     \brief      configure the data timeout, data length and data block size
 292:Drivers/GD32F1xx_standard_peripheral/Source/gd32f10x_sdio.c ****     \param[in]  data_timeout: data timeout period in card bus clock periods
 293:Drivers/GD32F1xx_standard_peripheral/Source/gd32f10x_sdio.c ****     \param[in]  data_length: number of data bytes to be transferred
 294:Drivers/GD32F1xx_standard_peripheral/Source/gd32f10x_sdio.c ****     \param[in]  data_blocksize: size of data block for block transfer
 295:Drivers/GD32F1xx_standard_peripheral/Source/gd32f10x_sdio.c ****                 only one parameter can be selected which is shown as below:
 296:Drivers/GD32F1xx_standard_peripheral/Source/gd32f10x_sdio.c ****       \arg        SDIO_DATABLOCKSIZE_1BYTE: block size = 1 byte
 297:Drivers/GD32F1xx_standard_peripheral/Source/gd32f10x_sdio.c ****       \arg        SDIO_DATABLOCKSIZE_2BYTES: block size = 2 bytes
 298:Drivers/GD32F1xx_standard_peripheral/Source/gd32f10x_sdio.c ****       \arg        SDIO_DATABLOCKSIZE_4BYTES: block size = 4 bytes
 299:Drivers/GD32F1xx_standard_peripheral/Source/gd32f10x_sdio.c ****       \arg        SDIO_DATABLOCKSIZE_8BYTES: block size = 8 bytes
 300:Drivers/GD32F1xx_standard_peripheral/Source/gd32f10x_sdio.c ****       \arg        SDIO_DATABLOCKSIZE_16BYTES: block size = 16 bytes
 301:Drivers/GD32F1xx_standard_peripheral/Source/gd32f10x_sdio.c ****       \arg        SDIO_DATABLOCKSIZE_32BYTES: block size = 32 bytes
 302:Drivers/GD32F1xx_standard_peripheral/Source/gd32f10x_sdio.c ****       \arg        SDIO_DATABLOCKSIZE_64BYTES: block size = 64 bytes
 303:Drivers/GD32F1xx_standard_peripheral/Source/gd32f10x_sdio.c ****       \arg        SDIO_DATABLOCKSIZE_128BYTES: block size = 128 bytes
 304:Drivers/GD32F1xx_standard_peripheral/Source/gd32f10x_sdio.c ****       \arg        SDIO_DATABLOCKSIZE_256BYTES: block size = 256 bytes
ARM GAS  /tmp/ccmXVnoL.s 			page 16


 305:Drivers/GD32F1xx_standard_peripheral/Source/gd32f10x_sdio.c ****       \arg        SDIO_DATABLOCKSIZE_512BYTES: block size = 512 bytes
 306:Drivers/GD32F1xx_standard_peripheral/Source/gd32f10x_sdio.c ****       \arg        SDIO_DATABLOCKSIZE_1024BYTES: block size = 1024 bytes
 307:Drivers/GD32F1xx_standard_peripheral/Source/gd32f10x_sdio.c ****       \arg        SDIO_DATABLOCKSIZE_2048BYTES: block size = 2048 bytes
 308:Drivers/GD32F1xx_standard_peripheral/Source/gd32f10x_sdio.c ****       \arg        SDIO_DATABLOCKSIZE_4096BYTES: block size = 4096 bytes
 309:Drivers/GD32F1xx_standard_peripheral/Source/gd32f10x_sdio.c ****       \arg        SDIO_DATABLOCKSIZE_8192BYTES: block size = 8192 bytes
 310:Drivers/GD32F1xx_standard_peripheral/Source/gd32f10x_sdio.c ****       \arg        SDIO_DATABLOCKSIZE_16384BYTES: block size = 16384 bytes
 311:Drivers/GD32F1xx_standard_peripheral/Source/gd32f10x_sdio.c ****     \param[out] none
 312:Drivers/GD32F1xx_standard_peripheral/Source/gd32f10x_sdio.c ****     \retval     none
 313:Drivers/GD32F1xx_standard_peripheral/Source/gd32f10x_sdio.c **** */
 314:Drivers/GD32F1xx_standard_peripheral/Source/gd32f10x_sdio.c **** void sdio_data_config(uint32_t data_timeout, uint32_t data_length, uint32_t data_blocksize)
 315:Drivers/GD32F1xx_standard_peripheral/Source/gd32f10x_sdio.c **** {
 582              		.loc 1 315 0
 583              		.cfi_startproc
 584              		@ args = 0, pretend = 0, frame = 0
 585              		@ frame_needed = 0, uses_anonymous_args = 0
 586              		@ link register save eliminated.
 587              	.LVL31:
 588 0000 70B4     		push	{r4, r5, r6}
 589              	.LCFI4:
 590              		.cfi_def_cfa_offset 12
 591              		.cfi_offset 4, -12
 592              		.cfi_offset 5, -8
 593              		.cfi_offset 6, -4
 316:Drivers/GD32F1xx_standard_peripheral/Source/gd32f10x_sdio.c ****     /* reset data timeout, data length and data block size */
 317:Drivers/GD32F1xx_standard_peripheral/Source/gd32f10x_sdio.c ****     SDIO_DATATO &= ~SDIO_DATATO_DATATO;
 594              		.loc 1 317 0
 595 0002 0A4D     		ldr	r5, .L57
 596 0004 2B68     		ldr	r3, [r5]
 597 0006 0023     		movs	r3, #0
 598 0008 2B60     		str	r3, [r5]
 318:Drivers/GD32F1xx_standard_peripheral/Source/gd32f10x_sdio.c ****     SDIO_DATALEN &= ~SDIO_DATALEN_DATALEN;
 599              		.loc 1 318 0
 600 000a 094C     		ldr	r4, .L57+4
 601 000c 2368     		ldr	r3, [r4]
 602 000e 03F07E43 		and	r3, r3, #-33554432
 603 0012 2360     		str	r3, [r4]
 319:Drivers/GD32F1xx_standard_peripheral/Source/gd32f10x_sdio.c ****     SDIO_DATACTL &= ~SDIO_DATACTL_BLKSZ;
 604              		.loc 1 319 0
 605 0014 074B     		ldr	r3, .L57+8
 606 0016 1E68     		ldr	r6, [r3]
 607 0018 26F0F006 		bic	r6, r6, #240
 608 001c 1E60     		str	r6, [r3]
 320:Drivers/GD32F1xx_standard_peripheral/Source/gd32f10x_sdio.c ****     /* configure the related parameters of data */
 321:Drivers/GD32F1xx_standard_peripheral/Source/gd32f10x_sdio.c ****     SDIO_DATATO = data_timeout;
 609              		.loc 1 321 0
 610 001e 2860     		str	r0, [r5]
 322:Drivers/GD32F1xx_standard_peripheral/Source/gd32f10x_sdio.c ****     SDIO_DATALEN = data_length;
 611              		.loc 1 322 0
 612 0020 2160     		str	r1, [r4]
 323:Drivers/GD32F1xx_standard_peripheral/Source/gd32f10x_sdio.c ****     SDIO_DATACTL |= data_blocksize;
 613              		.loc 1 323 0
 614 0022 1968     		ldr	r1, [r3]
 615              	.LVL32:
 616 0024 0A43     		orrs	r2, r2, r1
 617              	.LVL33:
 618 0026 1A60     		str	r2, [r3]
 619              	.LVL34:
ARM GAS  /tmp/ccmXVnoL.s 			page 17


 324:Drivers/GD32F1xx_standard_peripheral/Source/gd32f10x_sdio.c **** }
 620              		.loc 1 324 0
 621 0028 70BC     		pop	{r4, r5, r6}
 622              	.LCFI5:
 623              		.cfi_restore 6
 624              		.cfi_restore 5
 625              		.cfi_restore 4
 626              		.cfi_def_cfa_offset 0
 627 002a 7047     		bx	lr
 628              	.L58:
 629              		.align	2
 630              	.L57:
 631 002c 24800140 		.word	1073840164
 632 0030 28800140 		.word	1073840168
 633 0034 2C800140 		.word	1073840172
 634              		.cfi_endproc
 635              	.LFE80:
 637              		.section	.text.sdio_data_transfer_config,"ax",%progbits
 638              		.align	1
 639              		.global	sdio_data_transfer_config
 640              		.syntax unified
 641              		.thumb
 642              		.thumb_func
 643              		.fpu softvfp
 645              	sdio_data_transfer_config:
 646              	.LFB81:
 325:Drivers/GD32F1xx_standard_peripheral/Source/gd32f10x_sdio.c **** 
 326:Drivers/GD32F1xx_standard_peripheral/Source/gd32f10x_sdio.c **** /*!
 327:Drivers/GD32F1xx_standard_peripheral/Source/gd32f10x_sdio.c ****     \brief      configure the data transfer mode and direction
 328:Drivers/GD32F1xx_standard_peripheral/Source/gd32f10x_sdio.c ****     \param[in]  transfer_mode: mode of data transfer
 329:Drivers/GD32F1xx_standard_peripheral/Source/gd32f10x_sdio.c ****                 only one parameter can be selected which is shown as below:
 330:Drivers/GD32F1xx_standard_peripheral/Source/gd32f10x_sdio.c ****       \arg       SDIO_TRANSMODE_BLOCK: block transfer
 331:Drivers/GD32F1xx_standard_peripheral/Source/gd32f10x_sdio.c ****       \arg       SDIO_TRANSMODE_STREAM: stream transfer or SDIO multibyte transfer
 332:Drivers/GD32F1xx_standard_peripheral/Source/gd32f10x_sdio.c ****     \param[in]  transfer_direction: data transfer direction, read or write
 333:Drivers/GD32F1xx_standard_peripheral/Source/gd32f10x_sdio.c ****                 only one parameter can be selected which is shown as below:
 334:Drivers/GD32F1xx_standard_peripheral/Source/gd32f10x_sdio.c ****       \arg       SDIO_TRANSDIRECTION_TOCARD: write data to card
 335:Drivers/GD32F1xx_standard_peripheral/Source/gd32f10x_sdio.c ****       \arg       SDIO_TRANSDIRECTION_TOSDIO: read data from card
 336:Drivers/GD32F1xx_standard_peripheral/Source/gd32f10x_sdio.c ****     \param[out] none
 337:Drivers/GD32F1xx_standard_peripheral/Source/gd32f10x_sdio.c ****     \retval     none
 338:Drivers/GD32F1xx_standard_peripheral/Source/gd32f10x_sdio.c **** */
 339:Drivers/GD32F1xx_standard_peripheral/Source/gd32f10x_sdio.c **** void sdio_data_transfer_config(uint32_t transfer_mode, uint32_t transfer_direction)
 340:Drivers/GD32F1xx_standard_peripheral/Source/gd32f10x_sdio.c **** {
 647              		.loc 1 340 0
 648              		.cfi_startproc
 649              		@ args = 0, pretend = 0, frame = 0
 650              		@ frame_needed = 0, uses_anonymous_args = 0
 651              		@ link register save eliminated.
 652              	.LVL35:
 341:Drivers/GD32F1xx_standard_peripheral/Source/gd32f10x_sdio.c ****     uint32_t data_trans = 0U;
 342:Drivers/GD32F1xx_standard_peripheral/Source/gd32f10x_sdio.c ****     /* reset the data transfer mode, transfer direction and set according to the parameters */
 343:Drivers/GD32F1xx_standard_peripheral/Source/gd32f10x_sdio.c ****     data_trans = SDIO_DATACTL;
 653              		.loc 1 343 0
 654 0000 034A     		ldr	r2, .L60
 655 0002 1368     		ldr	r3, [r2]
 656              	.LVL36:
 344:Drivers/GD32F1xx_standard_peripheral/Source/gd32f10x_sdio.c ****     data_trans &= ~(SDIO_DATACTL_TRANSMOD | SDIO_DATACTL_DATADIR);
 657              		.loc 1 344 0
ARM GAS  /tmp/ccmXVnoL.s 			page 18


 658 0004 23F00603 		bic	r3, r3, #6
 659              	.LVL37:
 345:Drivers/GD32F1xx_standard_peripheral/Source/gd32f10x_sdio.c ****     data_trans |= (transfer_mode | transfer_direction);
 660              		.loc 1 345 0
 661 0008 0143     		orrs	r1, r1, r0
 662              	.LVL38:
 663 000a 0B43     		orrs	r3, r3, r1
 664              	.LVL39:
 346:Drivers/GD32F1xx_standard_peripheral/Source/gd32f10x_sdio.c ****     SDIO_DATACTL = data_trans;
 665              		.loc 1 346 0
 666 000c 1360     		str	r3, [r2]
 667 000e 7047     		bx	lr
 668              	.L61:
 669              		.align	2
 670              	.L60:
 671 0010 2C800140 		.word	1073840172
 672              		.cfi_endproc
 673              	.LFE81:
 675              		.section	.text.sdio_dsm_enable,"ax",%progbits
 676              		.align	1
 677              		.global	sdio_dsm_enable
 678              		.syntax unified
 679              		.thumb
 680              		.thumb_func
 681              		.fpu softvfp
 683              	sdio_dsm_enable:
 684              	.LFB82:
 347:Drivers/GD32F1xx_standard_peripheral/Source/gd32f10x_sdio.c **** }
 348:Drivers/GD32F1xx_standard_peripheral/Source/gd32f10x_sdio.c **** 
 349:Drivers/GD32F1xx_standard_peripheral/Source/gd32f10x_sdio.c **** /*!
 350:Drivers/GD32F1xx_standard_peripheral/Source/gd32f10x_sdio.c ****     \brief      enable the DSM(data state machine) for data transfer
 351:Drivers/GD32F1xx_standard_peripheral/Source/gd32f10x_sdio.c ****     \param[in]  none
 352:Drivers/GD32F1xx_standard_peripheral/Source/gd32f10x_sdio.c ****     \param[out] none
 353:Drivers/GD32F1xx_standard_peripheral/Source/gd32f10x_sdio.c ****     \retval     none
 354:Drivers/GD32F1xx_standard_peripheral/Source/gd32f10x_sdio.c **** */
 355:Drivers/GD32F1xx_standard_peripheral/Source/gd32f10x_sdio.c **** void sdio_dsm_enable(void)
 356:Drivers/GD32F1xx_standard_peripheral/Source/gd32f10x_sdio.c **** {
 685              		.loc 1 356 0
 686              		.cfi_startproc
 687              		@ args = 0, pretend = 0, frame = 0
 688              		@ frame_needed = 0, uses_anonymous_args = 0
 689              		@ link register save eliminated.
 357:Drivers/GD32F1xx_standard_peripheral/Source/gd32f10x_sdio.c ****     SDIO_DATACTL |= SDIO_DATACTL_DATAEN;
 690              		.loc 1 357 0
 691 0000 024A     		ldr	r2, .L63
 692 0002 1368     		ldr	r3, [r2]
 693 0004 43F00103 		orr	r3, r3, #1
 694 0008 1360     		str	r3, [r2]
 695 000a 7047     		bx	lr
 696              	.L64:
 697              		.align	2
 698              	.L63:
 699 000c 2C800140 		.word	1073840172
 700              		.cfi_endproc
 701              	.LFE82:
 703              		.section	.text.sdio_dsm_disable,"ax",%progbits
 704              		.align	1
ARM GAS  /tmp/ccmXVnoL.s 			page 19


 705              		.global	sdio_dsm_disable
 706              		.syntax unified
 707              		.thumb
 708              		.thumb_func
 709              		.fpu softvfp
 711              	sdio_dsm_disable:
 712              	.LFB83:
 358:Drivers/GD32F1xx_standard_peripheral/Source/gd32f10x_sdio.c **** }
 359:Drivers/GD32F1xx_standard_peripheral/Source/gd32f10x_sdio.c **** 
 360:Drivers/GD32F1xx_standard_peripheral/Source/gd32f10x_sdio.c **** /*!
 361:Drivers/GD32F1xx_standard_peripheral/Source/gd32f10x_sdio.c ****     \brief      disable the DSM(data state machine)
 362:Drivers/GD32F1xx_standard_peripheral/Source/gd32f10x_sdio.c ****     \param[in]  none
 363:Drivers/GD32F1xx_standard_peripheral/Source/gd32f10x_sdio.c ****     \param[out] none
 364:Drivers/GD32F1xx_standard_peripheral/Source/gd32f10x_sdio.c ****     \retval     none
 365:Drivers/GD32F1xx_standard_peripheral/Source/gd32f10x_sdio.c **** */
 366:Drivers/GD32F1xx_standard_peripheral/Source/gd32f10x_sdio.c **** void sdio_dsm_disable(void)
 367:Drivers/GD32F1xx_standard_peripheral/Source/gd32f10x_sdio.c **** {
 713              		.loc 1 367 0
 714              		.cfi_startproc
 715              		@ args = 0, pretend = 0, frame = 0
 716              		@ frame_needed = 0, uses_anonymous_args = 0
 717              		@ link register save eliminated.
 368:Drivers/GD32F1xx_standard_peripheral/Source/gd32f10x_sdio.c ****     SDIO_DATACTL &= ~SDIO_DATACTL_DATAEN;
 718              		.loc 1 368 0
 719 0000 024A     		ldr	r2, .L66
 720 0002 1368     		ldr	r3, [r2]
 721 0004 23F00103 		bic	r3, r3, #1
 722 0008 1360     		str	r3, [r2]
 723 000a 7047     		bx	lr
 724              	.L67:
 725              		.align	2
 726              	.L66:
 727 000c 2C800140 		.word	1073840172
 728              		.cfi_endproc
 729              	.LFE83:
 731              		.section	.text.sdio_data_write,"ax",%progbits
 732              		.align	1
 733              		.global	sdio_data_write
 734              		.syntax unified
 735              		.thumb
 736              		.thumb_func
 737              		.fpu softvfp
 739              	sdio_data_write:
 740              	.LFB84:
 369:Drivers/GD32F1xx_standard_peripheral/Source/gd32f10x_sdio.c **** }
 370:Drivers/GD32F1xx_standard_peripheral/Source/gd32f10x_sdio.c **** 
 371:Drivers/GD32F1xx_standard_peripheral/Source/gd32f10x_sdio.c **** /*!
 372:Drivers/GD32F1xx_standard_peripheral/Source/gd32f10x_sdio.c ****     \brief      write data(one word) to the transmit FIFO
 373:Drivers/GD32F1xx_standard_peripheral/Source/gd32f10x_sdio.c ****     \param[in]  data: 32-bit data write to card
 374:Drivers/GD32F1xx_standard_peripheral/Source/gd32f10x_sdio.c ****     \param[out] none
 375:Drivers/GD32F1xx_standard_peripheral/Source/gd32f10x_sdio.c ****     \retval     none
 376:Drivers/GD32F1xx_standard_peripheral/Source/gd32f10x_sdio.c **** */
 377:Drivers/GD32F1xx_standard_peripheral/Source/gd32f10x_sdio.c **** void sdio_data_write(uint32_t data)
 378:Drivers/GD32F1xx_standard_peripheral/Source/gd32f10x_sdio.c **** {
 741              		.loc 1 378 0
 742              		.cfi_startproc
 743              		@ args = 0, pretend = 0, frame = 0
ARM GAS  /tmp/ccmXVnoL.s 			page 20


 744              		@ frame_needed = 0, uses_anonymous_args = 0
 745              		@ link register save eliminated.
 746              	.LVL40:
 379:Drivers/GD32F1xx_standard_peripheral/Source/gd32f10x_sdio.c ****     SDIO_FIFO = data;
 747              		.loc 1 379 0
 748 0000 014B     		ldr	r3, .L69
 749 0002 1860     		str	r0, [r3]
 750 0004 7047     		bx	lr
 751              	.L70:
 752 0006 00BF     		.align	2
 753              	.L69:
 754 0008 80800140 		.word	1073840256
 755              		.cfi_endproc
 756              	.LFE84:
 758              		.section	.text.sdio_data_read,"ax",%progbits
 759              		.align	1
 760              		.global	sdio_data_read
 761              		.syntax unified
 762              		.thumb
 763              		.thumb_func
 764              		.fpu softvfp
 766              	sdio_data_read:
 767              	.LFB85:
 380:Drivers/GD32F1xx_standard_peripheral/Source/gd32f10x_sdio.c **** }
 381:Drivers/GD32F1xx_standard_peripheral/Source/gd32f10x_sdio.c **** 
 382:Drivers/GD32F1xx_standard_peripheral/Source/gd32f10x_sdio.c **** /*!
 383:Drivers/GD32F1xx_standard_peripheral/Source/gd32f10x_sdio.c ****     \brief      read data(one word) from the receive FIFO
 384:Drivers/GD32F1xx_standard_peripheral/Source/gd32f10x_sdio.c ****     \param[in]  none
 385:Drivers/GD32F1xx_standard_peripheral/Source/gd32f10x_sdio.c ****     \param[out] none
 386:Drivers/GD32F1xx_standard_peripheral/Source/gd32f10x_sdio.c ****     \retval     received data
 387:Drivers/GD32F1xx_standard_peripheral/Source/gd32f10x_sdio.c **** */
 388:Drivers/GD32F1xx_standard_peripheral/Source/gd32f10x_sdio.c **** uint32_t sdio_data_read(void)
 389:Drivers/GD32F1xx_standard_peripheral/Source/gd32f10x_sdio.c **** {
 768              		.loc 1 389 0
 769              		.cfi_startproc
 770              		@ args = 0, pretend = 0, frame = 0
 771              		@ frame_needed = 0, uses_anonymous_args = 0
 772              		@ link register save eliminated.
 390:Drivers/GD32F1xx_standard_peripheral/Source/gd32f10x_sdio.c ****     return SDIO_FIFO;
 773              		.loc 1 390 0
 774 0000 014B     		ldr	r3, .L72
 775 0002 1868     		ldr	r0, [r3]
 391:Drivers/GD32F1xx_standard_peripheral/Source/gd32f10x_sdio.c **** }
 776              		.loc 1 391 0
 777 0004 7047     		bx	lr
 778              	.L73:
 779 0006 00BF     		.align	2
 780              	.L72:
 781 0008 80800140 		.word	1073840256
 782              		.cfi_endproc
 783              	.LFE85:
 785              		.section	.text.sdio_data_counter_get,"ax",%progbits
 786              		.align	1
 787              		.global	sdio_data_counter_get
 788              		.syntax unified
 789              		.thumb
 790              		.thumb_func
ARM GAS  /tmp/ccmXVnoL.s 			page 21


 791              		.fpu softvfp
 793              	sdio_data_counter_get:
 794              	.LFB86:
 392:Drivers/GD32F1xx_standard_peripheral/Source/gd32f10x_sdio.c **** 
 393:Drivers/GD32F1xx_standard_peripheral/Source/gd32f10x_sdio.c **** /*!
 394:Drivers/GD32F1xx_standard_peripheral/Source/gd32f10x_sdio.c ****     \brief      get the number of remaining data bytes to be transferred to card
 395:Drivers/GD32F1xx_standard_peripheral/Source/gd32f10x_sdio.c ****     \param[in]  none
 396:Drivers/GD32F1xx_standard_peripheral/Source/gd32f10x_sdio.c ****     \param[out] none
 397:Drivers/GD32F1xx_standard_peripheral/Source/gd32f10x_sdio.c ****     \retval     number of remaining data bytes to be transferred
 398:Drivers/GD32F1xx_standard_peripheral/Source/gd32f10x_sdio.c **** */
 399:Drivers/GD32F1xx_standard_peripheral/Source/gd32f10x_sdio.c **** uint32_t sdio_data_counter_get(void)
 400:Drivers/GD32F1xx_standard_peripheral/Source/gd32f10x_sdio.c **** {
 795              		.loc 1 400 0
 796              		.cfi_startproc
 797              		@ args = 0, pretend = 0, frame = 0
 798              		@ frame_needed = 0, uses_anonymous_args = 0
 799              		@ link register save eliminated.
 401:Drivers/GD32F1xx_standard_peripheral/Source/gd32f10x_sdio.c ****     return SDIO_DATACNT;
 800              		.loc 1 401 0
 801 0000 014B     		ldr	r3, .L75
 802 0002 1868     		ldr	r0, [r3]
 402:Drivers/GD32F1xx_standard_peripheral/Source/gd32f10x_sdio.c **** }
 803              		.loc 1 402 0
 804 0004 7047     		bx	lr
 805              	.L76:
 806 0006 00BF     		.align	2
 807              	.L75:
 808 0008 30800140 		.word	1073840176
 809              		.cfi_endproc
 810              	.LFE86:
 812              		.section	.text.sdio_fifo_counter_get,"ax",%progbits
 813              		.align	1
 814              		.global	sdio_fifo_counter_get
 815              		.syntax unified
 816              		.thumb
 817              		.thumb_func
 818              		.fpu softvfp
 820              	sdio_fifo_counter_get:
 821              	.LFB87:
 403:Drivers/GD32F1xx_standard_peripheral/Source/gd32f10x_sdio.c **** 
 404:Drivers/GD32F1xx_standard_peripheral/Source/gd32f10x_sdio.c **** /*!
 405:Drivers/GD32F1xx_standard_peripheral/Source/gd32f10x_sdio.c ****     \brief      get the number of words remaining to be written or read from FIFO
 406:Drivers/GD32F1xx_standard_peripheral/Source/gd32f10x_sdio.c ****     \param[in]  none
 407:Drivers/GD32F1xx_standard_peripheral/Source/gd32f10x_sdio.c ****     \param[out] none
 408:Drivers/GD32F1xx_standard_peripheral/Source/gd32f10x_sdio.c ****     \retval     remaining number of words
 409:Drivers/GD32F1xx_standard_peripheral/Source/gd32f10x_sdio.c **** */
 410:Drivers/GD32F1xx_standard_peripheral/Source/gd32f10x_sdio.c **** uint32_t sdio_fifo_counter_get(void)
 411:Drivers/GD32F1xx_standard_peripheral/Source/gd32f10x_sdio.c **** {
 822              		.loc 1 411 0
 823              		.cfi_startproc
 824              		@ args = 0, pretend = 0, frame = 0
 825              		@ frame_needed = 0, uses_anonymous_args = 0
 826              		@ link register save eliminated.
 412:Drivers/GD32F1xx_standard_peripheral/Source/gd32f10x_sdio.c ****     return SDIO_FIFOCNT;
 827              		.loc 1 412 0
 828 0000 014B     		ldr	r3, .L78
 829 0002 1868     		ldr	r0, [r3]
ARM GAS  /tmp/ccmXVnoL.s 			page 22


 413:Drivers/GD32F1xx_standard_peripheral/Source/gd32f10x_sdio.c **** }
 830              		.loc 1 413 0
 831 0004 7047     		bx	lr
 832              	.L79:
 833 0006 00BF     		.align	2
 834              	.L78:
 835 0008 48800140 		.word	1073840200
 836              		.cfi_endproc
 837              	.LFE87:
 839              		.section	.text.sdio_dma_enable,"ax",%progbits
 840              		.align	1
 841              		.global	sdio_dma_enable
 842              		.syntax unified
 843              		.thumb
 844              		.thumb_func
 845              		.fpu softvfp
 847              	sdio_dma_enable:
 848              	.LFB88:
 414:Drivers/GD32F1xx_standard_peripheral/Source/gd32f10x_sdio.c **** 
 415:Drivers/GD32F1xx_standard_peripheral/Source/gd32f10x_sdio.c **** /*!
 416:Drivers/GD32F1xx_standard_peripheral/Source/gd32f10x_sdio.c ****     \brief      enable the DMA request for SDIO
 417:Drivers/GD32F1xx_standard_peripheral/Source/gd32f10x_sdio.c ****     \param[in]  none
 418:Drivers/GD32F1xx_standard_peripheral/Source/gd32f10x_sdio.c ****     \param[out] none
 419:Drivers/GD32F1xx_standard_peripheral/Source/gd32f10x_sdio.c ****     \retval     none
 420:Drivers/GD32F1xx_standard_peripheral/Source/gd32f10x_sdio.c **** */
 421:Drivers/GD32F1xx_standard_peripheral/Source/gd32f10x_sdio.c **** void sdio_dma_enable(void)
 422:Drivers/GD32F1xx_standard_peripheral/Source/gd32f10x_sdio.c **** {
 849              		.loc 1 422 0
 850              		.cfi_startproc
 851              		@ args = 0, pretend = 0, frame = 0
 852              		@ frame_needed = 0, uses_anonymous_args = 0
 853              		@ link register save eliminated.
 423:Drivers/GD32F1xx_standard_peripheral/Source/gd32f10x_sdio.c ****     SDIO_DATACTL |= SDIO_DATACTL_DMAEN;
 854              		.loc 1 423 0
 855 0000 024A     		ldr	r2, .L81
 856 0002 1368     		ldr	r3, [r2]
 857 0004 43F00803 		orr	r3, r3, #8
 858 0008 1360     		str	r3, [r2]
 859 000a 7047     		bx	lr
 860              	.L82:
 861              		.align	2
 862              	.L81:
 863 000c 2C800140 		.word	1073840172
 864              		.cfi_endproc
 865              	.LFE88:
 867              		.section	.text.sdio_dma_disable,"ax",%progbits
 868              		.align	1
 869              		.global	sdio_dma_disable
 870              		.syntax unified
 871              		.thumb
 872              		.thumb_func
 873              		.fpu softvfp
 875              	sdio_dma_disable:
 876              	.LFB89:
 424:Drivers/GD32F1xx_standard_peripheral/Source/gd32f10x_sdio.c **** }
 425:Drivers/GD32F1xx_standard_peripheral/Source/gd32f10x_sdio.c **** 
 426:Drivers/GD32F1xx_standard_peripheral/Source/gd32f10x_sdio.c **** /*!
ARM GAS  /tmp/ccmXVnoL.s 			page 23


 427:Drivers/GD32F1xx_standard_peripheral/Source/gd32f10x_sdio.c ****     \brief      disable the DMA request for SDIO
 428:Drivers/GD32F1xx_standard_peripheral/Source/gd32f10x_sdio.c ****     \param[in]  none
 429:Drivers/GD32F1xx_standard_peripheral/Source/gd32f10x_sdio.c ****     \param[out] none
 430:Drivers/GD32F1xx_standard_peripheral/Source/gd32f10x_sdio.c ****     \retval     none
 431:Drivers/GD32F1xx_standard_peripheral/Source/gd32f10x_sdio.c **** */
 432:Drivers/GD32F1xx_standard_peripheral/Source/gd32f10x_sdio.c **** void sdio_dma_disable(void)
 433:Drivers/GD32F1xx_standard_peripheral/Source/gd32f10x_sdio.c **** {
 877              		.loc 1 433 0
 878              		.cfi_startproc
 879              		@ args = 0, pretend = 0, frame = 0
 880              		@ frame_needed = 0, uses_anonymous_args = 0
 881              		@ link register save eliminated.
 434:Drivers/GD32F1xx_standard_peripheral/Source/gd32f10x_sdio.c ****     SDIO_DATACTL &= ~SDIO_DATACTL_DMAEN;
 882              		.loc 1 434 0
 883 0000 024A     		ldr	r2, .L84
 884 0002 1368     		ldr	r3, [r2]
 885 0004 23F00803 		bic	r3, r3, #8
 886 0008 1360     		str	r3, [r2]
 887 000a 7047     		bx	lr
 888              	.L85:
 889              		.align	2
 890              	.L84:
 891 000c 2C800140 		.word	1073840172
 892              		.cfi_endproc
 893              	.LFE89:
 895              		.section	.text.sdio_flag_get,"ax",%progbits
 896              		.align	1
 897              		.global	sdio_flag_get
 898              		.syntax unified
 899              		.thumb
 900              		.thumb_func
 901              		.fpu softvfp
 903              	sdio_flag_get:
 904              	.LFB90:
 435:Drivers/GD32F1xx_standard_peripheral/Source/gd32f10x_sdio.c **** }
 436:Drivers/GD32F1xx_standard_peripheral/Source/gd32f10x_sdio.c **** 
 437:Drivers/GD32F1xx_standard_peripheral/Source/gd32f10x_sdio.c **** /*!
 438:Drivers/GD32F1xx_standard_peripheral/Source/gd32f10x_sdio.c ****     \brief      get the flags state of SDIO
 439:Drivers/GD32F1xx_standard_peripheral/Source/gd32f10x_sdio.c ****     \param[in]  flag: flags state of SDIO
 440:Drivers/GD32F1xx_standard_peripheral/Source/gd32f10x_sdio.c ****                 only one parameter can be selected which is shown as below:
 441:Drivers/GD32F1xx_standard_peripheral/Source/gd32f10x_sdio.c ****       \arg        SDIO_FLAG_CCRCERR: command response received (CRC check failed) flag
 442:Drivers/GD32F1xx_standard_peripheral/Source/gd32f10x_sdio.c ****       \arg        SDIO_FLAG_DTCRCERR: data block sent/received (CRC check failed) flag
 443:Drivers/GD32F1xx_standard_peripheral/Source/gd32f10x_sdio.c ****       \arg        SDIO_FLAG_CMDTMOUT: command response timeout flag
 444:Drivers/GD32F1xx_standard_peripheral/Source/gd32f10x_sdio.c ****       \arg        SDIO_FLAG_DTTMOUT: data timeout flag
 445:Drivers/GD32F1xx_standard_peripheral/Source/gd32f10x_sdio.c ****       \arg        SDIO_FLAG_TXURE: transmit FIFO underrun error occurs flag
 446:Drivers/GD32F1xx_standard_peripheral/Source/gd32f10x_sdio.c ****       \arg        SDIO_FLAG_RXORE: received FIFO overrun error occurs flag
 447:Drivers/GD32F1xx_standard_peripheral/Source/gd32f10x_sdio.c ****       \arg        SDIO_FLAG_CMDRECV: command response received (CRC check passed) flag
 448:Drivers/GD32F1xx_standard_peripheral/Source/gd32f10x_sdio.c ****       \arg        SDIO_FLAG_CMDSEND: command sent (no response required) flag
 449:Drivers/GD32F1xx_standard_peripheral/Source/gd32f10x_sdio.c ****       \arg        SDIO_FLAG_DTEND: data end (data counter, SDIO_DATACNT, is zero) flag
 450:Drivers/GD32F1xx_standard_peripheral/Source/gd32f10x_sdio.c ****       \arg        SDIO_FLAG_STBITE: start bit error in the bus flag
 451:Drivers/GD32F1xx_standard_peripheral/Source/gd32f10x_sdio.c ****       \arg        SDIO_FLAG_DTBLKEND: data block sent/received (CRC check passed) flag
 452:Drivers/GD32F1xx_standard_peripheral/Source/gd32f10x_sdio.c ****       \arg        SDIO_FLAG_CMDRUN: command transmission in progress flag
 453:Drivers/GD32F1xx_standard_peripheral/Source/gd32f10x_sdio.c ****       \arg        SDIO_FLAG_TXRUN: data transmission in progress flag
 454:Drivers/GD32F1xx_standard_peripheral/Source/gd32f10x_sdio.c ****       \arg        SDIO_FLAG_RXRUN: data reception in progress flag
 455:Drivers/GD32F1xx_standard_peripheral/Source/gd32f10x_sdio.c ****       \arg        SDIO_FLAG_TFH: transmit FIFO is half empty flag: at least 8 words can be written 
 456:Drivers/GD32F1xx_standard_peripheral/Source/gd32f10x_sdio.c ****       \arg        SDIO_FLAG_RFH: receive FIFO is half full flag: at least 8 words can be read in th
 457:Drivers/GD32F1xx_standard_peripheral/Source/gd32f10x_sdio.c ****       \arg        SDIO_FLAG_TFF: transmit FIFO is full flag
ARM GAS  /tmp/ccmXVnoL.s 			page 24


 458:Drivers/GD32F1xx_standard_peripheral/Source/gd32f10x_sdio.c ****       \arg        SDIO_FLAG_RFF: receive FIFO is full flag
 459:Drivers/GD32F1xx_standard_peripheral/Source/gd32f10x_sdio.c ****       \arg        SDIO_FLAG_TFE: transmit FIFO is empty flag
 460:Drivers/GD32F1xx_standard_peripheral/Source/gd32f10x_sdio.c ****       \arg        SDIO_FLAG_RFE: receive FIFO is empty flag
 461:Drivers/GD32F1xx_standard_peripheral/Source/gd32f10x_sdio.c ****       \arg        SDIO_FLAG_TXDTVAL: data is valid in transmit FIFO flag
 462:Drivers/GD32F1xx_standard_peripheral/Source/gd32f10x_sdio.c ****       \arg        SDIO_FLAG_RXDTVAL: data is valid in receive FIFO flag
 463:Drivers/GD32F1xx_standard_peripheral/Source/gd32f10x_sdio.c ****       \arg        SDIO_FLAG_SDIOINT: SD I/O interrupt received flag
 464:Drivers/GD32F1xx_standard_peripheral/Source/gd32f10x_sdio.c ****       \arg        SDIO_FLAG_ATAEND: CE-ATA command completion signal received (only for CMD61) flag
 465:Drivers/GD32F1xx_standard_peripheral/Source/gd32f10x_sdio.c ****     \param[out] none
 466:Drivers/GD32F1xx_standard_peripheral/Source/gd32f10x_sdio.c ****     \retval     FlagStatus: SET or RESET
 467:Drivers/GD32F1xx_standard_peripheral/Source/gd32f10x_sdio.c **** */
 468:Drivers/GD32F1xx_standard_peripheral/Source/gd32f10x_sdio.c **** FlagStatus sdio_flag_get(uint32_t flag)
 469:Drivers/GD32F1xx_standard_peripheral/Source/gd32f10x_sdio.c **** {
 905              		.loc 1 469 0
 906              		.cfi_startproc
 907              		@ args = 0, pretend = 0, frame = 0
 908              		@ frame_needed = 0, uses_anonymous_args = 0
 909              		@ link register save eliminated.
 910              	.LVL41:
 470:Drivers/GD32F1xx_standard_peripheral/Source/gd32f10x_sdio.c ****     FlagStatus temp_flag = RESET;
 471:Drivers/GD32F1xx_standard_peripheral/Source/gd32f10x_sdio.c ****     if(RESET != (SDIO_STAT & flag)){
 911              		.loc 1 471 0
 912 0000 034B     		ldr	r3, .L90
 913 0002 1B68     		ldr	r3, [r3]
 914 0004 0342     		tst	r3, r0
 915 0006 01D0     		beq	.L89
 472:Drivers/GD32F1xx_standard_peripheral/Source/gd32f10x_sdio.c ****         temp_flag = SET;
 916              		.loc 1 472 0
 917 0008 0120     		movs	r0, #1
 918              	.LVL42:
 473:Drivers/GD32F1xx_standard_peripheral/Source/gd32f10x_sdio.c ****     }
 474:Drivers/GD32F1xx_standard_peripheral/Source/gd32f10x_sdio.c ****     return temp_flag;
 475:Drivers/GD32F1xx_standard_peripheral/Source/gd32f10x_sdio.c **** }
 919              		.loc 1 475 0
 920 000a 7047     		bx	lr
 921              	.LVL43:
 922              	.L89:
 470:Drivers/GD32F1xx_standard_peripheral/Source/gd32f10x_sdio.c ****     if(RESET != (SDIO_STAT & flag)){
 923              		.loc 1 470 0
 924 000c 0020     		movs	r0, #0
 925              	.LVL44:
 926 000e 7047     		bx	lr
 927              	.L91:
 928              		.align	2
 929              	.L90:
 930 0010 34800140 		.word	1073840180
 931              		.cfi_endproc
 932              	.LFE90:
 934              		.section	.text.sdio_flag_clear,"ax",%progbits
 935              		.align	1
 936              		.global	sdio_flag_clear
 937              		.syntax unified
 938              		.thumb
 939              		.thumb_func
 940              		.fpu softvfp
 942              	sdio_flag_clear:
 943              	.LFB91:
 476:Drivers/GD32F1xx_standard_peripheral/Source/gd32f10x_sdio.c **** 
ARM GAS  /tmp/ccmXVnoL.s 			page 25


 477:Drivers/GD32F1xx_standard_peripheral/Source/gd32f10x_sdio.c **** /*!
 478:Drivers/GD32F1xx_standard_peripheral/Source/gd32f10x_sdio.c ****     \brief      clear the pending flags of SDIO
 479:Drivers/GD32F1xx_standard_peripheral/Source/gd32f10x_sdio.c ****     \param[in]  flag: flags state of SDIO
 480:Drivers/GD32F1xx_standard_peripheral/Source/gd32f10x_sdio.c ****                 only one parameter can be selected which is shown as below:
 481:Drivers/GD32F1xx_standard_peripheral/Source/gd32f10x_sdio.c ****       \arg        SDIO_FLAG_CCRCERR: command response received (CRC check failed) flag
 482:Drivers/GD32F1xx_standard_peripheral/Source/gd32f10x_sdio.c ****       \arg        SDIO_FLAG_DTCRCERR: data block sent/received (CRC check failed) flag
 483:Drivers/GD32F1xx_standard_peripheral/Source/gd32f10x_sdio.c ****       \arg        SDIO_FLAG_CMDTMOUT: command response timeout flag
 484:Drivers/GD32F1xx_standard_peripheral/Source/gd32f10x_sdio.c ****       \arg        SDIO_FLAG_DTTMOUT: data timeout flag
 485:Drivers/GD32F1xx_standard_peripheral/Source/gd32f10x_sdio.c ****       \arg        SDIO_FLAG_TXURE: transmit FIFO underrun error occurs flag
 486:Drivers/GD32F1xx_standard_peripheral/Source/gd32f10x_sdio.c ****       \arg        SDIO_FLAG_RXORE: received FIFO overrun error occurs flag
 487:Drivers/GD32F1xx_standard_peripheral/Source/gd32f10x_sdio.c ****       \arg        SDIO_FLAG_CMDRECV: command response received (CRC check passed) flag
 488:Drivers/GD32F1xx_standard_peripheral/Source/gd32f10x_sdio.c ****       \arg        SDIO_FLAG_CMDSEND: command sent (no response required) flag
 489:Drivers/GD32F1xx_standard_peripheral/Source/gd32f10x_sdio.c ****       \arg        SDIO_FLAG_DTEND: data end (data counter, SDIO_DATACNT, is zero) flag
 490:Drivers/GD32F1xx_standard_peripheral/Source/gd32f10x_sdio.c ****       \arg        SDIO_FLAG_STBITE: start bit error in the bus flag
 491:Drivers/GD32F1xx_standard_peripheral/Source/gd32f10x_sdio.c ****       \arg        SDIO_FLAG_DTBLKEND: data block sent/received (CRC check passed) flag
 492:Drivers/GD32F1xx_standard_peripheral/Source/gd32f10x_sdio.c ****       \arg        SDIO_FLAG_SDIOINT: SD I/O interrupt received flag
 493:Drivers/GD32F1xx_standard_peripheral/Source/gd32f10x_sdio.c ****       \arg        SDIO_FLAG_ATAEND: CE-ATA command completion signal received (only for CMD61) flag
 494:Drivers/GD32F1xx_standard_peripheral/Source/gd32f10x_sdio.c ****     \param[out] none
 495:Drivers/GD32F1xx_standard_peripheral/Source/gd32f10x_sdio.c ****     \retval     none
 496:Drivers/GD32F1xx_standard_peripheral/Source/gd32f10x_sdio.c **** */
 497:Drivers/GD32F1xx_standard_peripheral/Source/gd32f10x_sdio.c **** void sdio_flag_clear(uint32_t flag)
 498:Drivers/GD32F1xx_standard_peripheral/Source/gd32f10x_sdio.c **** {
 944              		.loc 1 498 0
 945              		.cfi_startproc
 946              		@ args = 0, pretend = 0, frame = 0
 947              		@ frame_needed = 0, uses_anonymous_args = 0
 948              		@ link register save eliminated.
 949              	.LVL45:
 499:Drivers/GD32F1xx_standard_peripheral/Source/gd32f10x_sdio.c ****     SDIO_INTC = flag;
 950              		.loc 1 499 0
 951 0000 014B     		ldr	r3, .L93
 952 0002 1860     		str	r0, [r3]
 953 0004 7047     		bx	lr
 954              	.L94:
 955 0006 00BF     		.align	2
 956              	.L93:
 957 0008 38800140 		.word	1073840184
 958              		.cfi_endproc
 959              	.LFE91:
 961              		.section	.text.sdio_interrupt_enable,"ax",%progbits
 962              		.align	1
 963              		.global	sdio_interrupt_enable
 964              		.syntax unified
 965              		.thumb
 966              		.thumb_func
 967              		.fpu softvfp
 969              	sdio_interrupt_enable:
 970              	.LFB92:
 500:Drivers/GD32F1xx_standard_peripheral/Source/gd32f10x_sdio.c **** }
 501:Drivers/GD32F1xx_standard_peripheral/Source/gd32f10x_sdio.c **** 
 502:Drivers/GD32F1xx_standard_peripheral/Source/gd32f10x_sdio.c **** /*!
 503:Drivers/GD32F1xx_standard_peripheral/Source/gd32f10x_sdio.c ****     \brief      enable the SDIO interrupt
 504:Drivers/GD32F1xx_standard_peripheral/Source/gd32f10x_sdio.c ****     \param[in]  int_flag: interrupt flags state of SDIO
 505:Drivers/GD32F1xx_standard_peripheral/Source/gd32f10x_sdio.c ****                 only one parameter can be selected which is shown as below:
 506:Drivers/GD32F1xx_standard_peripheral/Source/gd32f10x_sdio.c ****       \arg        SDIO_INT_CCRCERR: SDIO CCRCERR interrupt
 507:Drivers/GD32F1xx_standard_peripheral/Source/gd32f10x_sdio.c ****       \arg        SDIO_INT_DTCRCERR: SDIO DTCRCERR interrupt
 508:Drivers/GD32F1xx_standard_peripheral/Source/gd32f10x_sdio.c ****       \arg        SDIO_INT_CMDTMOUT: SDIO CMDTMOUT interrupt
ARM GAS  /tmp/ccmXVnoL.s 			page 26


 509:Drivers/GD32F1xx_standard_peripheral/Source/gd32f10x_sdio.c ****       \arg        SDIO_INT_DTTMOUT: SDIO DTTMOUT interrupt
 510:Drivers/GD32F1xx_standard_peripheral/Source/gd32f10x_sdio.c ****       \arg        SDIO_INT_TXURE: SDIO TXURE interrupt
 511:Drivers/GD32F1xx_standard_peripheral/Source/gd32f10x_sdio.c ****       \arg        SDIO_INT_RXORE: SDIO RXORE interrupt
 512:Drivers/GD32F1xx_standard_peripheral/Source/gd32f10x_sdio.c ****       \arg        SDIO_INT_CMDRECV: SDIO CMDRECV interrupt
 513:Drivers/GD32F1xx_standard_peripheral/Source/gd32f10x_sdio.c ****       \arg        SDIO_INT_CMDSEND: SDIO CMDSEND interrupt
 514:Drivers/GD32F1xx_standard_peripheral/Source/gd32f10x_sdio.c ****       \arg        SDIO_INT_DTEND: SDIO DTEND interrupt
 515:Drivers/GD32F1xx_standard_peripheral/Source/gd32f10x_sdio.c ****       \arg        SDIO_INT_STBITE: SDIO STBITE interrupt
 516:Drivers/GD32F1xx_standard_peripheral/Source/gd32f10x_sdio.c ****       \arg        SDIO_INT_DTBLKEND: SDIO DTBLKEND interrupt
 517:Drivers/GD32F1xx_standard_peripheral/Source/gd32f10x_sdio.c ****       \arg        SDIO_INT_CMDRUN: SDIO CMDRUN interrupt
 518:Drivers/GD32F1xx_standard_peripheral/Source/gd32f10x_sdio.c ****       \arg        SDIO_INT_TXRUN: SDIO TXRUN interrupt
 519:Drivers/GD32F1xx_standard_peripheral/Source/gd32f10x_sdio.c ****       \arg        SDIO_INT_RXRUN: SDIO RXRUN interrupt
 520:Drivers/GD32F1xx_standard_peripheral/Source/gd32f10x_sdio.c ****       \arg        SDIO_INT_TFH: SDIO TFH interrupt
 521:Drivers/GD32F1xx_standard_peripheral/Source/gd32f10x_sdio.c ****       \arg        SDIO_INT_RFH: SDIO RFH interrupt
 522:Drivers/GD32F1xx_standard_peripheral/Source/gd32f10x_sdio.c ****       \arg        SDIO_INT_TFF: SDIO TFF interrupt
 523:Drivers/GD32F1xx_standard_peripheral/Source/gd32f10x_sdio.c ****       \arg        SDIO_INT_RFF: SDIO RFF interrupt
 524:Drivers/GD32F1xx_standard_peripheral/Source/gd32f10x_sdio.c ****       \arg        SDIO_INT_TFE: SDIO TFE interrupt
 525:Drivers/GD32F1xx_standard_peripheral/Source/gd32f10x_sdio.c ****       \arg        SDIO_INT_RFE: SDIO RFE interrupt
 526:Drivers/GD32F1xx_standard_peripheral/Source/gd32f10x_sdio.c ****       \arg        SDIO_INT_TXDTVAL: SDIO TXDTVAL interrupt
 527:Drivers/GD32F1xx_standard_peripheral/Source/gd32f10x_sdio.c ****       \arg        SDIO_INT_RXDTVAL: SDIO RXDTVAL interrupt
 528:Drivers/GD32F1xx_standard_peripheral/Source/gd32f10x_sdio.c ****       \arg        SDIO_INT_SDIOINT: SDIO SDIOINT interrupt
 529:Drivers/GD32F1xx_standard_peripheral/Source/gd32f10x_sdio.c ****       \arg        SDIO_INT_ATAEND: SDIO ATAEND interrupt
 530:Drivers/GD32F1xx_standard_peripheral/Source/gd32f10x_sdio.c ****     \param[out] none
 531:Drivers/GD32F1xx_standard_peripheral/Source/gd32f10x_sdio.c ****     \retval     none
 532:Drivers/GD32F1xx_standard_peripheral/Source/gd32f10x_sdio.c **** */
 533:Drivers/GD32F1xx_standard_peripheral/Source/gd32f10x_sdio.c **** void sdio_interrupt_enable(uint32_t int_flag)
 534:Drivers/GD32F1xx_standard_peripheral/Source/gd32f10x_sdio.c **** {
 971              		.loc 1 534 0
 972              		.cfi_startproc
 973              		@ args = 0, pretend = 0, frame = 0
 974              		@ frame_needed = 0, uses_anonymous_args = 0
 975              		@ link register save eliminated.
 976              	.LVL46:
 535:Drivers/GD32F1xx_standard_peripheral/Source/gd32f10x_sdio.c ****     SDIO_INTEN |= int_flag;
 977              		.loc 1 535 0
 978 0000 024A     		ldr	r2, .L96
 979 0002 1368     		ldr	r3, [r2]
 980 0004 1843     		orrs	r0, r0, r3
 981              	.LVL47:
 982 0006 1060     		str	r0, [r2]
 983 0008 7047     		bx	lr
 984              	.L97:
 985 000a 00BF     		.align	2
 986              	.L96:
 987 000c 3C800140 		.word	1073840188
 988              		.cfi_endproc
 989              	.LFE92:
 991              		.section	.text.sdio_interrupt_disable,"ax",%progbits
 992              		.align	1
 993              		.global	sdio_interrupt_disable
 994              		.syntax unified
 995              		.thumb
 996              		.thumb_func
 997              		.fpu softvfp
 999              	sdio_interrupt_disable:
 1000              	.LFB93:
 536:Drivers/GD32F1xx_standard_peripheral/Source/gd32f10x_sdio.c **** }
 537:Drivers/GD32F1xx_standard_peripheral/Source/gd32f10x_sdio.c **** 
ARM GAS  /tmp/ccmXVnoL.s 			page 27


 538:Drivers/GD32F1xx_standard_peripheral/Source/gd32f10x_sdio.c **** /*!
 539:Drivers/GD32F1xx_standard_peripheral/Source/gd32f10x_sdio.c ****     \brief      disable the SDIO interrupt
 540:Drivers/GD32F1xx_standard_peripheral/Source/gd32f10x_sdio.c ****     \param[in]  int_flag: interrupt flags state of SDIO
 541:Drivers/GD32F1xx_standard_peripheral/Source/gd32f10x_sdio.c ****                 only one parameter can be selected which is shown as below:
 542:Drivers/GD32F1xx_standard_peripheral/Source/gd32f10x_sdio.c ****       \arg        SDIO_INT_CCRCERR: SDIO CCRCERR interrupt
 543:Drivers/GD32F1xx_standard_peripheral/Source/gd32f10x_sdio.c ****       \arg        SDIO_INT_DTCRCERR: SDIO DTCRCERR interrupt
 544:Drivers/GD32F1xx_standard_peripheral/Source/gd32f10x_sdio.c ****       \arg        SDIO_INT_CMDTMOUT: SDIO CMDTMOUT interrupt
 545:Drivers/GD32F1xx_standard_peripheral/Source/gd32f10x_sdio.c ****       \arg        SDIO_INT_DTTMOUT: SDIO DTTMOUT interrupt
 546:Drivers/GD32F1xx_standard_peripheral/Source/gd32f10x_sdio.c ****       \arg        SDIO_INT_TXURE: SDIO TXURE interrupt
 547:Drivers/GD32F1xx_standard_peripheral/Source/gd32f10x_sdio.c ****       \arg        SDIO_INT_RXORE: SDIO RXORE interrupt
 548:Drivers/GD32F1xx_standard_peripheral/Source/gd32f10x_sdio.c ****       \arg        SDIO_INT_CMDRECV: SDIO CMDRECV interrupt
 549:Drivers/GD32F1xx_standard_peripheral/Source/gd32f10x_sdio.c ****       \arg        SDIO_INT_CMDSEND: SDIO CMDSEND interrupt
 550:Drivers/GD32F1xx_standard_peripheral/Source/gd32f10x_sdio.c ****       \arg        SDIO_INT_DTEND: SDIO DTEND interrupt
 551:Drivers/GD32F1xx_standard_peripheral/Source/gd32f10x_sdio.c ****       \arg        SDIO_INT_STBITE: SDIO STBITE interrupt
 552:Drivers/GD32F1xx_standard_peripheral/Source/gd32f10x_sdio.c ****       \arg        SDIO_INT_DTBLKEND: SDIO DTBLKEND interrupt
 553:Drivers/GD32F1xx_standard_peripheral/Source/gd32f10x_sdio.c ****       \arg        SDIO_INT_CMDRUN: SDIO CMDRUN interrupt
 554:Drivers/GD32F1xx_standard_peripheral/Source/gd32f10x_sdio.c ****       \arg        SDIO_INT_TXRUN: SDIO TXRUN interrupt
 555:Drivers/GD32F1xx_standard_peripheral/Source/gd32f10x_sdio.c ****       \arg        SDIO_INT_RXRUN: SDIO RXRUN interrupt
 556:Drivers/GD32F1xx_standard_peripheral/Source/gd32f10x_sdio.c ****       \arg        SDIO_INT_TFH: SDIO TFH interrupt
 557:Drivers/GD32F1xx_standard_peripheral/Source/gd32f10x_sdio.c ****       \arg        SDIO_INT_RFH: SDIO RFH interrupt
 558:Drivers/GD32F1xx_standard_peripheral/Source/gd32f10x_sdio.c ****       \arg        SDIO_INT_TFF: SDIO TFF interrupt
 559:Drivers/GD32F1xx_standard_peripheral/Source/gd32f10x_sdio.c ****       \arg        SDIO_INT_RFF: SDIO RFF interrupt
 560:Drivers/GD32F1xx_standard_peripheral/Source/gd32f10x_sdio.c ****       \arg        SDIO_INT_TFE: SDIO TFE interrupt
 561:Drivers/GD32F1xx_standard_peripheral/Source/gd32f10x_sdio.c ****       \arg        SDIO_INT_RFE: SDIO RFE interrupt
 562:Drivers/GD32F1xx_standard_peripheral/Source/gd32f10x_sdio.c ****       \arg        SDIO_INT_TXDTVAL: SDIO TXDTVAL interrupt
 563:Drivers/GD32F1xx_standard_peripheral/Source/gd32f10x_sdio.c ****       \arg        SDIO_INT_RXDTVAL: SDIO RXDTVAL interrupt
 564:Drivers/GD32F1xx_standard_peripheral/Source/gd32f10x_sdio.c ****       \arg        SDIO_INT_SDIOINT: SDIO SDIOINT interrupt
 565:Drivers/GD32F1xx_standard_peripheral/Source/gd32f10x_sdio.c ****       \arg        SDIO_INT_ATAEND: SDIO ATAEND interrupt
 566:Drivers/GD32F1xx_standard_peripheral/Source/gd32f10x_sdio.c ****     \param[out] none
 567:Drivers/GD32F1xx_standard_peripheral/Source/gd32f10x_sdio.c ****     \retval     none
 568:Drivers/GD32F1xx_standard_peripheral/Source/gd32f10x_sdio.c **** */
 569:Drivers/GD32F1xx_standard_peripheral/Source/gd32f10x_sdio.c **** void sdio_interrupt_disable(uint32_t int_flag)
 570:Drivers/GD32F1xx_standard_peripheral/Source/gd32f10x_sdio.c **** {
 1001              		.loc 1 570 0
 1002              		.cfi_startproc
 1003              		@ args = 0, pretend = 0, frame = 0
 1004              		@ frame_needed = 0, uses_anonymous_args = 0
 1005              		@ link register save eliminated.
 1006              	.LVL48:
 571:Drivers/GD32F1xx_standard_peripheral/Source/gd32f10x_sdio.c ****     SDIO_INTEN &= ~int_flag;
 1007              		.loc 1 571 0
 1008 0000 024A     		ldr	r2, .L99
 1009 0002 1368     		ldr	r3, [r2]
 1010 0004 23EA0000 		bic	r0, r3, r0
 1011              	.LVL49:
 1012 0008 1060     		str	r0, [r2]
 1013 000a 7047     		bx	lr
 1014              	.L100:
 1015              		.align	2
 1016              	.L99:
 1017 000c 3C800140 		.word	1073840188
 1018              		.cfi_endproc
 1019              	.LFE93:
 1021              		.section	.text.sdio_interrupt_flag_get,"ax",%progbits
 1022              		.align	1
 1023              		.global	sdio_interrupt_flag_get
 1024              		.syntax unified
ARM GAS  /tmp/ccmXVnoL.s 			page 28


 1025              		.thumb
 1026              		.thumb_func
 1027              		.fpu softvfp
 1029              	sdio_interrupt_flag_get:
 1030              	.LFB94:
 572:Drivers/GD32F1xx_standard_peripheral/Source/gd32f10x_sdio.c **** }
 573:Drivers/GD32F1xx_standard_peripheral/Source/gd32f10x_sdio.c **** 
 574:Drivers/GD32F1xx_standard_peripheral/Source/gd32f10x_sdio.c **** /*!
 575:Drivers/GD32F1xx_standard_peripheral/Source/gd32f10x_sdio.c ****     \brief      get the interrupt flags state of SDIO
 576:Drivers/GD32F1xx_standard_peripheral/Source/gd32f10x_sdio.c ****     \param[in]  int_flag: interrupt flags state of SDIO
 577:Drivers/GD32F1xx_standard_peripheral/Source/gd32f10x_sdio.c ****                 only one parameter can be selected which is shown as below:
 578:Drivers/GD32F1xx_standard_peripheral/Source/gd32f10x_sdio.c ****       \arg        SDIO_INT_FLAG_CCRCERR: SDIO CCRCERR interrupt
 579:Drivers/GD32F1xx_standard_peripheral/Source/gd32f10x_sdio.c ****       \arg        SDIO_INT_FLAG_DTCRCERR: SDIO DTCRCERR interrupt
 580:Drivers/GD32F1xx_standard_peripheral/Source/gd32f10x_sdio.c ****       \arg        SDIO_INT_FLAG_CMDTMOUT: SDIO CMDTMOUT interrupt
 581:Drivers/GD32F1xx_standard_peripheral/Source/gd32f10x_sdio.c ****       \arg        SDIO_INT_FLAG_DTTMOUT: SDIO DTTMOUT interrupt
 582:Drivers/GD32F1xx_standard_peripheral/Source/gd32f10x_sdio.c ****       \arg        SDIO_INT_FLAG_TXURE: SDIO TXURE interrupt
 583:Drivers/GD32F1xx_standard_peripheral/Source/gd32f10x_sdio.c ****       \arg        SDIO_INT_FLAG_RXORE: SDIO RXORE interrupt
 584:Drivers/GD32F1xx_standard_peripheral/Source/gd32f10x_sdio.c ****       \arg        SDIO_INT_FLAG_CMDRECV: SDIO CMDRECV interrupt
 585:Drivers/GD32F1xx_standard_peripheral/Source/gd32f10x_sdio.c ****       \arg        SDIO_INT_FLAG_CMDSEND: SDIO CMDSEND interrupt
 586:Drivers/GD32F1xx_standard_peripheral/Source/gd32f10x_sdio.c ****       \arg        SDIO_INT_FLAG_DTEND: SDIO DTEND interrupt
 587:Drivers/GD32F1xx_standard_peripheral/Source/gd32f10x_sdio.c ****       \arg        SDIO_INT_FLAG_STBITE: SDIO STBITE interrupt
 588:Drivers/GD32F1xx_standard_peripheral/Source/gd32f10x_sdio.c ****       \arg        SDIO_INT_FLAG_DTBLKEND: SDIO DTBLKEND interrupt
 589:Drivers/GD32F1xx_standard_peripheral/Source/gd32f10x_sdio.c ****       \arg        SDIO_INT_FLAG_CMDRUN: SDIO CMDRUN interrupt
 590:Drivers/GD32F1xx_standard_peripheral/Source/gd32f10x_sdio.c ****       \arg        SDIO_INT_FLAG_TXRUN: SDIO TXRUN interrupt
 591:Drivers/GD32F1xx_standard_peripheral/Source/gd32f10x_sdio.c ****       \arg        SDIO_INT_FLAG_RXRUN: SDIO RXRUN interrupt
 592:Drivers/GD32F1xx_standard_peripheral/Source/gd32f10x_sdio.c ****       \arg        SDIO_INT_FLAG_TFH: SDIO TFH interrupt
 593:Drivers/GD32F1xx_standard_peripheral/Source/gd32f10x_sdio.c ****       \arg        SDIO_INT_FLAG_RFH: SDIO RFH interrupt
 594:Drivers/GD32F1xx_standard_peripheral/Source/gd32f10x_sdio.c ****       \arg        SDIO_INT_FLAG_TFF: SDIO TFF interrupt
 595:Drivers/GD32F1xx_standard_peripheral/Source/gd32f10x_sdio.c ****       \arg        SDIO_INT_FLAG_RFF: SDIO RFF interrupt
 596:Drivers/GD32F1xx_standard_peripheral/Source/gd32f10x_sdio.c ****       \arg        SDIO_INT_FLAG_TFE: SDIO TFE interrupt
 597:Drivers/GD32F1xx_standard_peripheral/Source/gd32f10x_sdio.c ****       \arg        SDIO_INT_FLAG_RFE: SDIO RFE interrupt
 598:Drivers/GD32F1xx_standard_peripheral/Source/gd32f10x_sdio.c ****       \arg        SDIO_INT_FLAG_TXDTVAL: SDIO TXDTVAL interrupt
 599:Drivers/GD32F1xx_standard_peripheral/Source/gd32f10x_sdio.c ****       \arg        SDIO_INT_FLAG_RXDTVAL: SDIO RXDTVAL interrupt
 600:Drivers/GD32F1xx_standard_peripheral/Source/gd32f10x_sdio.c ****       \arg        SDIO_INT_FLAG_SDIOINT: SDIO SDIOINT interrupt
 601:Drivers/GD32F1xx_standard_peripheral/Source/gd32f10x_sdio.c ****       \arg        SDIO_INT_FLAG_ATAEND: SDIO ATAEND interrupt
 602:Drivers/GD32F1xx_standard_peripheral/Source/gd32f10x_sdio.c ****     \param[out] none
 603:Drivers/GD32F1xx_standard_peripheral/Source/gd32f10x_sdio.c ****     \retval     FlagStatus: SET or RESET
 604:Drivers/GD32F1xx_standard_peripheral/Source/gd32f10x_sdio.c **** */
 605:Drivers/GD32F1xx_standard_peripheral/Source/gd32f10x_sdio.c **** FlagStatus sdio_interrupt_flag_get(uint32_t int_flag)
 606:Drivers/GD32F1xx_standard_peripheral/Source/gd32f10x_sdio.c **** {
 1031              		.loc 1 606 0
 1032              		.cfi_startproc
 1033              		@ args = 0, pretend = 0, frame = 0
 1034              		@ frame_needed = 0, uses_anonymous_args = 0
 1035              		@ link register save eliminated.
 1036              	.LVL50:
 607:Drivers/GD32F1xx_standard_peripheral/Source/gd32f10x_sdio.c ****     uint32_t state = 0U;
 608:Drivers/GD32F1xx_standard_peripheral/Source/gd32f10x_sdio.c ****     state = SDIO_STAT;
 1037              		.loc 1 608 0
 1038 0000 064B     		ldr	r3, .L105
 1039 0002 1B68     		ldr	r3, [r3]
 1040              	.LVL51:
 609:Drivers/GD32F1xx_standard_peripheral/Source/gd32f10x_sdio.c ****     if(state & int_flag){
 1041              		.loc 1 609 0
 1042 0004 0342     		tst	r3, r0
 1043 0006 05D0     		beq	.L103
 610:Drivers/GD32F1xx_standard_peripheral/Source/gd32f10x_sdio.c ****         state = SDIO_INTEN;
ARM GAS  /tmp/ccmXVnoL.s 			page 29


 1044              		.loc 1 610 0
 1045 0008 054B     		ldr	r3, .L105+4
 1046              	.LVL52:
 1047 000a 1B68     		ldr	r3, [r3]
 1048              	.LVL53:
 611:Drivers/GD32F1xx_standard_peripheral/Source/gd32f10x_sdio.c ****         /* check whether the corresponding bit in SDIO_INTEN is set or not */
 612:Drivers/GD32F1xx_standard_peripheral/Source/gd32f10x_sdio.c ****         if(state & int_flag){
 1049              		.loc 1 612 0
 1050 000c 1842     		tst	r0, r3
 1051 000e 03D1     		bne	.L104
 613:Drivers/GD32F1xx_standard_peripheral/Source/gd32f10x_sdio.c ****             return SET;
 614:Drivers/GD32F1xx_standard_peripheral/Source/gd32f10x_sdio.c ****         }
 615:Drivers/GD32F1xx_standard_peripheral/Source/gd32f10x_sdio.c ****     }
 616:Drivers/GD32F1xx_standard_peripheral/Source/gd32f10x_sdio.c ****     return RESET;
 1052              		.loc 1 616 0
 1053 0010 0020     		movs	r0, #0
 1054              	.LVL54:
 1055 0012 7047     		bx	lr
 1056              	.LVL55:
 1057              	.L103:
 1058 0014 0020     		movs	r0, #0
 1059              	.LVL56:
 1060 0016 7047     		bx	lr
 1061              	.LVL57:
 1062              	.L104:
 613:Drivers/GD32F1xx_standard_peripheral/Source/gd32f10x_sdio.c ****             return SET;
 1063              		.loc 1 613 0
 1064 0018 0120     		movs	r0, #1
 1065              	.LVL58:
 617:Drivers/GD32F1xx_standard_peripheral/Source/gd32f10x_sdio.c **** }
 1066              		.loc 1 617 0
 1067 001a 7047     		bx	lr
 1068              	.L106:
 1069              		.align	2
 1070              	.L105:
 1071 001c 34800140 		.word	1073840180
 1072 0020 3C800140 		.word	1073840188
 1073              		.cfi_endproc
 1074              	.LFE94:
 1076              		.section	.text.sdio_interrupt_flag_clear,"ax",%progbits
 1077              		.align	1
 1078              		.global	sdio_interrupt_flag_clear
 1079              		.syntax unified
 1080              		.thumb
 1081              		.thumb_func
 1082              		.fpu softvfp
 1084              	sdio_interrupt_flag_clear:
 1085              	.LFB95:
 618:Drivers/GD32F1xx_standard_peripheral/Source/gd32f10x_sdio.c **** 
 619:Drivers/GD32F1xx_standard_peripheral/Source/gd32f10x_sdio.c **** /*!
 620:Drivers/GD32F1xx_standard_peripheral/Source/gd32f10x_sdio.c ****     \brief      clear the interrupt pending flags of SDIO
 621:Drivers/GD32F1xx_standard_peripheral/Source/gd32f10x_sdio.c ****     \param[in]  int_flag: interrupt flags state of SDIO
 622:Drivers/GD32F1xx_standard_peripheral/Source/gd32f10x_sdio.c ****                 only one parameter can be selected which is shown as below:
 623:Drivers/GD32F1xx_standard_peripheral/Source/gd32f10x_sdio.c ****       \arg        SDIO_INT_FLAG_CCRCERR: command response received (CRC check failed) flag
 624:Drivers/GD32F1xx_standard_peripheral/Source/gd32f10x_sdio.c ****       \arg        SDIO_INT_FLAG_DTCRCERR: data block sent/received (CRC check failed) flag
 625:Drivers/GD32F1xx_standard_peripheral/Source/gd32f10x_sdio.c ****       \arg        SDIO_INT_FLAG_CMDTMOUT: command response timeout flag
 626:Drivers/GD32F1xx_standard_peripheral/Source/gd32f10x_sdio.c ****       \arg        SDIO_INT_FLAG_DTTMOUT: data timeout flag
ARM GAS  /tmp/ccmXVnoL.s 			page 30


 627:Drivers/GD32F1xx_standard_peripheral/Source/gd32f10x_sdio.c ****       \arg        SDIO_INT_FLAG_TXURE: transmit FIFO underrun error occurs flag
 628:Drivers/GD32F1xx_standard_peripheral/Source/gd32f10x_sdio.c ****       \arg        SDIO_INT_FLAG_RXORE: received FIFO overrun error occurs flag
 629:Drivers/GD32F1xx_standard_peripheral/Source/gd32f10x_sdio.c ****       \arg        SDIO_INT_FLAG_CMDRECV: command response received (CRC check passed) flag
 630:Drivers/GD32F1xx_standard_peripheral/Source/gd32f10x_sdio.c ****       \arg        SDIO_INT_FLAG_CMDSEND: command sent (no response required) flag
 631:Drivers/GD32F1xx_standard_peripheral/Source/gd32f10x_sdio.c ****       \arg        SDIO_INT_FLAG_DTEND: data end (data counter, SDIO_DATACNT, is zero) flag
 632:Drivers/GD32F1xx_standard_peripheral/Source/gd32f10x_sdio.c ****       \arg        SDIO_INT_FLAG_STBITE: start bit error in the bus flag
 633:Drivers/GD32F1xx_standard_peripheral/Source/gd32f10x_sdio.c ****       \arg        SDIO_INT_FLAG_DTBLKEND: data block sent/received (CRC check passed) flag
 634:Drivers/GD32F1xx_standard_peripheral/Source/gd32f10x_sdio.c ****       \arg        SDIO_INT_FLAG_SDIOINT: SD I/O interrupt received flag
 635:Drivers/GD32F1xx_standard_peripheral/Source/gd32f10x_sdio.c ****       \arg        SDIO_INT_FLAG_ATAEND: CE-ATA command completion signal received (only for CMD61) 
 636:Drivers/GD32F1xx_standard_peripheral/Source/gd32f10x_sdio.c ****     \param[out] none
 637:Drivers/GD32F1xx_standard_peripheral/Source/gd32f10x_sdio.c ****     \retval     none
 638:Drivers/GD32F1xx_standard_peripheral/Source/gd32f10x_sdio.c **** */
 639:Drivers/GD32F1xx_standard_peripheral/Source/gd32f10x_sdio.c **** void sdio_interrupt_flag_clear(uint32_t int_flag)
 640:Drivers/GD32F1xx_standard_peripheral/Source/gd32f10x_sdio.c **** {
 1086              		.loc 1 640 0
 1087              		.cfi_startproc
 1088              		@ args = 0, pretend = 0, frame = 0
 1089              		@ frame_needed = 0, uses_anonymous_args = 0
 1090              		@ link register save eliminated.
 1091              	.LVL59:
 641:Drivers/GD32F1xx_standard_peripheral/Source/gd32f10x_sdio.c ****     SDIO_INTC = int_flag;
 1092              		.loc 1 641 0
 1093 0000 014B     		ldr	r3, .L108
 1094 0002 1860     		str	r0, [r3]
 1095 0004 7047     		bx	lr
 1096              	.L109:
 1097 0006 00BF     		.align	2
 1098              	.L108:
 1099 0008 38800140 		.word	1073840184
 1100              		.cfi_endproc
 1101              	.LFE95:
 1103              		.section	.text.sdio_readwait_enable,"ax",%progbits
 1104              		.align	1
 1105              		.global	sdio_readwait_enable
 1106              		.syntax unified
 1107              		.thumb
 1108              		.thumb_func
 1109              		.fpu softvfp
 1111              	sdio_readwait_enable:
 1112              	.LFB96:
 642:Drivers/GD32F1xx_standard_peripheral/Source/gd32f10x_sdio.c **** }
 643:Drivers/GD32F1xx_standard_peripheral/Source/gd32f10x_sdio.c **** 
 644:Drivers/GD32F1xx_standard_peripheral/Source/gd32f10x_sdio.c **** /*!
 645:Drivers/GD32F1xx_standard_peripheral/Source/gd32f10x_sdio.c ****     \brief      enable the read wait mode(SD I/O only)
 646:Drivers/GD32F1xx_standard_peripheral/Source/gd32f10x_sdio.c ****     \param[in]  none
 647:Drivers/GD32F1xx_standard_peripheral/Source/gd32f10x_sdio.c ****     \param[out] none
 648:Drivers/GD32F1xx_standard_peripheral/Source/gd32f10x_sdio.c ****     \retval     none
 649:Drivers/GD32F1xx_standard_peripheral/Source/gd32f10x_sdio.c **** */
 650:Drivers/GD32F1xx_standard_peripheral/Source/gd32f10x_sdio.c **** void sdio_readwait_enable(void)
 651:Drivers/GD32F1xx_standard_peripheral/Source/gd32f10x_sdio.c **** {
 1113              		.loc 1 651 0
 1114              		.cfi_startproc
 1115              		@ args = 0, pretend = 0, frame = 0
 1116              		@ frame_needed = 0, uses_anonymous_args = 0
 1117              		@ link register save eliminated.
 652:Drivers/GD32F1xx_standard_peripheral/Source/gd32f10x_sdio.c ****     SDIO_DATACTL |= SDIO_DATACTL_RWEN;
 1118              		.loc 1 652 0
ARM GAS  /tmp/ccmXVnoL.s 			page 31


 1119 0000 024A     		ldr	r2, .L111
 1120 0002 1368     		ldr	r3, [r2]
 1121 0004 43F48073 		orr	r3, r3, #256
 1122 0008 1360     		str	r3, [r2]
 1123 000a 7047     		bx	lr
 1124              	.L112:
 1125              		.align	2
 1126              	.L111:
 1127 000c 2C800140 		.word	1073840172
 1128              		.cfi_endproc
 1129              	.LFE96:
 1131              		.section	.text.sdio_readwait_disable,"ax",%progbits
 1132              		.align	1
 1133              		.global	sdio_readwait_disable
 1134              		.syntax unified
 1135              		.thumb
 1136              		.thumb_func
 1137              		.fpu softvfp
 1139              	sdio_readwait_disable:
 1140              	.LFB97:
 653:Drivers/GD32F1xx_standard_peripheral/Source/gd32f10x_sdio.c **** }
 654:Drivers/GD32F1xx_standard_peripheral/Source/gd32f10x_sdio.c **** 
 655:Drivers/GD32F1xx_standard_peripheral/Source/gd32f10x_sdio.c **** /*!
 656:Drivers/GD32F1xx_standard_peripheral/Source/gd32f10x_sdio.c ****     \brief      disable the read wait mode(SD I/O only)
 657:Drivers/GD32F1xx_standard_peripheral/Source/gd32f10x_sdio.c ****     \param[in]  none
 658:Drivers/GD32F1xx_standard_peripheral/Source/gd32f10x_sdio.c ****     \param[out] none
 659:Drivers/GD32F1xx_standard_peripheral/Source/gd32f10x_sdio.c ****     \retval     none
 660:Drivers/GD32F1xx_standard_peripheral/Source/gd32f10x_sdio.c **** */
 661:Drivers/GD32F1xx_standard_peripheral/Source/gd32f10x_sdio.c **** void sdio_readwait_disable(void)
 662:Drivers/GD32F1xx_standard_peripheral/Source/gd32f10x_sdio.c **** {
 1141              		.loc 1 662 0
 1142              		.cfi_startproc
 1143              		@ args = 0, pretend = 0, frame = 0
 1144              		@ frame_needed = 0, uses_anonymous_args = 0
 1145              		@ link register save eliminated.
 663:Drivers/GD32F1xx_standard_peripheral/Source/gd32f10x_sdio.c ****     SDIO_DATACTL &= ~SDIO_DATACTL_RWEN;
 1146              		.loc 1 663 0
 1147 0000 024A     		ldr	r2, .L114
 1148 0002 1368     		ldr	r3, [r2]
 1149 0004 23F48073 		bic	r3, r3, #256
 1150 0008 1360     		str	r3, [r2]
 1151 000a 7047     		bx	lr
 1152              	.L115:
 1153              		.align	2
 1154              	.L114:
 1155 000c 2C800140 		.word	1073840172
 1156              		.cfi_endproc
 1157              	.LFE97:
 1159              		.section	.text.sdio_stop_readwait_enable,"ax",%progbits
 1160              		.align	1
 1161              		.global	sdio_stop_readwait_enable
 1162              		.syntax unified
 1163              		.thumb
 1164              		.thumb_func
 1165              		.fpu softvfp
 1167              	sdio_stop_readwait_enable:
 1168              	.LFB98:
ARM GAS  /tmp/ccmXVnoL.s 			page 32


 664:Drivers/GD32F1xx_standard_peripheral/Source/gd32f10x_sdio.c **** }
 665:Drivers/GD32F1xx_standard_peripheral/Source/gd32f10x_sdio.c **** 
 666:Drivers/GD32F1xx_standard_peripheral/Source/gd32f10x_sdio.c **** /*!
 667:Drivers/GD32F1xx_standard_peripheral/Source/gd32f10x_sdio.c ****     \brief      enable the function that stop the read wait process(SD I/O only)
 668:Drivers/GD32F1xx_standard_peripheral/Source/gd32f10x_sdio.c ****     \param[in]  none
 669:Drivers/GD32F1xx_standard_peripheral/Source/gd32f10x_sdio.c ****     \param[out] none
 670:Drivers/GD32F1xx_standard_peripheral/Source/gd32f10x_sdio.c ****     \retval     none
 671:Drivers/GD32F1xx_standard_peripheral/Source/gd32f10x_sdio.c **** */
 672:Drivers/GD32F1xx_standard_peripheral/Source/gd32f10x_sdio.c **** void sdio_stop_readwait_enable(void)
 673:Drivers/GD32F1xx_standard_peripheral/Source/gd32f10x_sdio.c **** {
 1169              		.loc 1 673 0
 1170              		.cfi_startproc
 1171              		@ args = 0, pretend = 0, frame = 0
 1172              		@ frame_needed = 0, uses_anonymous_args = 0
 1173              		@ link register save eliminated.
 674:Drivers/GD32F1xx_standard_peripheral/Source/gd32f10x_sdio.c ****     SDIO_DATACTL |= SDIO_DATACTL_RWSTOP;
 1174              		.loc 1 674 0
 1175 0000 024A     		ldr	r2, .L117
 1176 0002 1368     		ldr	r3, [r2]
 1177 0004 43F40073 		orr	r3, r3, #512
 1178 0008 1360     		str	r3, [r2]
 1179 000a 7047     		bx	lr
 1180              	.L118:
 1181              		.align	2
 1182              	.L117:
 1183 000c 2C800140 		.word	1073840172
 1184              		.cfi_endproc
 1185              	.LFE98:
 1187              		.section	.text.sdio_stop_readwait_disable,"ax",%progbits
 1188              		.align	1
 1189              		.global	sdio_stop_readwait_disable
 1190              		.syntax unified
 1191              		.thumb
 1192              		.thumb_func
 1193              		.fpu softvfp
 1195              	sdio_stop_readwait_disable:
 1196              	.LFB99:
 675:Drivers/GD32F1xx_standard_peripheral/Source/gd32f10x_sdio.c **** }
 676:Drivers/GD32F1xx_standard_peripheral/Source/gd32f10x_sdio.c **** 
 677:Drivers/GD32F1xx_standard_peripheral/Source/gd32f10x_sdio.c **** /*!
 678:Drivers/GD32F1xx_standard_peripheral/Source/gd32f10x_sdio.c ****     \brief      disable the function that stop the read wait process(SD I/O only)
 679:Drivers/GD32F1xx_standard_peripheral/Source/gd32f10x_sdio.c ****     \param[in]  none
 680:Drivers/GD32F1xx_standard_peripheral/Source/gd32f10x_sdio.c ****     \param[out] none
 681:Drivers/GD32F1xx_standard_peripheral/Source/gd32f10x_sdio.c ****     \retval     none
 682:Drivers/GD32F1xx_standard_peripheral/Source/gd32f10x_sdio.c **** */
 683:Drivers/GD32F1xx_standard_peripheral/Source/gd32f10x_sdio.c **** void sdio_stop_readwait_disable(void)
 684:Drivers/GD32F1xx_standard_peripheral/Source/gd32f10x_sdio.c **** {
 1197              		.loc 1 684 0
 1198              		.cfi_startproc
 1199              		@ args = 0, pretend = 0, frame = 0
 1200              		@ frame_needed = 0, uses_anonymous_args = 0
 1201              		@ link register save eliminated.
 685:Drivers/GD32F1xx_standard_peripheral/Source/gd32f10x_sdio.c ****     SDIO_DATACTL &= ~SDIO_DATACTL_RWSTOP;
 1202              		.loc 1 685 0
 1203 0000 024A     		ldr	r2, .L120
 1204 0002 1368     		ldr	r3, [r2]
 1205 0004 23F40073 		bic	r3, r3, #512
ARM GAS  /tmp/ccmXVnoL.s 			page 33


 1206 0008 1360     		str	r3, [r2]
 1207 000a 7047     		bx	lr
 1208              	.L121:
 1209              		.align	2
 1210              	.L120:
 1211 000c 2C800140 		.word	1073840172
 1212              		.cfi_endproc
 1213              	.LFE99:
 1215              		.section	.text.sdio_readwait_type_set,"ax",%progbits
 1216              		.align	1
 1217              		.global	sdio_readwait_type_set
 1218              		.syntax unified
 1219              		.thumb
 1220              		.thumb_func
 1221              		.fpu softvfp
 1223              	sdio_readwait_type_set:
 1224              	.LFB100:
 686:Drivers/GD32F1xx_standard_peripheral/Source/gd32f10x_sdio.c **** }
 687:Drivers/GD32F1xx_standard_peripheral/Source/gd32f10x_sdio.c **** 
 688:Drivers/GD32F1xx_standard_peripheral/Source/gd32f10x_sdio.c **** /*!
 689:Drivers/GD32F1xx_standard_peripheral/Source/gd32f10x_sdio.c ****     \brief      set the read wait type(SD I/O only)
 690:Drivers/GD32F1xx_standard_peripheral/Source/gd32f10x_sdio.c ****     \param[in]  readwait_type: SD I/O read wait type
 691:Drivers/GD32F1xx_standard_peripheral/Source/gd32f10x_sdio.c ****                 only one parameter can be selected which is shown as below:
 692:Drivers/GD32F1xx_standard_peripheral/Source/gd32f10x_sdio.c ****       \arg        SDIO_READWAITTYPE_CLK: read wait control by stopping SDIO_CLK
 693:Drivers/GD32F1xx_standard_peripheral/Source/gd32f10x_sdio.c ****       \arg        SDIO_READWAITTYPE_DAT2: read wait control using SDIO_DAT[2]
 694:Drivers/GD32F1xx_standard_peripheral/Source/gd32f10x_sdio.c ****     \param[out] none
 695:Drivers/GD32F1xx_standard_peripheral/Source/gd32f10x_sdio.c ****     \retval     none
 696:Drivers/GD32F1xx_standard_peripheral/Source/gd32f10x_sdio.c **** */
 697:Drivers/GD32F1xx_standard_peripheral/Source/gd32f10x_sdio.c **** void sdio_readwait_type_set(uint32_t readwait_type)
 698:Drivers/GD32F1xx_standard_peripheral/Source/gd32f10x_sdio.c **** {
 1225              		.loc 1 698 0
 1226              		.cfi_startproc
 1227              		@ args = 0, pretend = 0, frame = 0
 1228              		@ frame_needed = 0, uses_anonymous_args = 0
 1229              		@ link register save eliminated.
 1230              	.LVL60:
 699:Drivers/GD32F1xx_standard_peripheral/Source/gd32f10x_sdio.c ****     if(SDIO_READWAITTYPE_CLK == readwait_type){
 1231              		.loc 1 699 0
 1232 0000 B0F5806F 		cmp	r0, #1024
 1233 0004 05D0     		beq	.L125
 700:Drivers/GD32F1xx_standard_peripheral/Source/gd32f10x_sdio.c ****         SDIO_DATACTL |= SDIO_DATACTL_RWTYPE;
 701:Drivers/GD32F1xx_standard_peripheral/Source/gd32f10x_sdio.c ****     }else{
 702:Drivers/GD32F1xx_standard_peripheral/Source/gd32f10x_sdio.c ****         SDIO_DATACTL &= ~SDIO_DATACTL_RWTYPE;
 1234              		.loc 1 702 0
 1235 0006 064A     		ldr	r2, .L126
 1236 0008 1368     		ldr	r3, [r2]
 1237 000a 23F48063 		bic	r3, r3, #1024
 1238 000e 1360     		str	r3, [r2]
 1239 0010 7047     		bx	lr
 1240              	.L125:
 700:Drivers/GD32F1xx_standard_peripheral/Source/gd32f10x_sdio.c ****         SDIO_DATACTL |= SDIO_DATACTL_RWTYPE;
 1241              		.loc 1 700 0
 1242 0012 034A     		ldr	r2, .L126
 1243 0014 1368     		ldr	r3, [r2]
 1244 0016 43F48063 		orr	r3, r3, #1024
 1245 001a 1360     		str	r3, [r2]
 1246 001c 7047     		bx	lr
ARM GAS  /tmp/ccmXVnoL.s 			page 34


 1247              	.L127:
 1248 001e 00BF     		.align	2
 1249              	.L126:
 1250 0020 2C800140 		.word	1073840172
 1251              		.cfi_endproc
 1252              	.LFE100:
 1254              		.section	.text.sdio_operation_enable,"ax",%progbits
 1255              		.align	1
 1256              		.global	sdio_operation_enable
 1257              		.syntax unified
 1258              		.thumb
 1259              		.thumb_func
 1260              		.fpu softvfp
 1262              	sdio_operation_enable:
 1263              	.LFB101:
 703:Drivers/GD32F1xx_standard_peripheral/Source/gd32f10x_sdio.c ****     }
 704:Drivers/GD32F1xx_standard_peripheral/Source/gd32f10x_sdio.c **** }
 705:Drivers/GD32F1xx_standard_peripheral/Source/gd32f10x_sdio.c **** 
 706:Drivers/GD32F1xx_standard_peripheral/Source/gd32f10x_sdio.c **** /*!
 707:Drivers/GD32F1xx_standard_peripheral/Source/gd32f10x_sdio.c ****     \brief      enable the SD I/O mode specific operation(SD I/O only)
 708:Drivers/GD32F1xx_standard_peripheral/Source/gd32f10x_sdio.c ****     \param[in]  none
 709:Drivers/GD32F1xx_standard_peripheral/Source/gd32f10x_sdio.c ****     \param[out] none
 710:Drivers/GD32F1xx_standard_peripheral/Source/gd32f10x_sdio.c ****     \retval     none
 711:Drivers/GD32F1xx_standard_peripheral/Source/gd32f10x_sdio.c **** */
 712:Drivers/GD32F1xx_standard_peripheral/Source/gd32f10x_sdio.c **** void sdio_operation_enable(void)
 713:Drivers/GD32F1xx_standard_peripheral/Source/gd32f10x_sdio.c **** {
 1264              		.loc 1 713 0
 1265              		.cfi_startproc
 1266              		@ args = 0, pretend = 0, frame = 0
 1267              		@ frame_needed = 0, uses_anonymous_args = 0
 1268              		@ link register save eliminated.
 714:Drivers/GD32F1xx_standard_peripheral/Source/gd32f10x_sdio.c ****     SDIO_DATACTL |= SDIO_DATACTL_IOEN;
 1269              		.loc 1 714 0
 1270 0000 024A     		ldr	r2, .L129
 1271 0002 1368     		ldr	r3, [r2]
 1272 0004 43F40063 		orr	r3, r3, #2048
 1273 0008 1360     		str	r3, [r2]
 1274 000a 7047     		bx	lr
 1275              	.L130:
 1276              		.align	2
 1277              	.L129:
 1278 000c 2C800140 		.word	1073840172
 1279              		.cfi_endproc
 1280              	.LFE101:
 1282              		.section	.text.sdio_operation_disable,"ax",%progbits
 1283              		.align	1
 1284              		.global	sdio_operation_disable
 1285              		.syntax unified
 1286              		.thumb
 1287              		.thumb_func
 1288              		.fpu softvfp
 1290              	sdio_operation_disable:
 1291              	.LFB102:
 715:Drivers/GD32F1xx_standard_peripheral/Source/gd32f10x_sdio.c **** }
 716:Drivers/GD32F1xx_standard_peripheral/Source/gd32f10x_sdio.c **** 
 717:Drivers/GD32F1xx_standard_peripheral/Source/gd32f10x_sdio.c **** /*!
 718:Drivers/GD32F1xx_standard_peripheral/Source/gd32f10x_sdio.c ****     \brief      disable the SD I/O mode specific operation(SD I/O only)
ARM GAS  /tmp/ccmXVnoL.s 			page 35


 719:Drivers/GD32F1xx_standard_peripheral/Source/gd32f10x_sdio.c ****     \param[in]  none
 720:Drivers/GD32F1xx_standard_peripheral/Source/gd32f10x_sdio.c ****     \param[out] none
 721:Drivers/GD32F1xx_standard_peripheral/Source/gd32f10x_sdio.c ****     \retval     none
 722:Drivers/GD32F1xx_standard_peripheral/Source/gd32f10x_sdio.c **** */
 723:Drivers/GD32F1xx_standard_peripheral/Source/gd32f10x_sdio.c **** void sdio_operation_disable(void)
 724:Drivers/GD32F1xx_standard_peripheral/Source/gd32f10x_sdio.c **** {
 1292              		.loc 1 724 0
 1293              		.cfi_startproc
 1294              		@ args = 0, pretend = 0, frame = 0
 1295              		@ frame_needed = 0, uses_anonymous_args = 0
 1296              		@ link register save eliminated.
 725:Drivers/GD32F1xx_standard_peripheral/Source/gd32f10x_sdio.c ****     SDIO_DATACTL &= ~SDIO_DATACTL_IOEN;
 1297              		.loc 1 725 0
 1298 0000 024A     		ldr	r2, .L132
 1299 0002 1368     		ldr	r3, [r2]
 1300 0004 23F40063 		bic	r3, r3, #2048
 1301 0008 1360     		str	r3, [r2]
 1302 000a 7047     		bx	lr
 1303              	.L133:
 1304              		.align	2
 1305              	.L132:
 1306 000c 2C800140 		.word	1073840172
 1307              		.cfi_endproc
 1308              	.LFE102:
 1310              		.section	.text.sdio_suspend_enable,"ax",%progbits
 1311              		.align	1
 1312              		.global	sdio_suspend_enable
 1313              		.syntax unified
 1314              		.thumb
 1315              		.thumb_func
 1316              		.fpu softvfp
 1318              	sdio_suspend_enable:
 1319              	.LFB103:
 726:Drivers/GD32F1xx_standard_peripheral/Source/gd32f10x_sdio.c **** }
 727:Drivers/GD32F1xx_standard_peripheral/Source/gd32f10x_sdio.c **** 
 728:Drivers/GD32F1xx_standard_peripheral/Source/gd32f10x_sdio.c **** /*!
 729:Drivers/GD32F1xx_standard_peripheral/Source/gd32f10x_sdio.c ****     \brief      enable the SD I/O suspend operation(SD I/O only)
 730:Drivers/GD32F1xx_standard_peripheral/Source/gd32f10x_sdio.c ****     \param[in]  none
 731:Drivers/GD32F1xx_standard_peripheral/Source/gd32f10x_sdio.c ****     \param[out] none
 732:Drivers/GD32F1xx_standard_peripheral/Source/gd32f10x_sdio.c ****     \retval     none
 733:Drivers/GD32F1xx_standard_peripheral/Source/gd32f10x_sdio.c **** */
 734:Drivers/GD32F1xx_standard_peripheral/Source/gd32f10x_sdio.c **** void sdio_suspend_enable(void)
 735:Drivers/GD32F1xx_standard_peripheral/Source/gd32f10x_sdio.c **** {
 1320              		.loc 1 735 0
 1321              		.cfi_startproc
 1322              		@ args = 0, pretend = 0, frame = 0
 1323              		@ frame_needed = 0, uses_anonymous_args = 0
 1324              		@ link register save eliminated.
 736:Drivers/GD32F1xx_standard_peripheral/Source/gd32f10x_sdio.c ****     SDIO_CMDCTL |= SDIO_CMDCTL_SUSPEND;
 1325              		.loc 1 736 0
 1326 0000 024A     		ldr	r2, .L135
 1327 0002 1368     		ldr	r3, [r2]
 1328 0004 43F40063 		orr	r3, r3, #2048
 1329 0008 1360     		str	r3, [r2]
 1330 000a 7047     		bx	lr
 1331              	.L136:
 1332              		.align	2
ARM GAS  /tmp/ccmXVnoL.s 			page 36


 1333              	.L135:
 1334 000c 0C800140 		.word	1073840140
 1335              		.cfi_endproc
 1336              	.LFE103:
 1338              		.section	.text.sdio_suspend_disable,"ax",%progbits
 1339              		.align	1
 1340              		.global	sdio_suspend_disable
 1341              		.syntax unified
 1342              		.thumb
 1343              		.thumb_func
 1344              		.fpu softvfp
 1346              	sdio_suspend_disable:
 1347              	.LFB104:
 737:Drivers/GD32F1xx_standard_peripheral/Source/gd32f10x_sdio.c **** }
 738:Drivers/GD32F1xx_standard_peripheral/Source/gd32f10x_sdio.c **** 
 739:Drivers/GD32F1xx_standard_peripheral/Source/gd32f10x_sdio.c **** /*!
 740:Drivers/GD32F1xx_standard_peripheral/Source/gd32f10x_sdio.c ****     \brief      disable the SD I/O suspend operation(SD I/O only)
 741:Drivers/GD32F1xx_standard_peripheral/Source/gd32f10x_sdio.c ****     \param[in]  none
 742:Drivers/GD32F1xx_standard_peripheral/Source/gd32f10x_sdio.c ****     \param[out] none
 743:Drivers/GD32F1xx_standard_peripheral/Source/gd32f10x_sdio.c ****     \retval     none
 744:Drivers/GD32F1xx_standard_peripheral/Source/gd32f10x_sdio.c **** */
 745:Drivers/GD32F1xx_standard_peripheral/Source/gd32f10x_sdio.c **** void sdio_suspend_disable(void)
 746:Drivers/GD32F1xx_standard_peripheral/Source/gd32f10x_sdio.c **** {
 1348              		.loc 1 746 0
 1349              		.cfi_startproc
 1350              		@ args = 0, pretend = 0, frame = 0
 1351              		@ frame_needed = 0, uses_anonymous_args = 0
 1352              		@ link register save eliminated.
 747:Drivers/GD32F1xx_standard_peripheral/Source/gd32f10x_sdio.c ****     SDIO_CMDCTL &= ~SDIO_CMDCTL_SUSPEND;
 1353              		.loc 1 747 0
 1354 0000 024A     		ldr	r2, .L138
 1355 0002 1368     		ldr	r3, [r2]
 1356 0004 23F40063 		bic	r3, r3, #2048
 1357 0008 1360     		str	r3, [r2]
 1358 000a 7047     		bx	lr
 1359              	.L139:
 1360              		.align	2
 1361              	.L138:
 1362 000c 0C800140 		.word	1073840140
 1363              		.cfi_endproc
 1364              	.LFE104:
 1366              		.section	.text.sdio_ceata_command_enable,"ax",%progbits
 1367              		.align	1
 1368              		.global	sdio_ceata_command_enable
 1369              		.syntax unified
 1370              		.thumb
 1371              		.thumb_func
 1372              		.fpu softvfp
 1374              	sdio_ceata_command_enable:
 1375              	.LFB105:
 748:Drivers/GD32F1xx_standard_peripheral/Source/gd32f10x_sdio.c **** }
 749:Drivers/GD32F1xx_standard_peripheral/Source/gd32f10x_sdio.c **** 
 750:Drivers/GD32F1xx_standard_peripheral/Source/gd32f10x_sdio.c **** /*!
 751:Drivers/GD32F1xx_standard_peripheral/Source/gd32f10x_sdio.c ****     \brief      enable the CE-ATA command(CE-ATA only)
 752:Drivers/GD32F1xx_standard_peripheral/Source/gd32f10x_sdio.c ****     \param[in]  none
 753:Drivers/GD32F1xx_standard_peripheral/Source/gd32f10x_sdio.c ****     \param[out] none
 754:Drivers/GD32F1xx_standard_peripheral/Source/gd32f10x_sdio.c ****     \retval     none
ARM GAS  /tmp/ccmXVnoL.s 			page 37


 755:Drivers/GD32F1xx_standard_peripheral/Source/gd32f10x_sdio.c **** */
 756:Drivers/GD32F1xx_standard_peripheral/Source/gd32f10x_sdio.c **** void sdio_ceata_command_enable(void)
 757:Drivers/GD32F1xx_standard_peripheral/Source/gd32f10x_sdio.c **** {
 1376              		.loc 1 757 0
 1377              		.cfi_startproc
 1378              		@ args = 0, pretend = 0, frame = 0
 1379              		@ frame_needed = 0, uses_anonymous_args = 0
 1380              		@ link register save eliminated.
 758:Drivers/GD32F1xx_standard_peripheral/Source/gd32f10x_sdio.c ****     SDIO_CMDCTL |= SDIO_CMDCTL_ATAEN;
 1381              		.loc 1 758 0
 1382 0000 024A     		ldr	r2, .L141
 1383 0002 1368     		ldr	r3, [r2]
 1384 0004 43F48043 		orr	r3, r3, #16384
 1385 0008 1360     		str	r3, [r2]
 1386 000a 7047     		bx	lr
 1387              	.L142:
 1388              		.align	2
 1389              	.L141:
 1390 000c 0C800140 		.word	1073840140
 1391              		.cfi_endproc
 1392              	.LFE105:
 1394              		.section	.text.sdio_ceata_command_disable,"ax",%progbits
 1395              		.align	1
 1396              		.global	sdio_ceata_command_disable
 1397              		.syntax unified
 1398              		.thumb
 1399              		.thumb_func
 1400              		.fpu softvfp
 1402              	sdio_ceata_command_disable:
 1403              	.LFB106:
 759:Drivers/GD32F1xx_standard_peripheral/Source/gd32f10x_sdio.c **** }
 760:Drivers/GD32F1xx_standard_peripheral/Source/gd32f10x_sdio.c **** 
 761:Drivers/GD32F1xx_standard_peripheral/Source/gd32f10x_sdio.c **** /*!
 762:Drivers/GD32F1xx_standard_peripheral/Source/gd32f10x_sdio.c ****     \brief      disable the CE-ATA command(CE-ATA only)
 763:Drivers/GD32F1xx_standard_peripheral/Source/gd32f10x_sdio.c ****     \param[in]  none
 764:Drivers/GD32F1xx_standard_peripheral/Source/gd32f10x_sdio.c ****     \param[out] none
 765:Drivers/GD32F1xx_standard_peripheral/Source/gd32f10x_sdio.c ****     \retval     none
 766:Drivers/GD32F1xx_standard_peripheral/Source/gd32f10x_sdio.c **** */
 767:Drivers/GD32F1xx_standard_peripheral/Source/gd32f10x_sdio.c **** void sdio_ceata_command_disable(void)
 768:Drivers/GD32F1xx_standard_peripheral/Source/gd32f10x_sdio.c **** {
 1404              		.loc 1 768 0
 1405              		.cfi_startproc
 1406              		@ args = 0, pretend = 0, frame = 0
 1407              		@ frame_needed = 0, uses_anonymous_args = 0
 1408              		@ link register save eliminated.
 769:Drivers/GD32F1xx_standard_peripheral/Source/gd32f10x_sdio.c ****     SDIO_CMDCTL &= ~SDIO_CMDCTL_ATAEN;
 1409              		.loc 1 769 0
 1410 0000 024A     		ldr	r2, .L144
 1411 0002 1368     		ldr	r3, [r2]
 1412 0004 23F48043 		bic	r3, r3, #16384
 1413 0008 1360     		str	r3, [r2]
 1414 000a 7047     		bx	lr
 1415              	.L145:
 1416              		.align	2
 1417              	.L144:
 1418 000c 0C800140 		.word	1073840140
 1419              		.cfi_endproc
ARM GAS  /tmp/ccmXVnoL.s 			page 38


 1420              	.LFE106:
 1422              		.section	.text.sdio_ceata_interrupt_enable,"ax",%progbits
 1423              		.align	1
 1424              		.global	sdio_ceata_interrupt_enable
 1425              		.syntax unified
 1426              		.thumb
 1427              		.thumb_func
 1428              		.fpu softvfp
 1430              	sdio_ceata_interrupt_enable:
 1431              	.LFB107:
 770:Drivers/GD32F1xx_standard_peripheral/Source/gd32f10x_sdio.c **** }
 771:Drivers/GD32F1xx_standard_peripheral/Source/gd32f10x_sdio.c **** 
 772:Drivers/GD32F1xx_standard_peripheral/Source/gd32f10x_sdio.c **** /*!
 773:Drivers/GD32F1xx_standard_peripheral/Source/gd32f10x_sdio.c ****     \brief      enable the CE-ATA interrupt(CE-ATA only)
 774:Drivers/GD32F1xx_standard_peripheral/Source/gd32f10x_sdio.c ****     \param[in]  none
 775:Drivers/GD32F1xx_standard_peripheral/Source/gd32f10x_sdio.c ****     \param[out] none
 776:Drivers/GD32F1xx_standard_peripheral/Source/gd32f10x_sdio.c ****     \retval     none
 777:Drivers/GD32F1xx_standard_peripheral/Source/gd32f10x_sdio.c **** */
 778:Drivers/GD32F1xx_standard_peripheral/Source/gd32f10x_sdio.c **** void sdio_ceata_interrupt_enable(void)
 779:Drivers/GD32F1xx_standard_peripheral/Source/gd32f10x_sdio.c **** {
 1432              		.loc 1 779 0
 1433              		.cfi_startproc
 1434              		@ args = 0, pretend = 0, frame = 0
 1435              		@ frame_needed = 0, uses_anonymous_args = 0
 1436              		@ link register save eliminated.
 780:Drivers/GD32F1xx_standard_peripheral/Source/gd32f10x_sdio.c ****     SDIO_CMDCTL &= ~SDIO_CMDCTL_NINTEN;
 1437              		.loc 1 780 0
 1438 0000 024A     		ldr	r2, .L147
 1439 0002 1368     		ldr	r3, [r2]
 1440 0004 23F40053 		bic	r3, r3, #8192
 1441 0008 1360     		str	r3, [r2]
 1442 000a 7047     		bx	lr
 1443              	.L148:
 1444              		.align	2
 1445              	.L147:
 1446 000c 0C800140 		.word	1073840140
 1447              		.cfi_endproc
 1448              	.LFE107:
 1450              		.section	.text.sdio_ceata_interrupt_disable,"ax",%progbits
 1451              		.align	1
 1452              		.global	sdio_ceata_interrupt_disable
 1453              		.syntax unified
 1454              		.thumb
 1455              		.thumb_func
 1456              		.fpu softvfp
 1458              	sdio_ceata_interrupt_disable:
 1459              	.LFB108:
 781:Drivers/GD32F1xx_standard_peripheral/Source/gd32f10x_sdio.c **** }
 782:Drivers/GD32F1xx_standard_peripheral/Source/gd32f10x_sdio.c **** 
 783:Drivers/GD32F1xx_standard_peripheral/Source/gd32f10x_sdio.c **** /*!
 784:Drivers/GD32F1xx_standard_peripheral/Source/gd32f10x_sdio.c ****     \brief      disable the CE-ATA interrupt(CE-ATA only)
 785:Drivers/GD32F1xx_standard_peripheral/Source/gd32f10x_sdio.c ****     \param[in]  none
 786:Drivers/GD32F1xx_standard_peripheral/Source/gd32f10x_sdio.c ****     \param[out] none
 787:Drivers/GD32F1xx_standard_peripheral/Source/gd32f10x_sdio.c ****     \retval     none
 788:Drivers/GD32F1xx_standard_peripheral/Source/gd32f10x_sdio.c **** */
 789:Drivers/GD32F1xx_standard_peripheral/Source/gd32f10x_sdio.c **** void sdio_ceata_interrupt_disable(void)
 790:Drivers/GD32F1xx_standard_peripheral/Source/gd32f10x_sdio.c **** {
ARM GAS  /tmp/ccmXVnoL.s 			page 39


 1460              		.loc 1 790 0
 1461              		.cfi_startproc
 1462              		@ args = 0, pretend = 0, frame = 0
 1463              		@ frame_needed = 0, uses_anonymous_args = 0
 1464              		@ link register save eliminated.
 791:Drivers/GD32F1xx_standard_peripheral/Source/gd32f10x_sdio.c ****     SDIO_CMDCTL |= SDIO_CMDCTL_NINTEN;
 1465              		.loc 1 791 0
 1466 0000 024A     		ldr	r2, .L150
 1467 0002 1368     		ldr	r3, [r2]
 1468 0004 43F40053 		orr	r3, r3, #8192
 1469 0008 1360     		str	r3, [r2]
 1470 000a 7047     		bx	lr
 1471              	.L151:
 1472              		.align	2
 1473              	.L150:
 1474 000c 0C800140 		.word	1073840140
 1475              		.cfi_endproc
 1476              	.LFE108:
 1478              		.section	.text.sdio_ceata_command_completion_enable,"ax",%progbits
 1479              		.align	1
 1480              		.global	sdio_ceata_command_completion_enable
 1481              		.syntax unified
 1482              		.thumb
 1483              		.thumb_func
 1484              		.fpu softvfp
 1486              	sdio_ceata_command_completion_enable:
 1487              	.LFB109:
 792:Drivers/GD32F1xx_standard_peripheral/Source/gd32f10x_sdio.c **** }
 793:Drivers/GD32F1xx_standard_peripheral/Source/gd32f10x_sdio.c **** 
 794:Drivers/GD32F1xx_standard_peripheral/Source/gd32f10x_sdio.c **** /*!
 795:Drivers/GD32F1xx_standard_peripheral/Source/gd32f10x_sdio.c ****     \brief      enable the CE-ATA command completion signal(CE-ATA only)
 796:Drivers/GD32F1xx_standard_peripheral/Source/gd32f10x_sdio.c ****     \param[in]  none
 797:Drivers/GD32F1xx_standard_peripheral/Source/gd32f10x_sdio.c ****     \param[out] none
 798:Drivers/GD32F1xx_standard_peripheral/Source/gd32f10x_sdio.c ****     \retval     none
 799:Drivers/GD32F1xx_standard_peripheral/Source/gd32f10x_sdio.c **** */
 800:Drivers/GD32F1xx_standard_peripheral/Source/gd32f10x_sdio.c **** void sdio_ceata_command_completion_enable(void)
 801:Drivers/GD32F1xx_standard_peripheral/Source/gd32f10x_sdio.c **** {
 1488              		.loc 1 801 0
 1489              		.cfi_startproc
 1490              		@ args = 0, pretend = 0, frame = 0
 1491              		@ frame_needed = 0, uses_anonymous_args = 0
 1492              		@ link register save eliminated.
 802:Drivers/GD32F1xx_standard_peripheral/Source/gd32f10x_sdio.c ****     SDIO_CMDCTL |= SDIO_CMDCTL_ENCMDC;
 1493              		.loc 1 802 0
 1494 0000 024A     		ldr	r2, .L153
 1495 0002 1368     		ldr	r3, [r2]
 1496 0004 43F48053 		orr	r3, r3, #4096
 1497 0008 1360     		str	r3, [r2]
 1498 000a 7047     		bx	lr
 1499              	.L154:
 1500              		.align	2
 1501              	.L153:
 1502 000c 0C800140 		.word	1073840140
 1503              		.cfi_endproc
 1504              	.LFE109:
 1506              		.section	.text.sdio_ceata_command_completion_disable,"ax",%progbits
 1507              		.align	1
ARM GAS  /tmp/ccmXVnoL.s 			page 40


 1508              		.global	sdio_ceata_command_completion_disable
 1509              		.syntax unified
 1510              		.thumb
 1511              		.thumb_func
 1512              		.fpu softvfp
 1514              	sdio_ceata_command_completion_disable:
 1515              	.LFB110:
 803:Drivers/GD32F1xx_standard_peripheral/Source/gd32f10x_sdio.c **** }
 804:Drivers/GD32F1xx_standard_peripheral/Source/gd32f10x_sdio.c **** 
 805:Drivers/GD32F1xx_standard_peripheral/Source/gd32f10x_sdio.c **** /*!
 806:Drivers/GD32F1xx_standard_peripheral/Source/gd32f10x_sdio.c ****     \brief      disable the CE-ATA command completion signal(CE-ATA only)
 807:Drivers/GD32F1xx_standard_peripheral/Source/gd32f10x_sdio.c ****     \param[in]  none
 808:Drivers/GD32F1xx_standard_peripheral/Source/gd32f10x_sdio.c ****     \param[out] none
 809:Drivers/GD32F1xx_standard_peripheral/Source/gd32f10x_sdio.c ****     \retval     none
 810:Drivers/GD32F1xx_standard_peripheral/Source/gd32f10x_sdio.c **** */
 811:Drivers/GD32F1xx_standard_peripheral/Source/gd32f10x_sdio.c **** void sdio_ceata_command_completion_disable(void)
 812:Drivers/GD32F1xx_standard_peripheral/Source/gd32f10x_sdio.c **** {
 1516              		.loc 1 812 0
 1517              		.cfi_startproc
 1518              		@ args = 0, pretend = 0, frame = 0
 1519              		@ frame_needed = 0, uses_anonymous_args = 0
 1520              		@ link register save eliminated.
 813:Drivers/GD32F1xx_standard_peripheral/Source/gd32f10x_sdio.c ****     SDIO_CMDCTL &= ~SDIO_CMDCTL_ENCMDC;
 1521              		.loc 1 813 0
 1522 0000 024A     		ldr	r2, .L156
 1523 0002 1368     		ldr	r3, [r2]
 1524 0004 23F48053 		bic	r3, r3, #4096
 1525 0008 1360     		str	r3, [r2]
 1526 000a 7047     		bx	lr
 1527              	.L157:
 1528              		.align	2
 1529              	.L156:
 1530 000c 0C800140 		.word	1073840140
 1531              		.cfi_endproc
 1532              	.LFE110:
 1534              		.text
 1535              	.Letext0:
 1536              		.file 2 "/usr/include/newlib/machine/_default_types.h"
 1537              		.file 3 "/usr/include/newlib/sys/_stdint.h"
 1538              		.file 4 "Drivers/CMSIS/core_cm3.h"
 1539              		.file 5 "Drivers/CMSIS/GD/GD32F1xx/Include/system_gd32f10x.h"
 1540              		.file 6 "Drivers/CMSIS/GD/GD32F1xx/Include/gd32f10x.h"
ARM GAS  /tmp/ccmXVnoL.s 			page 41


DEFINED SYMBOLS
                            *ABS*:0000000000000000 gd32f10x_sdio.c
     /tmp/ccmXVnoL.s:16     .text.sdio_deinit:0000000000000000 $t
     /tmp/ccmXVnoL.s:23     .text.sdio_deinit:0000000000000000 sdio_deinit
     /tmp/ccmXVnoL.s:63     .text.sdio_deinit:0000000000000028 $d
     /tmp/ccmXVnoL.s:68     .text.sdio_clock_config:0000000000000000 $t
     /tmp/ccmXVnoL.s:75     .text.sdio_clock_config:0000000000000000 sdio_clock_config
     /tmp/ccmXVnoL.s:118    .text.sdio_clock_config:000000000000001c $d
     /tmp/ccmXVnoL.s:123    .text.sdio_hardware_clock_enable:0000000000000000 $t
     /tmp/ccmXVnoL.s:130    .text.sdio_hardware_clock_enable:0000000000000000 sdio_hardware_clock_enable
     /tmp/ccmXVnoL.s:146    .text.sdio_hardware_clock_enable:000000000000000c $d
     /tmp/ccmXVnoL.s:151    .text.sdio_hardware_clock_disable:0000000000000000 $t
     /tmp/ccmXVnoL.s:158    .text.sdio_hardware_clock_disable:0000000000000000 sdio_hardware_clock_disable
     /tmp/ccmXVnoL.s:174    .text.sdio_hardware_clock_disable:000000000000000c $d
     /tmp/ccmXVnoL.s:179    .text.sdio_bus_mode_set:0000000000000000 $t
     /tmp/ccmXVnoL.s:186    .text.sdio_bus_mode_set:0000000000000000 sdio_bus_mode_set
     /tmp/ccmXVnoL.s:208    .text.sdio_bus_mode_set:0000000000000014 $d
     /tmp/ccmXVnoL.s:213    .text.sdio_power_state_set:0000000000000000 $t
     /tmp/ccmXVnoL.s:220    .text.sdio_power_state_set:0000000000000000 sdio_power_state_set
     /tmp/ccmXVnoL.s:235    .text.sdio_power_state_set:0000000000000008 $d
     /tmp/ccmXVnoL.s:240    .text.sdio_power_state_get:0000000000000000 $t
     /tmp/ccmXVnoL.s:247    .text.sdio_power_state_get:0000000000000000 sdio_power_state_get
     /tmp/ccmXVnoL.s:262    .text.sdio_power_state_get:0000000000000008 $d
     /tmp/ccmXVnoL.s:267    .text.sdio_clock_enable:0000000000000000 $t
     /tmp/ccmXVnoL.s:274    .text.sdio_clock_enable:0000000000000000 sdio_clock_enable
     /tmp/ccmXVnoL.s:290    .text.sdio_clock_enable:000000000000000c $d
     /tmp/ccmXVnoL.s:295    .text.sdio_clock_disable:0000000000000000 $t
     /tmp/ccmXVnoL.s:302    .text.sdio_clock_disable:0000000000000000 sdio_clock_disable
     /tmp/ccmXVnoL.s:318    .text.sdio_clock_disable:000000000000000c $d
     /tmp/ccmXVnoL.s:323    .text.sdio_command_response_config:0000000000000000 $t
     /tmp/ccmXVnoL.s:330    .text.sdio_command_response_config:0000000000000000 sdio_command_response_config
     /tmp/ccmXVnoL.s:375    .text.sdio_command_response_config:0000000000000020 $d
     /tmp/ccmXVnoL.s:381    .text.sdio_wait_type_set:0000000000000000 $t
     /tmp/ccmXVnoL.s:388    .text.sdio_wait_type_set:0000000000000000 sdio_wait_type_set
     /tmp/ccmXVnoL.s:410    .text.sdio_wait_type_set:0000000000000014 $d
     /tmp/ccmXVnoL.s:415    .text.sdio_csm_enable:0000000000000000 $t
     /tmp/ccmXVnoL.s:422    .text.sdio_csm_enable:0000000000000000 sdio_csm_enable
     /tmp/ccmXVnoL.s:438    .text.sdio_csm_enable:000000000000000c $d
     /tmp/ccmXVnoL.s:443    .text.sdio_csm_disable:0000000000000000 $t
     /tmp/ccmXVnoL.s:450    .text.sdio_csm_disable:0000000000000000 sdio_csm_disable
     /tmp/ccmXVnoL.s:466    .text.sdio_csm_disable:000000000000000c $d
     /tmp/ccmXVnoL.s:471    .text.sdio_command_index_get:0000000000000000 $t
     /tmp/ccmXVnoL.s:478    .text.sdio_command_index_get:0000000000000000 sdio_command_index_get
     /tmp/ccmXVnoL.s:494    .text.sdio_command_index_get:0000000000000008 $d
     /tmp/ccmXVnoL.s:499    .text.sdio_response_get:0000000000000000 $t
     /tmp/ccmXVnoL.s:506    .text.sdio_response_get:0000000000000000 sdio_response_get
     /tmp/ccmXVnoL.s:519    .text.sdio_response_get:0000000000000008 $d
     /tmp/ccmXVnoL.s:523    .text.sdio_response_get:000000000000000c $t
     /tmp/ccmXVnoL.s:565    .text.sdio_response_get:0000000000000028 $d
     /tmp/ccmXVnoL.s:573    .text.sdio_data_config:0000000000000000 $t
     /tmp/ccmXVnoL.s:580    .text.sdio_data_config:0000000000000000 sdio_data_config
     /tmp/ccmXVnoL.s:631    .text.sdio_data_config:000000000000002c $d
     /tmp/ccmXVnoL.s:638    .text.sdio_data_transfer_config:0000000000000000 $t
     /tmp/ccmXVnoL.s:645    .text.sdio_data_transfer_config:0000000000000000 sdio_data_transfer_config
     /tmp/ccmXVnoL.s:671    .text.sdio_data_transfer_config:0000000000000010 $d
     /tmp/ccmXVnoL.s:676    .text.sdio_dsm_enable:0000000000000000 $t
     /tmp/ccmXVnoL.s:683    .text.sdio_dsm_enable:0000000000000000 sdio_dsm_enable
ARM GAS  /tmp/ccmXVnoL.s 			page 42


     /tmp/ccmXVnoL.s:699    .text.sdio_dsm_enable:000000000000000c $d
     /tmp/ccmXVnoL.s:704    .text.sdio_dsm_disable:0000000000000000 $t
     /tmp/ccmXVnoL.s:711    .text.sdio_dsm_disable:0000000000000000 sdio_dsm_disable
     /tmp/ccmXVnoL.s:727    .text.sdio_dsm_disable:000000000000000c $d
     /tmp/ccmXVnoL.s:732    .text.sdio_data_write:0000000000000000 $t
     /tmp/ccmXVnoL.s:739    .text.sdio_data_write:0000000000000000 sdio_data_write
     /tmp/ccmXVnoL.s:754    .text.sdio_data_write:0000000000000008 $d
     /tmp/ccmXVnoL.s:759    .text.sdio_data_read:0000000000000000 $t
     /tmp/ccmXVnoL.s:766    .text.sdio_data_read:0000000000000000 sdio_data_read
     /tmp/ccmXVnoL.s:781    .text.sdio_data_read:0000000000000008 $d
     /tmp/ccmXVnoL.s:786    .text.sdio_data_counter_get:0000000000000000 $t
     /tmp/ccmXVnoL.s:793    .text.sdio_data_counter_get:0000000000000000 sdio_data_counter_get
     /tmp/ccmXVnoL.s:808    .text.sdio_data_counter_get:0000000000000008 $d
     /tmp/ccmXVnoL.s:813    .text.sdio_fifo_counter_get:0000000000000000 $t
     /tmp/ccmXVnoL.s:820    .text.sdio_fifo_counter_get:0000000000000000 sdio_fifo_counter_get
     /tmp/ccmXVnoL.s:835    .text.sdio_fifo_counter_get:0000000000000008 $d
     /tmp/ccmXVnoL.s:840    .text.sdio_dma_enable:0000000000000000 $t
     /tmp/ccmXVnoL.s:847    .text.sdio_dma_enable:0000000000000000 sdio_dma_enable
     /tmp/ccmXVnoL.s:863    .text.sdio_dma_enable:000000000000000c $d
     /tmp/ccmXVnoL.s:868    .text.sdio_dma_disable:0000000000000000 $t
     /tmp/ccmXVnoL.s:875    .text.sdio_dma_disable:0000000000000000 sdio_dma_disable
     /tmp/ccmXVnoL.s:891    .text.sdio_dma_disable:000000000000000c $d
     /tmp/ccmXVnoL.s:896    .text.sdio_flag_get:0000000000000000 $t
     /tmp/ccmXVnoL.s:903    .text.sdio_flag_get:0000000000000000 sdio_flag_get
     /tmp/ccmXVnoL.s:930    .text.sdio_flag_get:0000000000000010 $d
     /tmp/ccmXVnoL.s:935    .text.sdio_flag_clear:0000000000000000 $t
     /tmp/ccmXVnoL.s:942    .text.sdio_flag_clear:0000000000000000 sdio_flag_clear
     /tmp/ccmXVnoL.s:957    .text.sdio_flag_clear:0000000000000008 $d
     /tmp/ccmXVnoL.s:962    .text.sdio_interrupt_enable:0000000000000000 $t
     /tmp/ccmXVnoL.s:969    .text.sdio_interrupt_enable:0000000000000000 sdio_interrupt_enable
     /tmp/ccmXVnoL.s:987    .text.sdio_interrupt_enable:000000000000000c $d
     /tmp/ccmXVnoL.s:992    .text.sdio_interrupt_disable:0000000000000000 $t
     /tmp/ccmXVnoL.s:999    .text.sdio_interrupt_disable:0000000000000000 sdio_interrupt_disable
     /tmp/ccmXVnoL.s:1017   .text.sdio_interrupt_disable:000000000000000c $d
     /tmp/ccmXVnoL.s:1022   .text.sdio_interrupt_flag_get:0000000000000000 $t
     /tmp/ccmXVnoL.s:1029   .text.sdio_interrupt_flag_get:0000000000000000 sdio_interrupt_flag_get
     /tmp/ccmXVnoL.s:1071   .text.sdio_interrupt_flag_get:000000000000001c $d
     /tmp/ccmXVnoL.s:1077   .text.sdio_interrupt_flag_clear:0000000000000000 $t
     /tmp/ccmXVnoL.s:1084   .text.sdio_interrupt_flag_clear:0000000000000000 sdio_interrupt_flag_clear
     /tmp/ccmXVnoL.s:1099   .text.sdio_interrupt_flag_clear:0000000000000008 $d
     /tmp/ccmXVnoL.s:1104   .text.sdio_readwait_enable:0000000000000000 $t
     /tmp/ccmXVnoL.s:1111   .text.sdio_readwait_enable:0000000000000000 sdio_readwait_enable
     /tmp/ccmXVnoL.s:1127   .text.sdio_readwait_enable:000000000000000c $d
     /tmp/ccmXVnoL.s:1132   .text.sdio_readwait_disable:0000000000000000 $t
     /tmp/ccmXVnoL.s:1139   .text.sdio_readwait_disable:0000000000000000 sdio_readwait_disable
     /tmp/ccmXVnoL.s:1155   .text.sdio_readwait_disable:000000000000000c $d
     /tmp/ccmXVnoL.s:1160   .text.sdio_stop_readwait_enable:0000000000000000 $t
     /tmp/ccmXVnoL.s:1167   .text.sdio_stop_readwait_enable:0000000000000000 sdio_stop_readwait_enable
     /tmp/ccmXVnoL.s:1183   .text.sdio_stop_readwait_enable:000000000000000c $d
     /tmp/ccmXVnoL.s:1188   .text.sdio_stop_readwait_disable:0000000000000000 $t
     /tmp/ccmXVnoL.s:1195   .text.sdio_stop_readwait_disable:0000000000000000 sdio_stop_readwait_disable
     /tmp/ccmXVnoL.s:1211   .text.sdio_stop_readwait_disable:000000000000000c $d
     /tmp/ccmXVnoL.s:1216   .text.sdio_readwait_type_set:0000000000000000 $t
     /tmp/ccmXVnoL.s:1223   .text.sdio_readwait_type_set:0000000000000000 sdio_readwait_type_set
     /tmp/ccmXVnoL.s:1250   .text.sdio_readwait_type_set:0000000000000020 $d
     /tmp/ccmXVnoL.s:1255   .text.sdio_operation_enable:0000000000000000 $t
     /tmp/ccmXVnoL.s:1262   .text.sdio_operation_enable:0000000000000000 sdio_operation_enable
ARM GAS  /tmp/ccmXVnoL.s 			page 43


     /tmp/ccmXVnoL.s:1278   .text.sdio_operation_enable:000000000000000c $d
     /tmp/ccmXVnoL.s:1283   .text.sdio_operation_disable:0000000000000000 $t
     /tmp/ccmXVnoL.s:1290   .text.sdio_operation_disable:0000000000000000 sdio_operation_disable
     /tmp/ccmXVnoL.s:1306   .text.sdio_operation_disable:000000000000000c $d
     /tmp/ccmXVnoL.s:1311   .text.sdio_suspend_enable:0000000000000000 $t
     /tmp/ccmXVnoL.s:1318   .text.sdio_suspend_enable:0000000000000000 sdio_suspend_enable
     /tmp/ccmXVnoL.s:1334   .text.sdio_suspend_enable:000000000000000c $d
     /tmp/ccmXVnoL.s:1339   .text.sdio_suspend_disable:0000000000000000 $t
     /tmp/ccmXVnoL.s:1346   .text.sdio_suspend_disable:0000000000000000 sdio_suspend_disable
     /tmp/ccmXVnoL.s:1362   .text.sdio_suspend_disable:000000000000000c $d
     /tmp/ccmXVnoL.s:1367   .text.sdio_ceata_command_enable:0000000000000000 $t
     /tmp/ccmXVnoL.s:1374   .text.sdio_ceata_command_enable:0000000000000000 sdio_ceata_command_enable
     /tmp/ccmXVnoL.s:1390   .text.sdio_ceata_command_enable:000000000000000c $d
     /tmp/ccmXVnoL.s:1395   .text.sdio_ceata_command_disable:0000000000000000 $t
     /tmp/ccmXVnoL.s:1402   .text.sdio_ceata_command_disable:0000000000000000 sdio_ceata_command_disable
     /tmp/ccmXVnoL.s:1418   .text.sdio_ceata_command_disable:000000000000000c $d
     /tmp/ccmXVnoL.s:1423   .text.sdio_ceata_interrupt_enable:0000000000000000 $t
     /tmp/ccmXVnoL.s:1430   .text.sdio_ceata_interrupt_enable:0000000000000000 sdio_ceata_interrupt_enable
     /tmp/ccmXVnoL.s:1446   .text.sdio_ceata_interrupt_enable:000000000000000c $d
     /tmp/ccmXVnoL.s:1451   .text.sdio_ceata_interrupt_disable:0000000000000000 $t
     /tmp/ccmXVnoL.s:1458   .text.sdio_ceata_interrupt_disable:0000000000000000 sdio_ceata_interrupt_disable
     /tmp/ccmXVnoL.s:1474   .text.sdio_ceata_interrupt_disable:000000000000000c $d
     /tmp/ccmXVnoL.s:1479   .text.sdio_ceata_command_completion_enable:0000000000000000 $t
     /tmp/ccmXVnoL.s:1486   .text.sdio_ceata_command_completion_enable:0000000000000000 sdio_ceata_command_completion_enable
     /tmp/ccmXVnoL.s:1502   .text.sdio_ceata_command_completion_enable:000000000000000c $d
     /tmp/ccmXVnoL.s:1507   .text.sdio_ceata_command_completion_disable:0000000000000000 $t
     /tmp/ccmXVnoL.s:1514   .text.sdio_ceata_command_completion_disable:0000000000000000 sdio_ceata_command_completion_disable
     /tmp/ccmXVnoL.s:1530   .text.sdio_ceata_command_completion_disable:000000000000000c $d
                     .debug_frame:0000000000000010 $d

NO UNDEFINED SYMBOLS
